{
  "_format": "hh-sol-artifact-1",
  "contractName": "BallotStorage",
  "sourceName": "contracts/storage/BallotStorage.sol",
  "abi": [
    {
      "inputs": [
        {
          "internalType": "address",
          "name": "_registry",
          "type": "address"
        }
      ],
      "stateMutability": "nonpayable",
      "type": "constructor"
    },
    {
      "anonymous": false,
      "inputs": [
        {
          "indexed": true,
          "internalType": "uint256",
          "name": "ballotId",
          "type": "uint256"
        }
      ],
      "name": "BallotCanceled",
      "type": "event"
    },
    {
      "anonymous": false,
      "inputs": [
        {
          "indexed": true,
          "internalType": "uint256",
          "name": "ballotId",
          "type": "uint256"
        },
        {
          "indexed": true,
          "internalType": "uint256",
          "name": "ballotType",
          "type": "uint256"
        },
        {
          "indexed": true,
          "internalType": "address",
          "name": "creator",
          "type": "address"
        }
      ],
      "name": "BallotCreated",
      "type": "event"
    },
    {
      "anonymous": false,
      "inputs": [
        {
          "indexed": true,
          "internalType": "uint256",
          "name": "ballotId",
          "type": "uint256"
        },
        {
          "indexed": false,
          "internalType": "uint256",
          "name": "state",
          "type": "uint256"
        }
      ],
      "name": "BallotFinalized",
      "type": "event"
    },
    {
      "anonymous": false,
      "inputs": [
        {
          "indexed": true,
          "internalType": "uint256",
          "name": "ballotId",
          "type": "uint256"
        },
        {
          "indexed": true,
          "internalType": "uint256",
          "name": "startTime",
          "type": "uint256"
        },
        {
          "indexed": true,
          "internalType": "uint256",
          "name": "endTime",
          "type": "uint256"
        }
      ],
      "name": "BallotStarted",
      "type": "event"
    },
    {
      "anonymous": false,
      "inputs": [
        {
          "indexed": true,
          "internalType": "uint256",
          "name": "ballotId",
          "type": "uint256"
        },
        {
          "indexed": true,
          "internalType": "address",
          "name": "updatedBy",
          "type": "address"
        }
      ],
      "name": "BallotUpdated",
      "type": "event"
    },
    {
      "anonymous": false,
      "inputs": [
        {
          "indexed": false,
          "internalType": "uint8",
          "name": "version",
          "type": "uint8"
        }
      ],
      "name": "Initialized",
      "type": "event"
    },
    {
      "anonymous": false,
      "inputs": [
        {
          "indexed": true,
          "internalType": "address",
          "name": "previousOwner",
          "type": "address"
        },
        {
          "indexed": true,
          "internalType": "address",
          "name": "newOwner",
          "type": "address"
        }
      ],
      "name": "OwnershipTransferred",
      "type": "event"
    },
    {
      "anonymous": false,
      "inputs": [
        {
          "indexed": true,
          "internalType": "uint256",
          "name": "voteid",
          "type": "uint256"
        },
        {
          "indexed": true,
          "internalType": "uint256",
          "name": "ballotId",
          "type": "uint256"
        },
        {
          "indexed": true,
          "internalType": "address",
          "name": "voter",
          "type": "address"
        },
        {
          "indexed": false,
          "internalType": "uint256",
          "name": "decision",
          "type": "uint256"
        }
      ],
      "name": "Voted",
      "type": "event"
    },
    {
      "inputs": [],
      "name": "BALLOT_STORAGE_NAME",
      "outputs": [
        {
          "internalType": "bytes32",
          "name": "",
          "type": "bytes32"
        }
      ],
      "stateMutability": "view",
      "type": "function"
    },
    {
      "inputs": [],
      "name": "ENV_STORAGE_NAME",
      "outputs": [
        {
          "internalType": "bytes32",
          "name": "",
          "type": "bytes32"
        }
      ],
      "stateMutability": "view",
      "type": "function"
    },
    {
      "inputs": [],
      "name": "GOV_NAME",
      "outputs": [
        {
          "internalType": "bytes32",
          "name": "",
          "type": "bytes32"
        }
      ],
      "stateMutability": "view",
      "type": "function"
    },
    {
      "inputs": [],
      "name": "MAINTENANCE_NAME",
      "outputs": [
        {
          "internalType": "bytes32",
          "name": "",
          "type": "bytes32"
        }
      ],
      "stateMutability": "view",
      "type": "function"
    },
    {
      "inputs": [],
      "name": "REWARD_POOL_NAME",
      "outputs": [
        {
          "internalType": "bytes32",
          "name": "",
          "type": "bytes32"
        }
      ],
      "stateMutability": "view",
      "type": "function"
    },
    {
      "inputs": [],
      "name": "STAKING_NAME",
      "outputs": [
        {
          "internalType": "bytes32",
          "name": "",
          "type": "bytes32"
        }
      ],
      "stateMutability": "view",
      "type": "function"
    },
    {
      "inputs": [
        {
          "internalType": "uint256",
          "name": "_ballotId",
          "type": "uint256"
        }
      ],
      "name": "cancelBallot",
      "outputs": [],
      "stateMutability": "nonpayable",
      "type": "function"
    },
    {
      "inputs": [
        {
          "internalType": "uint256",
          "name": "_id",
          "type": "uint256"
        },
        {
          "internalType": "uint256",
          "name": "_ballotType",
          "type": "uint256"
        },
        {
          "internalType": "uint256",
          "name": "_duration",
          "type": "uint256"
        },
        {
          "internalType": "address",
          "name": "_creator",
          "type": "address"
        },
        {
          "internalType": "address",
          "name": "_newGovernanceAddress",
          "type": "address"
        }
      ],
      "name": "createBallotForAddress",
      "outputs": [
        {
          "internalType": "uint256",
          "name": "",
          "type": "uint256"
        }
      ],
      "stateMutability": "nonpayable",
      "type": "function"
    },
    {
      "inputs": [
        {
          "internalType": "uint256",
          "name": "_id",
          "type": "uint256"
        },
        {
          "internalType": "uint256",
          "name": "_ballotType",
          "type": "uint256"
        },
        {
          "internalType": "uint256",
          "name": "_duration",
          "type": "uint256"
        },
        {
          "internalType": "address",
          "name": "_creator",
          "type": "address"
        },
        {
          "internalType": "address",
          "name": "_oldStakerAddress",
          "type": "address"
        },
        {
          "internalType": "address",
          "name": "_newStakerAddress",
          "type": "address"
        },
        {
          "internalType": "address",
          "name": "_newVoterAddress",
          "type": "address"
        },
        {
          "internalType": "address",
          "name": "_newRewardAddress",
          "type": "address"
        },
        {
          "internalType": "bytes",
          "name": "_newNodeName",
          "type": "bytes"
        },
        {
          "internalType": "bytes",
          "name": "_newNodeId",
          "type": "bytes"
        },
        {
          "internalType": "bytes",
          "name": "_newNodeIp",
          "type": "bytes"
        },
        {
          "internalType": "uint256",
          "name": "_newNodePort",
          "type": "uint256"
        }
      ],
      "name": "createBallotForMember",
      "outputs": [],
      "stateMutability": "nonpayable",
      "type": "function"
    },
    {
      "inputs": [
        {
          "internalType": "uint256",
          "name": "_id",
          "type": "uint256"
        },
        {
          "internalType": "uint256",
          "name": "_ballotType",
          "type": "uint256"
        },
        {
          "internalType": "uint256",
          "name": "_duration",
          "type": "uint256"
        },
        {
          "internalType": "address",
          "name": "_creator",
          "type": "address"
        },
        {
          "internalType": "bytes32",
          "name": "_envVariableName",
          "type": "bytes32"
        },
        {
          "internalType": "uint256",
          "name": "_envVariableType",
          "type": "uint256"
        },
        {
          "internalType": "bytes",
          "name": "_envVariableValue",
          "type": "bytes"
        }
      ],
      "name": "createBallotForVariable",
      "outputs": [
        {
          "internalType": "uint256",
          "name": "",
          "type": "uint256"
        }
      ],
      "stateMutability": "nonpayable",
      "type": "function"
    },
    {
      "inputs": [
        {
          "internalType": "uint256",
          "name": "_voteId",
          "type": "uint256"
        },
        {
          "internalType": "uint256",
          "name": "_ballotId",
          "type": "uint256"
        },
        {
          "internalType": "address",
          "name": "_voter",
          "type": "address"
        },
        {
          "internalType": "uint256",
          "name": "_decision",
          "type": "uint256"
        },
        {
          "internalType": "uint256",
          "name": "_power",
          "type": "uint256"
        }
      ],
      "name": "createVote",
      "outputs": [],
      "stateMutability": "nonpayable",
      "type": "function"
    },
    {
      "inputs": [
        {
          "internalType": "uint256",
          "name": "_ballotId",
          "type": "uint256"
        },
        {
          "internalType": "uint256",
          "name": "_ballotState",
          "type": "uint256"
        }
      ],
      "name": "finalizeBallot",
      "outputs": [],
      "stateMutability": "nonpayable",
      "type": "function"
    },
    {
      "inputs": [
        {
          "internalType": "uint256",
          "name": "_id",
          "type": "uint256"
        }
      ],
      "name": "getBallotAddress",
      "outputs": [
        {
          "internalType": "address",
          "name": "newGovernanceAddress",
          "type": "address"
        }
      ],
      "stateMutability": "view",
      "type": "function"
    },
    {
      "inputs": [
        {
          "internalType": "uint256",
          "name": "_id",
          "type": "uint256"
        }
      ],
      "name": "getBallotBasic",
      "outputs": [
        {
          "internalType": "uint256",
          "name": "startTime",
          "type": "uint256"
        },
        {
          "internalType": "uint256",
          "name": "endTime",
          "type": "uint256"
        },
        {
          "internalType": "uint256",
          "name": "ballotType",
          "type": "uint256"
        },
        {
          "internalType": "address",
          "name": "creator",
          "type": "address"
        },
        {
          "internalType": "bytes",
          "name": "memo",
          "type": "bytes"
        },
        {
          "internalType": "uint256",
          "name": "totalVoters",
          "type": "uint256"
        },
        {
          "internalType": "uint256",
          "name": "powerOfAccepts",
          "type": "uint256"
        },
        {
          "internalType": "uint256",
          "name": "powerOfRejects",
          "type": "uint256"
        },
        {
          "internalType": "uint256",
          "name": "state",
          "type": "uint256"
        },
        {
          "internalType": "bool",
          "name": "isFinalized",
          "type": "bool"
        },
        {
          "internalType": "uint256",
          "name": "duration",
          "type": "uint256"
        }
      ],
      "stateMutability": "view",
      "type": "function"
    },
    {
      "inputs": [],
      "name": "getBallotCount",
      "outputs": [
        {
          "internalType": "uint256",
          "name": "",
          "type": "uint256"
        }
      ],
      "stateMutability": "view",
      "type": "function"
    },
    {
      "inputs": [
        {
          "internalType": "uint256",
          "name": "_id",
          "type": "uint256"
        }
      ],
      "name": "getBallotMember",
      "outputs": [
        {
          "internalType": "address",
          "name": "oldStakerAddress",
          "type": "address"
        },
        {
          "internalType": "address",
          "name": "newStakerAddress",
          "type": "address"
        },
        {
          "internalType": "address",
          "name": "newVoterAddress",
          "type": "address"
        },
        {
          "internalType": "address",
          "name": "newRewardAddress",
          "type": "address"
        },
        {
          "internalType": "bytes",
          "name": "newNodeName",
          "type": "bytes"
        },
        {
          "internalType": "bytes",
          "name": "newNodeId",
          "type": "bytes"
        },
        {
          "internalType": "bytes",
          "name": "newNodeIp",
          "type": "bytes"
        },
        {
          "internalType": "uint256",
          "name": "newNodePort",
          "type": "uint256"
        },
        {
          "internalType": "uint256",
          "name": "lockAmount",
          "type": "uint256"
        }
      ],
      "stateMutability": "view",
      "type": "function"
    },
    {
      "inputs": [
        {
          "internalType": "uint256",
          "name": "_id",
          "type": "uint256"
        }
      ],
      "name": "getBallotPeriod",
      "outputs": [
        {
          "internalType": "uint256",
          "name": "startTime",
          "type": "uint256"
        },
        {
          "internalType": "uint256",
          "name": "endTime",
          "type": "uint256"
        },
        {
          "internalType": "uint256",
          "name": "duration",
          "type": "uint256"
        }
      ],
      "stateMutability": "view",
      "type": "function"
    },
    {
      "inputs": [
        {
          "internalType": "uint256",
          "name": "_id",
          "type": "uint256"
        }
      ],
      "name": "getBallotState",
      "outputs": [
        {
          "internalType": "uint256",
          "name": "ballotType",
          "type": "uint256"
        },
        {
          "internalType": "uint256",
          "name": "state",
          "type": "uint256"
        },
        {
          "internalType": "bool",
          "name": "isFinalized",
          "type": "bool"
        }
      ],
      "stateMutability": "view",
      "type": "function"
    },
    {
      "inputs": [
        {
          "internalType": "uint256",
          "name": "_id",
          "type": "uint256"
        }
      ],
      "name": "getBallotVariable",
      "outputs": [
        {
          "internalType": "bytes32",
          "name": "envVariableName",
          "type": "bytes32"
        },
        {
          "internalType": "uint256",
          "name": "envVariableType",
          "type": "uint256"
        },
        {
          "internalType": "bytes",
          "name": "envVariableValue",
          "type": "bytes"
        }
      ],
      "stateMutability": "view",
      "type": "function"
    },
    {
      "inputs": [
        {
          "internalType": "uint256",
          "name": "_id",
          "type": "uint256"
        }
      ],
      "name": "getBallotVotingInfo",
      "outputs": [
        {
          "internalType": "uint256",
          "name": "totalVoters",
          "type": "uint256"
        },
        {
          "internalType": "uint256",
          "name": "powerOfAccepts",
          "type": "uint256"
        },
        {
          "internalType": "uint256",
          "name": "powerOfRejects",
          "type": "uint256"
        }
      ],
      "stateMutability": "view",
      "type": "function"
    },
    {
      "inputs": [],
      "name": "getMaxVotingDuration",
      "outputs": [
        {
          "internalType": "uint256",
          "name": "",
          "type": "uint256"
        }
      ],
      "stateMutability": "view",
      "type": "function"
    },
    {
      "inputs": [],
      "name": "getMinVotingDuration",
      "outputs": [
        {
          "internalType": "uint256",
          "name": "",
          "type": "uint256"
        }
      ],
      "stateMutability": "view",
      "type": "function"
    },
    {
      "inputs": [],
      "name": "getPreviousBallotStorage",
      "outputs": [
        {
          "internalType": "address",
          "name": "",
          "type": "address"
        }
      ],
      "stateMutability": "view",
      "type": "function"
    },
    {
      "inputs": [],
      "name": "getTime",
      "outputs": [
        {
          "internalType": "uint256",
          "name": "",
          "type": "uint256"
        }
      ],
      "stateMutability": "view",
      "type": "function"
    },
    {
      "inputs": [
        {
          "internalType": "uint256",
          "name": "_voteId",
          "type": "uint256"
        }
      ],
      "name": "getVote",
      "outputs": [
        {
          "internalType": "uint256",
          "name": "voteId",
          "type": "uint256"
        },
        {
          "internalType": "uint256",
          "name": "ballotId",
          "type": "uint256"
        },
        {
          "internalType": "address",
          "name": "voter",
          "type": "address"
        },
        {
          "internalType": "uint256",
          "name": "decision",
          "type": "uint256"
        },
        {
          "internalType": "uint256",
          "name": "power",
          "type": "uint256"
        },
        {
          "internalType": "uint256",
          "name": "time",
          "type": "uint256"
        }
      ],
      "stateMutability": "view",
      "type": "function"
    },
    {
      "inputs": [
        {
          "internalType": "uint56",
          "name": "_ballotId",
          "type": "uint56"
        },
        {
          "internalType": "address",
          "name": "_voter",
          "type": "address"
        }
      ],
      "name": "hasAlreadyVoted",
      "outputs": [
        {
          "internalType": "bool",
          "name": "",
          "type": "bool"
        }
      ],
      "stateMutability": "view",
      "type": "function"
    },
    {
      "inputs": [],
      "name": "isDisabled",
      "outputs": [
        {
          "internalType": "bool",
          "name": "",
          "type": "bool"
        }
      ],
      "stateMutability": "view",
      "type": "function"
    },
    {
      "inputs": [],
      "name": "owner",
      "outputs": [
        {
          "internalType": "address",
          "name": "",
          "type": "address"
        }
      ],
      "stateMutability": "view",
      "type": "function"
    },
    {
      "inputs": [],
      "name": "reg",
      "outputs": [
        {
          "internalType": "contract IRegistry",
          "name": "",
          "type": "address"
        }
      ],
      "stateMutability": "view",
      "type": "function"
    },
    {
      "inputs": [],
      "name": "renounceOwnership",
      "outputs": [],
      "stateMutability": "nonpayable",
      "type": "function"
    },
    {
      "inputs": [
        {
          "internalType": "address",
          "name": "_address",
          "type": "address"
        }
      ],
      "name": "setPreviousBallotStorage",
      "outputs": [],
      "stateMutability": "nonpayable",
      "type": "function"
    },
    {
      "inputs": [
        {
          "internalType": "address",
          "name": "_addr",
          "type": "address"
        }
      ],
      "name": "setRegistry",
      "outputs": [],
      "stateMutability": "nonpayable",
      "type": "function"
    },
    {
      "inputs": [
        {
          "internalType": "uint256",
          "name": "_ballotId",
          "type": "uint256"
        },
        {
          "internalType": "uint256",
          "name": "_startTime",
          "type": "uint256"
        },
        {
          "internalType": "uint256",
          "name": "_endTime",
          "type": "uint256"
        }
      ],
      "name": "startBallot",
      "outputs": [],
      "stateMutability": "nonpayable",
      "type": "function"
    },
    {
      "inputs": [
        {
          "internalType": "address",
          "name": "newOwner",
          "type": "address"
        }
      ],
      "name": "transferOwnership",
      "outputs": [],
      "stateMutability": "nonpayable",
      "type": "function"
    },
    {
      "inputs": [
        {
          "internalType": "uint256",
          "name": "_ballotId",
          "type": "uint256"
        },
        {
          "internalType": "uint256",
          "name": "_duration",
          "type": "uint256"
        }
      ],
      "name": "updateBallotDuration",
      "outputs": [],
      "stateMutability": "nonpayable",
      "type": "function"
    },
    {
      "inputs": [
        {
          "internalType": "uint256",
          "name": "_ballotId",
          "type": "uint256"
        },
        {
          "internalType": "uint256",
          "name": "_lockAmount",
          "type": "uint256"
        }
      ],
      "name": "updateBallotMemberLockAmount",
      "outputs": [],
      "stateMutability": "nonpayable",
      "type": "function"
    },
    {
      "inputs": [
        {
          "internalType": "uint256",
          "name": "_ballotId",
          "type": "uint256"
        },
        {
          "internalType": "bytes",
          "name": "_memo",
          "type": "bytes"
        }
      ],
      "name": "updateBallotMemo",
      "outputs": [],
      "stateMutability": "nonpayable",
      "type": "function"
    }
  ],
  "bytecode": "0x60806040526000606d553480156200001657600080fd5b50604051620039173803806200391783398101604081905262000039916200018e565b620000443362000056565b6200004f81620000a8565b50620001c0565b603380546001600160a01b038381166001600160a01b0319831681179093556040519116919082907f8be0079c531659141344cd1fd0a4f28419497f9722a3daafe3b4186f6b6457e090600090a35050565b620000b262000130565b6001600160a01b0381166200010e5760405162461bcd60e51b815260206004820152601a60248201527f416464726573732073686f756c64206265206e6f6e2d7a65726f00000000000060448201526064015b60405180910390fd5b606580546001600160a01b0319166001600160a01b0392909216919091179055565b6033546001600160a01b031633146200018c5760405162461bcd60e51b815260206004820181905260248201527f4f776e61626c653a2063616c6c6572206973206e6f7420746865206f776e6572604482015260640162000105565b565b600060208284031215620001a157600080fd5b81516001600160a01b0381168114620001b957600080fd5b9392505050565b61374780620001d06000396000f3fe608060405234801561001057600080fd5b50600436106102275760003560e01c8063715018a611610130578063a91e59ba116100b8578063c0b6f1861161007c578063c0b6f18614610566578063ce04b9d414610579578063daacbb9514610581578063f2fde38b14610594578063f680e555146105a757600080fd5b8063a91e59ba14610514578063a91ee0dc14610527578063b23c676c1461053a578063b47414951461054b578063bce0dbc11461055357600080fd5b80637bf46530116100ff5780637bf46530146104995780637efa9ae3146104ad5780638da5cb5b146104d957806396462b9c146104ea5780639986e4b9146104fd57600080fd5b8063715018a61461042b57806372d0ec9214610433578063738fdd1a1461044657806373df4e011461047157600080fd5b80634a57823e116101b35780635a55c1f0116101825780635a55c1f014610366578063656bc633146103b4578063688ca5b2146103c75780636c57f5a9146103f75780636c78d2cf1461040f57600080fd5b80634a57823e146103255780634bd1ed7614610338578063557ed1ba1461034d57806356ba988e1461035357600080fd5b80631c150171116101fa5780631c150171146102c35780631d940da2146102cb5780631e0cba0d146102ed5780632a74f38c146102fe5780632f40992e1461031157600080fd5b806302b385fb1461022c578063099706881461025f5780630a3a63fe1461028d578063155ca224146102ae575b600080fd5b61023f61023a366004612fdd565b6105eb565b6040516102569b9a99989796959493929190613616565b60405180910390f35b61027261026d366004612fdd565b6107b6565b60408051938452602084019290925290820152606001610256565b6102a061029b3660046130ed565b610916565b604051908152602001610256565b6102c16102bc366004612fdd565b610a2e565b005b6102a0610b8f565b6102de6102d9366004612fdd565b610c0e565b604051610256939291906133ee565b6102a0665374616b696e6760c81b81565b6102c161030c366004612f9c565b610cc6565b6102a06914995dd85c99141bdbdb60b21b81565b6102a061033336600461325d565b610d38565b6102a06a4d61696e74656e616e636560a81b81565b426102a0565b610272610361366004612fdd565b610e3f565b610379610374366004612fdd565b610f90565b6040805196875260208701959095526001600160a01b03909316938501939093526060840152608083019190915260a082015260c001610256565b6102c16103c2366004613056565b61105e565b6103da6103d5366004612fdd565b611271565b604080519384526020840192909252151590820152606001610256565b6103ff6113c7565b6040519015158152602001610256565b6102a07111dbdd995c9b985b98d950dbdb9d1c9858dd60721b81565b6102c16113eb565b6102c1610441366004613056565b6113ff565b606554610459906001600160a01b031681565b6040516001600160a01b039091168152602001610256565b61048461047f366004612fdd565b611599565b6040516102569998979695949392919061336f565b6102a069456e7653746f7261676560b01b81565b6104596104bb366004612fdd565b6000908152606860205260409020600101546001600160a01b031690565b6033546001600160a01b0316610459565b6102c16104f8366004613078565b6117a6565b6102a06c42616c6c6f7453746f7261676560981b81565b6102c1610522366004613056565b611a91565b6102c1610535366004612f9c565b611c0f565b606c546001600160a01b0316610459565b606d546102a0565b6102c161056136600461300f565b611c8f565b6102c16105743660046130c1565b611dd4565b6102a0611fb4565b6102c161058f366004613143565b611ff6565b6102c16105a2366004612f9c565b612306565b6103ff6105b53660046132dd565b66ffffffffffffff82166000908152606b602090815260408083206001600160a01b038516845290915290205460ff1692915050565b60008060008060606000806000806000806000606660008e815260200190815260200160002060405180610180016040529081600082015481526020016001820154815260200160028201548152602001600382015481526020016004820160009054906101000a90046001600160a01b03166001600160a01b03166001600160a01b03168152602001600582018054610684906136ab565b80601f01602080910402602001604051908101604052809291908181526020018280546106b0906136ab565b80156106fd5780601f106106d2576101008083540402835291602001916106fd565b820191906000526020600020905b8154815290600101906020018083116106e057829003601f168201915b5050505050815260200160068201548152602001600782015481526020016008820154815260200160098201548152602001600a820160009054906101000a900460ff16151515158152602001600b82015481525050905080602001519b5080604001519a5080606001519950806080015198508060a0015197508060c0015196508060e00151955080610100015194508061012001519350806101400151925080610160015191505091939597999b90929496989a50565b6000818152606660209081526040808320815161018081018352815481526001820154938101939093526002810154918301919091526003810154606083015260048101546001600160a01b031660808301526005810180548493849384939192909160a0840191610827906136ab565b80601f0160208091040260200160405190810160405280929190818152602001828054610853906136ab565b80156108a05780601f10610875576101008083540402835291602001916108a0565b820191906000526020600020905b81548152906001019060200180831161088357829003601f168201915b5050505050815260200160068201548152602001600782015481526020016008820154815260200160098201548152602001600a820160009054906101000a900460ff16151515158152602001600b82015481525050905080602001519350806040015192508061016001519150509193909250565b60003361092161237f565b6001600160a01b0316146109505760405162461bcd60e51b815260040161094790613479565b60405180910390fd5b61095861239f565b6001600160a01b0316306001600160a01b0316146109885760405162461bcd60e51b81526004016109479061358f565b600485146109a85760405162461bcd60e51b8152600401610947906134d7565b6001600160a01b0382166109ce5760405162461bcd60e51b8152600401610947906135b4565b6109da868686866123ba565b506040805180820182528681526001600160a01b0392831660208083019182526000898152606890915292909220905181559051600190910180546001600160a01b03191691909216179055509192915050565b8033610a3861237f565b6001600160a01b03161480610a6657506000818152606660205260409020600401546001600160a01b031633145b610a825760405162461bcd60e51b815260040161094790613479565b610a8a61239f565b6001600160a01b0316306001600160a01b031614610aba5760405162461bcd60e51b81526004016109479061358f565b6000828152606660205260409020548214610ae75760405162461bcd60e51b815260040161094790613416565b6000828152606660205260409020600a015460ff1615610b195760405162461bcd60e51b815260040161094790613504565b600160008381526066602052604090206009015414610b4a5760405162461bcd60e51b815260040161094790613566565b60008281526066602052604090206005600982015560405183907fd5e541d004c50564e5e05fcbc6be2916c68d817507693dc3774c69dde4ce13dc90600090a2505050565b6000610b99612675565b6001600160a01b03166333be496e6040518163ffffffff1660e01b815260040160206040518083038186803b158015610bd157600080fd5b505afa158015610be5573d6000803e3d6000fd5b505050506040513d601f19601f82011682018060405250810190610c099190612ff6565b905090565b600081815260696020526040902060018101546002820154600383018054929391926060929190610c3e906136ab565b80601f0160208091040260200160405190810160405280929190818152602001828054610c6a906136ab565b8015610cb75780601f10610c8c57610100808354040283529160200191610cb7565b820191906000526020600020905b815481529060010190602001808311610c9a57829003601f168201915b50505050509150509193909250565b610cce61268d565b6001600160a01b038116610d165760405162461bcd60e51b815260206004820152600f60248201526e496e76616c6964206164647265737360881b6044820152606401610947565b606c80546001600160a01b0319166001600160a01b0392909216919091179055565b600033610d4361237f565b6001600160a01b031614610d695760405162461bcd60e51b815260040161094790613479565b610d7161239f565b6001600160a01b0316306001600160a01b031614610da15760405162461bcd60e51b81526004016109479061358f565b610dac8785846126e7565b610dc85760405162461bcd60e51b8152600401610947906135b4565b610dd4888888886123ba565b6040805160808101825289815260208082018781528284018781526060840187815260008e81526069855295909520845181559151600183015551600282015592518051929384939092610e2f926003850192910190612e66565b50999a9950505050505050505050565b6000818152606660209081526040808320815161018081018352815481526001820154938101939093526002810154918301919091526003810154606083015260048101546001600160a01b031660808301526005810180548493849384939192909160a0840191610eb0906136ab565b80601f0160208091040260200160405190810160405280929190818152602001828054610edc906136ab565b8015610f295780601f10610efe57610100808354040283529160200191610f29565b820191906000526020600020905b815481529060010190602001808311610f0c57829003601f168201915b505050918352505060068201546020820152600782015460408201526008820154606082015260098201546080820152600a82015460ff16151560a0820152600b9091015460c09182015281015160e0820151610100909201519097919650945092505050565b6000818152606a6020526040812054819081908190819081908714610fec5760405162461bcd60e51b81526020600482015260126024820152711b9bdd08195e1a5cdd1959081d9bdd19525960721b6044820152606401610947565b50505060009384525050606a6020908152604092839020835160c0810185528154808252600183015493820184905260028301546001600160a01b031695820186905260038301546060830181905260048401546080840181905260059094015460a090930183905290969395945092565b813361106861237f565b6001600160a01b0316148061109657506000818152606660205260409020600401546001600160a01b031633145b6110b25760405162461bcd60e51b815260040161094790613479565b6110ba61239f565b6001600160a01b0316306001600160a01b0316146110ea5760405162461bcd60e51b81526004016109479061358f565b81806110f4610b8f565b11156111425760405162461bcd60e51b815260206004820152601c60248201527f556e646572206d696e2076616c7565206f6620206475726174696f6e000000006044820152606401610947565b61114a611fb4565b8111156111995760405162461bcd60e51b815260206004820152601a60248201527f4f766572206d61782076616c7565206f66206475726174696f6e0000000000006044820152606401610947565b60008481526066602052604090205484146111c65760405162461bcd60e51b815260040161094790613416565b6000848152606660205260409020600a015460ff16156111f85760405162461bcd60e51b815260040161094790613504565b6001600085815260666020526040902060090154146112295760405162461bcd60e51b815260040161094790613566565b600084815260666020526040808220600b810186905590519091339187917ff0855c0e0ad9b8a162b87f2e4e07d4b2a3f0a45126b15ff4a78b217ad19a901a91a35050505050565b6000818152606660209081526040808320815161018081018352815481526001820154938101939093526002810154918301919091526003810154606083015260048101546001600160a01b031660808301526005810180548493849384939192909160a08401916112e2906136ab565b80601f016020809104026020016040519081016040528092919081815260200182805461130e906136ab565b801561135b5780601f106113305761010080835404028352916020019161135b565b820191906000526020600020905b81548152906001019060200180831161133e57829003601f168201915b50505091835250506006820154602082015260078201546040820152600882015460608083019190915260098301546080830152600a83015460ff16151560a0830152600b9092015460c090910152810151610120820151610140909201519097919650945092505050565b60006113d161239f565b6001600160a01b0316306001600160a01b03161415905090565b6113f361268d565b6113fd60006127c6565b565b3361140861237f565b6001600160a01b03161461142e5760405162461bcd60e51b815260040161094790613479565b61143661239f565b6001600160a01b0316306001600160a01b0316146114665760405162461bcd60e51b81526004016109479061358f565b60008281526066602052604090205482146114935760405162461bcd60e51b815260040161094790613416565b60008281526067602052604090205482146114f05760405162461bcd60e51b815260206004820152601860248201527f6e6f7420657869737465642042616c6c6f744d656d62657200000000000000006044820152606401610947565b6000828152606660205260409020600a015460ff16156115225760405162461bcd60e51b815260040161094790613504565b6001600083815260666020526040902060090154146115535760405162461bcd60e51b815260040161094790613566565b6000828152606760205260408082206009810184905590519091339185917ff0855c0e0ad9b8a162b87f2e4e07d4b2a3f0a45126b15ff4a78b217ad19a901a91a3505050565b600081815260676020526040812060018101546002820154600383015460048401546005850180546001600160a01b0395861697948616969386169590921693606093849384938392916115ec906136ab565b80601f0160208091040260200160405190810160405280929190818152602001828054611618906136ab565b80156116655780601f1061163a57610100808354040283529160200191611665565b820191906000526020600020905b81548152906001019060200180831161164857829003601f168201915b5050505050955080600601805461167b906136ab565b80601f01602080910402602001604051908101604052809291908181526020018280546116a7906136ab565b80156116f45780601f106116c9576101008083540402835291602001916116f4565b820191906000526020600020905b8154815290600101906020018083116116d757829003601f168201915b5050505050945080600701805461170a906136ab565b80601f0160208091040260200160405190810160405280929190818152602001828054611736906136ab565b80156117835780601f1061175857610100808354040283529160200191611783565b820191906000526020600020905b81548152906001019060200180831161176657829003601f168201915b505050505093508060080154925080600901549150509193959799909294969850565b336117af61237f565b6001600160a01b0316146117d55760405162461bcd60e51b815260040161094790613479565b6117dd61239f565b6001600160a01b0316306001600160a01b03161461180d5760405162461bcd60e51b81526004016109479061358f565b600182148061181c5750600282145b61185b5760405162461bcd60e51b815260206004820152601060248201526f24b73b30b634b2103232b1b4b9b4b7b760811b6044820152606401610947565b60008481526066602052604090205484146118885760405162461bcd60e51b815260040161094790613416565b6000858152606a60205260409020548514156118df5760405162461bcd60e51b8152602060048201526016602482015275185b1c9958591e48195e1a5cdd1959081d9bdd19525960521b6044820152606401610947565b6000848152606b602090815260408083206001600160a01b038716845290915290205460ff16156119425760405162461bcd60e51b815260206004820152600d60248201526c185b1c9958591e481d9bdd1959609a1b6044820152606401610947565b60026000858152606660205260409020600901541461199a5760405162461bcd60e51b81526020600482015260146024820152734e6f7420496e50726f677265737320537461746560601b6044820152606401610947565b6040518060c00160405280868152602001858152602001846001600160a01b031681526020018381526020018281526020016119d34290565b90526000868152606a602090815260409182902083518155908301516001820155908201516002820180546001600160a01b0319166001600160a01b03909216919091179055606082015160038201556080820151600482015560a090910151600590910155611a4584848484612818565b826001600160a01b031684867f41df84b3b467b06744e40c92613c666324e7c640ce0a41ec06efdf602d36760685604051611a8291815260200190565b60405180910390a45050505050565b33611a9a61237f565b6001600160a01b031614611ac05760405162461bcd60e51b815260040161094790613479565b611ac861239f565b6001600160a01b0316306001600160a01b031614611af85760405162461bcd60e51b81526004016109479061358f565b6000828152606660205260409020548214611b255760405162461bcd60e51b815260040161094790613416565b6000828152606660205260409020600a015460ff1615611b575760405162461bcd60e51b815260040161094790613504565b6003811480611b665750600481145b611ba95760405162461bcd60e51b8152602060048201526014602482015273496e76616c69642042616c6c6f7420537461746560601b6044820152606401610947565b6000828152606660205260409081902060098101839055600a8101805460ff19166001179055905183907fdc921f027328d7238b58d77649ebcbd0c8b1c494c66ba53dfe53e0de65f6dd9f90611c029085815260200190565b60405180910390a2505050565b611c1761268d565b6001600160a01b038116611c6d5760405162461bcd60e51b815260206004820152601a60248201527f416464726573732073686f756c64206265206e6f6e2d7a65726f0000000000006044820152606401610947565b606580546001600160a01b0319166001600160a01b0392909216919091179055565b8133611c9961237f565b6001600160a01b03161480611cc757506000818152606660205260409020600401546001600160a01b031633145b611ce35760405162461bcd60e51b815260040161094790613479565b611ceb61239f565b6001600160a01b0316306001600160a01b031614611d1b5760405162461bcd60e51b81526004016109479061358f565b6000838152606660205260409020548314611d485760405162461bcd60e51b815260040161094790613416565b6000838152606660205260409020600a015460ff1615611d7a5760405162461bcd60e51b815260040161094790613504565b600083815260666020908152604090912083519091611da0916005840191860190612e66565b50604051339085907ff0855c0e0ad9b8a162b87f2e4e07d4b2a3f0a45126b15ff4a78b217ad19a901a90600090a350505050565b33611ddd61237f565b6001600160a01b031614611e035760405162461bcd60e51b815260040161094790613479565b611e0b61239f565b6001600160a01b0316306001600160a01b031614611e3b5760405162461bcd60e51b81526004016109479061358f565b8181600082118015611e4d5750600081115b611e8d5760405162461bcd60e51b815260206004820152601160248201527007374617274206f7220656e64206973203607c1b6044820152606401610947565b818111611ecb5760405162461bcd60e51b815260206004820152600c60248201526b1cdd185c9d080f8f48195b9960a21b6044820152606401610947565b6000858152606660205260409020548514611ef85760405162461bcd60e51b815260040161094790613416565b6000858152606660205260409020600a015460ff1615611f2a5760405162461bcd60e51b815260040161094790613504565b600160008681526066602052604090206009015414611f5b5760405162461bcd60e51b815260040161094790613566565b600085815260666020526040902060018101859055600280820185905560098201556040518490869088907fd9938a514dab5cdce149a77493f694bd70c24a4833a278fd4d86fbdf859099c590600090a4505050505050565b6000611fbe612675565b6001600160a01b0316631b27e01b6040518163ffffffff1660e01b815260040160206040518083038186803b158015610bd157600080fd5b33611fff61237f565b6001600160a01b0316146120255760405162461bcd60e51b815260040161094790613479565b61202d61239f565b6001600160a01b0316306001600160a01b03161461205d5760405162461bcd60e51b81526004016109479061358f565b61206e8b8989898989898989612981565b61208a5760405162461bcd60e51b8152600401610947906135b4565b6120968c8c8c8c6123ba565b6121106040518061014001604052806000815260200160006001600160a01b0316815260200160006001600160a01b0316815260200160006001600160a01b0316815260200160006001600160a01b0316815260200160608152602001606081526020016060815260200160008152602001600081525090565b8c8160000181815250508881602001906001600160a01b031690816001600160a01b0316815250508781604001906001600160a01b031690816001600160a01b0316815250508681606001906001600160a01b031690816001600160a01b0316815250508581608001906001600160a01b031690816001600160a01b031681525050848160a00181905250838160c00181905250828160e00181905250818161010001818152505080606760008f81526020019081526020016000206000820151816000015560208201518160010160006101000a8154816001600160a01b0302191690836001600160a01b0316021790555060408201518160020160006101000a8154816001600160a01b0302191690836001600160a01b0316021790555060608201518160030160006101000a8154816001600160a01b0302191690836001600160a01b0316021790555060808201518160040160006101000a8154816001600160a01b0302191690836001600160a01b0316021790555060a08201518160050190805190602001906122a6929190612e66565b5060c082015180516122c2916006840191602090910190612e66565b5060e082015180516122de916007840191602090910190612e66565b5061010082015160088201556101209091015160099091015550505050505050505050505050565b61230e61268d565b6001600160a01b0381166123735760405162461bcd60e51b815260206004820152602660248201527f4f776e61626c653a206e6577206f776e657220697320746865207a65726f206160448201526564647265737360d01b6064820152608401610947565b61237c816127c6565b50565b6000610c097111dbdd995c9b985b98d950dbdb9d1c9858dd60721b612de3565b6000610c096c42616c6c6f7453746f7261676560981b612de3565b81806123c4610b8f565b11156124125760405162461bcd60e51b815260206004820152601c60248201527f556e646572206d696e2076616c7565206f6620206475726174696f6e000000006044820152606401610947565b61241a611fb4565b8111156124695760405162461bcd60e51b815260206004820152601a60248201527f4f766572206d61782076616c7565206f66206475726174696f6e0000000000006044820152606401610947565b6000858152606660205260409020548514156124c05760405162461bcd60e51b8152602060048201526016602482015275105b1c9958591e48195e1a5cdd19590818985b1b1bdd60521b6044820152606401610947565b61252f6040518061018001604052806000815260200160008152602001600081526020016000815260200160006001600160a01b031681526020016060815260200160008152602001600081526020016000815260200160008152602001600015158152602001600081525090565b858152606081018590526001600160a01b0383166080820152600161012082015260006101408201819052610160820185905286815260666020908152604091829020835181558184015160018201559183015160028301556060830151600383015560808301516004830180546001600160a01b0319166001600160a01b0390921691909117905560a083015180518493926125d3926005850192910190612e66565b5060c0820151600682015560e0820151600782015561010082015160088201556101208201516009820155610140820151600a8201805460ff191691151591909117905561016090910151600b90910155606d54612632906001613685565b606d556040516001600160a01b03841690869088907fd1ba591c76ef71222e2d30b8277758713cc6eef1de29efaf98a716744ac2420b90600090a4505050505050565b6000610c0969456e7653746f7261676560b01b612de3565b6033546001600160a01b031633146113fd5760405162461bcd60e51b815260206004820181905260248201527f4f776e61626c653a2063616c6c6572206973206e6f7420746865206f776e65726044820152606401610947565b6000600584146127095760405162461bcd60e51b8152600401610947906134d7565b826127605760405162461bcd60e51b815260206004820152602160248201527f496e76616c696420656e7669726f6e6d656e74207661726961626c65206e616d6044820152606560f81b6064820152608401610947565b60008251116127bc5760405162461bcd60e51b815260206004820152602260248201527f496e76616c696420656e7669726f6e6d656e74207661726961626c652076616c604482015261756560f01b6064820152608401610947565b5060019392505050565b603380546001600160a01b038381166001600160a01b0319831681179093556040519116919082907f8be0079c531659141344cd1fd0a4f28419497f9722a3daafe3b4186f6b6457e090600090a35050565b60018214806128275750600282145b6128665760405162461bcd60e51b815260206004820152601060248201526f24b73b30b634b2103232b1b4b9b4b7b760811b6044820152606401610947565b60008481526066602052604090205484146128935760405162461bcd60e51b815260040161094790613416565b6000848152606b602090815260408083206001600160a01b038716845290915290205460ff16156128f65760405162461bcd60e51b815260206004820152600d60248201526c185b1c9958591e481d9bdd1959609a1b6044820152606401610947565b6000848152606660209081526040808320606b83528184206001600160a01b0388168552909252909120805460ff19166001908117909155600682015461293c91613685565b600682015560018314156129645781816007015461295a9190613685565b600782015561297a565b8181600801546129749190613685565b60088201555b5050505050565b600060018a10158015612995575060038a11155b6129b15760405162461bcd60e51b8152600401610947906134d7565b60028a1415612b71576001600160a01b0389166129e05760405162461bcd60e51b81526004016109479061352f565b6001600160a01b03881615612a075760405162461bcd60e51b8152600401610947906134a0565b6001600160a01b03871615612a2e5760405162461bcd60e51b8152600401610947906135df565b6001600160a01b03861615612a555760405162461bcd60e51b815260040161094790613442565b845115612a9c5760405162461bcd60e51b8152602060048201526015602482015274496e76616c6964206e6577206e6f6465206e616d6560581b6044820152606401610947565b835115612ae15760405162461bcd60e51b8152602060048201526013602482015272125b9d985b1a59081b995dc81b9bd919481a59606a1b6044820152606401610947565b825115612b265760405162461bcd60e51b81526020600482015260136024820152720496e76616c6964206e6577206e6f646520495606c1b6044820152606401610947565b8115612b6c5760405162461bcd60e51b8152602060048201526015602482015274125b9d985b1a59081b995dc81b9bd91948141bdc9d605a1b6044820152606401610947565b612dd3565b6000855111612bba5760405162461bcd60e51b8152602060048201526015602482015274496e76616c6964206e6577206e6f6465206e616d6560581b6044820152606401610947565b8351604014612c015760405162461bcd60e51b8152602060048201526013602482015272125b9d985b1a59081b995dc81b9bd919481a59606a1b6044820152606401610947565b6000835111612c485760405162461bcd60e51b81526020600482015260136024820152720496e76616c6964206e6577206e6f646520495606c1b6044820152606401610947565b60008211612c905760405162461bcd60e51b8152602060048201526015602482015274125b9d985b1a59081b995dc81b9bd91948141bdc9d605a1b6044820152606401610947565b60018a1415612d32576001600160a01b03891615612cc05760405162461bcd60e51b81526004016109479061352f565b6001600160a01b038816612ce65760405162461bcd60e51b8152600401610947906134a0565b6001600160a01b038716612d0c5760405162461bcd60e51b8152600401610947906135df565b6001600160a01b038616612b6c5760405162461bcd60e51b815260040161094790613442565b60038a1415612dd3576001600160a01b038916612d615760405162461bcd60e51b81526004016109479061352f565b6001600160a01b038816612d875760405162461bcd60e51b8152600401610947906134a0565b6001600160a01b038716612dad5760405162461bcd60e51b8152600401610947906135df565b6001600160a01b038616612dd35760405162461bcd60e51b815260040161094790613442565b5060019998505050505050505050565b606554604051630d2020dd60e01b8152600481018390526000916001600160a01b031690630d2020dd9060240160206040518083038186803b158015612e2857600080fd5b505afa158015612e3c573d6000803e3d6000fd5b505050506040513d601f19601f82011682018060405250810190612e609190612fc0565b92915050565b828054612e72906136ab565b90600052602060002090601f016020900481019282612e945760008555612eda565b82601f10612ead57805160ff1916838001178555612eda565b82800160010185558215612eda579182015b82811115612eda578251825591602001919060010190612ebf565b50612ee6929150612eea565b5090565b5b80821115612ee65760008155600101612eeb565b8035612f0a816136fc565b919050565b600082601f830112612f2057600080fd5b813567ffffffffffffffff80821115612f3b57612f3b6136e6565b604051601f8301601f19908116603f01168101908282118183101715612f6357612f636136e6565b81604052838152866020858801011115612f7c57600080fd5b836020870160208301376000602085830101528094505050505092915050565b600060208284031215612fae57600080fd5b8135612fb9816136fc565b9392505050565b600060208284031215612fd257600080fd5b8151612fb9816136fc565b600060208284031215612fef57600080fd5b5035919050565b60006020828403121561300857600080fd5b5051919050565b6000806040838503121561302257600080fd5b82359150602083013567ffffffffffffffff81111561304057600080fd5b61304c85828601612f0f565b9150509250929050565b6000806040838503121561306957600080fd5b50508035926020909101359150565b600080600080600060a0868803121561309057600080fd5b853594506020860135935060408601356130a9816136fc565b94979396509394606081013594506080013592915050565b6000806000606084860312156130d657600080fd5b505081359360208301359350604090920135919050565b600080600080600060a0868803121561310557600080fd5b8535945060208601359350604086013592506060860135613125816136fc565b91506080860135613135816136fc565b809150509295509295909350565b6000806000806000806000806000806000806101808d8f03121561316657600080fd5b8c359b5060208d01359a5060408d0135995061318460608e01612eff565b985061319260808e01612eff565b97506131a060a08e01612eff565b96506131ae60c08e01612eff565b95506131bc60e08e01612eff565b945067ffffffffffffffff6101008e013511156131d857600080fd5b6131e98e6101008f01358f01612f0f565b935067ffffffffffffffff6101208e0135111561320557600080fd5b6132168e6101208f01358f01612f0f565b925067ffffffffffffffff6101408e0135111561323257600080fd5b6132438e6101408f01358f01612f0f565b91506101608d013590509295989b509295989b509295989b565b600080600080600080600060e0888a03121561327857600080fd5b8735965060208801359550604088013594506060880135613298816136fc565b93506080880135925060a0880135915060c088013567ffffffffffffffff8111156132c257600080fd5b6132ce8a828b01612f0f565b91505092959891949750929550565b600080604083850312156132f057600080fd5b823566ffffffffffffff8116811461330757600080fd5b91506020830135613317816136fc565b809150509250929050565b6000815180845260005b818110156133485760208185018101518683018201520161332c565b8181111561335a576000602083870101525b50601f01601f19169290920160200192915050565b6001600160a01b038a811682528981166020830152888116604083015287166060820152610120608082018190526000906133ac83820189613322565b905082810360a08401526133c08188613322565b905082810360c08401526133d48187613322565b60e084019590955250506101000152979650505050505050565b83815282602082015260606040820152600061340d6060830184613322565b95945050505050565b6020808252601290820152711b9bdd08195e1a5cdd19590810985b1b1bdd60721b604082015260600190565b6020808252601a908201527f496e76616c6964206e6577207265776172642061646472657373000000000000604082015260600190565b6020808252600d908201526c2737902832b936b4b9b9b4b7b760991b604082015260600190565b6020808252601a908201527f496e76616c6964206e6577207374616b65722061646472657373000000000000604082015260600190565b602080825260139082015272496e76616c69642042616c6c6f74205479706560681b604082015260600190565b602080825260119082015270185b1c9958591e48199a5b985b1a5e9959607a1b604082015260600190565b6020808252601a908201527f496e76616c6964206f6c64207374616b65722061646472657373000000000000604082015260600190565b6020808252600f908201526e4e6f7420526561647920537461746560881b604082015260600190565b6020808252600b908201526a125cc8111a5cd8589b195960aa1b604082015260600190565b60208082526011908201527024b73b30b634b2102830b930b6b2ba32b960791b604082015260600190565b60208082526019908201527f496e76616c6964206e657720766f746572206164647265737300000000000000604082015260600190565b60006101608d83528c60208401528b604084015260018060a01b038b16606084015280608084015261364a8184018b613322565b60a0840199909952505060c081019590955260e085019390935261010084019190915215156101208301526101409091015295945050505050565b600082198211156136a657634e487b7160e01b600052601160045260246000fd5b500190565b600181811c908216806136bf57607f821691505b602082108114156136e057634e487b7160e01b600052602260045260246000fd5b50919050565b634e487b7160e01b600052604160045260246000fd5b6001600160a01b038116811461237c57600080fdfea26469706673582212207d2c2da5c54f244fadcd0192b6854f8020ecd98e0c3d363cfe2259028bbdbfbb64736f6c63430008060033",
  "linkReferences": {},
  "deployedLinkReferences": {}
}