{
  "_format": "hh-sol-artifact-1",
  "contractName": "BallotStorage",
  "sourceName": "contracts/storage/BallotStorage.sol",
  "abi": [
    {
      "inputs": [
        {
          "internalType": "address",
          "name": "_registry",
          "type": "address"
        }
      ],
      "stateMutability": "nonpayable",
      "type": "constructor"
    },
    {
      "anonymous": false,
      "inputs": [
        {
          "indexed": true,
          "internalType": "uint256",
          "name": "ballotId",
          "type": "uint256"
        }
      ],
      "name": "BallotCanceled",
      "type": "event"
    },
    {
      "anonymous": false,
      "inputs": [
        {
          "indexed": true,
          "internalType": "uint256",
          "name": "ballotId",
          "type": "uint256"
        },
        {
          "indexed": true,
          "internalType": "uint256",
          "name": "ballotType",
          "type": "uint256"
        },
        {
          "indexed": true,
          "internalType": "address",
          "name": "creator",
          "type": "address"
        }
      ],
      "name": "BallotCreated",
      "type": "event"
    },
    {
      "anonymous": false,
      "inputs": [
        {
          "indexed": true,
          "internalType": "uint256",
          "name": "ballotId",
          "type": "uint256"
        },
        {
          "indexed": false,
          "internalType": "uint256",
          "name": "state",
          "type": "uint256"
        }
      ],
      "name": "BallotFinalized",
      "type": "event"
    },
    {
      "anonymous": false,
      "inputs": [
        {
          "indexed": true,
          "internalType": "uint256",
          "name": "ballotId",
          "type": "uint256"
        },
        {
          "indexed": true,
          "internalType": "uint256",
          "name": "startTime",
          "type": "uint256"
        },
        {
          "indexed": true,
          "internalType": "uint256",
          "name": "endTime",
          "type": "uint256"
        }
      ],
      "name": "BallotStarted",
      "type": "event"
    },
    {
      "anonymous": false,
      "inputs": [
        {
          "indexed": true,
          "internalType": "uint256",
          "name": "ballotId",
          "type": "uint256"
        },
        {
          "indexed": true,
          "internalType": "address",
          "name": "updatedBy",
          "type": "address"
        }
      ],
      "name": "BallotUpdated",
      "type": "event"
    },
    {
      "anonymous": false,
      "inputs": [
        {
          "indexed": false,
          "internalType": "uint8",
          "name": "version",
          "type": "uint8"
        }
      ],
      "name": "Initialized",
      "type": "event"
    },
    {
      "anonymous": false,
      "inputs": [
        {
          "indexed": true,
          "internalType": "address",
          "name": "previousOwner",
          "type": "address"
        },
        {
          "indexed": true,
          "internalType": "address",
          "name": "newOwner",
          "type": "address"
        }
      ],
      "name": "OwnershipTransferred",
      "type": "event"
    },
    {
      "anonymous": false,
      "inputs": [
        {
          "indexed": true,
          "internalType": "address",
          "name": "previous",
          "type": "address"
        }
      ],
      "name": "SetPrevBallotStorage",
      "type": "event"
    },
    {
      "anonymous": false,
      "inputs": [
        {
          "indexed": true,
          "internalType": "address",
          "name": "addr",
          "type": "address"
        }
      ],
      "name": "SetRegistry",
      "type": "event"
    },
    {
      "anonymous": false,
      "inputs": [
        {
          "indexed": true,
          "internalType": "uint256",
          "name": "voteid",
          "type": "uint256"
        },
        {
          "indexed": true,
          "internalType": "uint256",
          "name": "ballotId",
          "type": "uint256"
        },
        {
          "indexed": true,
          "internalType": "address",
          "name": "voter",
          "type": "address"
        },
        {
          "indexed": false,
          "internalType": "uint256",
          "name": "decision",
          "type": "uint256"
        }
      ],
      "name": "Voted",
      "type": "event"
    },
    {
      "inputs": [],
      "name": "BALLOT_STORAGE_NAME",
      "outputs": [
        {
          "internalType": "bytes32",
          "name": "",
          "type": "bytes32"
        }
      ],
      "stateMutability": "view",
      "type": "function"
    },
    {
      "inputs": [],
      "name": "ENV_STORAGE_NAME",
      "outputs": [
        {
          "internalType": "bytes32",
          "name": "",
          "type": "bytes32"
        }
      ],
      "stateMutability": "view",
      "type": "function"
    },
    {
      "inputs": [],
      "name": "GOV_NAME",
      "outputs": [
        {
          "internalType": "bytes32",
          "name": "",
          "type": "bytes32"
        }
      ],
      "stateMutability": "view",
      "type": "function"
    },
    {
      "inputs": [],
      "name": "MAINTENANCE_NAME",
      "outputs": [
        {
          "internalType": "bytes32",
          "name": "",
          "type": "bytes32"
        }
      ],
      "stateMutability": "view",
      "type": "function"
    },
    {
      "inputs": [],
      "name": "REWARD_POOL_NAME",
      "outputs": [
        {
          "internalType": "bytes32",
          "name": "",
          "type": "bytes32"
        }
      ],
      "stateMutability": "view",
      "type": "function"
    },
    {
      "inputs": [],
      "name": "STAKING_NAME",
      "outputs": [
        {
          "internalType": "bytes32",
          "name": "",
          "type": "bytes32"
        }
      ],
      "stateMutability": "view",
      "type": "function"
    },
    {
      "inputs": [
        {
          "internalType": "uint256",
          "name": "_ballotId",
          "type": "uint256"
        }
      ],
      "name": "cancelBallot",
      "outputs": [],
      "stateMutability": "nonpayable",
      "type": "function"
    },
    {
      "inputs": [
        {
          "internalType": "uint256",
          "name": "_id",
          "type": "uint256"
        },
        {
          "internalType": "uint256",
          "name": "_ballotType",
          "type": "uint256"
        },
        {
          "internalType": "uint256",
          "name": "_duration",
          "type": "uint256"
        },
        {
          "internalType": "address",
          "name": "_creator",
          "type": "address"
        },
        {
          "internalType": "address",
          "name": "_newGovernanceAddress",
          "type": "address"
        }
      ],
      "name": "createBallotForAddress",
      "outputs": [
        {
          "internalType": "uint256",
          "name": "",
          "type": "uint256"
        }
      ],
      "stateMutability": "nonpayable",
      "type": "function"
    },
    {
      "inputs": [
        {
          "internalType": "uint256",
          "name": "_id",
          "type": "uint256"
        },
        {
          "internalType": "uint256",
          "name": "_ballotType",
          "type": "uint256"
        },
        {
          "internalType": "uint256",
          "name": "_duration",
          "type": "uint256"
        },
        {
          "internalType": "address",
          "name": "_creator",
          "type": "address"
        },
        {
          "internalType": "address",
          "name": "_oldStakerAddress",
          "type": "address"
        },
        {
          "internalType": "address",
          "name": "_newStakerAddress",
          "type": "address"
        },
        {
          "internalType": "address",
          "name": "_newVoterAddress",
          "type": "address"
        },
        {
          "internalType": "address",
          "name": "_newRewardAddress",
          "type": "address"
        },
        {
          "internalType": "bytes",
          "name": "_newNodeName",
          "type": "bytes"
        },
        {
          "internalType": "bytes",
          "name": "_newNodeId",
          "type": "bytes"
        },
        {
          "internalType": "bytes",
          "name": "_newNodeIp",
          "type": "bytes"
        },
        {
          "internalType": "uint256",
          "name": "_newNodePort",
          "type": "uint256"
        }
      ],
      "name": "createBallotForMember",
      "outputs": [],
      "stateMutability": "nonpayable",
      "type": "function"
    },
    {
      "inputs": [
        {
          "internalType": "uint256",
          "name": "_id",
          "type": "uint256"
        },
        {
          "internalType": "uint256",
          "name": "_ballotType",
          "type": "uint256"
        },
        {
          "internalType": "uint256",
          "name": "_duration",
          "type": "uint256"
        },
        {
          "internalType": "address",
          "name": "_creator",
          "type": "address"
        },
        {
          "internalType": "bytes32",
          "name": "_envVariableName",
          "type": "bytes32"
        },
        {
          "internalType": "uint256",
          "name": "_envVariableType",
          "type": "uint256"
        },
        {
          "internalType": "bytes",
          "name": "_envVariableValue",
          "type": "bytes"
        }
      ],
      "name": "createBallotForVariable",
      "outputs": [
        {
          "internalType": "uint256",
          "name": "",
          "type": "uint256"
        }
      ],
      "stateMutability": "nonpayable",
      "type": "function"
    },
    {
      "inputs": [
        {
          "internalType": "uint256",
          "name": "_voteId",
          "type": "uint256"
        },
        {
          "internalType": "uint256",
          "name": "_ballotId",
          "type": "uint256"
        },
        {
          "internalType": "address",
          "name": "_voter",
          "type": "address"
        },
        {
          "internalType": "uint256",
          "name": "_decision",
          "type": "uint256"
        },
        {
          "internalType": "uint256",
          "name": "_power",
          "type": "uint256"
        }
      ],
      "name": "createVote",
      "outputs": [],
      "stateMutability": "nonpayable",
      "type": "function"
    },
    {
      "inputs": [
        {
          "internalType": "uint256",
          "name": "_ballotId",
          "type": "uint256"
        },
        {
          "internalType": "uint256",
          "name": "_ballotState",
          "type": "uint256"
        }
      ],
      "name": "finalizeBallot",
      "outputs": [],
      "stateMutability": "nonpayable",
      "type": "function"
    },
    {
      "inputs": [
        {
          "internalType": "uint256",
          "name": "_id",
          "type": "uint256"
        }
      ],
      "name": "getBallotAddress",
      "outputs": [
        {
          "internalType": "address",
          "name": "newGovernanceAddress",
          "type": "address"
        }
      ],
      "stateMutability": "view",
      "type": "function"
    },
    {
      "inputs": [
        {
          "internalType": "uint256",
          "name": "_id",
          "type": "uint256"
        }
      ],
      "name": "getBallotBasic",
      "outputs": [
        {
          "internalType": "uint256",
          "name": "startTime",
          "type": "uint256"
        },
        {
          "internalType": "uint256",
          "name": "endTime",
          "type": "uint256"
        },
        {
          "internalType": "uint256",
          "name": "ballotType",
          "type": "uint256"
        },
        {
          "internalType": "address",
          "name": "creator",
          "type": "address"
        },
        {
          "internalType": "bytes",
          "name": "memo",
          "type": "bytes"
        },
        {
          "internalType": "uint256",
          "name": "totalVoters",
          "type": "uint256"
        },
        {
          "internalType": "uint256",
          "name": "powerOfAccepts",
          "type": "uint256"
        },
        {
          "internalType": "uint256",
          "name": "powerOfRejects",
          "type": "uint256"
        },
        {
          "internalType": "uint256",
          "name": "state",
          "type": "uint256"
        },
        {
          "internalType": "bool",
          "name": "isFinalized",
          "type": "bool"
        },
        {
          "internalType": "uint256",
          "name": "duration",
          "type": "uint256"
        }
      ],
      "stateMutability": "view",
      "type": "function"
    },
    {
      "inputs": [],
      "name": "getBallotCount",
      "outputs": [
        {
          "internalType": "uint256",
          "name": "",
          "type": "uint256"
        }
      ],
      "stateMutability": "view",
      "type": "function"
    },
    {
      "inputs": [
        {
          "internalType": "uint256",
          "name": "_id",
          "type": "uint256"
        }
      ],
      "name": "getBallotMember",
      "outputs": [
        {
          "internalType": "address",
          "name": "oldStakerAddress",
          "type": "address"
        },
        {
          "internalType": "address",
          "name": "newStakerAddress",
          "type": "address"
        },
        {
          "internalType": "address",
          "name": "newVoterAddress",
          "type": "address"
        },
        {
          "internalType": "address",
          "name": "newRewardAddress",
          "type": "address"
        },
        {
          "internalType": "bytes",
          "name": "newNodeName",
          "type": "bytes"
        },
        {
          "internalType": "bytes",
          "name": "newNodeId",
          "type": "bytes"
        },
        {
          "internalType": "bytes",
          "name": "newNodeIp",
          "type": "bytes"
        },
        {
          "internalType": "uint256",
          "name": "newNodePort",
          "type": "uint256"
        },
        {
          "internalType": "uint256",
          "name": "lockAmount",
          "type": "uint256"
        }
      ],
      "stateMutability": "view",
      "type": "function"
    },
    {
      "inputs": [
        {
          "internalType": "uint256",
          "name": "_id",
          "type": "uint256"
        }
      ],
      "name": "getBallotPeriod",
      "outputs": [
        {
          "internalType": "uint256",
          "name": "startTime",
          "type": "uint256"
        },
        {
          "internalType": "uint256",
          "name": "endTime",
          "type": "uint256"
        },
        {
          "internalType": "uint256",
          "name": "duration",
          "type": "uint256"
        }
      ],
      "stateMutability": "view",
      "type": "function"
    },
    {
      "inputs": [
        {
          "internalType": "uint256",
          "name": "_id",
          "type": "uint256"
        }
      ],
      "name": "getBallotState",
      "outputs": [
        {
          "internalType": "uint256",
          "name": "ballotType",
          "type": "uint256"
        },
        {
          "internalType": "uint256",
          "name": "state",
          "type": "uint256"
        },
        {
          "internalType": "bool",
          "name": "isFinalized",
          "type": "bool"
        }
      ],
      "stateMutability": "view",
      "type": "function"
    },
    {
      "inputs": [
        {
          "internalType": "uint256",
          "name": "_id",
          "type": "uint256"
        }
      ],
      "name": "getBallotVariable",
      "outputs": [
        {
          "internalType": "bytes32",
          "name": "envVariableName",
          "type": "bytes32"
        },
        {
          "internalType": "uint256",
          "name": "envVariableType",
          "type": "uint256"
        },
        {
          "internalType": "bytes",
          "name": "envVariableValue",
          "type": "bytes"
        }
      ],
      "stateMutability": "view",
      "type": "function"
    },
    {
      "inputs": [
        {
          "internalType": "uint256",
          "name": "_id",
          "type": "uint256"
        }
      ],
      "name": "getBallotVotingInfo",
      "outputs": [
        {
          "internalType": "uint256",
          "name": "totalVoters",
          "type": "uint256"
        },
        {
          "internalType": "uint256",
          "name": "powerOfAccepts",
          "type": "uint256"
        },
        {
          "internalType": "uint256",
          "name": "powerOfRejects",
          "type": "uint256"
        }
      ],
      "stateMutability": "view",
      "type": "function"
    },
    {
      "inputs": [],
      "name": "getMaxVotingDuration",
      "outputs": [
        {
          "internalType": "uint256",
          "name": "",
          "type": "uint256"
        }
      ],
      "stateMutability": "view",
      "type": "function"
    },
    {
      "inputs": [],
      "name": "getMinVotingDuration",
      "outputs": [
        {
          "internalType": "uint256",
          "name": "",
          "type": "uint256"
        }
      ],
      "stateMutability": "view",
      "type": "function"
    },
    {
      "inputs": [],
      "name": "getPreviousBallotStorage",
      "outputs": [
        {
          "internalType": "address",
          "name": "",
          "type": "address"
        }
      ],
      "stateMutability": "view",
      "type": "function"
    },
    {
      "inputs": [],
      "name": "getTime",
      "outputs": [
        {
          "internalType": "uint256",
          "name": "",
          "type": "uint256"
        }
      ],
      "stateMutability": "view",
      "type": "function"
    },
    {
      "inputs": [
        {
          "internalType": "uint256",
          "name": "_voteId",
          "type": "uint256"
        }
      ],
      "name": "getVote",
      "outputs": [
        {
          "internalType": "uint256",
          "name": "voteId",
          "type": "uint256"
        },
        {
          "internalType": "uint256",
          "name": "ballotId",
          "type": "uint256"
        },
        {
          "internalType": "address",
          "name": "voter",
          "type": "address"
        },
        {
          "internalType": "uint256",
          "name": "decision",
          "type": "uint256"
        },
        {
          "internalType": "uint256",
          "name": "power",
          "type": "uint256"
        },
        {
          "internalType": "uint256",
          "name": "time",
          "type": "uint256"
        }
      ],
      "stateMutability": "view",
      "type": "function"
    },
    {
      "inputs": [
        {
          "internalType": "uint56",
          "name": "_ballotId",
          "type": "uint56"
        },
        {
          "internalType": "address",
          "name": "_voter",
          "type": "address"
        }
      ],
      "name": "hasAlreadyVoted",
      "outputs": [
        {
          "internalType": "bool",
          "name": "",
          "type": "bool"
        }
      ],
      "stateMutability": "view",
      "type": "function"
    },
    {
      "inputs": [],
      "name": "isDisabled",
      "outputs": [
        {
          "internalType": "bool",
          "name": "",
          "type": "bool"
        }
      ],
      "stateMutability": "view",
      "type": "function"
    },
    {
      "inputs": [],
      "name": "owner",
      "outputs": [
        {
          "internalType": "address",
          "name": "",
          "type": "address"
        }
      ],
      "stateMutability": "view",
      "type": "function"
    },
    {
      "inputs": [],
      "name": "reg",
      "outputs": [
        {
          "internalType": "contract IRegistry",
          "name": "",
          "type": "address"
        }
      ],
      "stateMutability": "view",
      "type": "function"
    },
    {
      "inputs": [],
      "name": "renounceOwnership",
      "outputs": [],
      "stateMutability": "nonpayable",
      "type": "function"
    },
    {
      "inputs": [
        {
          "internalType": "address",
          "name": "_address",
          "type": "address"
        }
      ],
      "name": "setPreviousBallotStorage",
      "outputs": [],
      "stateMutability": "nonpayable",
      "type": "function"
    },
    {
      "inputs": [
        {
          "internalType": "address",
          "name": "_addr",
          "type": "address"
        }
      ],
      "name": "setRegistry",
      "outputs": [],
      "stateMutability": "nonpayable",
      "type": "function"
    },
    {
      "inputs": [
        {
          "internalType": "uint256",
          "name": "_ballotId",
          "type": "uint256"
        },
        {
          "internalType": "uint256",
          "name": "_startTime",
          "type": "uint256"
        },
        {
          "internalType": "uint256",
          "name": "_endTime",
          "type": "uint256"
        }
      ],
      "name": "startBallot",
      "outputs": [],
      "stateMutability": "nonpayable",
      "type": "function"
    },
    {
      "inputs": [
        {
          "internalType": "address",
          "name": "newOwner",
          "type": "address"
        }
      ],
      "name": "transferOwnership",
      "outputs": [],
      "stateMutability": "nonpayable",
      "type": "function"
    },
    {
      "inputs": [
        {
          "internalType": "uint256",
          "name": "_ballotId",
          "type": "uint256"
        },
        {
          "internalType": "uint256",
          "name": "_duration",
          "type": "uint256"
        }
      ],
      "name": "updateBallotDuration",
      "outputs": [],
      "stateMutability": "nonpayable",
      "type": "function"
    },
    {
      "inputs": [
        {
          "internalType": "uint256",
          "name": "_ballotId",
          "type": "uint256"
        },
        {
          "internalType": "uint256",
          "name": "_lockAmount",
          "type": "uint256"
        }
      ],
      "name": "updateBallotMemberLockAmount",
      "outputs": [],
      "stateMutability": "nonpayable",
      "type": "function"
    },
    {
      "inputs": [
        {
          "internalType": "uint256",
          "name": "_ballotId",
          "type": "uint256"
        },
        {
          "internalType": "bytes",
          "name": "_memo",
          "type": "bytes"
        }
      ],
      "name": "updateBallotMemo",
      "outputs": [],
      "stateMutability": "nonpayable",
      "type": "function"
    }
  ],
  "bytecode": "0x60806040526000606d553480156200001657600080fd5b506040516200398f3803806200398f8339810160408190526200003991620001b6565b620000443362000056565b6200004f81620000a8565b50620001e8565b603380546001600160a01b038381166001600160a01b0319831681179093556040519116919082907f8be0079c531659141344cd1fd0a4f28419497f9722a3daafe3b4186f6b6457e090600090a35050565b620000b262000158565b6001600160a01b0381166200010e5760405162461bcd60e51b815260206004820152601a60248201527f416464726573732073686f756c64206265206e6f6e2d7a65726f00000000000060448201526064015b60405180910390fd5b606580546001600160a01b0319166001600160a01b0383169081179091556040517f278c70ced5f3e0e5eeb385b5ff9cb735748ba00a625147e66065ed48fc1562cd90600090a250565b6033546001600160a01b03163314620001b45760405162461bcd60e51b815260206004820181905260248201527f4f776e61626c653a2063616c6c6572206973206e6f7420746865206f776e6572604482015260640162000105565b565b600060208284031215620001c957600080fd5b81516001600160a01b0381168114620001e157600080fd5b9392505050565b61379780620001f86000396000f3fe608060405234801561001057600080fd5b50600436106102275760003560e01c8063715018a611610130578063a91e59ba116100b8578063c0b6f1861161007c578063c0b6f18614610566578063ce04b9d414610579578063daacbb9514610581578063f2fde38b14610594578063f680e555146105a757600080fd5b8063a91e59ba14610514578063a91ee0dc14610527578063b23c676c1461053a578063b47414951461054b578063bce0dbc11461055357600080fd5b80637bf46530116100ff5780637bf46530146104995780637efa9ae3146104ad5780638da5cb5b146104d957806396462b9c146104ea5780639986e4b9146104fd57600080fd5b8063715018a61461042b57806372d0ec9214610433578063738fdd1a1461044657806373df4e011461047157600080fd5b80634a57823e116101b35780635a55c1f0116101825780635a55c1f014610366578063656bc633146103b4578063688ca5b2146103c75780636c57f5a9146103f75780636c78d2cf1461040f57600080fd5b80634a57823e146103255780634bd1ed7614610338578063557ed1ba1461034d57806356ba988e1461035357600080fd5b80631c150171116101fa5780631c150171146102c35780631d940da2146102cb5780631e0cba0d146102ed5780632a74f38c146102fe5780632f40992e1461031157600080fd5b806302b385fb1461022c578063099706881461025f5780630a3a63fe1461028d578063155ca224146102ae575b600080fd5b61023f61023a36600461302d565b6105eb565b6040516102569b9a99989796959493929190613666565b60405180910390f35b61027261026d36600461302d565b6107b6565b60408051938452602084019290925290820152606001610256565b6102a061029b36600461313d565b610916565b604051908152602001610256565b6102c16102bc36600461302d565b610a2e565b005b6102a0610b8f565b6102de6102d936600461302d565b610c0e565b6040516102569392919061343e565b6102a0665374616b696e6760c81b81565b6102c161030c366004612fec565b610cc6565b6102a06914995dd85c99141bdbdb60b21b81565b6102a06103333660046132ad565b610d60565b6102a06a4d61696e74656e616e636560a81b81565b426102a0565b61027261036136600461302d565b610e67565b61037961037436600461302d565b610fb8565b6040805196875260208701959095526001600160a01b03909316938501939093526060840152608083019190915260a082015260c001610256565b6102c16103c23660046130a6565b611086565b6103da6103d536600461302d565b611299565b604080519384526020840192909252151590820152606001610256565b6103ff6113ef565b6040519015158152602001610256565b6102a07111dbdd995c9b985b98d950dbdb9d1c9858dd60721b81565b6102c1611413565b6102c16104413660046130a6565b611427565b606554610459906001600160a01b031681565b6040516001600160a01b039091168152602001610256565b61048461047f36600461302d565b6115c1565b604051610256999897969594939291906133bf565b6102a069456e7653746f7261676560b01b81565b6104596104bb36600461302d565b6000908152606860205260409020600101546001600160a01b031690565b6033546001600160a01b0316610459565b6102c16104f83660046130c8565b6117ce565b6102a06c42616c6c6f7453746f7261676560981b81565b6102c16105223660046130a6565b611ab9565b6102c1610535366004612fec565b611c37565b606c546001600160a01b0316610459565b606d546102a0565b6102c161056136600461305f565b611cdf565b6102c1610574366004613111565b611e24565b6102a0612004565b6102c161058f366004613193565b612046565b6102c16105a2366004612fec565b612356565b6103ff6105b536600461332d565b66ffffffffffffff82166000908152606b602090815260408083206001600160a01b038516845290915290205460ff1692915050565b60008060008060606000806000806000806000606660008e815260200190815260200160002060405180610180016040529081600082015481526020016001820154815260200160028201548152602001600382015481526020016004820160009054906101000a90046001600160a01b03166001600160a01b03166001600160a01b03168152602001600582018054610684906136fb565b80601f01602080910402602001604051908101604052809291908181526020018280546106b0906136fb565b80156106fd5780601f106106d2576101008083540402835291602001916106fd565b820191906000526020600020905b8154815290600101906020018083116106e057829003601f168201915b5050505050815260200160068201548152602001600782015481526020016008820154815260200160098201548152602001600a820160009054906101000a900460ff16151515158152602001600b82015481525050905080602001519b5080604001519a5080606001519950806080015198508060a0015197508060c0015196508060e00151955080610100015194508061012001519350806101400151925080610160015191505091939597999b90929496989a50565b6000818152606660209081526040808320815161018081018352815481526001820154938101939093526002810154918301919091526003810154606083015260048101546001600160a01b031660808301526005810180548493849384939192909160a0840191610827906136fb565b80601f0160208091040260200160405190810160405280929190818152602001828054610853906136fb565b80156108a05780601f10610875576101008083540402835291602001916108a0565b820191906000526020600020905b81548152906001019060200180831161088357829003601f168201915b5050505050815260200160068201548152602001600782015481526020016008820154815260200160098201548152602001600a820160009054906101000a900460ff16151515158152602001600b82015481525050905080602001519350806040015192508061016001519150509193909250565b6000336109216123cf565b6001600160a01b0316146109505760405162461bcd60e51b8152600401610947906134c9565b60405180910390fd5b6109586123ef565b6001600160a01b0316306001600160a01b0316146109885760405162461bcd60e51b8152600401610947906135df565b600485146109a85760405162461bcd60e51b815260040161094790613527565b6001600160a01b0382166109ce5760405162461bcd60e51b815260040161094790613604565b6109da8686868661240a565b506040805180820182528681526001600160a01b0392831660208083019182526000898152606890915292909220905181559051600190910180546001600160a01b03191691909216179055509192915050565b8033610a386123cf565b6001600160a01b03161480610a6657506000818152606660205260409020600401546001600160a01b031633145b610a825760405162461bcd60e51b8152600401610947906134c9565b610a8a6123ef565b6001600160a01b0316306001600160a01b031614610aba5760405162461bcd60e51b8152600401610947906135df565b6000828152606660205260409020548214610ae75760405162461bcd60e51b815260040161094790613466565b6000828152606660205260409020600a015460ff1615610b195760405162461bcd60e51b815260040161094790613554565b600160008381526066602052604090206009015414610b4a5760405162461bcd60e51b8152600401610947906135b6565b60008281526066602052604090206005600982015560405183907fd5e541d004c50564e5e05fcbc6be2916c68d817507693dc3774c69dde4ce13dc90600090a2505050565b6000610b996126c5565b6001600160a01b03166333be496e6040518163ffffffff1660e01b815260040160206040518083038186803b158015610bd157600080fd5b505afa158015610be5573d6000803e3d6000fd5b505050506040513d601f19601f82011682018060405250810190610c099190613046565b905090565b600081815260696020526040902060018101546002820154600383018054929391926060929190610c3e906136fb565b80601f0160208091040260200160405190810160405280929190818152602001828054610c6a906136fb565b8015610cb75780601f10610c8c57610100808354040283529160200191610cb7565b820191906000526020600020905b815481529060010190602001808311610c9a57829003601f168201915b50505050509150509193909250565b610cce6126dd565b6001600160a01b038116610d165760405162461bcd60e51b815260206004820152600f60248201526e496e76616c6964206164647265737360881b6044820152606401610947565b606c80546001600160a01b0319166001600160a01b0383169081179091556040517f3d809312b6e303291a93b307c7ddbd0960c094f5f0fb4e3ba0758775013edeb390600090a250565b600033610d6b6123cf565b6001600160a01b031614610d915760405162461bcd60e51b8152600401610947906134c9565b610d996123ef565b6001600160a01b0316306001600160a01b031614610dc95760405162461bcd60e51b8152600401610947906135df565b610dd4878584612737565b610df05760405162461bcd60e51b815260040161094790613604565b610dfc8888888861240a565b6040805160808101825289815260208082018781528284018781526060840187815260008e81526069855295909520845181559151600183015551600282015592518051929384939092610e57926003850192910190612eb6565b50999a9950505050505050505050565b6000818152606660209081526040808320815161018081018352815481526001820154938101939093526002810154918301919091526003810154606083015260048101546001600160a01b031660808301526005810180548493849384939192909160a0840191610ed8906136fb565b80601f0160208091040260200160405190810160405280929190818152602001828054610f04906136fb565b8015610f515780601f10610f2657610100808354040283529160200191610f51565b820191906000526020600020905b815481529060010190602001808311610f3457829003601f168201915b505050918352505060068201546020820152600782015460408201526008820154606082015260098201546080820152600a82015460ff16151560a0820152600b9091015460c09182015281015160e0820151610100909201519097919650945092505050565b6000818152606a60205260408120548190819081908190819087146110145760405162461bcd60e51b81526020600482015260126024820152711b9bdd08195e1a5cdd1959081d9bdd19525960721b6044820152606401610947565b50505060009384525050606a6020908152604092839020835160c0810185528154808252600183015493820184905260028301546001600160a01b031695820186905260038301546060830181905260048401546080840181905260059094015460a090930183905290969395945092565b81336110906123cf565b6001600160a01b031614806110be57506000818152606660205260409020600401546001600160a01b031633145b6110da5760405162461bcd60e51b8152600401610947906134c9565b6110e26123ef565b6001600160a01b0316306001600160a01b0316146111125760405162461bcd60e51b8152600401610947906135df565b818061111c610b8f565b111561116a5760405162461bcd60e51b815260206004820152601c60248201527f556e646572206d696e2076616c7565206f6620206475726174696f6e000000006044820152606401610947565b611172612004565b8111156111c15760405162461bcd60e51b815260206004820152601a60248201527f4f766572206d61782076616c7565206f66206475726174696f6e0000000000006044820152606401610947565b60008481526066602052604090205484146111ee5760405162461bcd60e51b815260040161094790613466565b6000848152606660205260409020600a015460ff16156112205760405162461bcd60e51b815260040161094790613554565b6001600085815260666020526040902060090154146112515760405162461bcd60e51b8152600401610947906135b6565b600084815260666020526040808220600b810186905590519091339187917ff0855c0e0ad9b8a162b87f2e4e07d4b2a3f0a45126b15ff4a78b217ad19a901a91a35050505050565b6000818152606660209081526040808320815161018081018352815481526001820154938101939093526002810154918301919091526003810154606083015260048101546001600160a01b031660808301526005810180548493849384939192909160a084019161130a906136fb565b80601f0160208091040260200160405190810160405280929190818152602001828054611336906136fb565b80156113835780601f1061135857610100808354040283529160200191611383565b820191906000526020600020905b81548152906001019060200180831161136657829003601f168201915b50505091835250506006820154602082015260078201546040820152600882015460608083019190915260098301546080830152600a83015460ff16151560a0830152600b9092015460c090910152810151610120820151610140909201519097919650945092505050565b60006113f96123ef565b6001600160a01b0316306001600160a01b03161415905090565b61141b6126dd565b6114256000612816565b565b336114306123cf565b6001600160a01b0316146114565760405162461bcd60e51b8152600401610947906134c9565b61145e6123ef565b6001600160a01b0316306001600160a01b03161461148e5760405162461bcd60e51b8152600401610947906135df565b60008281526066602052604090205482146114bb5760405162461bcd60e51b815260040161094790613466565b60008281526067602052604090205482146115185760405162461bcd60e51b815260206004820152601860248201527f6e6f7420657869737465642042616c6c6f744d656d62657200000000000000006044820152606401610947565b6000828152606660205260409020600a015460ff161561154a5760405162461bcd60e51b815260040161094790613554565b60016000838152606660205260409020600901541461157b5760405162461bcd60e51b8152600401610947906135b6565b6000828152606760205260408082206009810184905590519091339185917ff0855c0e0ad9b8a162b87f2e4e07d4b2a3f0a45126b15ff4a78b217ad19a901a91a3505050565b600081815260676020526040812060018101546002820154600383015460048401546005850180546001600160a01b039586169794861696938616959092169360609384938493839291611614906136fb565b80601f0160208091040260200160405190810160405280929190818152602001828054611640906136fb565b801561168d5780601f106116625761010080835404028352916020019161168d565b820191906000526020600020905b81548152906001019060200180831161167057829003601f168201915b505050505095508060060180546116a3906136fb565b80601f01602080910402602001604051908101604052809291908181526020018280546116cf906136fb565b801561171c5780601f106116f15761010080835404028352916020019161171c565b820191906000526020600020905b8154815290600101906020018083116116ff57829003601f168201915b50505050509450806007018054611732906136fb565b80601f016020809104026020016040519081016040528092919081815260200182805461175e906136fb565b80156117ab5780601f10611780576101008083540402835291602001916117ab565b820191906000526020600020905b81548152906001019060200180831161178e57829003601f168201915b505050505093508060080154925080600901549150509193959799909294969850565b336117d76123cf565b6001600160a01b0316146117fd5760405162461bcd60e51b8152600401610947906134c9565b6118056123ef565b6001600160a01b0316306001600160a01b0316146118355760405162461bcd60e51b8152600401610947906135df565b60018214806118445750600282145b6118835760405162461bcd60e51b815260206004820152601060248201526f24b73b30b634b2103232b1b4b9b4b7b760811b6044820152606401610947565b60008481526066602052604090205484146118b05760405162461bcd60e51b815260040161094790613466565b6000858152606a60205260409020548514156119075760405162461bcd60e51b8152602060048201526016602482015275185b1c9958591e48195e1a5cdd1959081d9bdd19525960521b6044820152606401610947565b6000848152606b602090815260408083206001600160a01b038716845290915290205460ff161561196a5760405162461bcd60e51b815260206004820152600d60248201526c185b1c9958591e481d9bdd1959609a1b6044820152606401610947565b6002600085815260666020526040902060090154146119c25760405162461bcd60e51b81526020600482015260146024820152734e6f7420496e50726f677265737320537461746560601b6044820152606401610947565b6040518060c00160405280868152602001858152602001846001600160a01b031681526020018381526020018281526020016119fb4290565b90526000868152606a602090815260409182902083518155908301516001820155908201516002820180546001600160a01b0319166001600160a01b03909216919091179055606082015160038201556080820151600482015560a090910151600590910155611a6d84848484612868565b826001600160a01b031684867f41df84b3b467b06744e40c92613c666324e7c640ce0a41ec06efdf602d36760685604051611aaa91815260200190565b60405180910390a45050505050565b33611ac26123cf565b6001600160a01b031614611ae85760405162461bcd60e51b8152600401610947906134c9565b611af06123ef565b6001600160a01b0316306001600160a01b031614611b205760405162461bcd60e51b8152600401610947906135df565b6000828152606660205260409020548214611b4d5760405162461bcd60e51b815260040161094790613466565b6000828152606660205260409020600a015460ff1615611b7f5760405162461bcd60e51b815260040161094790613554565b6003811480611b8e5750600481145b611bd15760405162461bcd60e51b8152602060048201526014602482015273496e76616c69642042616c6c6f7420537461746560601b6044820152606401610947565b6000828152606660205260409081902060098101839055600a8101805460ff19166001179055905183907fdc921f027328d7238b58d77649ebcbd0c8b1c494c66ba53dfe53e0de65f6dd9f90611c2a9085815260200190565b60405180910390a2505050565b611c3f6126dd565b6001600160a01b038116611c955760405162461bcd60e51b815260206004820152601a60248201527f416464726573732073686f756c64206265206e6f6e2d7a65726f0000000000006044820152606401610947565b606580546001600160a01b0319166001600160a01b0383169081179091556040517f278c70ced5f3e0e5eeb385b5ff9cb735748ba00a625147e66065ed48fc1562cd90600090a250565b8133611ce96123cf565b6001600160a01b03161480611d1757506000818152606660205260409020600401546001600160a01b031633145b611d335760405162461bcd60e51b8152600401610947906134c9565b611d3b6123ef565b6001600160a01b0316306001600160a01b031614611d6b5760405162461bcd60e51b8152600401610947906135df565b6000838152606660205260409020548314611d985760405162461bcd60e51b815260040161094790613466565b6000838152606660205260409020600a015460ff1615611dca5760405162461bcd60e51b815260040161094790613554565b600083815260666020908152604090912083519091611df0916005840191860190612eb6565b50604051339085907ff0855c0e0ad9b8a162b87f2e4e07d4b2a3f0a45126b15ff4a78b217ad19a901a90600090a350505050565b33611e2d6123cf565b6001600160a01b031614611e535760405162461bcd60e51b8152600401610947906134c9565b611e5b6123ef565b6001600160a01b0316306001600160a01b031614611e8b5760405162461bcd60e51b8152600401610947906135df565b8181600082118015611e9d5750600081115b611edd5760405162461bcd60e51b815260206004820152601160248201527007374617274206f7220656e64206973203607c1b6044820152606401610947565b818111611f1b5760405162461bcd60e51b815260206004820152600c60248201526b1cdd185c9d080f8f48195b9960a21b6044820152606401610947565b6000858152606660205260409020548514611f485760405162461bcd60e51b815260040161094790613466565b6000858152606660205260409020600a015460ff1615611f7a5760405162461bcd60e51b815260040161094790613554565b600160008681526066602052604090206009015414611fab5760405162461bcd60e51b8152600401610947906135b6565b600085815260666020526040902060018101859055600280820185905560098201556040518490869088907fd9938a514dab5cdce149a77493f694bd70c24a4833a278fd4d86fbdf859099c590600090a4505050505050565b600061200e6126c5565b6001600160a01b0316631b27e01b6040518163ffffffff1660e01b815260040160206040518083038186803b158015610bd157600080fd5b3361204f6123cf565b6001600160a01b0316146120755760405162461bcd60e51b8152600401610947906134c9565b61207d6123ef565b6001600160a01b0316306001600160a01b0316146120ad5760405162461bcd60e51b8152600401610947906135df565b6120be8b89898989898989896129d1565b6120da5760405162461bcd60e51b815260040161094790613604565b6120e68c8c8c8c61240a565b6121606040518061014001604052806000815260200160006001600160a01b0316815260200160006001600160a01b0316815260200160006001600160a01b0316815260200160006001600160a01b0316815260200160608152602001606081526020016060815260200160008152602001600081525090565b8c8160000181815250508881602001906001600160a01b031690816001600160a01b0316815250508781604001906001600160a01b031690816001600160a01b0316815250508681606001906001600160a01b031690816001600160a01b0316815250508581608001906001600160a01b031690816001600160a01b031681525050848160a00181905250838160c00181905250828160e00181905250818161010001818152505080606760008f81526020019081526020016000206000820151816000015560208201518160010160006101000a8154816001600160a01b0302191690836001600160a01b0316021790555060408201518160020160006101000a8154816001600160a01b0302191690836001600160a01b0316021790555060608201518160030160006101000a8154816001600160a01b0302191690836001600160a01b0316021790555060808201518160040160006101000a8154816001600160a01b0302191690836001600160a01b0316021790555060a08201518160050190805190602001906122f6929190612eb6565b5060c08201518051612312916006840191602090910190612eb6565b5060e0820151805161232e916007840191602090910190612eb6565b5061010082015160088201556101209091015160099091015550505050505050505050505050565b61235e6126dd565b6001600160a01b0381166123c35760405162461bcd60e51b815260206004820152602660248201527f4f776e61626c653a206e6577206f776e657220697320746865207a65726f206160448201526564647265737360d01b6064820152608401610947565b6123cc81612816565b50565b6000610c097111dbdd995c9b985b98d950dbdb9d1c9858dd60721b612e33565b6000610c096c42616c6c6f7453746f7261676560981b612e33565b8180612414610b8f565b11156124625760405162461bcd60e51b815260206004820152601c60248201527f556e646572206d696e2076616c7565206f6620206475726174696f6e000000006044820152606401610947565b61246a612004565b8111156124b95760405162461bcd60e51b815260206004820152601a60248201527f4f766572206d61782076616c7565206f66206475726174696f6e0000000000006044820152606401610947565b6000858152606660205260409020548514156125105760405162461bcd60e51b8152602060048201526016602482015275105b1c9958591e48195e1a5cdd19590818985b1b1bdd60521b6044820152606401610947565b61257f6040518061018001604052806000815260200160008152602001600081526020016000815260200160006001600160a01b031681526020016060815260200160008152602001600081526020016000815260200160008152602001600015158152602001600081525090565b858152606081018590526001600160a01b0383166080820152600161012082015260006101408201819052610160820185905286815260666020908152604091829020835181558184015160018201559183015160028301556060830151600383015560808301516004830180546001600160a01b0319166001600160a01b0390921691909117905560a08301518051849392612623926005850192910190612eb6565b5060c0820151600682015560e0820151600782015561010082015160088201556101208201516009820155610140820151600a8201805460ff191691151591909117905561016090910151600b90910155606d546126829060016136d5565b606d556040516001600160a01b03841690869088907fd1ba591c76ef71222e2d30b8277758713cc6eef1de29efaf98a716744ac2420b90600090a4505050505050565b6000610c0969456e7653746f7261676560b01b612e33565b6033546001600160a01b031633146114255760405162461bcd60e51b815260206004820181905260248201527f4f776e61626c653a2063616c6c6572206973206e6f7420746865206f776e65726044820152606401610947565b6000600584146127595760405162461bcd60e51b815260040161094790613527565b826127b05760405162461bcd60e51b815260206004820152602160248201527f496e76616c696420656e7669726f6e6d656e74207661726961626c65206e616d6044820152606560f81b6064820152608401610947565b600082511161280c5760405162461bcd60e51b815260206004820152602260248201527f496e76616c696420656e7669726f6e6d656e74207661726961626c652076616c604482015261756560f01b6064820152608401610947565b5060019392505050565b603380546001600160a01b038381166001600160a01b0319831681179093556040519116919082907f8be0079c531659141344cd1fd0a4f28419497f9722a3daafe3b4186f6b6457e090600090a35050565b60018214806128775750600282145b6128b65760405162461bcd60e51b815260206004820152601060248201526f24b73b30b634b2103232b1b4b9b4b7b760811b6044820152606401610947565b60008481526066602052604090205484146128e35760405162461bcd60e51b815260040161094790613466565b6000848152606b602090815260408083206001600160a01b038716845290915290205460ff16156129465760405162461bcd60e51b815260206004820152600d60248201526c185b1c9958591e481d9bdd1959609a1b6044820152606401610947565b6000848152606660209081526040808320606b83528184206001600160a01b0388168552909252909120805460ff19166001908117909155600682015461298c916136d5565b600682015560018314156129b4578181600701546129aa91906136d5565b60078201556129ca565b8181600801546129c491906136d5565b60088201555b5050505050565b600060018a101580156129e5575060038a11155b612a015760405162461bcd60e51b815260040161094790613527565b60028a1415612bc1576001600160a01b038916612a305760405162461bcd60e51b81526004016109479061357f565b6001600160a01b03881615612a575760405162461bcd60e51b8152600401610947906134f0565b6001600160a01b03871615612a7e5760405162461bcd60e51b81526004016109479061362f565b6001600160a01b03861615612aa55760405162461bcd60e51b815260040161094790613492565b845115612aec5760405162461bcd60e51b8152602060048201526015602482015274496e76616c6964206e6577206e6f6465206e616d6560581b6044820152606401610947565b835115612b315760405162461bcd60e51b8152602060048201526013602482015272125b9d985b1a59081b995dc81b9bd919481a59606a1b6044820152606401610947565b825115612b765760405162461bcd60e51b81526020600482015260136024820152720496e76616c6964206e6577206e6f646520495606c1b6044820152606401610947565b8115612bbc5760405162461bcd60e51b8152602060048201526015602482015274125b9d985b1a59081b995dc81b9bd91948141bdc9d605a1b6044820152606401610947565b612e23565b6000855111612c0a5760405162461bcd60e51b8152602060048201526015602482015274496e76616c6964206e6577206e6f6465206e616d6560581b6044820152606401610947565b8351604014612c515760405162461bcd60e51b8152602060048201526013602482015272125b9d985b1a59081b995dc81b9bd919481a59606a1b6044820152606401610947565b6000835111612c985760405162461bcd60e51b81526020600482015260136024820152720496e76616c6964206e6577206e6f646520495606c1b6044820152606401610947565b60008211612ce05760405162461bcd60e51b8152602060048201526015602482015274125b9d985b1a59081b995dc81b9bd91948141bdc9d605a1b6044820152606401610947565b60018a1415612d82576001600160a01b03891615612d105760405162461bcd60e51b81526004016109479061357f565b6001600160a01b038816612d365760405162461bcd60e51b8152600401610947906134f0565b6001600160a01b038716612d5c5760405162461bcd60e51b81526004016109479061362f565b6001600160a01b038616612bbc5760405162461bcd60e51b815260040161094790613492565b60038a1415612e23576001600160a01b038916612db15760405162461bcd60e51b81526004016109479061357f565b6001600160a01b038816612dd75760405162461bcd60e51b8152600401610947906134f0565b6001600160a01b038716612dfd5760405162461bcd60e51b81526004016109479061362f565b6001600160a01b038616612e235760405162461bcd60e51b815260040161094790613492565b5060019998505050505050505050565b606554604051630d2020dd60e01b8152600481018390526000916001600160a01b031690630d2020dd9060240160206040518083038186803b158015612e7857600080fd5b505afa158015612e8c573d6000803e3d6000fd5b505050506040513d601f19601f82011682018060405250810190612eb09190613010565b92915050565b828054612ec2906136fb565b90600052602060002090601f016020900481019282612ee45760008555612f2a565b82601f10612efd57805160ff1916838001178555612f2a565b82800160010185558215612f2a579182015b82811115612f2a578251825591602001919060010190612f0f565b50612f36929150612f3a565b5090565b5b80821115612f365760008155600101612f3b565b8035612f5a8161374c565b919050565b600082601f830112612f7057600080fd5b813567ffffffffffffffff80821115612f8b57612f8b613736565b604051601f8301601f19908116603f01168101908282118183101715612fb357612fb3613736565b81604052838152866020858801011115612fcc57600080fd5b836020870160208301376000602085830101528094505050505092915050565b600060208284031215612ffe57600080fd5b81356130098161374c565b9392505050565b60006020828403121561302257600080fd5b81516130098161374c565b60006020828403121561303f57600080fd5b5035919050565b60006020828403121561305857600080fd5b5051919050565b6000806040838503121561307257600080fd5b82359150602083013567ffffffffffffffff81111561309057600080fd5b61309c85828601612f5f565b9150509250929050565b600080604083850312156130b957600080fd5b50508035926020909101359150565b600080600080600060a086880312156130e057600080fd5b853594506020860135935060408601356130f98161374c565b94979396509394606081013594506080013592915050565b60008060006060848603121561312657600080fd5b505081359360208301359350604090920135919050565b600080600080600060a0868803121561315557600080fd5b85359450602086013593506040860135925060608601356131758161374c565b915060808601356131858161374c565b809150509295509295909350565b6000806000806000806000806000806000806101808d8f0312156131b657600080fd5b8c359b5060208d01359a5060408d013599506131d460608e01612f4f565b98506131e260808e01612f4f565b97506131f060a08e01612f4f565b96506131fe60c08e01612f4f565b955061320c60e08e01612f4f565b945067ffffffffffffffff6101008e0135111561322857600080fd5b6132398e6101008f01358f01612f5f565b935067ffffffffffffffff6101208e0135111561325557600080fd5b6132668e6101208f01358f01612f5f565b925067ffffffffffffffff6101408e0135111561328257600080fd5b6132938e6101408f01358f01612f5f565b91506101608d013590509295989b509295989b509295989b565b600080600080600080600060e0888a0312156132c857600080fd5b87359650602088013595506040880135945060608801356132e88161374c565b93506080880135925060a0880135915060c088013567ffffffffffffffff81111561331257600080fd5b61331e8a828b01612f5f565b91505092959891949750929550565b6000806040838503121561334057600080fd5b823566ffffffffffffff8116811461335757600080fd5b915060208301356133678161374c565b809150509250929050565b6000815180845260005b818110156133985760208185018101518683018201520161337c565b818111156133aa576000602083870101525b50601f01601f19169290920160200192915050565b6001600160a01b038a811682528981166020830152888116604083015287166060820152610120608082018190526000906133fc83820189613372565b905082810360a08401526134108188613372565b905082810360c08401526134248187613372565b60e084019590955250506101000152979650505050505050565b83815282602082015260606040820152600061345d6060830184613372565b95945050505050565b6020808252601290820152711b9bdd08195e1a5cdd19590810985b1b1bdd60721b604082015260600190565b6020808252601a908201527f496e76616c6964206e6577207265776172642061646472657373000000000000604082015260600190565b6020808252600d908201526c2737902832b936b4b9b9b4b7b760991b604082015260600190565b6020808252601a908201527f496e76616c6964206e6577207374616b65722061646472657373000000000000604082015260600190565b602080825260139082015272496e76616c69642042616c6c6f74205479706560681b604082015260600190565b602080825260119082015270185b1c9958591e48199a5b985b1a5e9959607a1b604082015260600190565b6020808252601a908201527f496e76616c6964206f6c64207374616b65722061646472657373000000000000604082015260600190565b6020808252600f908201526e4e6f7420526561647920537461746560881b604082015260600190565b6020808252600b908201526a125cc8111a5cd8589b195960aa1b604082015260600190565b60208082526011908201527024b73b30b634b2102830b930b6b2ba32b960791b604082015260600190565b60208082526019908201527f496e76616c6964206e657720766f746572206164647265737300000000000000604082015260600190565b60006101608d83528c60208401528b604084015260018060a01b038b16606084015280608084015261369a8184018b613372565b60a0840199909952505060c081019590955260e085019390935261010084019190915215156101208301526101409091015295945050505050565b600082198211156136f657634e487b7160e01b600052601160045260246000fd5b500190565b600181811c9082168061370f57607f821691505b6020821081141561373057634e487b7160e01b600052602260045260246000fd5b50919050565b634e487b7160e01b600052604160045260246000fd5b6001600160a01b03811681146123cc57600080fdfea26469706673582212209f5f915a8696f08cfcce5917e805c323f00cc65ddd34cc200268250ec66e8db864736f6c63430008060033",
  "linkReferences": {},
  "deployedLinkReferences": {}
}