{
  "_format": "hh-sol-artifact-1",
  "contractName": "EnvStorageImp",
  "sourceName": "contracts/storage/EnvStorageImp.sol",
  "abi": [
    {
      "anonymous": false,
      "inputs": [
        {
          "indexed": true,
          "internalType": "bytes32",
          "name": "_name",
          "type": "bytes32"
        },
        {
          "indexed": false,
          "internalType": "address",
          "name": "_value",
          "type": "address"
        }
      ],
      "name": "AddressVarableChanged",
      "type": "event"
    },
    {
      "anonymous": false,
      "inputs": [
        {
          "indexed": false,
          "internalType": "address",
          "name": "previousAdmin",
          "type": "address"
        },
        {
          "indexed": false,
          "internalType": "address",
          "name": "newAdmin",
          "type": "address"
        }
      ],
      "name": "AdminChanged",
      "type": "event"
    },
    {
      "anonymous": false,
      "inputs": [
        {
          "indexed": true,
          "internalType": "address",
          "name": "beacon",
          "type": "address"
        }
      ],
      "name": "BeaconUpgraded",
      "type": "event"
    },
    {
      "anonymous": false,
      "inputs": [
        {
          "indexed": true,
          "internalType": "bytes32",
          "name": "_name",
          "type": "bytes32"
        },
        {
          "indexed": false,
          "internalType": "bytes32",
          "name": "_value",
          "type": "bytes32"
        }
      ],
      "name": "Bytes32VarableChanged",
      "type": "event"
    },
    {
      "anonymous": false,
      "inputs": [
        {
          "indexed": true,
          "internalType": "bytes32",
          "name": "_name",
          "type": "bytes32"
        },
        {
          "indexed": false,
          "internalType": "bytes",
          "name": "_value",
          "type": "bytes"
        }
      ],
      "name": "BytesVarableChanged",
      "type": "event"
    },
    {
      "anonymous": false,
      "inputs": [
        {
          "indexed": false,
          "internalType": "uint8",
          "name": "version",
          "type": "uint8"
        }
      ],
      "name": "Initialized",
      "type": "event"
    },
    {
      "anonymous": false,
      "inputs": [
        {
          "indexed": true,
          "internalType": "bytes32",
          "name": "_name",
          "type": "bytes32"
        },
        {
          "indexed": false,
          "internalType": "int256",
          "name": "_value",
          "type": "int256"
        }
      ],
      "name": "IntVarableChanged",
      "type": "event"
    },
    {
      "anonymous": false,
      "inputs": [
        {
          "indexed": true,
          "internalType": "address",
          "name": "previousOwner",
          "type": "address"
        },
        {
          "indexed": true,
          "internalType": "address",
          "name": "newOwner",
          "type": "address"
        }
      ],
      "name": "OwnershipTransferred",
      "type": "event"
    },
    {
      "anonymous": false,
      "inputs": [
        {
          "indexed": true,
          "internalType": "address",
          "name": "addr",
          "type": "address"
        }
      ],
      "name": "SetRegistry",
      "type": "event"
    },
    {
      "anonymous": false,
      "inputs": [
        {
          "indexed": true,
          "internalType": "bytes32",
          "name": "_name",
          "type": "bytes32"
        },
        {
          "indexed": false,
          "internalType": "string",
          "name": "_value",
          "type": "string"
        }
      ],
      "name": "StringVarableChanged",
      "type": "event"
    },
    {
      "anonymous": false,
      "inputs": [
        {
          "indexed": true,
          "internalType": "bytes32",
          "name": "_name",
          "type": "bytes32"
        },
        {
          "indexed": false,
          "internalType": "uint256",
          "name": "_value",
          "type": "uint256"
        }
      ],
      "name": "UintVarableChanged",
      "type": "event"
    },
    {
      "anonymous": false,
      "inputs": [
        {
          "indexed": true,
          "internalType": "address",
          "name": "implementation",
          "type": "address"
        }
      ],
      "name": "UpgradeImplementation",
      "type": "event"
    },
    {
      "anonymous": false,
      "inputs": [
        {
          "indexed": true,
          "internalType": "address",
          "name": "implementation",
          "type": "address"
        }
      ],
      "name": "Upgraded",
      "type": "event"
    },
    {
      "anonymous": false,
      "inputs": [
        {
          "indexed": true,
          "internalType": "bytes32",
          "name": "_name",
          "type": "bytes32"
        },
        {
          "indexed": true,
          "internalType": "uint256",
          "name": "_type",
          "type": "uint256"
        },
        {
          "indexed": false,
          "internalType": "string",
          "name": "_value",
          "type": "string"
        }
      ],
      "name": "VarableChanged",
      "type": "event"
    },
    {
      "inputs": [],
      "name": "BALLOT_DURATION_MAX_NAME",
      "outputs": [
        {
          "internalType": "bytes32",
          "name": "",
          "type": "bytes32"
        }
      ],
      "stateMutability": "view",
      "type": "function"
    },
    {
      "inputs": [],
      "name": "BALLOT_DURATION_MIN_MAX_NAME",
      "outputs": [
        {
          "internalType": "bytes32",
          "name": "",
          "type": "bytes32"
        }
      ],
      "stateMutability": "view",
      "type": "function"
    },
    {
      "inputs": [],
      "name": "BALLOT_DURATION_MIN_NAME",
      "outputs": [
        {
          "internalType": "bytes32",
          "name": "",
          "type": "bytes32"
        }
      ],
      "stateMutability": "view",
      "type": "function"
    },
    {
      "inputs": [],
      "name": "BALLOT_STORAGE_NAME",
      "outputs": [
        {
          "internalType": "bytes32",
          "name": "",
          "type": "bytes32"
        }
      ],
      "stateMutability": "view",
      "type": "function"
    },
    {
      "inputs": [],
      "name": "BASE_FEE_MAX_CHANGE_RATE_NAME",
      "outputs": [
        {
          "internalType": "bytes32",
          "name": "",
          "type": "bytes32"
        }
      ],
      "stateMutability": "view",
      "type": "function"
    },
    {
      "inputs": [],
      "name": "BLOCKS_PER_NAME",
      "outputs": [
        {
          "internalType": "bytes32",
          "name": "",
          "type": "bytes32"
        }
      ],
      "stateMutability": "view",
      "type": "function"
    },
    {
      "inputs": [],
      "name": "BLOCK_CREATION_TIME_NAME",
      "outputs": [
        {
          "internalType": "bytes32",
          "name": "",
          "type": "bytes32"
        }
      ],
      "stateMutability": "view",
      "type": "function"
    },
    {
      "inputs": [],
      "name": "BLOCK_GASLIMIT_NAME",
      "outputs": [
        {
          "internalType": "bytes32",
          "name": "",
          "type": "bytes32"
        }
      ],
      "stateMutability": "view",
      "type": "function"
    },
    {
      "inputs": [],
      "name": "BLOCK_REWARD_AMOUNT_NAME",
      "outputs": [
        {
          "internalType": "bytes32",
          "name": "",
          "type": "bytes32"
        }
      ],
      "stateMutability": "view",
      "type": "function"
    },
    {
      "inputs": [],
      "name": "BLOCK_REWARD_DISTRIBUTION_BLOCK_PRODUCER_NAME",
      "outputs": [
        {
          "internalType": "bytes32",
          "name": "",
          "type": "bytes32"
        }
      ],
      "stateMutability": "view",
      "type": "function"
    },
    {
      "inputs": [],
      "name": "BLOCK_REWARD_DISTRIBUTION_ECOSYSTEM_NAME",
      "outputs": [
        {
          "internalType": "bytes32",
          "name": "",
          "type": "bytes32"
        }
      ],
      "stateMutability": "view",
      "type": "function"
    },
    {
      "inputs": [],
      "name": "BLOCK_REWARD_DISTRIBUTION_MAINTANANCE_NAME",
      "outputs": [
        {
          "internalType": "bytes32",
          "name": "",
          "type": "bytes32"
        }
      ],
      "stateMutability": "view",
      "type": "function"
    },
    {
      "inputs": [],
      "name": "BLOCK_REWARD_DISTRIBUTION_METHOD_NAME",
      "outputs": [
        {
          "internalType": "bytes32",
          "name": "",
          "type": "bytes32"
        }
      ],
      "stateMutability": "view",
      "type": "function"
    },
    {
      "inputs": [],
      "name": "BLOCK_REWARD_DISTRIBUTION_STAKING_REWARD_NAME",
      "outputs": [
        {
          "internalType": "bytes32",
          "name": "",
          "type": "bytes32"
        }
      ],
      "stateMutability": "view",
      "type": "function"
    },
    {
      "inputs": [],
      "name": "DENOMINATOR",
      "outputs": [
        {
          "internalType": "uint256",
          "name": "",
          "type": "uint256"
        }
      ],
      "stateMutability": "view",
      "type": "function"
    },
    {
      "inputs": [],
      "name": "ENV_STORAGE_NAME",
      "outputs": [
        {
          "internalType": "bytes32",
          "name": "",
          "type": "bytes32"
        }
      ],
      "stateMutability": "view",
      "type": "function"
    },
    {
      "inputs": [],
      "name": "GASLIMIT_AND_BASE_FEE_NAME",
      "outputs": [
        {
          "internalType": "bytes32",
          "name": "",
          "type": "bytes32"
        }
      ],
      "stateMutability": "view",
      "type": "function"
    },
    {
      "inputs": [],
      "name": "GAS_TARGET_PERCENTAGE_NAME",
      "outputs": [
        {
          "internalType": "bytes32",
          "name": "",
          "type": "bytes32"
        }
      ],
      "stateMutability": "view",
      "type": "function"
    },
    {
      "inputs": [],
      "name": "GOV_NAME",
      "outputs": [
        {
          "internalType": "bytes32",
          "name": "",
          "type": "bytes32"
        }
      ],
      "stateMutability": "view",
      "type": "function"
    },
    {
      "inputs": [],
      "name": "MAINTENANCE_NAME",
      "outputs": [
        {
          "internalType": "bytes32",
          "name": "",
          "type": "bytes32"
        }
      ],
      "stateMutability": "view",
      "type": "function"
    },
    {
      "inputs": [],
      "name": "MAX_BASE_FEE_NAME",
      "outputs": [
        {
          "internalType": "bytes32",
          "name": "",
          "type": "bytes32"
        }
      ],
      "stateMutability": "view",
      "type": "function"
    },
    {
      "inputs": [],
      "name": "MAX_IDLE_BLOCK_INTERVAL_NAME",
      "outputs": [
        {
          "internalType": "bytes32",
          "name": "",
          "type": "bytes32"
        }
      ],
      "stateMutability": "view",
      "type": "function"
    },
    {
      "inputs": [],
      "name": "MAX_PRIORITY_FEE_PER_GAS_NAME",
      "outputs": [
        {
          "internalType": "bytes32",
          "name": "",
          "type": "bytes32"
        }
      ],
      "stateMutability": "view",
      "type": "function"
    },
    {
      "inputs": [],
      "name": "REWARD_POOL_NAME",
      "outputs": [
        {
          "internalType": "bytes32",
          "name": "",
          "type": "bytes32"
        }
      ],
      "stateMutability": "view",
      "type": "function"
    },
    {
      "inputs": [],
      "name": "STAKING_MAX_NAME",
      "outputs": [
        {
          "internalType": "bytes32",
          "name": "",
          "type": "bytes32"
        }
      ],
      "stateMutability": "view",
      "type": "function"
    },
    {
      "inputs": [],
      "name": "STAKING_MIN_MAX_NAME",
      "outputs": [
        {
          "internalType": "bytes32",
          "name": "",
          "type": "bytes32"
        }
      ],
      "stateMutability": "view",
      "type": "function"
    },
    {
      "inputs": [],
      "name": "STAKING_MIN_NAME",
      "outputs": [
        {
          "internalType": "bytes32",
          "name": "",
          "type": "bytes32"
        }
      ],
      "stateMutability": "view",
      "type": "function"
    },
    {
      "inputs": [],
      "name": "STAKING_NAME",
      "outputs": [
        {
          "internalType": "bytes32",
          "name": "",
          "type": "bytes32"
        }
      ],
      "stateMutability": "view",
      "type": "function"
    },
    {
      "inputs": [
        {
          "internalType": "bytes32",
          "name": "envKey",
          "type": "bytes32"
        },
        {
          "internalType": "bytes",
          "name": "envVal",
          "type": "bytes"
        }
      ],
      "name": "checkVariableCondition",
      "outputs": [
        {
          "internalType": "bool",
          "name": "",
          "type": "bool"
        }
      ],
      "stateMutability": "pure",
      "type": "function"
    },
    {
      "inputs": [
        {
          "internalType": "bytes32",
          "name": "h",
          "type": "bytes32"
        }
      ],
      "name": "getAddress",
      "outputs": [
        {
          "internalType": "address",
          "name": "",
          "type": "address"
        }
      ],
      "stateMutability": "view",
      "type": "function"
    },
    {
      "inputs": [],
      "name": "getBallotDurationMax",
      "outputs": [
        {
          "internalType": "uint256",
          "name": "",
          "type": "uint256"
        }
      ],
      "stateMutability": "view",
      "type": "function"
    },
    {
      "inputs": [],
      "name": "getBallotDurationMin",
      "outputs": [
        {
          "internalType": "uint256",
          "name": "",
          "type": "uint256"
        }
      ],
      "stateMutability": "view",
      "type": "function"
    },
    {
      "inputs": [],
      "name": "getBallotDurationMinMax",
      "outputs": [
        {
          "internalType": "uint256",
          "name": "",
          "type": "uint256"
        },
        {
          "internalType": "uint256",
          "name": "",
          "type": "uint256"
        }
      ],
      "stateMutability": "view",
      "type": "function"
    },
    {
      "inputs": [],
      "name": "getBlockCreationTime",
      "outputs": [
        {
          "internalType": "uint256",
          "name": "",
          "type": "uint256"
        }
      ],
      "stateMutability": "view",
      "type": "function"
    },
    {
      "inputs": [],
      "name": "getBlockRewardAmount",
      "outputs": [
        {
          "internalType": "uint256",
          "name": "",
          "type": "uint256"
        }
      ],
      "stateMutability": "view",
      "type": "function"
    },
    {
      "inputs": [],
      "name": "getBlockRewardDistributionMethod",
      "outputs": [
        {
          "internalType": "uint256",
          "name": "",
          "type": "uint256"
        },
        {
          "internalType": "uint256",
          "name": "",
          "type": "uint256"
        },
        {
          "internalType": "uint256",
          "name": "",
          "type": "uint256"
        },
        {
          "internalType": "uint256",
          "name": "",
          "type": "uint256"
        }
      ],
      "stateMutability": "view",
      "type": "function"
    },
    {
      "inputs": [],
      "name": "getBlocksPer",
      "outputs": [
        {
          "internalType": "uint256",
          "name": "",
          "type": "uint256"
        }
      ],
      "stateMutability": "view",
      "type": "function"
    },
    {
      "inputs": [
        {
          "internalType": "bytes32",
          "name": "h",
          "type": "bytes32"
        }
      ],
      "name": "getBoolean",
      "outputs": [
        {
          "internalType": "bool",
          "name": "",
          "type": "bool"
        }
      ],
      "stateMutability": "view",
      "type": "function"
    },
    {
      "inputs": [
        {
          "internalType": "bytes32",
          "name": "h",
          "type": "bytes32"
        }
      ],
      "name": "getBytes",
      "outputs": [
        {
          "internalType": "bytes",
          "name": "",
          "type": "bytes"
        }
      ],
      "stateMutability": "view",
      "type": "function"
    },
    {
      "inputs": [
        {
          "internalType": "bytes32",
          "name": "h",
          "type": "bytes32"
        }
      ],
      "name": "getBytes32",
      "outputs": [
        {
          "internalType": "bytes32",
          "name": "",
          "type": "bytes32"
        }
      ],
      "stateMutability": "view",
      "type": "function"
    },
    {
      "inputs": [],
      "name": "getGasLimitAndBaseFee",
      "outputs": [
        {
          "internalType": "uint256",
          "name": "",
          "type": "uint256"
        },
        {
          "internalType": "uint256",
          "name": "",
          "type": "uint256"
        },
        {
          "internalType": "uint256",
          "name": "",
          "type": "uint256"
        }
      ],
      "stateMutability": "view",
      "type": "function"
    },
    {
      "inputs": [
        {
          "internalType": "bytes32",
          "name": "h",
          "type": "bytes32"
        }
      ],
      "name": "getInt",
      "outputs": [
        {
          "internalType": "int256",
          "name": "",
          "type": "int256"
        }
      ],
      "stateMutability": "view",
      "type": "function"
    },
    {
      "inputs": [],
      "name": "getMaxBaseFee",
      "outputs": [
        {
          "internalType": "uint256",
          "name": "",
          "type": "uint256"
        }
      ],
      "stateMutability": "view",
      "type": "function"
    },
    {
      "inputs": [],
      "name": "getMaxIdleBlockInterval",
      "outputs": [
        {
          "internalType": "uint256",
          "name": "",
          "type": "uint256"
        }
      ],
      "stateMutability": "view",
      "type": "function"
    },
    {
      "inputs": [],
      "name": "getMaxPriorityFeePerGas",
      "outputs": [
        {
          "internalType": "uint256",
          "name": "",
          "type": "uint256"
        }
      ],
      "stateMutability": "view",
      "type": "function"
    },
    {
      "inputs": [],
      "name": "getStakingMax",
      "outputs": [
        {
          "internalType": "uint256",
          "name": "",
          "type": "uint256"
        }
      ],
      "stateMutability": "view",
      "type": "function"
    },
    {
      "inputs": [],
      "name": "getStakingMin",
      "outputs": [
        {
          "internalType": "uint256",
          "name": "",
          "type": "uint256"
        }
      ],
      "stateMutability": "view",
      "type": "function"
    },
    {
      "inputs": [],
      "name": "getStakingMinMax",
      "outputs": [
        {
          "internalType": "uint256",
          "name": "",
          "type": "uint256"
        },
        {
          "internalType": "uint256",
          "name": "",
          "type": "uint256"
        }
      ],
      "stateMutability": "view",
      "type": "function"
    },
    {
      "inputs": [
        {
          "internalType": "bytes32",
          "name": "h",
          "type": "bytes32"
        }
      ],
      "name": "getString",
      "outputs": [
        {
          "internalType": "string",
          "name": "",
          "type": "string"
        }
      ],
      "stateMutability": "view",
      "type": "function"
    },
    {
      "inputs": [
        {
          "internalType": "bytes32",
          "name": "h",
          "type": "bytes32"
        }
      ],
      "name": "getUint",
      "outputs": [
        {
          "internalType": "uint256",
          "name": "",
          "type": "uint256"
        }
      ],
      "stateMutability": "view",
      "type": "function"
    },
    {
      "inputs": [
        {
          "internalType": "address",
          "name": "_registry",
          "type": "address"
        },
        {
          "internalType": "bytes32[]",
          "name": "names",
          "type": "bytes32[]"
        },
        {
          "internalType": "uint256[]",
          "name": "infos",
          "type": "uint256[]"
        }
      ],
      "name": "initialize",
      "outputs": [],
      "stateMutability": "nonpayable",
      "type": "function"
    },
    {
      "inputs": [],
      "name": "owner",
      "outputs": [
        {
          "internalType": "address",
          "name": "",
          "type": "address"
        }
      ],
      "stateMutability": "view",
      "type": "function"
    },
    {
      "inputs": [],
      "name": "proxiableUUID",
      "outputs": [
        {
          "internalType": "bytes32",
          "name": "",
          "type": "bytes32"
        }
      ],
      "stateMutability": "view",
      "type": "function"
    },
    {
      "inputs": [],
      "name": "reg",
      "outputs": [
        {
          "internalType": "contract IRegistry",
          "name": "",
          "type": "address"
        }
      ],
      "stateMutability": "view",
      "type": "function"
    },
    {
      "inputs": [],
      "name": "renounceOwnership",
      "outputs": [],
      "stateMutability": "nonpayable",
      "type": "function"
    },
    {
      "inputs": [
        {
          "internalType": "uint256",
          "name": "_value",
          "type": "uint256"
        }
      ],
      "name": "setBallotDurationMax",
      "outputs": [],
      "stateMutability": "nonpayable",
      "type": "function"
    },
    {
      "inputs": [
        {
          "internalType": "bytes",
          "name": "_value",
          "type": "bytes"
        }
      ],
      "name": "setBallotDurationMaxByBytes",
      "outputs": [],
      "stateMutability": "nonpayable",
      "type": "function"
    },
    {
      "inputs": [
        {
          "internalType": "uint256",
          "name": "_value",
          "type": "uint256"
        }
      ],
      "name": "setBallotDurationMin",
      "outputs": [],
      "stateMutability": "nonpayable",
      "type": "function"
    },
    {
      "inputs": [
        {
          "internalType": "bytes",
          "name": "_value",
          "type": "bytes"
        }
      ],
      "name": "setBallotDurationMinByBytes",
      "outputs": [],
      "stateMutability": "nonpayable",
      "type": "function"
    },
    {
      "inputs": [
        {
          "internalType": "uint256",
          "name": "_min",
          "type": "uint256"
        },
        {
          "internalType": "uint256",
          "name": "_max",
          "type": "uint256"
        }
      ],
      "name": "setBallotDurationMinMax",
      "outputs": [],
      "stateMutability": "nonpayable",
      "type": "function"
    },
    {
      "inputs": [
        {
          "internalType": "bytes",
          "name": "_value",
          "type": "bytes"
        }
      ],
      "name": "setBallotDurationMinMaxByBytes",
      "outputs": [],
      "stateMutability": "nonpayable",
      "type": "function"
    },
    {
      "inputs": [
        {
          "internalType": "uint256",
          "name": "_value",
          "type": "uint256"
        }
      ],
      "name": "setBlockCreationTime",
      "outputs": [],
      "stateMutability": "nonpayable",
      "type": "function"
    },
    {
      "inputs": [
        {
          "internalType": "bytes",
          "name": "_value",
          "type": "bytes"
        }
      ],
      "name": "setBlockCreationTimeByBytes",
      "outputs": [],
      "stateMutability": "nonpayable",
      "type": "function"
    },
    {
      "inputs": [
        {
          "internalType": "uint256",
          "name": "_value",
          "type": "uint256"
        }
      ],
      "name": "setBlockRewardAmount",
      "outputs": [],
      "stateMutability": "nonpayable",
      "type": "function"
    },
    {
      "inputs": [
        {
          "internalType": "bytes",
          "name": "_value",
          "type": "bytes"
        }
      ],
      "name": "setBlockRewardAmountByBytes",
      "outputs": [],
      "stateMutability": "nonpayable",
      "type": "function"
    },
    {
      "inputs": [
        {
          "internalType": "uint256",
          "name": "_block_producer",
          "type": "uint256"
        },
        {
          "internalType": "uint256",
          "name": "_staking_reward",
          "type": "uint256"
        },
        {
          "internalType": "uint256",
          "name": "_ecofund",
          "type": "uint256"
        },
        {
          "internalType": "uint256",
          "name": "_maintanance",
          "type": "uint256"
        }
      ],
      "name": "setBlockRewardDistributionMethod",
      "outputs": [],
      "stateMutability": "nonpayable",
      "type": "function"
    },
    {
      "inputs": [
        {
          "internalType": "bytes",
          "name": "_value",
          "type": "bytes"
        }
      ],
      "name": "setBlockRewardDistributionMethodByBytes",
      "outputs": [],
      "stateMutability": "nonpayable",
      "type": "function"
    },
    {
      "inputs": [
        {
          "internalType": "uint256",
          "name": "_value",
          "type": "uint256"
        }
      ],
      "name": "setBlocksPer",
      "outputs": [],
      "stateMutability": "nonpayable",
      "type": "function"
    },
    {
      "inputs": [
        {
          "internalType": "bytes",
          "name": "_value",
          "type": "bytes"
        }
      ],
      "name": "setBlocksPerByBytes",
      "outputs": [],
      "stateMutability": "nonpayable",
      "type": "function"
    },
    {
      "inputs": [
        {
          "internalType": "uint256",
          "name": "_block_GasLimit",
          "type": "uint256"
        },
        {
          "internalType": "uint256",
          "name": "_baseFeeMaxChangeRate",
          "type": "uint256"
        },
        {
          "internalType": "uint256",
          "name": "_gasTargetPercentage",
          "type": "uint256"
        },
        {
          "internalType": "uint256",
          "name": "_maxBaseFee",
          "type": "uint256"
        }
      ],
      "name": "setGasLimitAndBaseFee",
      "outputs": [],
      "stateMutability": "nonpayable",
      "type": "function"
    },
    {
      "inputs": [
        {
          "internalType": "bytes",
          "name": "_value",
          "type": "bytes"
        }
      ],
      "name": "setGasLimitAndBaseFeeByBytes",
      "outputs": [],
      "stateMutability": "nonpayable",
      "type": "function"
    },
    {
      "inputs": [
        {
          "internalType": "uint256",
          "name": "_value",
          "type": "uint256"
        }
      ],
      "name": "setMaxBaseFee",
      "outputs": [],
      "stateMutability": "nonpayable",
      "type": "function"
    },
    {
      "inputs": [
        {
          "internalType": "bytes",
          "name": "_value",
          "type": "bytes"
        }
      ],
      "name": "setMaxBaseFeeByBytes",
      "outputs": [],
      "stateMutability": "nonpayable",
      "type": "function"
    },
    {
      "inputs": [
        {
          "internalType": "uint256",
          "name": "_value",
          "type": "uint256"
        }
      ],
      "name": "setMaxIdleBlockInterval",
      "outputs": [],
      "stateMutability": "nonpayable",
      "type": "function"
    },
    {
      "inputs": [
        {
          "internalType": "bytes",
          "name": "_value",
          "type": "bytes"
        }
      ],
      "name": "setMaxIdleBlockIntervalByBytes",
      "outputs": [],
      "stateMutability": "nonpayable",
      "type": "function"
    },
    {
      "inputs": [
        {
          "internalType": "uint256",
          "name": "_value",
          "type": "uint256"
        }
      ],
      "name": "setMaxPriorityFeePerGas",
      "outputs": [],
      "stateMutability": "nonpayable",
      "type": "function"
    },
    {
      "inputs": [
        {
          "internalType": "bytes",
          "name": "_value",
          "type": "bytes"
        }
      ],
      "name": "setMaxPriorityFeePerGasByBytes",
      "outputs": [],
      "stateMutability": "nonpayable",
      "type": "function"
    },
    {
      "inputs": [
        {
          "internalType": "address",
          "name": "_addr",
          "type": "address"
        }
      ],
      "name": "setRegistry",
      "outputs": [],
      "stateMutability": "nonpayable",
      "type": "function"
    },
    {
      "inputs": [
        {
          "internalType": "uint256",
          "name": "_value",
          "type": "uint256"
        }
      ],
      "name": "setStakingMax",
      "outputs": [],
      "stateMutability": "nonpayable",
      "type": "function"
    },
    {
      "inputs": [
        {
          "internalType": "bytes",
          "name": "_value",
          "type": "bytes"
        }
      ],
      "name": "setStakingMaxByBytes",
      "outputs": [],
      "stateMutability": "nonpayable",
      "type": "function"
    },
    {
      "inputs": [
        {
          "internalType": "uint256",
          "name": "_value",
          "type": "uint256"
        }
      ],
      "name": "setStakingMin",
      "outputs": [],
      "stateMutability": "nonpayable",
      "type": "function"
    },
    {
      "inputs": [
        {
          "internalType": "bytes",
          "name": "_value",
          "type": "bytes"
        }
      ],
      "name": "setStakingMinByBytes",
      "outputs": [],
      "stateMutability": "nonpayable",
      "type": "function"
    },
    {
      "inputs": [
        {
          "internalType": "uint256",
          "name": "_min",
          "type": "uint256"
        },
        {
          "internalType": "uint256",
          "name": "_max",
          "type": "uint256"
        }
      ],
      "name": "setStakingMinMax",
      "outputs": [],
      "stateMutability": "nonpayable",
      "type": "function"
    },
    {
      "inputs": [
        {
          "internalType": "bytes",
          "name": "_value",
          "type": "bytes"
        }
      ],
      "name": "setStakingMinMaxByBytes",
      "outputs": [],
      "stateMutability": "nonpayable",
      "type": "function"
    },
    {
      "inputs": [
        {
          "internalType": "bytes32",
          "name": "envKey",
          "type": "bytes32"
        },
        {
          "internalType": "bytes",
          "name": "envVal",
          "type": "bytes"
        }
      ],
      "name": "setVariable",
      "outputs": [],
      "stateMutability": "nonpayable",
      "type": "function"
    },
    {
      "inputs": [
        {
          "internalType": "address",
          "name": "newOwner",
          "type": "address"
        }
      ],
      "name": "transferOwnership",
      "outputs": [],
      "stateMutability": "nonpayable",
      "type": "function"
    },
    {
      "inputs": [
        {
          "internalType": "address",
          "name": "newImplementation",
          "type": "address"
        }
      ],
      "name": "upgradeTo",
      "outputs": [],
      "stateMutability": "nonpayable",
      "type": "function"
    },
    {
      "inputs": [
        {
          "internalType": "address",
          "name": "newImplementation",
          "type": "address"
        },
        {
          "internalType": "bytes",
          "name": "data",
          "type": "bytes"
        }
      ],
      "name": "upgradeToAndCall",
      "outputs": [],
      "stateMutability": "payable",
      "type": "function"
    }
  ],
  "bytecode": "0x60a06040523060601b60805234801561001757600080fd5b5060805160601c613640610044600039600081816119c501528181611a4a0152611b2201526136406000f3fe6080604052600436106104ca5760003560e01c80636fe1317711610276578063a91ee0dc1161014f578063c6713baf116100c1578063e078869f11610085578063e078869f14611376578063ec3df87914611396578063f2fde38b146113b6578063f38ecf47146113d6578063f6fd7129146113f8578063f82145911461141857600080fd5b8063c6713baf14611281578063c7d3da34146112b5578063c95437be146112e9578063cdb9f64314611334578063dc97d9621461134957600080fd5b8063bd02d0f511610113578063bd02d0f51461119c578063be33732a146111c9578063c00ace6c146111e9578063c031a1801461120b578063c0b4fe151461122b578063c42a0abc1461124d57600080fd5b8063a91ee0dc146110ee578063a9b629b21461110e578063aba01fee14611130578063b128f8801461115a578063b4d6bd3b1461117c57600080fd5b80638d5cdd7e116101e8578063986e791a116101ac578063986e791a14610ffc5780639986e4b914611029578063a36f259b1461104d578063a5d6a5811461106d578063a6868b7d1461108d578063a6ed563e146110c157600080fd5b80638d5cdd7e14610eaa5780638da5cb5b14610eca5780638f6fe72514610ee8578063918f867414610fc65780639801bff914610fdc57600080fd5b806379e858591161023a57806379e8585914610dd55780637b2bfb0114610df55780637bf4653014610e29578063852cf38f14610e4a57806388c2801914610e6a5780638c8b887e14610e8a57600080fd5b80636fe1317714610d15578063715018a614610d3557806371c6960d14610d4a578063737c59b814610d6a578063738fdd1a14610db557600080fd5b80633659cfe6116103a85780634d273e281161031a5780636167eb45116102de5780636167eb4514610b89578063656e305214610bbd57806367d1a2e014610bf15780636c78d2cf14610ca85780636d583ca714610cd15780636fde207a14610cf357600080fd5b80634d273e2814610ac25780634f1ef28614610af657806352d1902d14610b09578063539927be14610b1e5780635dba8c4a14610b3e57600080fd5b80633e8daafe1161036c5780633e8daafe146109fe5780633f35c8fe14610a1e578063408d79cf14610a4057806344b8991414610a6057806345b5ec2914610a805780634bd1ed7614610aa057600080fd5b80633659cfe6146109115780633690057a14610931578063382944191461097c5780633848207a1461099e5780633d4c65f3146109de57600080fd5b806321f8a721116104415780632eccd832116104055780632eccd832146107fa5780632ed19cd51461081a5780632f40992e1461083a5780633305508e1461085b57806333be496e1461087b57806333e31184146108c657600080fd5b806321f8a721146106d9578063238737b614610727578063278bb12a1461075b5780632b2eaa921461078f5780632eb57c65146107da57600080fd5b80630fc238bf116104935780630fc238bf146105c55780630fca11d2146105e5578063124cea3714610605578063185582f1146106255780631b27e01b146106705780631e0cba0d146106bb57600080fd5b806215a73b146104cf578063076cd77f146105045780630add66dd1461054f5780630b1d39b8146105715780630b90a39a146105a5575b600080fd5b3480156104db57600080fd5b506104f16000805160206134e483398151915281565b6040519081526020015b60405180910390f35b34801561051057600080fd5b5060008051602061354483398151915260005260026020527fd7a437163435b79030132855d9146a10e26570f1767311219983e0c430cfa690546104f1565b34801561055b57600080fd5b5061056f61056a366004613208565b61143d565b005b34801561057d57600080fd5b506104f17fdd5a41a7fc01f5c6d30816b17f638d6531625f1e1eaa599673ab2f6079f2dd9d81565b3480156105b157600080fd5b5061056f6105c0366004613185565b611593565b3480156105d157600080fd5b5061056f6105e0366004613185565b6115d3565b3480156105f157600080fd5b5061056f610600366004613208565b611610565b34801561061157600080fd5b5061056f610620366004613185565b6116d5565b34801561063157600080fd5b506000805160206134a483398151915260005260026020527fbc779bbce8d4fef90926dc39b56d9135e8e3795964b3adae769767961d4a94d8546104f1565b34801561067c57600080fd5b506000805160206134e483398151915260005260026020527f5a1993193b8890c75d83157b2c2c12b144545357ab60021d7429856434de051b546104f1565b3480156106c757600080fd5b506104f1665374616b696e6760c81b81565b3480156106e557600080fd5b5061070f6106f4366004613122565b6000908152600460205260409020546001600160a01b031690565b6040516001600160a01b0390911681526020016104fb565b34801561073357600080fd5b506104f17f1d36f8ce53f59e624857e1d8dc7932d19981a2ea1b8faa4eb8ff843fc3e5a27881565b34801561076757600080fd5b506104f17f9b2e0c7fdae148f225bae7deb92d7e7bd24bb77edb12956e8fa7204900dd8a2281565b34801561079b57600080fd5b5060008051602061352483398151915260005260026020527f270fb31b28afd06ad35288bc3cb901686a4c5a15239e966fd9b64269abd226c3546104f1565b3480156107e657600080fd5b5061056f6107f5366004613122565b611712565b34801561080657600080fd5b5061056f610815366004613185565b611759565b34801561082657600080fd5b5061056f610835366004613122565b611796565b34801561084657600080fd5b506104f16914995dd85c99141bdbdb60b21b81565b34801561086757600080fd5b5061056f610876366004613122565b6117dd565b34801561088757600080fd5b506000805160206135cb83398151915260005260026020527f8e8c0bef3b4557d74ba01e0433728c574990153e35cacae69cb26f23a8a40175546104f1565b3480156108d257600080fd5b506000805160206134c483398151915260005260026020527ff3497fe1496bfc19eaef6d253f75ec2e9cfe1b4f6080c29192641567c6fc5d87546104f1565b34801561091d57600080fd5b5061056f61092c366004612fc4565b611824565b34801561093d57600080fd5b506000805160206135ab83398151915260005260026020527f14e650c949c7cc3fca2efe79b3711fc734b4df488cc27c4137f35bd0adaae7fa546104f1565b34801561098857600080fd5b506104f160008051602061352483398151915281565b3480156109aa57600080fd5b506109ce6109b9366004613122565b60009081526020819052604090205460ff1690565b60405190151581526020016104fb565b3480156109ea57600080fd5b5061056f6109f9366004613185565b61187e565b348015610a0a57600080fd5b5061056f610a19366004613185565b6118bb565b348015610a2a57600080fd5b506104f16000805160206135ab83398151915281565b348015610a4c57600080fd5b5061056f610a5b366004613185565b6118f8565b348015610a6c57600080fd5b5061056f610a7b366004613185565b611935565b348015610a8c57600080fd5b5061056f610a9b366004613185565b611972565b348015610aac57600080fd5b506104f16a4d61696e74656e616e636560a81b81565b348015610ace57600080fd5b506104f17f77884798208df1e64f70968be41ef2d3211ec53613397ca59313416813df088881565b61056f610b043660046130d2565b6119ba565b348015610b1557600080fd5b506104f1611b15565b348015610b2a57600080fd5b5061056f610b39366004612ffe565b611bc8565b348015610b4a57600080fd5b5060008051602061350483398151915260005260026020527f38eb620cc1355554391bc9d0c224a726d66edf7c3eb2d67af166d6e81fe44562546104f1565b348015610b9557600080fd5b506104f17f9f1de481f899d76889aa8a2b44cc7b604d42691aa93d4ba618a1a1fd439f505081565b348015610bc957600080fd5b506104f17fe10074dceffb75f13bf0ce50145afd35182d63796823f1280ce40e01c19109e781565b348015610bfd57600080fd5b5060026020527fc77500645c8acbf6137a0e04460f85359483e3b08db30285cca2957db0c90904547fca55256fa8d248a334a7cb4ca72d9aec97700e81b3784b43c388b9a8d0e2b8e3547f77884798208df1e64f70968be41ef2d3211ec53613397ca59313416813df08886000527fba5524e01c8da4a46e6f70a8f29f4dc63d299ad01d2f01ccae9666cb85f6f7c054604080519384526020840192909252908201526060016104fb565b348015610cb457600080fd5b506104f17111dbdd995c9b985b98d950dbdb9d1c9858dd60721b81565b348015610cdd57600080fd5b506104f16000805160206135cb83398151915281565b348015610cff57600080fd5b506104f160008051602061354483398151915281565b348015610d2157600080fd5b5061056f610d30366004613122565b611e60565b348015610d4157600080fd5b5061056f611ea7565b348015610d5657600080fd5b5061056f610d65366004613185565b611ebb565b348015610d7657600080fd5b5060008051602061348483398151915260005260026020527f673c817b54d53459fa437d6b11ba6445e517d8dc789e6b815675ff10e6aeeb5d546104f1565b348015610dc157600080fd5b50609d5461070f906001600160a01b031681565b348015610de157600080fd5b5061056f610df0366004613122565b611ef8565b348015610e0157600080fd5b506104f17f9346226931826838eedd13d9677fa33551e7c81f604b171ef3fac355458da9aa81565b348015610e3557600080fd5b506104f169456e7653746f7261676560b01b81565b348015610e5657600080fd5b5061056f610e65366004613122565b611f3f565b348015610e7657600080fd5b5061056f610e85366004613154565b611f86565b348015610e9657600080fd5b5061056f610ea5366004613185565b612104565b348015610eb657600080fd5b5061056f610ec53660046131c2565b61215a565b348015610ed657600080fd5b50606b546001600160a01b031661070f565b348015610ef457600080fd5b5060026020527fe6679752544e0074a1c9bec26775117fd40d133ce43cc443fb5f2512ebd7c2af547f89fc1b873e9ef0767cf41719c69200c3f894c43d73c49eb537ca60ec0a2d14bc547fa04c555f883d07b5c5fe85061c632b6bfec696b67afa8ad5e9773b89249984b2547fdd5a41a7fc01f5c6d30816b17f638d6531625f1e1eaa599673ab2f6079f2dd9d6000527f286a480438fb7eb9f5465ec436e6de865b71284ceb2be7ff1cea98f38c263082546040805194855260208501939093529183015260608201526080016104fb565b348015610fd257600080fd5b506104f161271081565b348015610fe857600080fd5b506109ce610ff7366004613154565b61222f565b34801561100857600080fd5b5061101c611017366004613122565b612390565b6040516104fb91906132b8565b34801561103557600080fd5b506104f16c42616c6c6f7453746f7261676560981b81565b34801561105957600080fd5b5061056f611068366004613122565b612432565b34801561107957600080fd5b5061056f611088366004613185565b612479565b34801561109957600080fd5b506104f17f6c6f69f426081752a5d3e73746599acd2a4cb145d5de4203ca1e3473b281680b81565b3480156110cd57600080fd5b506104f16110dc366004613122565b60009081526006602052604090205490565b3480156110fa57600080fd5b5061056f611109366004612fc4565b6124b6565b34801561111a57600080fd5b506104f160008051602061350483398151915281565b34801561113c57600080fd5b5061114561255e565b604080519283526020830191909152016104fb565b34801561116657600080fd5b506104f16000805160206134a483398151915281565b34801561118857600080fd5b5061056f6111973660046131c2565b6125c8565b3480156111a857600080fd5b506104f16111b7366004613122565b60009081526002602052604090205490565b3480156111d557600080fd5b5061056f6111e4366004613185565b61269f565b3480156111f557600080fd5b506104f160008051602061348483398151915281565b34801561121757600080fd5b5061101c611226366004613122565b6126ee565b34801561123757600080fd5b506104f16000805160206134c483398151915281565b34801561125957600080fd5b506104f17fb38b2c133e931937bd95337c65c8aefa7040ed64bbed732e3e29a4944c65747381565b34801561128d57600080fd5b506104f17fc9e15e34073efbcd0328740feaf503caac9124b55b38c73d1a97b53da80a2f6081565b3480156112c157600080fd5b506104f17f04f7b94450bbcad85f37ea47cd1062728f884bb2040e357738f8fd53056134bc81565b3480156112f557600080fd5b506000805160206135eb83398151915260005260026020527f38ddebd16170f2328156b72e009b30efe6e74a1b9fc4389d05f50efa2a42c6f8546104f1565b34801561134057600080fd5b5061114561270b565b34801561135557600080fd5b506104f1611364366004613122565b60009081526001602052604090205490565b34801561138257600080fd5b5061056f611391366004613185565b612771565b3480156113a257600080fd5b5061056f6113b1366004613122565b6127b4565b3480156113c257600080fd5b5061056f6113d1366004612fc4565b6127fb565b3480156113e257600080fd5b506104f16000805160206135eb83398151915281565b34801561140457600080fd5b5061056f611413366004613122565b612871565b34801561142457600080fd5b5061056f611433366004613122565b6128b8565b905090565b336114466128ff565b6001600160a01b0316146114755760405162461bcd60e51b815260040161146c906132cb565b60405180910390fd5b61271081836114848688613392565b61148e9190613392565b6114989190613392565b146114e55760405162461bcd60e51b815260206004820152601e60248201527f57726f6e6720726577617264206469737472756274696f6e20726174696f0000604482015260640161146c565b61150f7fc9e15e34073efbcd0328740feaf503caac9124b55b38c73d1a97b53da80a2f608561291f565b6115397f9f1de481f899d76889aa8a2b44cc7b604d42691aa93d4ba618a1a1fd439f50508461291f565b6115637f9346226931826838eedd13d9677fa33551e7c81f604b171ef3fac355458da9aa8361291f565b61158d7fdd5a41a7fc01f5c6d30816b17f638d6531625f1e1eaa599673ab2f6079f2dd9d8261291f565b50505050565b3361159c6128ff565b6001600160a01b0316146115c25760405162461bcd60e51b815260040161146c906132cb565b6115d0611413826020015190565b50565b336115dc6128ff565b6001600160a01b0316146116025760405162461bcd60e51b815260040161146c906132cb565b6115d06113b1826020015190565b336116196128ff565b6001600160a01b03161461163f5760405162461bcd60e51b815260040161146c906132cb565b6116697f1d36f8ce53f59e624857e1d8dc7932d19981a2ea1b8faa4eb8ff843fc3e5a2788561291f565b6116937fb38b2c133e931937bd95337c65c8aefa7040ed64bbed732e3e29a4944c6574738461291f565b6116bd7f77884798208df1e64f70968be41ef2d3211ec53613397ca59313416813df08888361291f565b61158d6000805160206135eb8339815191528261291f565b336116de6128ff565b6001600160a01b0316146117045760405162461bcd60e51b815260040161146c906132cb565b6115d0611068826020015190565b3361171b6128ff565b6001600160a01b0316146117415760405162461bcd60e51b815260040161146c906132cb565b6115d06000805160206135448339815191528261291f565b336117626128ff565b6001600160a01b0316146117885760405162461bcd60e51b815260040161146c906132cb565b6115d0611433826020015190565b3361179f6128ff565b6001600160a01b0316146117c55760405162461bcd60e51b815260040161146c906132cb565b6115d06000805160206135048339815191528261291f565b336117e66128ff565b6001600160a01b03161461180c5760405162461bcd60e51b815260040161146c906132cb565b6115d06000805160206134c48339815191528261291f565b61182c61296e565b611847816040518060200160405280600081525060006129c8565b6040516001600160a01b038216907f2a74bbaf99cf25202925743012bb137262ab3432c821e1ba94ddbecac2ea970890600090a250565b336118876128ff565b6001600160a01b0316146118ad5760405162461bcd60e51b815260040161146c906132cb565b6115d0610835826020015190565b336118c46128ff565b6001600160a01b0316146118ea5760405162461bcd60e51b815260040161146c906132cb565b6115d0610df0826020015190565b336119016128ff565b6001600160a01b0316146119275760405162461bcd60e51b815260040161146c906132cb565b6115d0610d30826020015190565b3361193e6128ff565b6001600160a01b0316146119645760405162461bcd60e51b815260040161146c906132cb565b6115d0610876826020015190565b3361197b6128ff565b6001600160a01b0316146119a15760405162461bcd60e51b815260040161146c906132cb565b602081015160408201516119b582826125c8565b505050565b306001600160a01b037f0000000000000000000000000000000000000000000000000000000000000000161415611a485760405162461bcd60e51b815260206004820152602c60248201527f46756e6374696f6e206d7573742062652063616c6c6564207468726f7567682060448201526b19195b1959d85d1958d85b1b60a21b606482015260840161146c565b7f00000000000000000000000000000000000000000000000000000000000000006001600160a01b0316611a91600080516020613564833981519152546001600160a01b031690565b6001600160a01b031614611afc5760405162461bcd60e51b815260206004820152602c60248201527f46756e6374696f6e206d7573742062652063616c6c6564207468726f7567682060448201526b6163746976652070726f787960a01b606482015260840161146c565b611b0582612b42565b611b11828260016129c8565b5050565b6000306001600160a01b037f00000000000000000000000000000000000000000000000000000000000000001614611bb55760405162461bcd60e51b815260206004820152603860248201527f555550535570677261646561626c653a206d757374206e6f742062652063616c60448201527f6c6564207468726f7567682064656c656761746563616c6c0000000000000000606482015260840161146c565b5060008051602061356483398151915290565b603854610100900460ff1615808015611be85750603854600160ff909116105b80611c025750303b158015611c02575060385460ff166001145b611c655760405162461bcd60e51b815260206004820152602e60248201527f496e697469616c697a61626c653a20636f6e747261637420697320616c72656160448201526d191e481a5b9a5d1a585b1a5e995960921b606482015260840161146c565b6038805460ff191660011790558015611c88576038805461ff0019166101001790555b600080516020613564833981519152546001600160a01b0385811691161415611d095760405162461bcd60e51b815260206004820152602d60248201527f72656769737472792073686f756c64206e6f742062652073616d65206173206960448201526c36b83632b6b2b73a30ba34b7b760991b606482015260840161146c565b611d11612b71565b611d1a846124b6565b60005b8251811015611e14576000611d57858381518110611d3d57611d3d613442565b602002602001015160009081526002602052604090205490565b9050838281518110611d6b57611d6b613442565b60200260200101516000141580611d8157508015155b611dc05760405162461bcd60e51b815260206004820152601060248201526f696e76616c6964207661726961626c6560801b604482015260640161146c565b80611e0157611e01858381518110611dda57611dda613442565b6020026020010151858481518110611df457611df4613442565b602002602001015161291f565b5080611e0c81613411565b915050611d1d565b50801561158d576038805461ff0019169055604051600181527f7f26b83ff96e1f2b6a682f133852f6798a09c465da95921460cefb38474024989060200160405180910390a150505050565b33611e696128ff565b6001600160a01b031614611e8f5760405162461bcd60e51b815260040161146c906132cb565b6115d06000805160206135eb8339815191528261291f565b611eaf61296e565b611eb96000612ba0565b565b33611ec46128ff565b6001600160a01b031614611eea5760405162461bcd60e51b815260040161146c906132cb565b6115d06107f5826020015190565b33611f016128ff565b6001600160a01b031614611f275760405162461bcd60e51b815260040161146c906132cb565b6115d06000805160206135ab8339815191528261291f565b33611f486128ff565b6001600160a01b031614611f6e5760405162461bcd60e51b815260040161146c906132cb565b6115d06000805160206134e48339815191528261291f565b6000805160206135ab833981519152821415611fa557611b11816118bb565b7fe10074dceffb75f13bf0ce50145afd35182d63796823f1280ce40e01c19109e7821415611fd657611b1181611972565b7f6c6f69f426081752a5d3e73746599acd2a4cb145d5de4203ca1e3473b281680b82141561200757611b1181612771565b6000805160206134a483398151915282141561202657611b1181611593565b6000805160206134c483398151915282141561204557611b1181611935565b60008051602061350483398151915282141561206457611b118161187e565b60008051602061352483398151915282141561208357611b11816115d3565b7f9b2e0c7fdae148f225bae7deb92d7e7bd24bb77edb12956e8fa7204900dd8a228214156120b457611b1181612104565b7f04f7b94450bbcad85f37ea47cd1062728f884bb2040e357738f8fd53056134bc8214156120e557611b118161269f565b6000805160206135eb833981519152821415611b1157611b11816118f8565b3361210d6128ff565b6001600160a01b0316146121335760405162461bcd60e51b815260040161146c906132cb565b60208101516040820151606083015160808401516121538484848461143d565b5050505050565b336121636128ff565b6001600160a01b0316146121895760405162461bcd60e51b815260040161146c906132cb565b808211156121ff5760405162461bcd60e51b815260206004820152603e60248201527f4d696e696d756d207374616b696e67206d75737420626520736d616c6c65722060448201527f616e6420657175616c207468616e206d6178696d756d207374616b696e670000606482015260840161146c565b6122176000805160206135448339815191528361291f565b611b116000805160206134848339815191528261291f565b60007f9b2e0c7fdae148f225bae7deb92d7e7bd24bb77edb12956e8fa7204900dd8a228314156122bb5760008060008085806020019051810190612273919061323a565b93509350935093506127108183858761228c9190613392565b6122969190613392565b6122a09190613392565b146122b257600094505050505061238a565b50505050612386565b7f6c6f69f426081752a5d3e73746599acd2a4cb145d5de4203ca1e3473b281680b83148061230857507fe10074dceffb75f13bf0ce50145afd35182d63796823f1280ce40e01c19109e783145b15612342576000808380602001905181019061232491906131e4565b915091508082111561233b5760009250505061238a565b5050612386565b6000805160206134c48339815191528314156123865760008280602001905181019061236e919061313b565b90506103e881101561238457600091505061238a565b505b5060015b92915050565b60008181526003602052604090208054606091906123ad906133d6565b80601f01602080910402602001604051908101604052809291908181526020018280546123d9906133d6565b80156124265780601f106123fb57610100808354040283529160200191612426565b820191906000526020600020905b81548152906001019060200180831161240957829003601f168201915b50505050509050919050565b3361243b6128ff565b6001600160a01b0316146124615760405162461bcd60e51b815260040161146c906132cb565b6115d06000805160206135cb8339815191528261291f565b336124826128ff565b6001600160a01b0316146124a85760405162461bcd60e51b815260040161146c906132cb565b6115d0610e65826020015190565b6124be61296e565b6001600160a01b0381166125145760405162461bcd60e51b815260206004820152601a60248201527f416464726573732073686f756c64206265206e6f6e2d7a65726f000000000000604482015260640161146c565b609d80546001600160a01b0319166001600160a01b0383169081179091556040517f278c70ced5f3e0e5eeb385b5ff9cb735748ba00a625147e66065ed48fc1562cd90600090a250565b60026020527fd7a437163435b79030132855d9146a10e26570f1767311219983e0c430cfa6905460008051602061348483398151915260009081527f673c817b54d53459fa437d6b11ba6445e517d8dc789e6b815675ff10e6aeeb5d54909182915b915091509091565b336125d16128ff565b6001600160a01b0316146125f75760405162461bcd60e51b815260040161146c906132cb565b8082111561266f576040805162461bcd60e51b81526020600482015260248101919091527f4d696e696d756d206475726174696f6e206d75737420626520736d616c6c657260448201527f20616e6420657175616c207468616e206d6178696d756d206475726174696f6e606482015260840161146c565b6126876000805160206135cb8339815191528361291f565b611b116000805160206134e48339815191528261291f565b336126a86128ff565b6001600160a01b0316146126ce5760405162461bcd60e51b815260040161146c906132cb565b602081015160408201516060830151608084015161215384848484611610565b60008181526005602052604090208054606091906123ad906133d6565b60026020527f8e8c0bef3b4557d74ba01e0433728c574990153e35cacae69cb26f23a8a40175546000805160206134e483398151915260009081527f5a1993193b8890c75d83157b2c2c12b144545357ab60021d7429856434de051b54909182916125c0565b3361277a6128ff565b6001600160a01b0316146127a05760405162461bcd60e51b815260040161146c906132cb565b602081015160408201516119b5828261215a565b336127bd6128ff565b6001600160a01b0316146127e35760405162461bcd60e51b815260040161146c906132cb565b6115d06000805160206135248339815191528261291f565b61280361296e565b6001600160a01b0381166128685760405162461bcd60e51b815260206004820152602660248201527f4f776e61626c653a206e6577206f776e657220697320746865207a65726f206160448201526564647265737360d01b606482015260840161146c565b6115d081612ba0565b3361287a6128ff565b6001600160a01b0316146128a05760405162461bcd60e51b815260040161146c906132cb565b6115d06000805160206134a48339815191528261291f565b336128c16128ff565b6001600160a01b0316146128e75760405162461bcd60e51b815260040161146c906132cb565b6115d06000805160206134848339815191528261291f565b60006114387111dbdd995c9b985b98d950dbdb9d1c9858dd60721b612bf2565b6000828152600260205260409020819055817f58d7c10adfd5778016889c15d422d57f2975b9292415b54fe5d8cd42412006128260405161296291815260200190565b60405180910390a25050565b606b546001600160a01b03163314611eb95760405162461bcd60e51b815260206004820181905260248201527f4f776e61626c653a2063616c6c6572206973206e6f7420746865206f776e6572604482015260640161146c565b7f4910fdfa16fed3260ed0e7147f7cc6da11a60208b5b9406d12a635614ffd91435460ff16156129fb576119b583612c6f565b826001600160a01b03166352d1902d6040518163ffffffff1660e01b815260040160206040518083038186803b158015612a3457600080fd5b505afa925050508015612a64575060408051601f3d908101601f19168201909252612a619181019061313b565b60015b612ac75760405162461bcd60e51b815260206004820152602e60248201527f45524331393637557067726164653a206e657720696d706c656d656e7461746960448201526d6f6e206973206e6f74205555505360901b606482015260840161146c565b6000805160206135648339815191528114612b365760405162461bcd60e51b815260206004820152602960248201527f45524331393637557067726164653a20756e737570706f727465642070726f786044820152681a58589b195555525160ba1b606482015260840161146c565b506119b5838383612d0b565b33612b4b6128ff565b6001600160a01b0316146115d05760405162461bcd60e51b815260040161146c906132cb565b603854610100900460ff16612b985760405162461bcd60e51b815260040161146c906132f2565b611eb9612d30565b606b80546001600160a01b038381166001600160a01b0319831681179093556040519116919082907f8be0079c531659141344cd1fd0a4f28419497f9722a3daafe3b4186f6b6457e090600090a35050565b609d54604051630d2020dd60e01b8152600481018390526000916001600160a01b031690630d2020dd9060240160206040518083038186803b158015612c3757600080fd5b505afa158015612c4b573d6000803e3d6000fd5b505050506040513d601f19601f8201168201806040525081019061238a9190612fe1565b6001600160a01b0381163b612cdc5760405162461bcd60e51b815260206004820152602d60248201527f455243313936373a206e657720696d706c656d656e746174696f6e206973206e60448201526c1bdd08184818dbdb9d1c9858dd609a1b606482015260840161146c565b60008051602061356483398151915280546001600160a01b0319166001600160a01b0392909216919091179055565b612d1483612d60565b600082511180612d215750805b156119b55761158d8383612da0565b603854610100900460ff16612d575760405162461bcd60e51b815260040161146c906132f2565b611eb933612ba0565b612d6981612c6f565b6040516001600160a01b038216907fbc7cd75a20ee27fd9adebab32041f755214dbc6bffa90cc0225b39da2e5c2d3b90600090a250565b6060612dc5838360405180606001604052806027815260200161358460279139612dcc565b9392505050565b60606001600160a01b0384163b612e345760405162461bcd60e51b815260206004820152602660248201527f416464726573733a2064656c65676174652063616c6c20746f206e6f6e2d636f6044820152651b9d1c9858dd60d21b606482015260840161146c565b600080856001600160a01b031685604051612e4f919061329c565b600060405180830381855af49150503d8060008114612e8a576040519150601f19603f3d011682016040523d82523d6000602084013e612e8f565b606091505b5091509150612e9f828286612ea9565b9695505050505050565b60608315612eb8575081612dc5565b825115612ec85782518084602001fd5b8160405162461bcd60e51b815260040161146c91906132b8565b600082601f830112612ef357600080fd5b81356020612f08612f038361336e565b61333d565b80838252828201915082860187848660051b8901011115612f2857600080fd5b60005b85811015612f4757813584529284019290840190600101612f2b565b5090979650505050505050565b600082601f830112612f6557600080fd5b813567ffffffffffffffff811115612f7f57612f7f613458565b612f92601f8201601f191660200161333d565b818152846020838601011115612fa757600080fd5b816020850160208301376000918101602001919091529392505050565b600060208284031215612fd657600080fd5b8135612dc58161346e565b600060208284031215612ff357600080fd5b8151612dc58161346e565b60008060006060848603121561301357600080fd5b833561301e8161346e565b925060208481013567ffffffffffffffff8082111561303c57600080fd5b818701915087601f83011261305057600080fd5b813561305e612f038261336e565b8082825285820191508585018b878560051b880101111561307e57600080fd5b600095505b838610156130a1578035835260019590950194918601918601613083565b509650505060408701359250808311156130ba57600080fd5b50506130c886828701612ee2565b9150509250925092565b600080604083850312156130e557600080fd5b82356130f08161346e565b9150602083013567ffffffffffffffff81111561310c57600080fd5b61311885828601612f54565b9150509250929050565b60006020828403121561313457600080fd5b5035919050565b60006020828403121561314d57600080fd5b5051919050565b6000806040838503121561316757600080fd5b82359150602083013567ffffffffffffffff81111561310c57600080fd5b60006020828403121561319757600080fd5b813567ffffffffffffffff8111156131ae57600080fd5b6131ba84828501612f54565b949350505050565b600080604083850312156131d557600080fd5b50508035926020909101359150565b600080604083850312156131f757600080fd5b505080516020909101519092909150565b6000806000806080858703121561321e57600080fd5b5050823594602084013594506040840135936060013592509050565b6000806000806080858703121561325057600080fd5b505082516020840151604085015160609095015191969095509092509050565b600081518084526132888160208601602086016133aa565b601f01601f19169290920160200192915050565b600082516132ae8184602087016133aa565b9190910192915050565b602081526000612dc56020830184613270565b6020808252600d908201526c2737902832b936b4b9b9b4b7b760991b604082015260600190565b6020808252602b908201527f496e697469616c697a61626c653a20636f6e7472616374206973206e6f74206960408201526a6e697469616c697a696e6760a81b606082015260800190565b604051601f8201601f1916810167ffffffffffffffff8111828210171561336657613366613458565b604052919050565b600067ffffffffffffffff82111561338857613388613458565b5060051b60200190565b600082198211156133a5576133a561342c565b500190565b60005b838110156133c55781810151838201526020016133ad565b8381111561158d5750506000910152565b600181811c908216806133ea57607f821691505b6020821081141561340b57634e487b7160e01b600052602260045260246000fd5b50919050565b60006000198214156134255761342561342c565b5060010190565b634e487b7160e01b600052601160045260246000fd5b634e487b7160e01b600052603260045260246000fd5b634e487b7160e01b600052604160045260246000fd5b6001600160a01b03811681146115d057600080fdfe18ad4415ef4a621ce1a136395c51ab6c3712bb2e24b79d526059925cea58dcb8829561ab7af084b7efc6600518d2df79b8d95f3f4c3a550f54f8f7ec7d2b80578086da5becff4dfac91a3105821b361078d2d4abba0ccc2401b974cf0dcf05c10c4fbe9dc9de15dd7c0d064975ee1a2f2f9b954fa0e65d4f6cddba94884bdc3e89dd490ecaf395283ed4ff2fd9557ca767fc425dce063451a9b0da6d72f600c3be90e461bbdb9a95a694f7796912ea04244caf7f5b60ad7ded17e16821d3e44c0b09c9badbbeb6c813a598ee910770a39ccda797a1940439bb6e47fc6c87548b360894a13ba1a3210667c828492db98dca3e2076cc3735a920a3ca505d382bbc416464726573733a206c6f772d6c6576656c2064656c65676174652063616c6c206661696c65642a268972a70c8c688b62366bdfdd9bb09cf19d3e5b6e7e7bb158e671ffdcedd2c69fc6b7d0efc934fd5a3581c7253a7107a952526bb6dbcd814ef8d8dae1f44a7c1150f0e1a39ff55552d52764f97e6c387e2a247e1df344369f122c4254be2fa26469706673582212202c8653e36b220c112a58c09489c7cd93ace32a376232566dee240b6a517af8bc64736f6c63430008060033",
  "linkReferences": {},
  "deployedLinkReferences": {}
}