{
  "_format": "hh-sol-artifact-1",
  "contractName": "EternalStorage",
  "sourceName": "contracts/storage/EternalStorage.sol",
  "abi": [
    {
      "inputs": [
        {
          "internalType": "bytes32",
          "name": "h",
          "type": "bytes32"
        }
      ],
      "name": "getAddress",
      "outputs": [
        {
          "internalType": "address",
          "name": "",
          "type": "address"
        }
      ],
      "stateMutability": "view",
      "type": "function"
    },
    {
      "inputs": [
        {
          "internalType": "bytes32",
          "name": "h",
          "type": "bytes32"
        }
      ],
      "name": "getBoolean",
      "outputs": [
        {
          "internalType": "bool",
          "name": "",
          "type": "bool"
        }
      ],
      "stateMutability": "view",
      "type": "function"
    },
    {
      "inputs": [
        {
          "internalType": "bytes32",
          "name": "h",
          "type": "bytes32"
        }
      ],
      "name": "getBytes",
      "outputs": [
        {
          "internalType": "bytes",
          "name": "",
          "type": "bytes"
        }
      ],
      "stateMutability": "view",
      "type": "function"
    },
    {
      "inputs": [
        {
          "internalType": "bytes32",
          "name": "h",
          "type": "bytes32"
        }
      ],
      "name": "getBytes32",
      "outputs": [
        {
          "internalType": "bytes32",
          "name": "",
          "type": "bytes32"
        }
      ],
      "stateMutability": "view",
      "type": "function"
    },
    {
      "inputs": [
        {
          "internalType": "bytes32",
          "name": "h",
          "type": "bytes32"
        }
      ],
      "name": "getInt",
      "outputs": [
        {
          "internalType": "int256",
          "name": "",
          "type": "int256"
        }
      ],
      "stateMutability": "view",
      "type": "function"
    },
    {
      "inputs": [
        {
          "internalType": "bytes32",
          "name": "h",
          "type": "bytes32"
        }
      ],
      "name": "getString",
      "outputs": [
        {
          "internalType": "string",
          "name": "",
          "type": "string"
        }
      ],
      "stateMutability": "view",
      "type": "function"
    },
    {
      "inputs": [
        {
          "internalType": "bytes32",
          "name": "h",
          "type": "bytes32"
        }
      ],
      "name": "getUint",
      "outputs": [
        {
          "internalType": "uint256",
          "name": "",
          "type": "uint256"
        }
      ],
      "stateMutability": "view",
      "type": "function"
    }
  ],
  "bytecode": "0x608060405234801561001057600080fd5b5061034c806100206000396000f3fe608060405234801561001057600080fd5b506004361061007d5760003560e01c8063a6ed563e1161005b578063a6ed563e1461011b578063bd02d0f514610149578063c031a18014610169578063dc97d9621461017c57600080fd5b806321f8a721146100825780633848207a146100c8578063986e791a146100fb575b600080fd5b6100ab61009036600461025b565b6000908152600460205260409020546001600160a01b031690565b6040516001600160a01b0390911681526020015b60405180910390f35b6100eb6100d636600461025b565b60009081526020819052604090205460ff1690565b60405190151581526020016100bf565b61010e61010936600461025b565b61019c565b6040516100bf91906102c1565b61013b61012936600461025b565b60009081526006602052604090205490565b6040519081526020016100bf565b61013b61015736600461025b565b60009081526002602052604090205490565b61010e61017736600461025b565b61023e565b61013b61018a36600461025b565b60009081526001602052604090205490565b60008181526003602052604090208054606091906101b9906102db565b80601f01602080910402602001604051908101604052809291908181526020018280546101e5906102db565b80156102325780601f1061020757610100808354040283529160200191610232565b820191906000526020600020905b81548152906001019060200180831161021557829003601f168201915b50505050509050919050565b60008181526005602052604090208054606091906101b9906102db565b60006020828403121561026d57600080fd5b5035919050565b6000815180845260005b8181101561029a5760208185018101518683018201520161027e565b818111156102ac576000602083870101525b50601f01601f19169290920160200192915050565b6020815260006102d46020830184610274565b9392505050565b600181811c908216806102ef57607f821691505b6020821081141561031057634e487b7160e01b600052602260045260246000fd5b5091905056fea2646970667358221220c9217847b7002aa1b6cc237f6a32282a123e2beb0b5de5f1c1216c9473e6ac3b64736f6c63430008060033",
  "linkReferences": {},
  "deployedLinkReferences": {}
}