{
  "_format": "hh-sol-artifact-1",
  "contractName": "GovChecker",
  "sourceName": "contracts/GovChecker.sol",
  "abi": [
    {
      "anonymous": false,
      "inputs": [
        {
          "indexed": false,
          "internalType": "uint8",
          "name": "version",
          "type": "uint8"
        }
      ],
      "name": "Initialized",
      "type": "event"
    },
    {
      "anonymous": false,
      "inputs": [
        {
          "indexed": true,
          "internalType": "address",
          "name": "previousOwner",
          "type": "address"
        },
        {
          "indexed": true,
          "internalType": "address",
          "name": "newOwner",
          "type": "address"
        }
      ],
      "name": "OwnershipTransferred",
      "type": "event"
    },
    {
      "inputs": [],
      "name": "BALLOT_STORAGE_NAME",
      "outputs": [
        {
          "internalType": "bytes32",
          "name": "",
          "type": "bytes32"
        }
      ],
      "stateMutability": "view",
      "type": "function"
    },
    {
      "inputs": [],
      "name": "ENV_STORAGE_NAME",
      "outputs": [
        {
          "internalType": "bytes32",
          "name": "",
          "type": "bytes32"
        }
      ],
      "stateMutability": "view",
      "type": "function"
    },
    {
      "inputs": [],
      "name": "GOV_NAME",
      "outputs": [
        {
          "internalType": "bytes32",
          "name": "",
          "type": "bytes32"
        }
      ],
      "stateMutability": "view",
      "type": "function"
    },
    {
      "inputs": [],
      "name": "MAINTENANCE_NAME",
      "outputs": [
        {
          "internalType": "bytes32",
          "name": "",
          "type": "bytes32"
        }
      ],
      "stateMutability": "view",
      "type": "function"
    },
    {
      "inputs": [],
      "name": "REWARD_POOL_NAME",
      "outputs": [
        {
          "internalType": "bytes32",
          "name": "",
          "type": "bytes32"
        }
      ],
      "stateMutability": "view",
      "type": "function"
    },
    {
      "inputs": [],
      "name": "STAKING_NAME",
      "outputs": [
        {
          "internalType": "bytes32",
          "name": "",
          "type": "bytes32"
        }
      ],
      "stateMutability": "view",
      "type": "function"
    },
    {
      "inputs": [],
      "name": "owner",
      "outputs": [
        {
          "internalType": "address",
          "name": "",
          "type": "address"
        }
      ],
      "stateMutability": "view",
      "type": "function"
    },
    {
      "inputs": [],
      "name": "reg",
      "outputs": [
        {
          "internalType": "contract IRegistry",
          "name": "",
          "type": "address"
        }
      ],
      "stateMutability": "view",
      "type": "function"
    },
    {
      "inputs": [],
      "name": "renounceOwnership",
      "outputs": [],
      "stateMutability": "nonpayable",
      "type": "function"
    },
    {
      "inputs": [
        {
          "internalType": "address",
          "name": "_addr",
          "type": "address"
        }
      ],
      "name": "setRegistry",
      "outputs": [],
      "stateMutability": "nonpayable",
      "type": "function"
    },
    {
      "inputs": [
        {
          "internalType": "address",
          "name": "newOwner",
          "type": "address"
        }
      ],
      "name": "transferOwnership",
      "outputs": [],
      "stateMutability": "nonpayable",
      "type": "function"
    }
  ],
  "bytecode": "0x608060405234801561001057600080fd5b506103d2806100206000396000f3fe608060405234801561001057600080fd5b50600436106100a95760003560e01c8063738fdd1a11610071578063738fdd1a146101215780637bf465301461014c5780638da5cb5b146101605780639986e4b914610171578063a91ee0dc14610188578063f2fde38b1461019b57600080fd5b80631e0cba0d146100ae5780632f40992e146100d25780634bd1ed76146100e65780636c78d2cf146100fb578063715018a614610117575b600080fd5b6100bf665374616b696e6760c81b81565b6040519081526020015b60405180910390f35b6100bf6914995dd85c99141bdbdb60b21b81565b6100bf6a4d61696e74656e616e636560a81b81565b6100bf7111dbdd995c9b985b98d950dbdb9d1c9858dd60721b81565b61011f6101ae565b005b606554610134906001600160a01b031681565b6040516001600160a01b0390911681526020016100c9565b6100bf69456e7653746f7261676560b01b81565b6033546001600160a01b0316610134565b6100bf6c42616c6c6f7453746f7261676560981b81565b61011f61019636600461036c565b6101c2565b61011f6101a936600461036c565b610247565b6101b66102c0565b6101c0600061031a565b565b6101ca6102c0565b6001600160a01b0381166102255760405162461bcd60e51b815260206004820152601a60248201527f416464726573732073686f756c64206265206e6f6e2d7a65726f00000000000060448201526064015b60405180910390fd5b606580546001600160a01b0319166001600160a01b0392909216919091179055565b61024f6102c0565b6001600160a01b0381166102b45760405162461bcd60e51b815260206004820152602660248201527f4f776e61626c653a206e6577206f776e657220697320746865207a65726f206160448201526564647265737360d01b606482015260840161021c565b6102bd8161031a565b50565b6033546001600160a01b031633146101c05760405162461bcd60e51b815260206004820181905260248201527f4f776e61626c653a2063616c6c6572206973206e6f7420746865206f776e6572604482015260640161021c565b603380546001600160a01b038381166001600160a01b0319831681179093556040519116919082907f8be0079c531659141344cd1fd0a4f28419497f9722a3daafe3b4186f6b6457e090600090a35050565b60006020828403121561037e57600080fd5b81356001600160a01b038116811461039557600080fd5b939250505056fea2646970667358221220512803f71b227ee8428d78358740c323bbc74e100705016194f9ecb69851ece364736f6c63430008060033",
  "linkReferences": {},
  "deployedLinkReferences": {}
}