{
  "_format": "hh-sol-artifact-1",
  "contractName": "GovImp",
  "sourceName": "contracts/GovImp.sol",
  "abi": [
    {
      "anonymous": false,
      "inputs": [
        {
          "indexed": false,
          "internalType": "address",
          "name": "previousAdmin",
          "type": "address"
        },
        {
          "indexed": false,
          "internalType": "address",
          "name": "newAdmin",
          "type": "address"
        }
      ],
      "name": "AdminChanged",
      "type": "event"
    },
    {
      "anonymous": false,
      "inputs": [
        {
          "indexed": true,
          "internalType": "address",
          "name": "beacon",
          "type": "address"
        }
      ],
      "name": "BeaconUpgraded",
      "type": "event"
    },
    {
      "anonymous": false,
      "inputs": [
        {
          "indexed": false,
          "internalType": "bytes32",
          "name": "envName",
          "type": "bytes32"
        },
        {
          "indexed": false,
          "internalType": "uint256",
          "name": "envType",
          "type": "uint256"
        },
        {
          "indexed": false,
          "internalType": "bytes",
          "name": "envVal",
          "type": "bytes"
        }
      ],
      "name": "EnvChanged",
      "type": "event"
    },
    {
      "anonymous": false,
      "inputs": [
        {
          "indexed": false,
          "internalType": "uint8",
          "name": "version",
          "type": "uint8"
        }
      ],
      "name": "Initialized",
      "type": "event"
    },
    {
      "anonymous": false,
      "inputs": [
        {
          "indexed": true,
          "internalType": "address",
          "name": "addr",
          "type": "address"
        },
        {
          "indexed": true,
          "internalType": "address",
          "name": "voter",
          "type": "address"
        }
      ],
      "name": "MemberAdded",
      "type": "event"
    },
    {
      "anonymous": false,
      "inputs": [
        {
          "indexed": true,
          "internalType": "address",
          "name": "oldAddr",
          "type": "address"
        },
        {
          "indexed": true,
          "internalType": "address",
          "name": "newAddr",
          "type": "address"
        },
        {
          "indexed": true,
          "internalType": "address",
          "name": "newVoter",
          "type": "address"
        }
      ],
      "name": "MemberChanged",
      "type": "event"
    },
    {
      "anonymous": false,
      "inputs": [
        {
          "indexed": true,
          "internalType": "address",
          "name": "addr",
          "type": "address"
        },
        {
          "indexed": true,
          "internalType": "address",
          "name": "voter",
          "type": "address"
        }
      ],
      "name": "MemberRemoved",
      "type": "event"
    },
    {
      "anonymous": false,
      "inputs": [
        {
          "indexed": true,
          "internalType": "address",
          "name": "addr",
          "type": "address"
        },
        {
          "indexed": true,
          "internalType": "address",
          "name": "voter",
          "type": "address"
        }
      ],
      "name": "MemberUpdated",
      "type": "event"
    },
    {
      "anonymous": false,
      "inputs": [
        {
          "indexed": true,
          "internalType": "uint256",
          "name": "ballotId",
          "type": "uint256"
        },
        {
          "indexed": false,
          "internalType": "string",
          "name": "reason",
          "type": "string"
        }
      ],
      "name": "NotApplicable",
      "type": "event"
    },
    {
      "anonymous": false,
      "inputs": [
        {
          "indexed": true,
          "internalType": "address",
          "name": "previousOwner",
          "type": "address"
        },
        {
          "indexed": true,
          "internalType": "address",
          "name": "newOwner",
          "type": "address"
        }
      ],
      "name": "OwnershipTransferred",
      "type": "event"
    },
    {
      "anonymous": false,
      "inputs": [
        {
          "indexed": false,
          "internalType": "uint256",
          "name": "newPeriod",
          "type": "uint256"
        }
      ],
      "name": "SetProposalTimePeriod",
      "type": "event"
    },
    {
      "anonymous": false,
      "inputs": [
        {
          "indexed": true,
          "internalType": "address",
          "name": "addr",
          "type": "address"
        }
      ],
      "name": "SetRegistry",
      "type": "event"
    },
    {
      "anonymous": false,
      "inputs": [
        {
          "indexed": true,
          "internalType": "address",
          "name": "implementation",
          "type": "address"
        }
      ],
      "name": "Upgraded",
      "type": "event"
    },
    {
      "inputs": [],
      "name": "BALLOT_DURATION_MAX_NAME",
      "outputs": [
        {
          "internalType": "bytes32",
          "name": "",
          "type": "bytes32"
        }
      ],
      "stateMutability": "view",
      "type": "function"
    },
    {
      "inputs": [],
      "name": "BALLOT_DURATION_MIN_MAX_NAME",
      "outputs": [
        {
          "internalType": "bytes32",
          "name": "",
          "type": "bytes32"
        }
      ],
      "stateMutability": "view",
      "type": "function"
    },
    {
      "inputs": [],
      "name": "BALLOT_DURATION_MIN_NAME",
      "outputs": [
        {
          "internalType": "bytes32",
          "name": "",
          "type": "bytes32"
        }
      ],
      "stateMutability": "view",
      "type": "function"
    },
    {
      "inputs": [],
      "name": "BALLOT_STORAGE_NAME",
      "outputs": [
        {
          "internalType": "bytes32",
          "name": "",
          "type": "bytes32"
        }
      ],
      "stateMutability": "view",
      "type": "function"
    },
    {
      "inputs": [],
      "name": "BASE_FEE_MAX_CHANGE_RATE_NAME",
      "outputs": [
        {
          "internalType": "bytes32",
          "name": "",
          "type": "bytes32"
        }
      ],
      "stateMutability": "view",
      "type": "function"
    },
    {
      "inputs": [],
      "name": "BLOCKS_PER_NAME",
      "outputs": [
        {
          "internalType": "bytes32",
          "name": "",
          "type": "bytes32"
        }
      ],
      "stateMutability": "view",
      "type": "function"
    },
    {
      "inputs": [],
      "name": "BLOCK_CREATION_TIME_NAME",
      "outputs": [
        {
          "internalType": "bytes32",
          "name": "",
          "type": "bytes32"
        }
      ],
      "stateMutability": "view",
      "type": "function"
    },
    {
      "inputs": [],
      "name": "BLOCK_GASLIMIT_NAME",
      "outputs": [
        {
          "internalType": "bytes32",
          "name": "",
          "type": "bytes32"
        }
      ],
      "stateMutability": "view",
      "type": "function"
    },
    {
      "inputs": [],
      "name": "BLOCK_REWARD_AMOUNT_NAME",
      "outputs": [
        {
          "internalType": "bytes32",
          "name": "",
          "type": "bytes32"
        }
      ],
      "stateMutability": "view",
      "type": "function"
    },
    {
      "inputs": [],
      "name": "BLOCK_REWARD_DISTRIBUTION_BLOCK_PRODUCER_NAME",
      "outputs": [
        {
          "internalType": "bytes32",
          "name": "",
          "type": "bytes32"
        }
      ],
      "stateMutability": "view",
      "type": "function"
    },
    {
      "inputs": [],
      "name": "BLOCK_REWARD_DISTRIBUTION_ECOSYSTEM_NAME",
      "outputs": [
        {
          "internalType": "bytes32",
          "name": "",
          "type": "bytes32"
        }
      ],
      "stateMutability": "view",
      "type": "function"
    },
    {
      "inputs": [],
      "name": "BLOCK_REWARD_DISTRIBUTION_MAINTANANCE_NAME",
      "outputs": [
        {
          "internalType": "bytes32",
          "name": "",
          "type": "bytes32"
        }
      ],
      "stateMutability": "view",
      "type": "function"
    },
    {
      "inputs": [],
      "name": "BLOCK_REWARD_DISTRIBUTION_METHOD_NAME",
      "outputs": [
        {
          "internalType": "bytes32",
          "name": "",
          "type": "bytes32"
        }
      ],
      "stateMutability": "view",
      "type": "function"
    },
    {
      "inputs": [],
      "name": "BLOCK_REWARD_DISTRIBUTION_STAKING_REWARD_NAME",
      "outputs": [
        {
          "internalType": "bytes32",
          "name": "",
          "type": "bytes32"
        }
      ],
      "stateMutability": "view",
      "type": "function"
    },
    {
      "inputs": [],
      "name": "DENOMINATOR",
      "outputs": [
        {
          "internalType": "uint256",
          "name": "",
          "type": "uint256"
        }
      ],
      "stateMutability": "view",
      "type": "function"
    },
    {
      "inputs": [],
      "name": "ENV_STORAGE_NAME",
      "outputs": [
        {
          "internalType": "bytes32",
          "name": "",
          "type": "bytes32"
        }
      ],
      "stateMutability": "view",
      "type": "function"
    },
    {
      "inputs": [],
      "name": "GASLIMIT_AND_BASE_FEE_NAME",
      "outputs": [
        {
          "internalType": "bytes32",
          "name": "",
          "type": "bytes32"
        }
      ],
      "stateMutability": "view",
      "type": "function"
    },
    {
      "inputs": [],
      "name": "GAS_TARGET_PERCENTAGE_NAME",
      "outputs": [
        {
          "internalType": "bytes32",
          "name": "",
          "type": "bytes32"
        }
      ],
      "stateMutability": "view",
      "type": "function"
    },
    {
      "inputs": [],
      "name": "GOV_NAME",
      "outputs": [
        {
          "internalType": "bytes32",
          "name": "",
          "type": "bytes32"
        }
      ],
      "stateMutability": "view",
      "type": "function"
    },
    {
      "inputs": [],
      "name": "MAINTENANCE_NAME",
      "outputs": [
        {
          "internalType": "bytes32",
          "name": "",
          "type": "bytes32"
        }
      ],
      "stateMutability": "view",
      "type": "function"
    },
    {
      "inputs": [],
      "name": "MAX_BASE_FEE_NAME",
      "outputs": [
        {
          "internalType": "bytes32",
          "name": "",
          "type": "bytes32"
        }
      ],
      "stateMutability": "view",
      "type": "function"
    },
    {
      "inputs": [],
      "name": "MAX_IDLE_BLOCK_INTERVAL_NAME",
      "outputs": [
        {
          "internalType": "bytes32",
          "name": "",
          "type": "bytes32"
        }
      ],
      "stateMutability": "view",
      "type": "function"
    },
    {
      "inputs": [],
      "name": "MAX_PRIORITY_FEE_PER_GAS_NAME",
      "outputs": [
        {
          "internalType": "bytes32",
          "name": "",
          "type": "bytes32"
        }
      ],
      "stateMutability": "view",
      "type": "function"
    },
    {
      "inputs": [],
      "name": "REWARD_POOL_NAME",
      "outputs": [
        {
          "internalType": "bytes32",
          "name": "",
          "type": "bytes32"
        }
      ],
      "stateMutability": "view",
      "type": "function"
    },
    {
      "inputs": [],
      "name": "STAKING_MAX_NAME",
      "outputs": [
        {
          "internalType": "bytes32",
          "name": "",
          "type": "bytes32"
        }
      ],
      "stateMutability": "view",
      "type": "function"
    },
    {
      "inputs": [],
      "name": "STAKING_MIN_MAX_NAME",
      "outputs": [
        {
          "internalType": "bytes32",
          "name": "",
          "type": "bytes32"
        }
      ],
      "stateMutability": "view",
      "type": "function"
    },
    {
      "inputs": [],
      "name": "STAKING_MIN_NAME",
      "outputs": [
        {
          "internalType": "bytes32",
          "name": "",
          "type": "bytes32"
        }
      ],
      "stateMutability": "view",
      "type": "function"
    },
    {
      "inputs": [],
      "name": "STAKING_NAME",
      "outputs": [
        {
          "internalType": "bytes32",
          "name": "",
          "type": "bytes32"
        }
      ],
      "stateMutability": "view",
      "type": "function"
    },
    {
      "inputs": [
        {
          "components": [
            {
              "internalType": "address",
              "name": "staker",
              "type": "address"
            },
            {
              "internalType": "address",
              "name": "voter",
              "type": "address"
            },
            {
              "internalType": "address",
              "name": "reward",
              "type": "address"
            },
            {
              "internalType": "bytes",
              "name": "name",
              "type": "bytes"
            },
            {
              "internalType": "bytes",
              "name": "enode",
              "type": "bytes"
            },
            {
              "internalType": "bytes",
              "name": "ip",
              "type": "bytes"
            },
            {
              "internalType": "uint256",
              "name": "port",
              "type": "uint256"
            },
            {
              "internalType": "uint256",
              "name": "lockAmount",
              "type": "uint256"
            },
            {
              "internalType": "bytes",
              "name": "memo",
              "type": "bytes"
            },
            {
              "internalType": "uint256",
              "name": "duration",
              "type": "uint256"
            }
          ],
          "internalType": "struct GovImp.MemberInfo",
          "name": "info",
          "type": "tuple"
        }
      ],
      "name": "addProposalToAddMember",
      "outputs": [
        {
          "internalType": "uint256",
          "name": "ballotIdx",
          "type": "uint256"
        }
      ],
      "stateMutability": "nonpayable",
      "type": "function"
    },
    {
      "inputs": [
        {
          "internalType": "bytes32",
          "name": "envName",
          "type": "bytes32"
        },
        {
          "internalType": "uint256",
          "name": "envType",
          "type": "uint256"
        },
        {
          "internalType": "bytes",
          "name": "envVal",
          "type": "bytes"
        },
        {
          "internalType": "bytes",
          "name": "memo",
          "type": "bytes"
        },
        {
          "internalType": "uint256",
          "name": "duration",
          "type": "uint256"
        }
      ],
      "name": "addProposalToChangeEnv",
      "outputs": [
        {
          "internalType": "uint256",
          "name": "ballotIdx",
          "type": "uint256"
        }
      ],
      "stateMutability": "nonpayable",
      "type": "function"
    },
    {
      "inputs": [
        {
          "internalType": "address",
          "name": "newGovAddr",
          "type": "address"
        },
        {
          "internalType": "bytes",
          "name": "memo",
          "type": "bytes"
        },
        {
          "internalType": "uint256",
          "name": "duration",
          "type": "uint256"
        }
      ],
      "name": "addProposalToChangeGov",
      "outputs": [
        {
          "internalType": "uint256",
          "name": "ballotIdx",
          "type": "uint256"
        }
      ],
      "stateMutability": "nonpayable",
      "type": "function"
    },
    {
      "inputs": [
        {
          "components": [
            {
              "internalType": "address",
              "name": "staker",
              "type": "address"
            },
            {
              "internalType": "address",
              "name": "voter",
              "type": "address"
            },
            {
              "internalType": "address",
              "name": "reward",
              "type": "address"
            },
            {
              "internalType": "bytes",
              "name": "name",
              "type": "bytes"
            },
            {
              "internalType": "bytes",
              "name": "enode",
              "type": "bytes"
            },
            {
              "internalType": "bytes",
              "name": "ip",
              "type": "bytes"
            },
            {
              "internalType": "uint256",
              "name": "port",
              "type": "uint256"
            },
            {
              "internalType": "uint256",
              "name": "lockAmount",
              "type": "uint256"
            },
            {
              "internalType": "bytes",
              "name": "memo",
              "type": "bytes"
            },
            {
              "internalType": "uint256",
              "name": "duration",
              "type": "uint256"
            }
          ],
          "internalType": "struct GovImp.MemberInfo",
          "name": "newInfo",
          "type": "tuple"
        },
        {
          "internalType": "address",
          "name": "oldStaker",
          "type": "address"
        }
      ],
      "name": "addProposalToChangeMember",
      "outputs": [
        {
          "internalType": "uint256",
          "name": "ballotIdx",
          "type": "uint256"
        }
      ],
      "stateMutability": "nonpayable",
      "type": "function"
    },
    {
      "inputs": [
        {
          "internalType": "address",
          "name": "staker",
          "type": "address"
        },
        {
          "internalType": "uint256",
          "name": "lockAmount",
          "type": "uint256"
        },
        {
          "internalType": "bytes",
          "name": "memo",
          "type": "bytes"
        },
        {
          "internalType": "uint256",
          "name": "duration",
          "type": "uint256"
        }
      ],
      "name": "addProposalToRemoveMember",
      "outputs": [
        {
          "internalType": "uint256",
          "name": "ballotIdx",
          "type": "uint256"
        }
      ],
      "stateMutability": "nonpayable",
      "type": "function"
    },
    {
      "inputs": [],
      "name": "ballotLength",
      "outputs": [
        {
          "internalType": "uint256",
          "name": "",
          "type": "uint256"
        }
      ],
      "stateMutability": "view",
      "type": "function"
    },
    {
      "inputs": [],
      "name": "checkUnfinalized",
      "outputs": [
        {
          "internalType": "bool",
          "name": "",
          "type": "bool"
        }
      ],
      "stateMutability": "view",
      "type": "function"
    },
    {
      "inputs": [],
      "name": "finzalizeEndedVote",
      "outputs": [],
      "stateMutability": "nonpayable",
      "type": "function"
    },
    {
      "inputs": [],
      "name": "getBallotInVoting",
      "outputs": [
        {
          "internalType": "uint256",
          "name": "",
          "type": "uint256"
        }
      ],
      "stateMutability": "view",
      "type": "function"
    },
    {
      "inputs": [],
      "name": "getMaxStaking",
      "outputs": [
        {
          "internalType": "uint256",
          "name": "",
          "type": "uint256"
        }
      ],
      "stateMutability": "view",
      "type": "function"
    },
    {
      "inputs": [],
      "name": "getMaxVotingDuration",
      "outputs": [
        {
          "internalType": "uint256",
          "name": "",
          "type": "uint256"
        }
      ],
      "stateMutability": "view",
      "type": "function"
    },
    {
      "inputs": [
        {
          "internalType": "uint256",
          "name": "idx",
          "type": "uint256"
        }
      ],
      "name": "getMember",
      "outputs": [
        {
          "internalType": "address",
          "name": "",
          "type": "address"
        }
      ],
      "stateMutability": "view",
      "type": "function"
    },
    {
      "inputs": [
        {
          "internalType": "uint256",
          "name": "idx",
          "type": "uint256"
        }
      ],
      "name": "getMemberFromNodeIdx",
      "outputs": [
        {
          "internalType": "address",
          "name": "",
          "type": "address"
        }
      ],
      "stateMutability": "view",
      "type": "function"
    },
    {
      "inputs": [],
      "name": "getMemberLength",
      "outputs": [
        {
          "internalType": "uint256",
          "name": "",
          "type": "uint256"
        }
      ],
      "stateMutability": "view",
      "type": "function"
    },
    {
      "inputs": [],
      "name": "getMinStaking",
      "outputs": [
        {
          "internalType": "uint256",
          "name": "",
          "type": "uint256"
        }
      ],
      "stateMutability": "view",
      "type": "function"
    },
    {
      "inputs": [],
      "name": "getMinVotingDuration",
      "outputs": [
        {
          "internalType": "uint256",
          "name": "",
          "type": "uint256"
        }
      ],
      "stateMutability": "view",
      "type": "function"
    },
    {
      "inputs": [
        {
          "internalType": "uint256",
          "name": "idx",
          "type": "uint256"
        }
      ],
      "name": "getNode",
      "outputs": [
        {
          "internalType": "bytes",
          "name": "name",
          "type": "bytes"
        },
        {
          "internalType": "bytes",
          "name": "enode",
          "type": "bytes"
        },
        {
          "internalType": "bytes",
          "name": "ip",
          "type": "bytes"
        },
        {
          "internalType": "uint256",
          "name": "port",
          "type": "uint256"
        }
      ],
      "stateMutability": "view",
      "type": "function"
    },
    {
      "inputs": [
        {
          "internalType": "address",
          "name": "addr",
          "type": "address"
        }
      ],
      "name": "getNodeIdxFromMember",
      "outputs": [
        {
          "internalType": "uint256",
          "name": "",
          "type": "uint256"
        }
      ],
      "stateMutability": "view",
      "type": "function"
    },
    {
      "inputs": [],
      "name": "getNodeLength",
      "outputs": [
        {
          "internalType": "uint256",
          "name": "",
          "type": "uint256"
        }
      ],
      "stateMutability": "view",
      "type": "function"
    },
    {
      "inputs": [
        {
          "internalType": "uint256",
          "name": "idx",
          "type": "uint256"
        }
      ],
      "name": "getReward",
      "outputs": [
        {
          "internalType": "address",
          "name": "",
          "type": "address"
        }
      ],
      "stateMutability": "view",
      "type": "function"
    },
    {
      "inputs": [
        {
          "internalType": "address",
          "name": "_addr",
          "type": "address"
        }
      ],
      "name": "getStakerAddr",
      "outputs": [
        {
          "internalType": "address",
          "name": "staker",
          "type": "address"
        }
      ],
      "stateMutability": "view",
      "type": "function"
    },
    {
      "inputs": [],
      "name": "getThreshold",
      "outputs": [
        {
          "internalType": "uint256",
          "name": "",
          "type": "uint256"
        }
      ],
      "stateMutability": "pure",
      "type": "function"
    },
    {
      "inputs": [
        {
          "internalType": "uint256",
          "name": "idx",
          "type": "uint256"
        }
      ],
      "name": "getVoter",
      "outputs": [
        {
          "internalType": "address",
          "name": "",
          "type": "address"
        }
      ],
      "stateMutability": "view",
      "type": "function"
    },
    {
      "inputs": [
        {
          "internalType": "address",
          "name": "registry",
          "type": "address"
        },
        {
          "internalType": "uint256",
          "name": "lockAmount",
          "type": "uint256"
        },
        {
          "internalType": "bytes",
          "name": "name",
          "type": "bytes"
        },
        {
          "internalType": "bytes",
          "name": "enode",
          "type": "bytes"
        },
        {
          "internalType": "bytes",
          "name": "ip",
          "type": "bytes"
        },
        {
          "internalType": "uint256",
          "name": "port",
          "type": "uint256"
        }
      ],
      "name": "init",
      "outputs": [],
      "stateMutability": "nonpayable",
      "type": "function"
    },
    {
      "inputs": [
        {
          "internalType": "address",
          "name": "registry",
          "type": "address"
        },
        {
          "internalType": "bytes",
          "name": "data",
          "type": "bytes"
        }
      ],
      "name": "initOnce",
      "outputs": [],
      "stateMutability": "nonpayable",
      "type": "function"
    },
    {
      "inputs": [
        {
          "internalType": "address",
          "name": "addr",
          "type": "address"
        }
      ],
      "name": "isMember",
      "outputs": [
        {
          "internalType": "bool",
          "name": "",
          "type": "bool"
        }
      ],
      "stateMutability": "view",
      "type": "function"
    },
    {
      "inputs": [
        {
          "internalType": "address",
          "name": "addr",
          "type": "address"
        }
      ],
      "name": "isStaker",
      "outputs": [
        {
          "internalType": "bool",
          "name": "",
          "type": "bool"
        }
      ],
      "stateMutability": "view",
      "type": "function"
    },
    {
      "inputs": [
        {
          "internalType": "address",
          "name": "addr",
          "type": "address"
        }
      ],
      "name": "isVoter",
      "outputs": [
        {
          "internalType": "bool",
          "name": "",
          "type": "bool"
        }
      ],
      "stateMutability": "view",
      "type": "function"
    },
    {
      "inputs": [
        {
          "internalType": "address",
          "name": "",
          "type": "address"
        }
      ],
      "name": "lastAddProposalTime",
      "outputs": [
        {
          "internalType": "uint256",
          "name": "",
          "type": "uint256"
        }
      ],
      "stateMutability": "view",
      "type": "function"
    },
    {
      "inputs": [],
      "name": "modifiedBlock",
      "outputs": [
        {
          "internalType": "uint256",
          "name": "",
          "type": "uint256"
        }
      ],
      "stateMutability": "view",
      "type": "function"
    },
    {
      "inputs": [],
      "name": "owner",
      "outputs": [
        {
          "internalType": "address",
          "name": "",
          "type": "address"
        }
      ],
      "stateMutability": "view",
      "type": "function"
    },
    {
      "inputs": [],
      "name": "proposal_time_period",
      "outputs": [
        {
          "internalType": "uint256",
          "name": "",
          "type": "uint256"
        }
      ],
      "stateMutability": "view",
      "type": "function"
    },
    {
      "inputs": [],
      "name": "proxiableUUID",
      "outputs": [
        {
          "internalType": "bytes32",
          "name": "",
          "type": "bytes32"
        }
      ],
      "stateMutability": "view",
      "type": "function"
    },
    {
      "inputs": [],
      "name": "reg",
      "outputs": [
        {
          "internalType": "contract IRegistry",
          "name": "",
          "type": "address"
        }
      ],
      "stateMutability": "view",
      "type": "function"
    },
    {
      "inputs": [],
      "name": "renounceOwnership",
      "outputs": [],
      "stateMutability": "nonpayable",
      "type": "function"
    },
    {
      "inputs": [
        {
          "internalType": "address",
          "name": "",
          "type": "address"
        }
      ],
      "name": "rewardIdx",
      "outputs": [
        {
          "internalType": "uint256",
          "name": "",
          "type": "uint256"
        }
      ],
      "stateMutability": "view",
      "type": "function"
    },
    {
      "inputs": [
        {
          "internalType": "uint256",
          "name": "newPeriod",
          "type": "uint256"
        }
      ],
      "name": "setProposalTimePeriod",
      "outputs": [],
      "stateMutability": "nonpayable",
      "type": "function"
    },
    {
      "inputs": [
        {
          "internalType": "address",
          "name": "_addr",
          "type": "address"
        }
      ],
      "name": "setRegistry",
      "outputs": [],
      "stateMutability": "nonpayable",
      "type": "function"
    },
    {
      "inputs": [
        {
          "internalType": "address",
          "name": "",
          "type": "address"
        }
      ],
      "name": "stakerIdx",
      "outputs": [
        {
          "internalType": "uint256",
          "name": "",
          "type": "uint256"
        }
      ],
      "stateMutability": "view",
      "type": "function"
    },
    {
      "inputs": [
        {
          "internalType": "address",
          "name": "newOwner",
          "type": "address"
        }
      ],
      "name": "transferOwnership",
      "outputs": [],
      "stateMutability": "nonpayable",
      "type": "function"
    },
    {
      "inputs": [
        {
          "internalType": "address",
          "name": "newImplementation",
          "type": "address"
        }
      ],
      "name": "upgradeTo",
      "outputs": [],
      "stateMutability": "nonpayable",
      "type": "function"
    },
    {
      "inputs": [
        {
          "internalType": "address",
          "name": "newImplementation",
          "type": "address"
        },
        {
          "internalType": "bytes",
          "name": "data",
          "type": "bytes"
        }
      ],
      "name": "upgradeToAndCall",
      "outputs": [],
      "stateMutability": "payable",
      "type": "function"
    },
    {
      "inputs": [
        {
          "internalType": "uint256",
          "name": "ballotIdx",
          "type": "uint256"
        },
        {
          "internalType": "bool",
          "name": "approval",
          "type": "bool"
        }
      ],
      "name": "vote",
      "outputs": [],
      "stateMutability": "nonpayable",
      "type": "function"
    },
    {
      "inputs": [],
      "name": "voteLength",
      "outputs": [
        {
          "internalType": "uint256",
          "name": "",
          "type": "uint256"
        }
      ],
      "stateMutability": "view",
      "type": "function"
    },
    {
      "inputs": [
        {
          "internalType": "address",
          "name": "",
          "type": "address"
        }
      ],
      "name": "voterIdx",
      "outputs": [
        {
          "internalType": "uint256",
          "name": "",
          "type": "uint256"
        }
      ],
      "stateMutability": "view",
      "type": "function"
    }
  ],
  "bytecode": "0x60a06040523060601b608052600060a75534801561001c57600080fd5b5060805160601c616375620000586000396000818161164f0152818161168f01528181611fa301528181611fe3015261205f01526163756000f3fe6080604052600436106104255760003560e01c80637b2bfb0111610229578063c0b4fe151161012e578063d07bff0c116100b6578063e27bdaef1161007a578063e27bdaef14610eb8578063e75235b814610ed8578063e9523fb514610eed578063f2fde38b14610f03578063f38ecf4714610f2357600080fd5b8063d07bff0c14610e22578063d13a174414610e58578063d6f9cfce14610e78578063d965ea0014610e8e578063de09b37714610ea357600080fd5b8063c9d27afe116100fd578063c9d27afe14610d6a578063ce04b9d414610d8a578063ce6a54ff14610d9f578063ce93a23614610dd5578063cec5b62214610df557600080fd5b8063c0b4fe1514610c9a578063c42a0abc14610cce578063c6713baf14610d02578063c7d3da3414610d3657600080fd5b8063a7771ee3116101b1578063aaf0dd3611610180578063aaf0dd3614610bba578063ab3545e514610be7578063af6af2ff14610c1d578063b128f88014610c32578063c00ace6c14610c6657600080fd5b8063a7771ee314610b0e578063a8915a3e14610b46578063a91ee0dc14610b66578063a9b629b214610b8657600080fd5b8063918f8674116101f8578063918f867414610a535780639986e4b914610a69578063a0c1268314610a8d578063a230c52414610aba578063a6868b7d14610ada57600080fd5b80637b2bfb01146109ca5780637bf46530146109fe5780637d10dd1b14610a1f5780638da5cb5b14610a3557600080fd5b8063406903531161032f5780636c78d2cf116102b75780636fde207a116102865780636fde207a14610937578063715018a61461096b57806372016f7514610980578063738fdd1a14610995578063779a66e9146109b557600080fd5b80636c78d2cf146108825780636d583ca7146108ab5780636f1e8533146108df5780636f6de96d1461091757600080fd5b80634f1ef286116102fe5780634f1ef286146107dd57806352d1902d146107f05780635aaa4040146108055780636167eb451461081a578063656e30521461084e57600080fd5b806340690353146107375780634bd1ed76146107575780634d273e28146107795780634f0f4aa9146107ad57600080fd5b8063238737b6116103b25780633310569c116103815780633310569c146106795780633659cfe61461068f57806336e83d83146106af57806338294419146106cf5780633f35c8fe1461070357600080fd5b8063238737b6146105ce578063278bb12a146106025780632a203623146106365780632f40992e1461065857600080fd5b806315bf6b4d116103f957806315bf6b4d146104f25780631c12b030146105405780631c150171146105655780631c4b774b1461057a5780631e0cba0d146105b057600080fd5b806215a73b1461042a5780630b1d39b8146104715780630efa4909146104a5578063139d9dd3146104c5575b600080fd5b34801561043657600080fd5b5061045e7f0c4fbe9dc9de15dd7c0d064975ee1a2f2f9b954fa0e65d4f6cddba94884bdc3e81565b6040519081526020015b60405180910390f35b34801561047d57600080fd5b5061045e7fdd5a41a7fc01f5c6d30816b17f638d6531625f1e1eaa599673ab2f6079f2dd9d81565b3480156104b157600080fd5b5061045e6104c036600461592b565b610f57565b3480156104d157600080fd5b5061045e6104e03660046157c4565b60a86020526000908152604090205481565b3480156104fe57600080fd5b5061052861050d366004615c17565b6000908152607060205260409020546001600160a01b031690565b6040516001600160a01b039091168152602001610468565b34801561054c57600080fd5b506105556112a1565b6040519015158152602001610468565b34801561057157600080fd5b5061045e6112f2565b34801561058657600080fd5b50610528610595366004615c17565b6000908152606a60205260409020546001600160a01b031690565b3480156105bc57600080fd5b5061045e665374616b696e6760c81b81565b3480156105da57600080fd5b5061045e7f1d36f8ce53f59e624857e1d8dc7932d19981a2ea1b8faa4eb8ff843fc3e5a27881565b34801561060e57600080fd5b5061045e7f9b2e0c7fdae148f225bae7deb92d7e7bd24bb77edb12956e8fa7204900dd8a2281565b34801561064257600080fd5b506106566106513660046158dc565b611371565b005b34801561066457600080fd5b5061045e6914995dd85c99141bdbdb60b21b81565b34801561068557600080fd5b5061045e60a75481565b34801561069b57600080fd5b506106566106aa3660046157c4565b611644565b3480156106bb57600080fd5b5061045e6106ca366004615b92565b61172a565b3480156106db57600080fd5b5061045e7fbe90e461bbdb9a95a694f7796912ea04244caf7f5b60ad7ded17e16821d3e44c81565b34801561070f57600080fd5b5061045e7f2a268972a70c8c688b62366bdfdd9bb09cf19d3e5b6e7e7bb158e671ffdcedd281565b34801561074357600080fd5b5061045e610752366004615b14565b611b09565b34801561076357600080fd5b5061045e6a4d61696e74656e616e636560a81b81565b34801561078557600080fd5b5061045e7f77884798208df1e64f70968be41ef2d3211ec53613397ca59313416813df088881565b3480156107b957600080fd5b506107cd6107c8366004615c17565b611dbb565b6040516104689493929190615d45565b6106566107eb3660046158dc565b611f98565b3480156107fc57600080fd5b5061045e612052565b34801561081157600080fd5b5061045e612105565b34801561082657600080fd5b5061045e7f9f1de481f899d76889aa8a2b44cc7b604d42691aa93d4ba618a1a1fd439f505081565b34801561085a57600080fd5b5061045e7fe10074dceffb75f13bf0ce50145afd35182d63796823f1280ce40e01c19109e781565b34801561088e57600080fd5b5061045e7111dbdd995c9b985b98d950dbdb9d1c9858dd60721b81565b3480156108b757600080fd5b5061045e7fc69fc6b7d0efc934fd5a3581c7253a7107a952526bb6dbcd814ef8d8dae1f44a81565b3480156108eb57600080fd5b506105556108fa3660046157c4565b6001600160a01b03166000908152606d6020526040902054151590565b34801561092357600080fd5b506105286109323660046157c4565b612147565b34801561094357600080fd5b5061045e7f0b09c9badbbeb6c813a598ee910770a39ccda797a1940439bb6e47fc6c87548b81565b34801561097757600080fd5b506106566121b7565b34801561098c57600080fd5b5060715461045e565b3480156109a157600080fd5b50606554610528906001600160a01b031681565b3480156109c157600080fd5b506106566121cb565b3480156109d657600080fd5b5061045e7f9346226931826838eedd13d9677fa33551e7c81f604b171ef3fac355458da9aa81565b348015610a0a57600080fd5b5061045e69456e7653746f7261676560b01b81565b348015610a2b57600080fd5b5061045e60665481565b348015610a4157600080fd5b506033546001600160a01b0316610528565b348015610a5f57600080fd5b5061045e61271081565b348015610a7557600080fd5b5061045e6c42616c6c6f7453746f7261676560981b81565b348015610a9957600080fd5b5061045e610aa83660046157c4565b606d6020526000908152604090205481565b348015610ac657600080fd5b50610555610ad53660046157c4565b6122c8565b348015610ae657600080fd5b5061045e7f6c6f69f426081752a5d3e73746599acd2a4cb145d5de4203ca1e3473b281680b81565b348015610b1a57600080fd5b50610555610b293660046157c4565b6001600160a01b0316600090815260686020526040902054151590565b348015610b5257600080fd5b50610656610b61366004615983565b61230b565b348015610b7257600080fd5b50610656610b813660046157c4565b6126ce565b348015610b9257600080fd5b5061045e7f89dd490ecaf395283ed4ff2fd9557ca767fc425dce063451a9b0da6d72f600c381565b348015610bc657600080fd5b5061045e610bd53660046157c4565b606b6020526000908152604090205481565b348015610bf357600080fd5b50610528610c02366004615c17565b6000908152606c60205260409020546001600160a01b031690565b348015610c2957600080fd5b5061045e612776565b348015610c3e57600080fd5b5061045e7f829561ab7af084b7efc6600518d2df79b8d95f3f4c3a550f54f8f7ec7d2b805781565b348015610c7257600080fd5b5061045e7f18ad4415ef4a621ce1a136395c51ab6c3712bb2e24b79d526059925cea58dcb881565b348015610ca657600080fd5b5061045e7f8086da5becff4dfac91a3105821b361078d2d4abba0ccc2401b974cf0dcf05c181565b348015610cda57600080fd5b5061045e7fb38b2c133e931937bd95337c65c8aefa7040ed64bbed732e3e29a4944c65747381565b348015610d0e57600080fd5b5061045e7fc9e15e34073efbcd0328740feaf503caac9124b55b38c73d1a97b53da80a2f6081565b348015610d4257600080fd5b5061045e7f04f7b94450bbcad85f37ea47cd1062728f884bb2040e357738f8fd53056134bc81565b348015610d7657600080fd5b50610656610d85366004615c30565b6127b8565b348015610d9657600080fd5b5061045e6129bd565b348015610dab57600080fd5b5061045e610dba3660046157c4565b6001600160a01b03166000908152606f602052604090205490565b348015610de157600080fd5b5061045e610df0366004615bc6565b6129ff565b348015610e0157600080fd5b5061045e610e103660046157c4565b60686020526000908152604090205481565b348015610e2e57600080fd5b50610528610e3d366004615c17565b6000908152606760205260409020546001600160a01b031690565b348015610e6457600080fd5b5061045e610e73366004615a2f565b612ea6565b348015610e8457600080fd5b5061045e60725481565b348015610e9a57600080fd5b5060695461045e565b348015610eaf57600080fd5b5060745461045e565b348015610ec457600080fd5b50610656610ed3366004615c17565b613206565b348015610ee457600080fd5b5061138961045e565b348015610ef957600080fd5b5061045e60735481565b348015610f0f57600080fd5b50610656610f1e3660046157c4565b613292565b348015610f2f57600080fd5b5061045e7f7c1150f0e1a39ff55552d52764f97e6c387e2a247e1df344369f122c4254be2f81565b6000610f61613308565b60405163288c314960e21b81523360048201526001600160a01b03919091169063a230c5249060240160206040518083038186803b158015610fa257600080fd5b505afa158015610fb6573d6000803e3d6000fd5b505050506040513d601f19601f82011682018060405250810190610fda9190615a8f565b610fff5760405162461bcd60e51b8152600401610ff690615f19565b60405180910390fd5b600061100a33612147565b9050611014612105565b61101d82613328565b1115801561103a575061102e612776565b61103782613328565b10155b6110565760405162461bcd60e51b8152600401610ff690615fd1565b6001600160a01b0385166110ac5760405162461bcd60e51b815260206004820152601d60248201527f496d706c656d656e746174696f6e2063616e6e6f74206265207a65726f0000006044820152606401610ff6565b6110b46133ae565b6001600160a01b0316856001600160a01b0316141561110d5760405162461bcd60e51b815260206004820152601560248201527453616d6520636f6e7472616374206164647265737360581b6044820152606401610ff6565b846001600160a01b03166352d1902d6040518163ffffffff1660e01b815260040160206040518083038186803b15801561114657600080fd5b505afa925050508015611176575060408051601f3d908101601f1916820190925261117391810190615aac565b60015b6111925760405162461bcd60e51b8152600401610ff690615f40565b6000805160206162d983398151915281146111bf5760405162461bcd60e51b8152600401610ff690615e82565b506072546111ce9060016161f3565b91506111d86133ca565b6001600160a01b0316630a3a63fe60725460016111f591906161f3565b60046040516001600160e01b031960e085901b16815260048101929092526024820152604481018690523360648201526001600160a01b038816608482015260a401602060405180830381600087803b15801561125157600080fd5b505af1158015611265573d6000803e3d6000fd5b505050506040513d601f19601f820116820180604052508101906112899190615aac565b5061129482856133e5565b5060728190559392505050565b60006074546000146112ec5760006112ba607454613450565b5091505060006112cb6074546134e7565b5091505060028214156112e957428110156112e95760009250505090565b50505b50600190565b60006112fc613571565b6001600160a01b03166333be496e6040518163ffffffff1660e01b815260040160206040518083038186803b15801561133457600080fd5b505afa158015611348573d6000803e3d6000fd5b505050506040513d601f19601f8201168201806040525081019061136c9190615aac565b905090565b600054610100900460ff16158080156113915750600054600160ff909116105b806113ab5750303b1580156113ab575060005460ff166001145b6113c75760405162461bcd60e51b8152600401610ff690615ecb565b6000805460ff1916600117905580156113ea576000805461ff0019166101001790555b6113f2613589565b6113fb836126ce565b43606655815160009060609081908190849081906020890190829061142090836161f3565b90505b808210156115e8578151975061143a6020836161f3565b915080821061144857600080fd5b8196508651602061145991906161f3565b61146390836161f3565b915080821061147157600080fd5b8195508551602061148291906161f3565b61148c90836161f3565b915080821061149a57600080fd5b819450845160206114ab91906161f3565b6114b590836161f3565b91508082106114c357600080fd5b815193506114d26020836161f3565b91506114df6001846161f3565b600081815260676020908152604080832080546001600160a01b038e166001600160a01b0319918216811790925581855260688452828520869055858552606a84528285208054821683179055818552606b8452828520869055858552606c84528285208054909116821790558352606d8252808320849055838352606e8252909120895192955091611577918391908b01906154b3565b50865161158d90600183019060208a01906154b3565b5085516115a390600283019060208901906154b3565b50600301849055600083815260706020908152604080832080546001600160a01b0319166001600160a01b038d169081179091558352606f9091529020839055611423565b5050606981905560715550508315925061163f915050576000805461ff0019169055604051600181527f7f26b83ff96e1f2b6a682f133852f6798a09c465da95921460cefb38474024989060200160405180910390a15b505050565b306001600160a01b037f000000000000000000000000000000000000000000000000000000000000000016141561168d5760405162461bcd60e51b8152600401610ff690615da3565b7f00000000000000000000000000000000000000000000000000000000000000006001600160a01b03166116bf6133ae565b6001600160a01b0316146116e55760405162461bcd60e51b8152600401610ff690615e36565b6116ee816135b8565b6117278160005b6040519080825280601f01601f19166020018201604052801561171f576020820181803683370190505b506000613655565b50565b6000611734613308565b60405163288c314960e21b81523360048201526001600160a01b03919091169063a230c5249060240160206040518083038186803b15801561177557600080fd5b505afa158015611789573d6000803e3d6000fd5b505050506040513d601f19601f820116820180604052508101906117ad9190615a8f565b6117c95760405162461bcd60e51b8152600401610ff690615f19565b60006117d433612147565b60a7546001600160a01b038216600090815260a86020526040902054919250906117fe904261620b565b101561181c5760405162461bcd60e51b8152600401610ff690616053565b600061182733612147565b9050611831612105565b61183a82613328565b11158015611857575061184b612776565b61185482613328565b10155b6118735760405162461bcd60e51b8152600401610ff690615fd1565b602084015184906001600160a01b03166118bf5760405162461bcd60e51b815260206004820152600d60248201526c24b73b30b634b2103b37ba32b960991b6044820152606401610ff6565b6000816060015151116119085760405162461bcd60e51b8152602060048201526011602482015270496e76616c6964206e6f6465206e616d6560781b6044820152606401610ff6565b60008160a00151511161194f5760405162461bcd60e51b815260206004820152600f60248201526e0496e76616c6964206e6f646520495608c1b6044820152606401610ff6565b60008160c00151116119975760405162461bcd60e51b8152602060048201526011602482015270125b9d985b1a59081b9bd919481c1bdc9d607a1b6044820152606401610ff6565b61199f612776565b8160e00151101580156119bd57506119b5612105565b8160e0015111155b6119ff5760405162461bcd60e51b8152602060048201526013602482015272125b9d985b1a59081b1bd8dac8105b5bdd5b9d606a1b6044820152606401610ff6565b8451611a0a906122c8565b15611a485760405162461bcd60e51b815260206004820152600e60248201526d20b63932b0b23c9036b2b6b132b960911b6044820152606401610ff6565b84602001516001600160a01b031685600001516001600160a01b031614611aa75760405162461bcd60e51b815260206004820152601360248201527229ba30b5b2b91034b9903737ba103b37ba32b960691b6044820152606401610ff6565b607254611ab59060016161f3565b9350611ac684600133600089613746565b611ad4848660e001516137e9565b611ae3848661010001516133e5565b505060728290556001600160a01b0316600090815260a860205260409020429055919050565b6000611b13613308565b60405163288c314960e21b81523360048201526001600160a01b03919091169063a230c5249060240160206040518083038186803b158015611b5457600080fd5b505afa158015611b68573d6000803e3d6000fd5b505050506040513d601f19601f82011682018060405250810190611b8c9190615a8f565b611ba85760405162461bcd60e51b8152600401610ff690615f19565b6000611bb333612147565b60a7546001600160a01b038216600090815260a8602052604090205491925090611bdd904261620b565b1015611bfb5760405162461bcd60e51b8152600401610ff690616053565b6000611c0633612147565b9050611c10612105565b611c1982613328565b11158015611c365750611c2a612776565b611c3382613328565b10155b611c525760405162461bcd60e51b8152600401610ff690615fd1565b86600111158015611c64575060098711155b611c9f5760405162461bcd60e51b815260206004820152600c60248201526b496e76616c6964207479706560a01b6044820152606401610ff6565b611ca98887613827565b611ce55760405162461bcd60e51b815260206004820152600d60248201526c496e76616c69642076616c756560981b6044820152606401610ff6565b607254611cf39060016161f3565b9250611cfd6133ca565b6001600160a01b0316634a57823e84600587338d8d8d6040518863ffffffff1660e01b8152600401611d359796959493929190616127565b602060405180830381600087803b158015611d4f57600080fd5b505af1158015611d63573d6000803e3d6000fd5b505050506040513d601f19601f82011682018060405250810190611d879190615aac565b50611d9283866133e5565b5060728290556001600160a01b0316600090815260a86020526040902042905595945050505050565b6000818152606e6020526040812060038101548154606093849384939192909160018301916002840191908490611df19061624e565b80601f0160208091040260200160405190810160405280929190818152602001828054611e1d9061624e565b8015611e6a5780601f10611e3f57610100808354040283529160200191611e6a565b820191906000526020600020905b815481529060010190602001808311611e4d57829003601f168201915b50505050509350828054611e7d9061624e565b80601f0160208091040260200160405190810160405280929190818152602001828054611ea99061624e565b8015611ef65780601f10611ecb57610100808354040283529160200191611ef6565b820191906000526020600020905b815481529060010190602001808311611ed957829003601f168201915b50505050509250818054611f099061624e565b80601f0160208091040260200160405190810160405280929190818152602001828054611f359061624e565b8015611f825780601f10611f5757610100808354040283529160200191611f82565b820191906000526020600020905b815481529060010190602001808311611f6557829003601f168201915b5050505050915093509350935093509193509193565b306001600160a01b037f0000000000000000000000000000000000000000000000000000000000000000161415611fe15760405162461bcd60e51b8152600401610ff690615da3565b7f00000000000000000000000000000000000000000000000000000000000000006001600160a01b03166120136133ae565b6001600160a01b0316146120395760405162461bcd60e51b8152600401610ff690615e36565b612042826135b8565b61204e82826001613655565b5050565b6000306001600160a01b037f000000000000000000000000000000000000000000000000000000000000000016146120f25760405162461bcd60e51b815260206004820152603860248201527f555550535570677261646561626c653a206d757374206e6f742062652063616c60448201527f6c6564207468726f7567682064656c656761746563616c6c00000000000000006064820152608401610ff6565b506000805160206162d983398151915290565b600061210f613571565b6001600160a01b031663737c59b86040518163ffffffff1660e01b815260040160206040518083038186803b15801561133457600080fd5b6001600160a01b0381166000908152606d60205260408120541561216c575033919050565b6001600160a01b038216600090815260686020526040902054156121b25750336000908152606860209081526040808320548352606c9091529020546001600160a01b03165b919050565b6121bf6138b5565b6121c9600061390f565b565b6121d3613308565b60405163288c314960e21b81523360048201526001600160a01b03919091169063a230c5249060240160206040518083038186803b15801561221457600080fd5b505afa158015612228573d6000803e3d6000fd5b505050506040513d601f19601f8201168201806040525081019061224c9190615a8f565b6122685760405162461bcd60e51b8152600401610ff690615f19565b6122706112a1565b156122b35760405162461bcd60e51b8152602060048201526013602482015272159bdd1a5b99c81a5cc81b9bdd08195b991959606a1b6044820152606401610ff6565b6074546122c1906004613961565b6000607455565b6001600160a01b0381166000908152606d602052604081205415158061230557506001600160a01b03821660009081526068602052604090205415155b92915050565b600054610100900460ff161580801561232b5750600054600160ff909116105b806123455750303b158015612345575060005460ff166001145b6123615760405162461bcd60e51b8152600401610ff690615ecb565b6000805460ff191660011790558015612384576000805461ff0019166101001790555b600086116123e05760405162461bcd60e51b815260206004820152602360248201527f6c6f636b416d6f756e742073686f756c64206265206d6f7265207468656e207a60448201526265726f60e81b6064820152608401610ff6565b6123e8613589565b6123f1876126ce565b60006123fb61399f565b6040516325d998bb60e01b815233600482015290915087906001600160a01b038316906325d998bb9060240160206040518083038186803b15801561243f57600080fd5b505afa158015612453573d6000803e3d6000fd5b505050506040513d601f19601f820116820180604052508101906124779190615aac565b10156124bc5760405162461bcd60e51b8152602060048201526014602482015273496e73756666696369656e74207374616b696e6760601b6044820152606401610ff6565b60405163282d3fdf60e01b8152336004820152602481018890526001600160a01b0382169063282d3fdf90604401600060405180830381600087803b15801561250457600080fd5b505af1158015612518573d6000803e3d6000fd5b5050600160698190557f6bee784efeb983674392298ab585b22866bedf00ebb0eea949d1e66f3f50e71d8054336001600160a01b0319918216811790925560008281526068602090815260408083208690557ff585789965ba69220d5ce3dc1b444eb22ff546f2650694fef8fafe9c26560af98054851686179055606b82528083208690557fdcf345d7f6a8deb7427d0fee62009fa15100353a1c666b51bb5387b25addcfa98054909416909417909255606d82529182208390556071839055919052606e815288517f44e4f44bb0aae4b5d1e07207f82567d4201c1d09f6b5859dddcfb50647f55a709350612613925083918a01906154b3565b50855161262990600183019060208901906154b3565b50845161263f90600283019060208801906154b3565b5060030183905550607154336000818152606f60209081526040808320859055938252607090529190912080546001600160a01b03191690911790554360665580156126c5576000805461ff0019169055604051600181527f7f26b83ff96e1f2b6a682f133852f6798a09c465da95921460cefb38474024989060200160405180910390a15b50505050505050565b6126d66138b5565b6001600160a01b03811661272c5760405162461bcd60e51b815260206004820152601a60248201527f416464726573732073686f756c64206265206e6f6e2d7a65726f0000000000006044820152606401610ff6565b606580546001600160a01b0319166001600160a01b0383169081179091556040517f278c70ced5f3e0e5eeb385b5ff9cb735748ba00a625147e66065ed48fc1562cd90600090a250565b6000612780613571565b6001600160a01b031663076cd77f6040518163ffffffff1660e01b815260040160206040518083038186803b15801561133457600080fd5b6127c0613308565b60405163288c314960e21b81523360048201526001600160a01b03919091169063a230c5249060240160206040518083038186803b15801561280157600080fd5b505afa158015612815573d6000803e3d6000fd5b505050506040513d601f19601f820116820180604052508101906128399190615a8f565b6128555760405162461bcd60e51b8152600401610ff690615f19565b600260755414156128a85760405162461bcd60e51b815260206004820152601f60248201527f5265656e7472616e637947756172643a207265656e7472616e742063616c6c006044820152606401610ff6565b600260755560006128b833612147565b90506128c2612105565b6128cb82613328565b111580156128e857506128dc612776565b6128e582613328565b10155b6129045760405162461bcd60e51b8152600401610ff690615fd1565b61290c6112a1565b6129425760405162461bcd60e51b8152602060048201526007602482015266115e1c1a5c995960ca1b6044820152606401610ff6565b600061294d846139b4565b90506129598484613ac9565b60008061296586613c67565b9250925050600061297561138990565b905080831015806129865750808210155b8061299b575061299682846161f3565b612710145b156129af576129af87858486116000613ca1565b505060016075555050505050565b60006129c7613571565b6001600160a01b0316631b27e01b6040518163ffffffff1660e01b815260040160206040518083038186803b15801561133457600080fd5b6000612a09613308565b60405163288c314960e21b81523360048201526001600160a01b03919091169063a230c5249060240160206040518083038186803b158015612a4a57600080fd5b505afa158015612a5e573d6000803e3d6000fd5b505050506040513d601f19601f82011682018060405250810190612a829190615a8f565b612a9e5760405162461bcd60e51b8152600401610ff690615f19565b6000612aa933612147565b60a7546001600160a01b038216600090815260a8602052604090205491925090612ad3904261620b565b1015612af15760405162461bcd60e51b8152600401610ff690616053565b6000612afc33612147565b9050612b06612105565b612b0f82613328565b11158015612b2c5750612b20612776565b612b2982613328565b10155b612b485760405162461bcd60e51b8152600401610ff690615fd1565b602085015185906001600160a01b0316612b945760405162461bcd60e51b815260206004820152600d60248201526c24b73b30b634b2103b37ba32b960991b6044820152606401610ff6565b600081606001515111612bdd5760405162461bcd60e51b8152602060048201526011602482015270496e76616c6964206e6f6465206e616d6560781b6044820152606401610ff6565b60008160a001515111612c245760405162461bcd60e51b815260206004820152600f60248201526e0496e76616c6964206e6f646520495608c1b6044820152606401610ff6565b60008160c0015111612c6c5760405162461bcd60e51b8152602060048201526011602482015270125b9d985b1a59081b9bd919481c1bdc9d607a1b6044820152606401610ff6565b612c74612776565b8160e0015110158015612c925750612c8a612105565b8160e0015111155b612cd45760405162461bcd60e51b8152602060048201526013602482015272125b9d985b1a59081b1bd8dac8105b5bdd5b9d606a1b6044820152606401610ff6565b6001600160a01b038516612d205760405162461bcd60e51b8152602060048201526013602482015272496e76616c6964206f6c64204164647265737360681b6044820152606401610ff6565b612d29856122c8565b612d625760405162461bcd60e51b815260206004820152600a6024820152692737b716b6b2b6b132b960b11b6044820152606401610ff6565b6020808701516001600160a01b038781166000908152606d8452604080822054825260679094529290922054821691161480612da85750612da686602001516122c8565b155b612de65760405162461bcd60e51b815260206004820152600f60248201526e20b63932b0b23c9030903b37ba32b960891b6044820152606401610ff6565b607254612df49060016161f3565b9350612e0484600333888a613746565b612e12848760e001516137e9565b612e21848761010001516133e5565b6072849055336001600160a01b038616148015612e4a575085516001600160a01b038681169116145b15612e84576000612e5a856134e7565b92505050612e7485428342612e6f91906161f3565b613d30565b612e82856003600180613ca1565b505b50506001600160a01b0316600090815260a86020526040902042905592915050565b6000612eb0613308565b60405163288c314960e21b81523360048201526001600160a01b03919091169063a230c5249060240160206040518083038186803b158015612ef157600080fd5b505afa158015612f05573d6000803e3d6000fd5b505050506040513d601f19601f82011682018060405250810190612f299190615a8f565b612f455760405162461bcd60e51b8152600401610ff690615f19565b6000612f5033612147565b60a7546001600160a01b038216600090815260a8602052604090205491925090612f7a904261620b565b1015612f985760405162461bcd60e51b8152600401610ff690616053565b6000612fa333612147565b9050612fad612105565b612fb682613328565b11158015612fd35750612fc7612776565b612fd082613328565b10155b612fef5760405162461bcd60e51b8152600401610ff690615fd1565b6001600160a01b0387166130375760405162461bcd60e51b815260206004820152600f60248201526e496e76616c6964206164647265737360881b6044820152606401610ff6565b613040876122c8565b6130795760405162461bcd60e51b815260206004820152600a6024820152692737b716b6b2b6b132b960b11b6044820152606401610ff6565b600161308460695490565b116130d15760405162461bcd60e51b815260206004820152601b60248201527f43616e6e6f742072656d6f7665206120736f6c65206d656d62657200000000006044820152606401610ff6565b856130db88613328565b101561313c5760405162461bcd60e51b815260206004820152602a60248201527f496e73756666696369656e742062616c616e636520746861742063616e206265604482015269103ab73637b1b5b2b21760b11b6064820152608401610ff6565b60725461314a9060016161f3565b604080516101408101825260008082526020808301829052828401829052835182815280820185526060840152835182815280820185526080840152835182815290810190935260a082019290925260c081019190915260e08101889052610100810187905261012081018690529093506131c9846002338b85613746565b6131d384886137e9565b6131dd84876133e5565b505060728290556001600160a01b0316600090815260a860205260409020429055949350505050565b61320e6138b5565b610e1081106132575760405162461bcd60e51b81526020600482015260156024820152746e6577506572696f6420697320746f6f206c6f6e6760581b6044820152606401610ff6565b60a78190556040518181527f17c6f1d1ce638844b664872f5c6eecb7d150ec0c41187d7f85826a656ee7946f9060200160405180910390a150565b61329a6138b5565b6001600160a01b0381166132ff5760405162461bcd60e51b815260206004820152602660248201527f4f776e61626c653a206e6577206f776e657220697320746865207a65726f206160448201526564647265737360d01b6064820152608401610ff6565b6117278161390f565b600061136c7111dbdd995c9b985b98d950dbdb9d1c9858dd60721b613d9e565b600061333261399f565b604051632c9aab9b60e11b81526001600160a01b03848116600483015291909116906359355736906024015b60206040518083038186803b15801561337657600080fd5b505afa15801561338a573d6000803e3d6000fd5b505050506040513d601f19601f820116820180604052508101906123059190615aac565b6000805160206162d9833981519152546001600160a01b031690565b600061136c6c42616c6c6f7453746f7261676560981b613d9e565b6133ed6133ca565b6001600160a01b031663bce0dbc183836040518363ffffffff1660e01b815260040161341a929190615d04565b600060405180830381600087803b15801561343457600080fd5b505af1158015613448573d6000803e3d6000fd5b505050505050565b600080600061345d6133ca565b6001600160a01b031663688ca5b2856040518263ffffffff1660e01b815260040161348a91815260200190565b60606040518083038186803b1580156134a257600080fd5b505afa1580156134b6573d6000803e3d6000fd5b505050506040513d601f19601f820116820180604052508101906134da9190615c55565b9250925092509193909250565b60008060006134f46133ca565b6001600160a01b03166309970688856040518263ffffffff1660e01b815260040161352191815260200190565b60606040518083038186803b15801561353957600080fd5b505afa15801561354d573d6000803e3d6000fd5b505050506040513d601f19601f820116820180604052508101906134da9190615c8e565b600061136c69456e7653746f7261676560b01b613d9e565b600054610100900460ff166135b05760405162461bcd60e51b8152600401610ff690616008565b6121c9613e1b565b6135c0613308565b60405163288c314960e21b81523360048201526001600160a01b03919091169063a230c5249060240160206040518083038186803b15801561360157600080fd5b505afa158015613615573d6000803e3d6000fd5b505050506040513d601f19601f820116820180604052508101906136399190615a8f565b6117275760405162461bcd60e51b8152600401610ff690615f19565b7f4910fdfa16fed3260ed0e7147f7cc6da11a60208b5b9406d12a635614ffd91435460ff16156136885761163f83613e4b565b826001600160a01b03166352d1902d6040518163ffffffff1660e01b815260040160206040518083038186803b1580156136c157600080fd5b505afa9250505080156136f1575060408051601f3d908101601f191682019092526136ee91810190615aac565b60015b61370d5760405162461bcd60e51b8152600401610ff690615f40565b6000805160206162d9833981519152811461373a5760405162461bcd60e51b8152600401610ff690615e82565b5061163f838383613ee7565b61374e6133ca565b6001600160a01b031663daacbb95868684610120015187878760000151886020015189604001518a606001518b608001518c60a001518d60c001516040518d63ffffffff1660e01b81526004016137b09c9b9a9998979695949392919061608a565b600060405180830381600087803b1580156137ca57600080fd5b505af11580156137de573d6000803e3d6000fd5b505050505050505050565b6137f16133ca565b604051633968764960e11b815260048101849052602481018390526001600160a01b0391909116906372d0ec929060440161341a565b6000613831613571565b6001600160a01b0316639801bff984846040518363ffffffff1660e01b815260040161385e929190615d04565b60206040518083038186803b15801561387657600080fd5b505afa15801561388a573d6000803e3d6000fd5b505050506040513d601f19601f820116820180604052508101906138ae9190615a8f565b9392505050565b6033546001600160a01b031633146121c95760405162461bcd60e51b815260206004820181905260248201527f4f776e61626c653a2063616c6c6572206973206e6f7420746865206f776e65726044820152606401610ff6565b603380546001600160a01b038381166001600160a01b0319831681179093556040519116919082907f8be0079c531659141344cd1fd0a4f28419497f9722a3daafe3b4186f6b6457e090600090a35050565b6139696133ca565b60405163548f2cdd60e11b815260048101849052602481018390526001600160a01b03919091169063a91e59ba9060440161341a565b600061136c665374616b696e6760c81b613d9e565b60008060006139c284613450565b5090925090506001811415613a6157607454156139f15760405162461bcd60e51b8152600401610ff690615f8e565b60006139fc856134e7565b92505050613a086112f2565b811015613a2b57613a268542613a1c6112f2565b612e6f90426161f3565b613a56565b80613a346129bd565b1015613a4757613a268542613a1c6129bd565b613a568542612e6f84826161f3565b506074849055613ac2565b6002811415613a90576074548414613a8b5760405162461bcd60e51b8152600401610ff690615f8e565b613ac2565b60405162461bcd60e51b8152602060048201526007602482015266115e1c1a5c995960ca1b6044820152606401610ff6565b5092915050565b60006073546001613ada91906161f3565b336000908152606d60205260408120549192509015613afa575033613b37565b3360009081526068602052604090205415613b375750336000908152606860209081526040808320548352606c9091529020546001600160a01b03165b6000613b4161399f565b604051637d77a0eb60e01b81526001600160a01b03848116600483015261271060248301529190911690637d77a0eb9060440160206040518083038186803b158015613b8c57600080fd5b505afa158015613ba0573d6000803e3d6000fd5b505050506040513d601f19601f82011682018060405250810190613bc49190615aac565b9050600084613bd4576002613bd7565b60015b9050613be16133ca565b6040516325918ae760e21b815260048101869052602481018890526001600160a01b038581166044830152606482018490526084820185905291909116906396462b9c9060a401600060405180830381600087803b158015613c4257600080fd5b505af1158015613c56573d6000803e3d6000fd5b505050607394909455505050505050565b6000806000613c746133ca565b6001600160a01b03166356ba988e856040518263ffffffff1660e01b815260040161352191815260200190565b60048215613d14575060036001841415613ccb57613cbe85613f12565b613cc6575060045b613d14565b6002841415613cdd57613cc68561432e565b6003841415613cf057613cbe85836147b7565b6004841415613d0257613cc685614d8d565b6005841415613d1457613d1485614e4c565b613d1e8582613961565b81613d295760006074555b5050505050565b613d386133ca565b60405163605b78c360e11b81526004810185905260248101849052604481018390526001600160a01b03919091169063c0b6f18690606401600060405180830381600087803b158015613d8a57600080fd5b505af11580156126c5573d6000803e3d6000fd5b606554604051630d2020dd60e01b8152600481018390526000916001600160a01b031690630d2020dd9060240160206040518083038186803b158015613de357600080fd5b505afa158015613df7573d6000803e3d6000fd5b505050506040513d601f19601f8201168201806040525081019061230591906157e1565b600054610100900460ff16613e425760405162461bcd60e51b8152600401610ff690616008565b6121c93361390f565b6001600160a01b0381163b613eb85760405162461bcd60e51b815260206004820152602d60248201527f455243313936373a206e657720696d706c656d656e746174696f6e206973206e60448201526c1bdd08184818dbdb9d1c9858dd609a1b6064820152608401610ff6565b6000805160206162d983398151915280546001600160a01b0319166001600160a01b0392909216919091179055565b613ef083614f9f565b600082511180613efd5750805b1561163f57613f0c8383614fdf565b50505050565b6000613f1f826001615004565b600080600080600080600080613f348a61510b565b9850985098509850985098509850985050613f4e886122c8565b15613fac57896000805160206162f9833981519152604051613f949060208082526010908201526f20b63932b0b23c90309036b2b6b132b960811b604082015260600190565b60405180910390a25060009998505050505050505050565b613fb4612776565b811080613fc7575080613fc5612105565b105b1561401057896000805160206162f9833981519152604051613f9490602080825260139082015272125b9d985b1a59081b1bd8dac8185b5bdd5b9d606a1b604082015260600190565b8061401a896151c1565b101561403c57896000805160206162f9833981519152604051613f9490615def565b866001600160a01b0316886001600160a01b0316141580156140705750856001600160a01b0316886001600160a01b031614155b156140bc57896000805160206162f9833981519152604051613f9490602080825260169082015275496e76616c6964206d656d626572206164647265737360501b604082015260600190565b6140c688826151fb565b600060695460016140d791906161f3565b9050876067600083815260200190815260200160002060006101000a8154816001600160a01b0302191690836001600160a01b0316021790555080606860008a6001600160a01b03166001600160a01b031681526020019081526020016000208190555086606a600083815260200190815260200160002060006101000a8154816001600160a01b0302191690836001600160a01b0316021790555080606b6000896001600160a01b03166001600160a01b031681526020019081526020016000208190555088606c600083815260200190815260200160002060006101000a8154816001600160a01b0302191690836001600160a01b0316021790555080606d60008b6001600160a01b03166001600160a01b03168152602001908152602001600020819055506000607154600161421091906161f3565b6000818152606e60209081526040909120885192935091614239916001840191908a01906154b3565b50855161424f90600283019060208901906154b3565b508481600301819055508a6070600084815260200190815260200160002060006101000a8154816001600160a01b0302191690836001600160a01b0316021790555081606f60008d6001600160a01b03166001600160a01b0316815260200190815260200160002081905550878160000190805190602001906142d39291906154b3565b5060698390556071829055436066556040516001600160a01b03808c1691908d16907f6a2af11b2d73f347f9d5840aea46899e17609730b5cd91bd9c312098038acba690600090a35060019c9b505050505050505050505050565b614339816002615004565b6000806143458361510b565b9850505050505050509150614359826122c8565b6143af57826000805160206162f98339815191526040516143a2906020808252601490820152732737ba1030b63932b0b23c90309036b2b6b132b960611b604082015260600190565b60405180910390a2505050565b6001600160a01b038083166000818152606d6020818152604080842054606954808652606c8452828620548287526067855283872054606a8652938720549790965293909252909492831693908316921690841461451757606980546000908152606c6020818152604080842080546001600160a01b038d8116808852606d80875285892080549e8a529787528589209087529b821688528488209c909c559486905581546001600160a01b03199081169092558954821690851617909855888452606b8083528185205486548652606a80855283872080548a881689528487528589208054948a529287528589209487528716808952858920939093559087905580548b16905581548a16179055978352606880825288842054945484526067808352898520805489861687528385528b872080548989529386528c8820949095529094168086529985205592905580548616905580549094168517909355919291614594565b606980546000908152606c6020908152604080832080546001600160a01b03199081169091556001600160a01b038b81168552606d845282852085905585548552606a84528285208054831690558681168552606b8452828520859055945484526067835281842080549091169055928516825260689052908120555b60016069546145a3919061620b565b6069556071546001600160a01b0387166000908152606f6020526040902054146146d9576001600160a01b038087166000908152606f60209081526040808320546071548085526070845282852054828652606e909452828520908552919093208054939850919093169550829161461a9061624e565b614625929190615537565b506071546000908152606e60205260409020600190810180549183019161464b9061624e565b614656929190615537565b506071546000908152606e60205260409020600290810180549183019161467c9061624e565b614687929190615537565b506071546000908152606e602090815260408083206003908101549401939093558682526070815282822080546001600160a01b0319166001600160a01b0388169081179091558252606f9052208490555b60718054600090815260706020908152604080832080546001600160a01b03191690556001600160a01b038a168352606f825280832083905592548252606e90529081209061472882826155b2565b6147366001830160006155b2565b6147446002830160006155b2565b60038201600090555050600160715461475d919061620b565b6071554360665561476e868661523a565b816001600160a01b0316866001600160a01b03167faa91016c21c52c58ac64f23f71bbe75becc9ada603e18ee671d09ff15492d1c160405160405180910390a350505050505050565b6000816147c9576147c9836003615004565b60008060008060008060008060006147e08c61510b565b9850985098509850985098509850985098506147fb896122c8565b614867578b6000805160206162f983398151915260405161484d906020808252601b908201527f4f6c642061646472657373206973206e6f742061206d656d6265720000000000604082015260600190565b60405180910390a260009950505050505050505050612305565b6001600160a01b03808a166000818152606d6020526040902054918a1614614a5c57614892896122c8565b15614900578c6000805160206162f98339815191526040516148e5906020808252601f908201527f6e6577206164647265737320697320616c72656164792061206d656d62657200604082015260600190565b60405180910390a260009a5050505050505050505050612305565b876001600160a01b0316896001600160a01b0316141580156149345750866001600160a01b0316896001600160a01b031614155b1561497f578c6000805160206162f98339815191526040516148e590602080825260159082015274496e76616c696420766f746572206164647265737360581b604082015260600190565b6000818152606c6020908152604080832080546001600160a01b0319166001600160a01b038e81169182179092558452606d909252808320849055908c1682528120556149ca612776565b8210806149dd5750816149db612105565b105b15614a26578c6000805160206162f98339815191526040516148e590602080825260139082015272125b9d985b1a59081b1bd8dac8185b5bdd5b9d606a1b604082015260600190565b81614a308a6151c1565b1015614a52578c6000805160206162f98339815191526040516148e590615def565b614a5c89836151fb565b6001600160a01b038a166000908152606f6020908152604080832054808452606e8352922088519091614a939183918b01906154b3565b508651614aa990600183019060208a01906154b3565b508551614abf90600283019060208901906154b3565b5060038101859055436066556000838152606a6020908152604080832080546001600160a01b038e81166001600160a01b031983168117909355918552606b8452828520889055811684528184208490558684526067909252909120548116908b168114801590614b4757506001600160a01b038b1660009081526068602052604090205415155b15614baa578f6000805160206162f9833981519152604051614b8c906020808252600f908201526e20b63932b0b23c9030903b37ba32b960891b604082015260600190565b60405180910390a260009d5050505050505050505050505050612305565b8a6067600086815260200190815260200160002060006101000a8154816001600160a01b0302191690836001600160a01b0316021790555083606860008d6001600160a01b03166001600160a01b0316815260200190815260200160002081905550600060686000836001600160a01b03166001600160a01b0316815260200190815260200160002081905550508a6001600160a01b03168c6001600160a01b031614614d37578a6070600084815260200190815260200160002060006101000a8154816001600160a01b0302191690836001600160a01b0316021790555081606f60008d6001600160a01b03166001600160a01b03168152602001908152602001600020819055506000606f60008e6001600160a01b03166001600160a01b0316815260200190815260200160002081905550614ce88c8561523a565b896001600160a01b03168b6001600160a01b03168d6001600160a01b03167f15f4d750630db473a85edd9d47c500527a2648cc5e676f39645e52790cf07be060405160405180910390a4614d78565b8a6001600160a01b03168c6001600160a01b03167f1feee1b4fcb797c62645da41c5c6edd5f91d4291de0054da625c42b823594c1f60405160405180910390a35b5060019e9d5050505050505050505050505050565b614d98816004615004565b6000614da26133ca565b6001600160a01b0316637efa9ae3836040518263ffffffff1660e01b8152600401614dcf91815260200190565b60206040518083038186803b158015614de757600080fd5b505afa158015614dfb573d6000803e3d6000fd5b505050506040513d601f19601f82011682018060405250810190614e1f91906157e1565b90506001600160a01b0381161561204e57614e39816135b8565b614e448160006116f5565b436066555050565b614e57816005615004565b6000806000614e646133ca565b6001600160a01b0316631d940da2856040518263ffffffff1660e01b8152600401614e9191815260200190565b60006040518083038186803b158015614ea957600080fd5b505afa158015614ebd573d6000803e3d6000fd5b505050506040513d6000823e601f3d908101601f19168201604052614ee59190810190615ac5565b9250925092506000614ef5613571565b6040516388c2801960e01b81529091506001600160a01b038216906388c2801990614f269087908690600401615d04565b600060405180830381600087803b158015614f4057600080fd5b505af1158015614f54573d6000803e3d6000fd5b50504360665550506040517f701c16c2519cdb79aaac423a84733590e3510d9552055b6ad6908f0ab12b6c2990614f9090869086908690615d1d565b60405180910390a15050505050565b614fa881613e4b565b6040516001600160a01b038216907fbc7cd75a20ee27fd9adebab32041f755214dbc6bffa90cc0225b39da2e5c2d3b90600090a250565b60606138ae83836040518060600160405280602781526020016163196027913961535e565b60008061501084613450565b509150915082821461505a5760405162461bcd60e51b8152602060048201526013602482015272496e76616c696420766f74696e67207479706560681b6044820152606401610ff6565b600281146150a15760405162461bcd60e51b8152602060048201526014602482015273496e76616c696420766f74696e6720737461746560601b6044820152606401610ff6565b6000806150ad86613c67565b92509250506150bb61138990565b821015806150cb57506113898110155b6134485760405162461bcd60e51b8152602060048201526011602482015270139bdd081e595d08199a5b985b1a5e9959607a1b6044820152606401610ff6565b60008060008060608060606000806151216133ca565b6001600160a01b03166373df4e018b6040518263ffffffff1660e01b815260040161514e91815260200190565b60006040518083038186803b15801561516657600080fd5b505afa15801561517a573d6000803e3d6000fd5b505050506040513d6000823e601f3d908101601f191682016040526151a291908101906157fe565b9850985098509850985098509850985098509193959799909294969850565b60006151cb61399f565b6040516325d998bb60e01b81526001600160a01b03848116600483015291909116906325d998bb9060240161335e565b61520361399f565b60405163282d3fdf60e01b81526001600160a01b03848116600483015260248201849052919091169063282d3fdf9060440161341a565b600061524461399f565b604051632c9aab9b60e11b81526001600160a01b03858116600483015291925060009183169063593557369060240160206040518083038186803b15801561528b57600080fd5b505afa15801561529f573d6000803e3d6000fd5b505050506040513d601f19601f820116820180604052508101906152c39190615aac565b905082811115615354576001600160a01b038216637756c908856152e7868561620b565b6040516001600160e01b031960e085901b1681526001600160a01b0390921660048301526024820152604401600060405180830381600087803b15801561532d57600080fd5b505af1158015615341573d6000803e3d6000fd5b5050505061534f848461543b565b613f0c565b613f0c848261543b565b60606001600160a01b0384163b6153c65760405162461bcd60e51b815260206004820152602660248201527f416464726573733a2064656c65676174652063616c6c20746f206e6f6e2d636f6044820152651b9d1c9858dd60d21b6064820152608401610ff6565b600080856001600160a01b0316856040516153e19190615ce8565b600060405180830381855af49150503d806000811461541c576040519150601f19603f3d011682016040523d82523d6000602084013e615421565b606091505b509150915061543182828661547a565b9695505050505050565b61544361399f565b604051637eee288d60e01b81526001600160a01b038481166004830152602482018490529190911690637eee288d9060440161341a565b606083156154895750816138ae565b8251156154995782518084602001fd5b8160405162461bcd60e51b8152600401610ff69190615d90565b8280546154bf9061624e565b90600052602060002090601f0160209004810192826154e15760008555615527565b82601f106154fa57805160ff1916838001178555615527565b82800160010185558215615527579182015b8281111561552757825182559160200191906001019061550c565b506155339291506155e8565b5090565b8280546155439061624e565b90600052602060002090601f0160209004810192826155655760008555615527565b82601f106155765780548555615527565b8280016001018555821561552757600052602060002091601f016020900482015b82811115615527578254825591600101919060010190615597565b5080546155be9061624e565b6000825580601f106155ce575050565b601f01602090049060005260206000209081019061172791905b5b8082111561553357600081556001016155e9565b80356121b2816162b5565b80516121b2816162b5565b600082601f83011261562457600080fd5b8135615637615632826161cc565b61619c565b81815284602083860101111561564c57600080fd5b816020850160208301376000918101602001919091529392505050565b600082601f83011261567a57600080fd5b8151615688615632826161cc565b81815284602083860101111561569d57600080fd5b6156ae826020830160208701616222565b949350505050565b600061014082840312156156c957600080fd5b6156d1616173565b90506156dc826155fd565b81526156ea602083016155fd565b60208201526156fb604083016155fd565b604082015260608201356001600160401b038082111561571a57600080fd5b61572685838601615613565b6060840152608084013591508082111561573f57600080fd5b61574b85838601615613565b608084015260a084013591508082111561576457600080fd5b61577085838601615613565b60a084015260c084013560c084015260e084013560e08401526101009150818401358181111561579f57600080fd5b6157ab86828701615613565b8385015250505061012080830135818301525092915050565b6000602082840312156157d657600080fd5b81356138ae816162b5565b6000602082840312156157f357600080fd5b81516138ae816162b5565b60008060008060008060008060006101208a8c03121561581d57600080fd5b6158268a615608565b985061583460208b01615608565b975061584260408b01615608565b965061585060608b01615608565b955060808a01516001600160401b038082111561586c57600080fd5b6158788d838e01615669565b965060a08c015191508082111561588e57600080fd5b61589a8d838e01615669565b955060c08c01519150808211156158b057600080fd5b506158bd8c828d01615669565b93505060e08a015191506101008a015190509295985092959850929598565b600080604083850312156158ef57600080fd5b82356158fa816162b5565b915060208301356001600160401b0381111561591557600080fd5b61592185828601615613565b9150509250929050565b60008060006060848603121561594057600080fd5b833561594b816162b5565b925060208401356001600160401b0381111561596657600080fd5b61597286828701615613565b925050604084013590509250925092565b60008060008060008060c0878903121561599c57600080fd5b86356159a7816162b5565b95506020870135945060408701356001600160401b03808211156159ca57600080fd5b6159d68a838b01615613565b955060608901359150808211156159ec57600080fd5b6159f88a838b01615613565b94506080890135915080821115615a0e57600080fd5b50615a1b89828a01615613565b92505060a087013590509295509295509295565b60008060008060808587031215615a4557600080fd5b8435615a50816162b5565b93506020850135925060408501356001600160401b03811115615a7257600080fd5b615a7e87828801615613565b949793965093946060013593505050565b600060208284031215615aa157600080fd5b81516138ae816162ca565b600060208284031215615abe57600080fd5b5051919050565b600080600060608486031215615ada57600080fd5b835192506020840151915060408401516001600160401b03811115615afe57600080fd5b615b0a86828701615669565b9150509250925092565b600080600080600060a08688031215615b2c57600080fd5b853594506020860135935060408601356001600160401b0380821115615b5157600080fd5b615b5d89838a01615613565b94506060880135915080821115615b7357600080fd5b50615b8088828901615613565b95989497509295608001359392505050565b600060208284031215615ba457600080fd5b81356001600160401b03811115615bba57600080fd5b6156ae848285016156b6565b60008060408385031215615bd957600080fd5b82356001600160401b03811115615bef57600080fd5b615bfb858286016156b6565b9250506020830135615c0c816162b5565b809150509250929050565b600060208284031215615c2957600080fd5b5035919050565b60008060408385031215615c4357600080fd5b823591506020830135615c0c816162ca565b600080600060608486031215615c6a57600080fd5b83519250602084015191506040840151615c83816162ca565b809150509250925092565b600080600060608486031215615ca357600080fd5b8351925060208401519150604084015190509250925092565b60008151808452615cd4816020860160208601616222565b601f01601f19169290920160200192915050565b60008251615cfa818460208701616222565b9190910192915050565b8281526040602082015260006156ae6040830184615cbc565b838152826020820152606060408201526000615d3c6060830184615cbc565b95945050505050565b608081526000615d586080830187615cbc565b8281036020840152615d6a8187615cbc565b90508281036040840152615d7e8186615cbc565b91505082606083015295945050505050565b6020815260006138ae6020830184615cbc565b6020808252602c908201527f46756e6374696f6e206d7573742062652063616c6c6564207468726f7567682060408201526b19195b1959d85d1958d85b1b60a21b606082015260800190565b60208082526027908201527f496e73756666696369656e742062616c616e636520746861742063616e206265604082015266081b1bd8dad95960ca1b606082015260800190565b6020808252602c908201527f46756e6374696f6e206d7573742062652063616c6c6564207468726f7567682060408201526b6163746976652070726f787960a01b606082015260800190565b60208082526029908201527f45524331393637557067726164653a20756e737570706f727465642070726f786040820152681a58589b195555525160ba1b606082015260800190565b6020808252602e908201527f496e697469616c697a61626c653a20636f6e747261637420697320616c72656160408201526d191e481a5b9a5d1a585b1a5e995960921b606082015260800190565b6020808252600d908201526c2737902832b936b4b9b9b4b7b760991b604082015260600190565b6020808252602e908201527f45524331393637557067726164653a206e657720696d706c656d656e7461746960408201526d6f6e206973206e6f74205555505360901b606082015260800190565b60208082526023908201527f4e6f7720696e20766f74696e67207769746820646966666572656e742062616c6040820152621b1bdd60ea1b606082015260800190565b60208082526017908201527f496e76616c6964207374616b696e672062616c616e6365000000000000000000604082015260600190565b6020808252602b908201527f496e697469616c697a61626c653a20636f6e7472616374206973206e6f74206960408201526a6e697469616c697a696e6760a81b606082015260800190565b6020808252601d908201527f43616e6e6f74206164642070726f706f73616c20746f6f206561726c79000000604082015260600190565b8c8152602081018c9052604081018b90526001600160a01b038a81166060830152898116608083015288811660a083015287811660c0830152861660e08201526000610180806101008401526160e281840188615cbc565b90508281036101208401526160f78187615cbc565b905082810361014084015261610c8186615cbc565b915050826101608301529d9c50505050505050505050505050565b87815286602082015285604082015260018060a01b03851660608201528360808201528260a082015260e060c0820152600061616660e0830184615cbc565b9998505050505050505050565b60405161014081016001600160401b03811182821017156161965761619661629f565b60405290565b604051601f8201601f191681016001600160401b03811182821017156161c4576161c461629f565b604052919050565b60006001600160401b038211156161e5576161e561629f565b50601f01601f191660200190565b6000821982111561620657616206616289565b500190565b60008282101561621d5761621d616289565b500390565b60005b8381101561623d578181015183820152602001616225565b83811115613f0c5750506000910152565b600181811c9082168061626257607f821691505b6020821081141561628357634e487b7160e01b600052602260045260246000fd5b50919050565b634e487b7160e01b600052601160045260246000fd5b634e487b7160e01b600052604160045260246000fd5b6001600160a01b038116811461172757600080fd5b801515811461172757600080fdfe360894a13ba1a3210667c828492db98dca3e2076cc3735a920a3ca505d382bbc85e7f4987c0698db47045ad8cea110b51138f0eecbd94915842328cf6c3dc97d416464726573733a206c6f772d6c6576656c2064656c65676174652063616c6c206661696c6564a26469706673582212202450a4cc3d2f24ee41e110f4c1b47b981ff0e9edd165d56e9b6783777963b4ca64736f6c63430008060033",
  "linkReferences": {},
  "deployedLinkReferences": {}
}