{
  "_format": "hh-sol-artifact-1",
  "contractName": "GovImp",
  "sourceName": "contracts/GovImp.sol",
  "abi": [
    {
      "anonymous": false,
      "inputs": [
        {
          "indexed": false,
          "internalType": "address",
          "name": "previousAdmin",
          "type": "address"
        },
        {
          "indexed": false,
          "internalType": "address",
          "name": "newAdmin",
          "type": "address"
        }
      ],
      "name": "AdminChanged",
      "type": "event"
    },
    {
      "anonymous": false,
      "inputs": [
        {
          "indexed": true,
          "internalType": "address",
          "name": "beacon",
          "type": "address"
        }
      ],
      "name": "BeaconUpgraded",
      "type": "event"
    },
    {
      "anonymous": false,
      "inputs": [
        {
          "indexed": false,
          "internalType": "bytes32",
          "name": "envName",
          "type": "bytes32"
        },
        {
          "indexed": false,
          "internalType": "uint256",
          "name": "envType",
          "type": "uint256"
        },
        {
          "indexed": false,
          "internalType": "bytes",
          "name": "envVal",
          "type": "bytes"
        }
      ],
      "name": "EnvChanged",
      "type": "event"
    },
    {
      "anonymous": false,
      "inputs": [
        {
          "indexed": false,
          "internalType": "uint8",
          "name": "version",
          "type": "uint8"
        }
      ],
      "name": "Initialized",
      "type": "event"
    },
    {
      "anonymous": false,
      "inputs": [
        {
          "indexed": true,
          "internalType": "address",
          "name": "addr",
          "type": "address"
        },
        {
          "indexed": true,
          "internalType": "address",
          "name": "voter",
          "type": "address"
        }
      ],
      "name": "MemberAdded",
      "type": "event"
    },
    {
      "anonymous": false,
      "inputs": [
        {
          "indexed": true,
          "internalType": "address",
          "name": "oldAddr",
          "type": "address"
        },
        {
          "indexed": true,
          "internalType": "address",
          "name": "newAddr",
          "type": "address"
        },
        {
          "indexed": true,
          "internalType": "address",
          "name": "newVoter",
          "type": "address"
        }
      ],
      "name": "MemberChanged",
      "type": "event"
    },
    {
      "anonymous": false,
      "inputs": [
        {
          "indexed": true,
          "internalType": "address",
          "name": "addr",
          "type": "address"
        },
        {
          "indexed": true,
          "internalType": "address",
          "name": "voter",
          "type": "address"
        }
      ],
      "name": "MemberRemoved",
      "type": "event"
    },
    {
      "anonymous": false,
      "inputs": [
        {
          "indexed": true,
          "internalType": "address",
          "name": "addr",
          "type": "address"
        },
        {
          "indexed": true,
          "internalType": "address",
          "name": "voter",
          "type": "address"
        }
      ],
      "name": "MemberUpdated",
      "type": "event"
    },
    {
      "anonymous": false,
      "inputs": [
        {
          "indexed": true,
          "internalType": "uint256",
          "name": "ballotId",
          "type": "uint256"
        },
        {
          "indexed": false,
          "internalType": "string",
          "name": "reason",
          "type": "string"
        }
      ],
      "name": "NotApplicable",
      "type": "event"
    },
    {
      "anonymous": false,
      "inputs": [
        {
          "indexed": true,
          "internalType": "address",
          "name": "previousOwner",
          "type": "address"
        },
        {
          "indexed": true,
          "internalType": "address",
          "name": "newOwner",
          "type": "address"
        }
      ],
      "name": "OwnershipTransferred",
      "type": "event"
    },
    {
      "anonymous": false,
      "inputs": [
        {
          "indexed": true,
          "internalType": "address",
          "name": "implementation",
          "type": "address"
        }
      ],
      "name": "Upgraded",
      "type": "event"
    },
    {
      "inputs": [],
      "name": "BALLOT_DURATION_MAX_NAME",
      "outputs": [
        {
          "internalType": "bytes32",
          "name": "",
          "type": "bytes32"
        }
      ],
      "stateMutability": "view",
      "type": "function"
    },
    {
      "inputs": [],
      "name": "BALLOT_DURATION_MIN_MAX_NAME",
      "outputs": [
        {
          "internalType": "bytes32",
          "name": "",
          "type": "bytes32"
        }
      ],
      "stateMutability": "view",
      "type": "function"
    },
    {
      "inputs": [],
      "name": "BALLOT_DURATION_MIN_NAME",
      "outputs": [
        {
          "internalType": "bytes32",
          "name": "",
          "type": "bytes32"
        }
      ],
      "stateMutability": "view",
      "type": "function"
    },
    {
      "inputs": [],
      "name": "BALLOT_STORAGE_NAME",
      "outputs": [
        {
          "internalType": "bytes32",
          "name": "",
          "type": "bytes32"
        }
      ],
      "stateMutability": "view",
      "type": "function"
    },
    {
      "inputs": [],
      "name": "BASE_FEE_MAX_CHANGE_RATE_NAME",
      "outputs": [
        {
          "internalType": "bytes32",
          "name": "",
          "type": "bytes32"
        }
      ],
      "stateMutability": "view",
      "type": "function"
    },
    {
      "inputs": [],
      "name": "BLOCKS_PER_NAME",
      "outputs": [
        {
          "internalType": "bytes32",
          "name": "",
          "type": "bytes32"
        }
      ],
      "stateMutability": "view",
      "type": "function"
    },
    {
      "inputs": [],
      "name": "BLOCK_CREATION_TIME_NAME",
      "outputs": [
        {
          "internalType": "bytes32",
          "name": "",
          "type": "bytes32"
        }
      ],
      "stateMutability": "view",
      "type": "function"
    },
    {
      "inputs": [],
      "name": "BLOCK_GASLIMIT_NAME",
      "outputs": [
        {
          "internalType": "bytes32",
          "name": "",
          "type": "bytes32"
        }
      ],
      "stateMutability": "view",
      "type": "function"
    },
    {
      "inputs": [],
      "name": "BLOCK_REWARD_AMOUNT_NAME",
      "outputs": [
        {
          "internalType": "bytes32",
          "name": "",
          "type": "bytes32"
        }
      ],
      "stateMutability": "view",
      "type": "function"
    },
    {
      "inputs": [],
      "name": "BLOCK_REWARD_DISTRIBUTION_BLOCK_PRODUCER_NAME",
      "outputs": [
        {
          "internalType": "bytes32",
          "name": "",
          "type": "bytes32"
        }
      ],
      "stateMutability": "view",
      "type": "function"
    },
    {
      "inputs": [],
      "name": "BLOCK_REWARD_DISTRIBUTION_ECOSYSTEM_NAME",
      "outputs": [
        {
          "internalType": "bytes32",
          "name": "",
          "type": "bytes32"
        }
      ],
      "stateMutability": "view",
      "type": "function"
    },
    {
      "inputs": [],
      "name": "BLOCK_REWARD_DISTRIBUTION_MAINTANANCE_NAME",
      "outputs": [
        {
          "internalType": "bytes32",
          "name": "",
          "type": "bytes32"
        }
      ],
      "stateMutability": "view",
      "type": "function"
    },
    {
      "inputs": [],
      "name": "BLOCK_REWARD_DISTRIBUTION_METHOD_NAME",
      "outputs": [
        {
          "internalType": "bytes32",
          "name": "",
          "type": "bytes32"
        }
      ],
      "stateMutability": "view",
      "type": "function"
    },
    {
      "inputs": [],
      "name": "BLOCK_REWARD_DISTRIBUTION_STAKING_REWARD_NAME",
      "outputs": [
        {
          "internalType": "bytes32",
          "name": "",
          "type": "bytes32"
        }
      ],
      "stateMutability": "view",
      "type": "function"
    },
    {
      "inputs": [],
      "name": "DENOMINATOR",
      "outputs": [
        {
          "internalType": "uint256",
          "name": "",
          "type": "uint256"
        }
      ],
      "stateMutability": "view",
      "type": "function"
    },
    {
      "inputs": [],
      "name": "ENV_STORAGE_NAME",
      "outputs": [
        {
          "internalType": "bytes32",
          "name": "",
          "type": "bytes32"
        }
      ],
      "stateMutability": "view",
      "type": "function"
    },
    {
      "inputs": [],
      "name": "GASLIMIT_AND_BASE_FEE_NAME",
      "outputs": [
        {
          "internalType": "bytes32",
          "name": "",
          "type": "bytes32"
        }
      ],
      "stateMutability": "view",
      "type": "function"
    },
    {
      "inputs": [],
      "name": "GAS_TARGET_PERCENTAGE_NAME",
      "outputs": [
        {
          "internalType": "bytes32",
          "name": "",
          "type": "bytes32"
        }
      ],
      "stateMutability": "view",
      "type": "function"
    },
    {
      "inputs": [],
      "name": "GOV_NAME",
      "outputs": [
        {
          "internalType": "bytes32",
          "name": "",
          "type": "bytes32"
        }
      ],
      "stateMutability": "view",
      "type": "function"
    },
    {
      "inputs": [],
      "name": "MAINTENANCE_NAME",
      "outputs": [
        {
          "internalType": "bytes32",
          "name": "",
          "type": "bytes32"
        }
      ],
      "stateMutability": "view",
      "type": "function"
    },
    {
      "inputs": [],
      "name": "MAX_BASE_FEE_NAME",
      "outputs": [
        {
          "internalType": "bytes32",
          "name": "",
          "type": "bytes32"
        }
      ],
      "stateMutability": "view",
      "type": "function"
    },
    {
      "inputs": [],
      "name": "MAX_IDLE_BLOCK_INTERVAL_NAME",
      "outputs": [
        {
          "internalType": "bytes32",
          "name": "",
          "type": "bytes32"
        }
      ],
      "stateMutability": "view",
      "type": "function"
    },
    {
      "inputs": [],
      "name": "MAX_PRIORITY_FEE_PER_GAS_NAME",
      "outputs": [
        {
          "internalType": "bytes32",
          "name": "",
          "type": "bytes32"
        }
      ],
      "stateMutability": "view",
      "type": "function"
    },
    {
      "inputs": [],
      "name": "REWARD_POOL_NAME",
      "outputs": [
        {
          "internalType": "bytes32",
          "name": "",
          "type": "bytes32"
        }
      ],
      "stateMutability": "view",
      "type": "function"
    },
    {
      "inputs": [],
      "name": "STAKING_MAX_NAME",
      "outputs": [
        {
          "internalType": "bytes32",
          "name": "",
          "type": "bytes32"
        }
      ],
      "stateMutability": "view",
      "type": "function"
    },
    {
      "inputs": [],
      "name": "STAKING_MIN_MAX_NAME",
      "outputs": [
        {
          "internalType": "bytes32",
          "name": "",
          "type": "bytes32"
        }
      ],
      "stateMutability": "view",
      "type": "function"
    },
    {
      "inputs": [],
      "name": "STAKING_MIN_NAME",
      "outputs": [
        {
          "internalType": "bytes32",
          "name": "",
          "type": "bytes32"
        }
      ],
      "stateMutability": "view",
      "type": "function"
    },
    {
      "inputs": [],
      "name": "STAKING_NAME",
      "outputs": [
        {
          "internalType": "bytes32",
          "name": "",
          "type": "bytes32"
        }
      ],
      "stateMutability": "view",
      "type": "function"
    },
    {
      "inputs": [
        {
          "components": [
            {
              "internalType": "address",
              "name": "staker",
              "type": "address"
            },
            {
              "internalType": "address",
              "name": "voter",
              "type": "address"
            },
            {
              "internalType": "address",
              "name": "reward",
              "type": "address"
            },
            {
              "internalType": "bytes",
              "name": "name",
              "type": "bytes"
            },
            {
              "internalType": "bytes",
              "name": "enode",
              "type": "bytes"
            },
            {
              "internalType": "bytes",
              "name": "ip",
              "type": "bytes"
            },
            {
              "internalType": "uint256",
              "name": "port",
              "type": "uint256"
            },
            {
              "internalType": "uint256",
              "name": "lockAmount",
              "type": "uint256"
            },
            {
              "internalType": "bytes",
              "name": "memo",
              "type": "bytes"
            },
            {
              "internalType": "uint256",
              "name": "duration",
              "type": "uint256"
            }
          ],
          "internalType": "struct GovImp.MemberInfo",
          "name": "info",
          "type": "tuple"
        }
      ],
      "name": "addProposalToAddMember",
      "outputs": [
        {
          "internalType": "uint256",
          "name": "ballotIdx",
          "type": "uint256"
        }
      ],
      "stateMutability": "nonpayable",
      "type": "function"
    },
    {
      "inputs": [
        {
          "internalType": "bytes32",
          "name": "envName",
          "type": "bytes32"
        },
        {
          "internalType": "uint256",
          "name": "envType",
          "type": "uint256"
        },
        {
          "internalType": "bytes",
          "name": "envVal",
          "type": "bytes"
        },
        {
          "internalType": "bytes",
          "name": "memo",
          "type": "bytes"
        },
        {
          "internalType": "uint256",
          "name": "duration",
          "type": "uint256"
        }
      ],
      "name": "addProposalToChangeEnv",
      "outputs": [
        {
          "internalType": "uint256",
          "name": "ballotIdx",
          "type": "uint256"
        }
      ],
      "stateMutability": "nonpayable",
      "type": "function"
    },
    {
      "inputs": [
        {
          "internalType": "address",
          "name": "newGovAddr",
          "type": "address"
        },
        {
          "internalType": "bytes",
          "name": "memo",
          "type": "bytes"
        },
        {
          "internalType": "uint256",
          "name": "duration",
          "type": "uint256"
        }
      ],
      "name": "addProposalToChangeGov",
      "outputs": [
        {
          "internalType": "uint256",
          "name": "ballotIdx",
          "type": "uint256"
        }
      ],
      "stateMutability": "nonpayable",
      "type": "function"
    },
    {
      "inputs": [
        {
          "components": [
            {
              "internalType": "address",
              "name": "staker",
              "type": "address"
            },
            {
              "internalType": "address",
              "name": "voter",
              "type": "address"
            },
            {
              "internalType": "address",
              "name": "reward",
              "type": "address"
            },
            {
              "internalType": "bytes",
              "name": "name",
              "type": "bytes"
            },
            {
              "internalType": "bytes",
              "name": "enode",
              "type": "bytes"
            },
            {
              "internalType": "bytes",
              "name": "ip",
              "type": "bytes"
            },
            {
              "internalType": "uint256",
              "name": "port",
              "type": "uint256"
            },
            {
              "internalType": "uint256",
              "name": "lockAmount",
              "type": "uint256"
            },
            {
              "internalType": "bytes",
              "name": "memo",
              "type": "bytes"
            },
            {
              "internalType": "uint256",
              "name": "duration",
              "type": "uint256"
            }
          ],
          "internalType": "struct GovImp.MemberInfo",
          "name": "newInfo",
          "type": "tuple"
        },
        {
          "internalType": "address",
          "name": "oldStaker",
          "type": "address"
        }
      ],
      "name": "addProposalToChangeMember",
      "outputs": [
        {
          "internalType": "uint256",
          "name": "ballotIdx",
          "type": "uint256"
        }
      ],
      "stateMutability": "nonpayable",
      "type": "function"
    },
    {
      "inputs": [
        {
          "internalType": "address",
          "name": "staker",
          "type": "address"
        },
        {
          "internalType": "uint256",
          "name": "lockAmount",
          "type": "uint256"
        },
        {
          "internalType": "bytes",
          "name": "memo",
          "type": "bytes"
        },
        {
          "internalType": "uint256",
          "name": "duration",
          "type": "uint256"
        }
      ],
      "name": "addProposalToRemoveMember",
      "outputs": [
        {
          "internalType": "uint256",
          "name": "ballotIdx",
          "type": "uint256"
        }
      ],
      "stateMutability": "nonpayable",
      "type": "function"
    },
    {
      "inputs": [],
      "name": "ballotLength",
      "outputs": [
        {
          "internalType": "uint256",
          "name": "",
          "type": "uint256"
        }
      ],
      "stateMutability": "view",
      "type": "function"
    },
    {
      "inputs": [],
      "name": "getBallotInVoting",
      "outputs": [
        {
          "internalType": "uint256",
          "name": "",
          "type": "uint256"
        }
      ],
      "stateMutability": "view",
      "type": "function"
    },
    {
      "inputs": [],
      "name": "getMaxStaking",
      "outputs": [
        {
          "internalType": "uint256",
          "name": "",
          "type": "uint256"
        }
      ],
      "stateMutability": "view",
      "type": "function"
    },
    {
      "inputs": [],
      "name": "getMaxVotingDuration",
      "outputs": [
        {
          "internalType": "uint256",
          "name": "",
          "type": "uint256"
        }
      ],
      "stateMutability": "view",
      "type": "function"
    },
    {
      "inputs": [
        {
          "internalType": "uint256",
          "name": "idx",
          "type": "uint256"
        }
      ],
      "name": "getMember",
      "outputs": [
        {
          "internalType": "address",
          "name": "",
          "type": "address"
        }
      ],
      "stateMutability": "view",
      "type": "function"
    },
    {
      "inputs": [
        {
          "internalType": "uint256",
          "name": "idx",
          "type": "uint256"
        }
      ],
      "name": "getMemberFromNodeIdx",
      "outputs": [
        {
          "internalType": "address",
          "name": "",
          "type": "address"
        }
      ],
      "stateMutability": "view",
      "type": "function"
    },
    {
      "inputs": [],
      "name": "getMemberLength",
      "outputs": [
        {
          "internalType": "uint256",
          "name": "",
          "type": "uint256"
        }
      ],
      "stateMutability": "view",
      "type": "function"
    },
    {
      "inputs": [],
      "name": "getMinStaking",
      "outputs": [
        {
          "internalType": "uint256",
          "name": "",
          "type": "uint256"
        }
      ],
      "stateMutability": "view",
      "type": "function"
    },
    {
      "inputs": [],
      "name": "getMinVotingDuration",
      "outputs": [
        {
          "internalType": "uint256",
          "name": "",
          "type": "uint256"
        }
      ],
      "stateMutability": "view",
      "type": "function"
    },
    {
      "inputs": [
        {
          "internalType": "uint256",
          "name": "idx",
          "type": "uint256"
        }
      ],
      "name": "getNode",
      "outputs": [
        {
          "internalType": "bytes",
          "name": "name",
          "type": "bytes"
        },
        {
          "internalType": "bytes",
          "name": "enode",
          "type": "bytes"
        },
        {
          "internalType": "bytes",
          "name": "ip",
          "type": "bytes"
        },
        {
          "internalType": "uint256",
          "name": "port",
          "type": "uint256"
        }
      ],
      "stateMutability": "view",
      "type": "function"
    },
    {
      "inputs": [
        {
          "internalType": "address",
          "name": "addr",
          "type": "address"
        }
      ],
      "name": "getNodeIdxFromMember",
      "outputs": [
        {
          "internalType": "uint256",
          "name": "",
          "type": "uint256"
        }
      ],
      "stateMutability": "view",
      "type": "function"
    },
    {
      "inputs": [],
      "name": "getNodeLength",
      "outputs": [
        {
          "internalType": "uint256",
          "name": "",
          "type": "uint256"
        }
      ],
      "stateMutability": "view",
      "type": "function"
    },
    {
      "inputs": [
        {
          "internalType": "uint256",
          "name": "idx",
          "type": "uint256"
        }
      ],
      "name": "getReward",
      "outputs": [
        {
          "internalType": "address",
          "name": "",
          "type": "address"
        }
      ],
      "stateMutability": "view",
      "type": "function"
    },
    {
      "inputs": [],
      "name": "getThreshold",
      "outputs": [
        {
          "internalType": "uint256",
          "name": "",
          "type": "uint256"
        }
      ],
      "stateMutability": "pure",
      "type": "function"
    },
    {
      "inputs": [
        {
          "internalType": "uint256",
          "name": "idx",
          "type": "uint256"
        }
      ],
      "name": "getVoter",
      "outputs": [
        {
          "internalType": "address",
          "name": "",
          "type": "address"
        }
      ],
      "stateMutability": "view",
      "type": "function"
    },
    {
      "inputs": [
        {
          "internalType": "address",
          "name": "registry",
          "type": "address"
        },
        {
          "internalType": "uint256",
          "name": "lockAmount",
          "type": "uint256"
        },
        {
          "internalType": "bytes",
          "name": "name",
          "type": "bytes"
        },
        {
          "internalType": "bytes",
          "name": "enode",
          "type": "bytes"
        },
        {
          "internalType": "bytes",
          "name": "ip",
          "type": "bytes"
        },
        {
          "internalType": "uint256",
          "name": "port",
          "type": "uint256"
        }
      ],
      "name": "init",
      "outputs": [],
      "stateMutability": "nonpayable",
      "type": "function"
    },
    {
      "inputs": [
        {
          "internalType": "address",
          "name": "registry",
          "type": "address"
        },
        {
          "internalType": "bytes",
          "name": "data",
          "type": "bytes"
        }
      ],
      "name": "initOnce",
      "outputs": [],
      "stateMutability": "nonpayable",
      "type": "function"
    },
    {
      "inputs": [
        {
          "internalType": "address",
          "name": "addr",
          "type": "address"
        }
      ],
      "name": "isMember",
      "outputs": [
        {
          "internalType": "bool",
          "name": "",
          "type": "bool"
        }
      ],
      "stateMutability": "view",
      "type": "function"
    },
    {
      "inputs": [
        {
          "internalType": "address",
          "name": "addr",
          "type": "address"
        }
      ],
      "name": "isStaker",
      "outputs": [
        {
          "internalType": "bool",
          "name": "",
          "type": "bool"
        }
      ],
      "stateMutability": "view",
      "type": "function"
    },
    {
      "inputs": [
        {
          "internalType": "address",
          "name": "addr",
          "type": "address"
        }
      ],
      "name": "isVoter",
      "outputs": [
        {
          "internalType": "bool",
          "name": "",
          "type": "bool"
        }
      ],
      "stateMutability": "view",
      "type": "function"
    },
    {
      "inputs": [],
      "name": "modifiedBlock",
      "outputs": [
        {
          "internalType": "uint256",
          "name": "",
          "type": "uint256"
        }
      ],
      "stateMutability": "view",
      "type": "function"
    },
    {
      "inputs": [],
      "name": "owner",
      "outputs": [
        {
          "internalType": "address",
          "name": "",
          "type": "address"
        }
      ],
      "stateMutability": "view",
      "type": "function"
    },
    {
      "inputs": [],
      "name": "proxiableUUID",
      "outputs": [
        {
          "internalType": "bytes32",
          "name": "",
          "type": "bytes32"
        }
      ],
      "stateMutability": "view",
      "type": "function"
    },
    {
      "inputs": [],
      "name": "reg",
      "outputs": [
        {
          "internalType": "contract IRegistry",
          "name": "",
          "type": "address"
        }
      ],
      "stateMutability": "view",
      "type": "function"
    },
    {
      "inputs": [],
      "name": "renounceOwnership",
      "outputs": [],
      "stateMutability": "nonpayable",
      "type": "function"
    },
    {
      "inputs": [
        {
          "internalType": "address",
          "name": "",
          "type": "address"
        }
      ],
      "name": "rewardIdx",
      "outputs": [
        {
          "internalType": "uint256",
          "name": "",
          "type": "uint256"
        }
      ],
      "stateMutability": "view",
      "type": "function"
    },
    {
      "inputs": [
        {
          "internalType": "address",
          "name": "_addr",
          "type": "address"
        }
      ],
      "name": "setRegistry",
      "outputs": [],
      "stateMutability": "nonpayable",
      "type": "function"
    },
    {
      "inputs": [
        {
          "internalType": "address",
          "name": "",
          "type": "address"
        }
      ],
      "name": "stakerIdx",
      "outputs": [
        {
          "internalType": "uint256",
          "name": "",
          "type": "uint256"
        }
      ],
      "stateMutability": "view",
      "type": "function"
    },
    {
      "inputs": [
        {
          "internalType": "address",
          "name": "newOwner",
          "type": "address"
        }
      ],
      "name": "transferOwnership",
      "outputs": [],
      "stateMutability": "nonpayable",
      "type": "function"
    },
    {
      "inputs": [
        {
          "internalType": "address",
          "name": "newImplementation",
          "type": "address"
        }
      ],
      "name": "upgradeTo",
      "outputs": [],
      "stateMutability": "nonpayable",
      "type": "function"
    },
    {
      "inputs": [
        {
          "internalType": "address",
          "name": "newImplementation",
          "type": "address"
        },
        {
          "internalType": "bytes",
          "name": "data",
          "type": "bytes"
        }
      ],
      "name": "upgradeToAndCall",
      "outputs": [],
      "stateMutability": "payable",
      "type": "function"
    },
    {
      "inputs": [
        {
          "internalType": "uint256",
          "name": "ballotIdx",
          "type": "uint256"
        },
        {
          "internalType": "bool",
          "name": "approval",
          "type": "bool"
        }
      ],
      "name": "vote",
      "outputs": [],
      "stateMutability": "nonpayable",
      "type": "function"
    },
    {
      "inputs": [],
      "name": "voteLength",
      "outputs": [
        {
          "internalType": "uint256",
          "name": "",
          "type": "uint256"
        }
      ],
      "stateMutability": "view",
      "type": "function"
    },
    {
      "inputs": [
        {
          "internalType": "address",
          "name": "",
          "type": "address"
        }
      ],
      "name": "voterIdx",
      "outputs": [
        {
          "internalType": "uint256",
          "name": "",
          "type": "uint256"
        }
      ],
      "stateMutability": "view",
      "type": "function"
    }
  ],
  "bytecode": "0x60a06040523060601b60805234801561001757600080fd5b5060805160601c615f50620000536000396000818161151f0152818161155f01528181611e1901528181611e590152611ed50152615f506000f3fe6080604052600436106103e35760003560e01c80637d10dd1b11610208578063c42a0abc11610118578063d07bff0c116100ab578063de09b3771161007a578063de09b37714610da4578063e75235b814610db9578063e9523fb514610dce578063f2fde38b14610de4578063f38ecf4714610e0457600080fd5b8063d07bff0c14610d23578063d13a174414610d59578063d6f9cfce14610d79578063d965ea0014610d8f57600080fd5b8063ce04b9d4116100e7578063ce04b9d414610c8b578063ce6a54ff14610ca0578063ce93a23614610cd6578063cec5b62214610cf657600080fd5b8063c42a0abc14610bcf578063c6713baf14610c03578063c7d3da3414610c37578063c9d27afe14610c6b57600080fd5b8063a8915a3e1161019b578063ab3545e51161016a578063ab3545e514610ae8578063af6af2ff14610b1e578063b128f88014610b33578063c00ace6c14610b67578063c0b4fe1514610b9b57600080fd5b8063a8915a3e14610a47578063a91ee0dc14610a67578063a9b629b214610a87578063aaf0dd3614610abb57600080fd5b8063a0c12683116101d7578063a0c12683146109a6578063a230c524146109d3578063a6868b7d146109f3578063a7771ee314610a2757600080fd5b80637d10dd1b146109385780638da5cb5b1461094e578063918f86741461096c5780639986e4b91461098257600080fd5b80634bd1ed76116103035780636c78d2cf11610296578063715018a611610265578063715018a61461089957806372016f75146108ae578063738fdd1a146108c35780637b2bfb01146108e35780637bf465301461091757600080fd5b80636c78d2cf146107d85780636d583ca7146108015780636f1e8533146108355780636fde207a1461086557600080fd5b806352d1902d116102d257806352d1902d146107465780635aaa40401461075b5780636167eb4514610770578063656e3052146107a457600080fd5b80634bd1ed76146106ad5780634d273e28146106cf5780634f0f4aa9146107035780634f1ef2861461073357600080fd5b8063278bb12a1161037b57806336e83d831161034a57806336e83d831461060557806338294419146106255780633f35c8fe14610659578063406903531461068d57600080fd5b8063278bb12a1461056e5780632a203623146105a25780632f40992e146105c45780633659cfe6146105e557600080fd5b80631c150171116103b75780631c150171146104d15780631c4b774b146104e65780631e0cba0d1461051c578063238737b61461053a57600080fd5b806215a73b146103e85780630b1d39b81461042f5780630efa49091461046357806315bf6b4d14610483575b600080fd5b3480156103f457600080fd5b5061041c7f0c4fbe9dc9de15dd7c0d064975ee1a2f2f9b954fa0e65d4f6cddba94884bdc3e81565b6040519081526020015b60405180910390f35b34801561043b57600080fd5b5061041c7fdd5a41a7fc01f5c6d30816b17f638d6531625f1e1eaa599673ab2f6079f2dd9d81565b34801561046f57600080fd5b5061041c61047e366004615580565b610e38565b34801561048f57600080fd5b506104b961049e36600461586c565b6000908152607060205260409020546001600160a01b031690565b6040516001600160a01b039091168152602001610426565b3480156104dd57600080fd5b5061041c6111c2565b3480156104f257600080fd5b506104b961050136600461586c565b6000908152606a60205260409020546001600160a01b031690565b34801561052857600080fd5b5061041c665374616b696e6760c81b81565b34801561054657600080fd5b5061041c7f1d36f8ce53f59e624857e1d8dc7932d19981a2ea1b8faa4eb8ff843fc3e5a27881565b34801561057a57600080fd5b5061041c7f9b2e0c7fdae148f225bae7deb92d7e7bd24bb77edb12956e8fa7204900dd8a2281565b3480156105ae57600080fd5b506105c26105bd366004615531565b611241565b005b3480156105d057600080fd5b5061041c6914995dd85c99141bdbdb60b21b81565b3480156105f157600080fd5b506105c2610600366004615419565b611514565b34801561061157600080fd5b5061041c6106203660046157e7565b6115fa565b34801561063157600080fd5b5061041c7fbe90e461bbdb9a95a694f7796912ea04244caf7f5b60ad7ded17e16821d3e44c81565b34801561066557600080fd5b5061041c7f2a268972a70c8c688b62366bdfdd9bb09cf19d3e5b6e7e7bb158e671ffdcedd281565b34801561069957600080fd5b5061041c6106a8366004615769565b6119ac565b3480156106b957600080fd5b5061041c6a4d61696e74656e616e636560a81b81565b3480156106db57600080fd5b5061041c7f77884798208df1e64f70968be41ef2d3211ec53613397ca59313416813df088881565b34801561070f57600080fd5b5061072361071e36600461586c565b611c31565b604051610426949392919061599a565b6105c2610741366004615531565b611e0e565b34801561075257600080fd5b5061041c611ec8565b34801561076757600080fd5b5061041c611f7b565b34801561077c57600080fd5b5061041c7f9f1de481f899d76889aa8a2b44cc7b604d42691aa93d4ba618a1a1fd439f505081565b3480156107b057600080fd5b5061041c7fe10074dceffb75f13bf0ce50145afd35182d63796823f1280ce40e01c19109e781565b3480156107e457600080fd5b5061041c7111dbdd995c9b985b98d950dbdb9d1c9858dd60721b81565b34801561080d57600080fd5b5061041c7fc69fc6b7d0efc934fd5a3581c7253a7107a952526bb6dbcd814ef8d8dae1f44a81565b34801561084157600080fd5b50610855610850366004615419565b611fbd565b6040519015158152602001610426565b34801561087157600080fd5b5061041c7f0b09c9badbbeb6c813a598ee910770a39ccda797a1940439bb6e47fc6c87548b81565b3480156108a557600080fd5b506105c2611fda565b3480156108ba57600080fd5b5060715461041c565b3480156108cf57600080fd5b506065546104b9906001600160a01b031681565b3480156108ef57600080fd5b5061041c7f9346226931826838eedd13d9677fa33551e7c81f604b171ef3fac355458da9aa81565b34801561092357600080fd5b5061041c69456e7653746f7261676560b01b81565b34801561094457600080fd5b5061041c60665481565b34801561095a57600080fd5b506033546001600160a01b03166104b9565b34801561097857600080fd5b5061041c61271081565b34801561098e57600080fd5b5061041c6c42616c6c6f7453746f7261676560981b81565b3480156109b257600080fd5b5061041c6109c1366004615419565b606d6020526000908152604090205481565b3480156109df57600080fd5b506108556109ee366004615419565b611fee565b3480156109ff57600080fd5b5061041c7f6c6f69f426081752a5d3e73746599acd2a4cb145d5de4203ca1e3473b281680b81565b348015610a3357600080fd5b50610855610a42366004615419565b61200e565b348015610a5357600080fd5b506105c2610a623660046155d8565b61202b565b348015610a7357600080fd5b506105c2610a82366004615419565b6123ee565b348015610a9357600080fd5b5061041c7f89dd490ecaf395283ed4ff2fd9557ca767fc425dce063451a9b0da6d72f600c381565b348015610ac757600080fd5b5061041c610ad6366004615419565b606b6020526000908152604090205481565b348015610af457600080fd5b506104b9610b0336600461586c565b6000908152606c60205260409020546001600160a01b031690565b348015610b2a57600080fd5b5061041c61246e565b348015610b3f57600080fd5b5061041c7f829561ab7af084b7efc6600518d2df79b8d95f3f4c3a550f54f8f7ec7d2b805781565b348015610b7357600080fd5b5061041c7f18ad4415ef4a621ce1a136395c51ab6c3712bb2e24b79d526059925cea58dcb881565b348015610ba757600080fd5b5061041c7f8086da5becff4dfac91a3105821b361078d2d4abba0ccc2401b974cf0dcf05c181565b348015610bdb57600080fd5b5061041c7fb38b2c133e931937bd95337c65c8aefa7040ed64bbed732e3e29a4944c65747381565b348015610c0f57600080fd5b5061041c7fc9e15e34073efbcd0328740feaf503caac9124b55b38c73d1a97b53da80a2f6081565b348015610c4357600080fd5b5061041c7f04f7b94450bbcad85f37ea47cd1062728f884bb2040e357738f8fd53056134bc81565b348015610c7757600080fd5b506105c2610c86366004615885565b6124b0565b348015610c9757600080fd5b5061041c6126ab565b348015610cac57600080fd5b5061041c610cbb366004615419565b6001600160a01b03166000908152606f602052604090205490565b348015610ce257600080fd5b5061041c610cf136600461581b565b6126ed565b348015610d0257600080fd5b5061041c610d11366004615419565b60686020526000908152604090205481565b348015610d2f57600080fd5b506104b9610d3e36600461586c565b6000908152606760205260409020546001600160a01b031690565b348015610d6557600080fd5b5061041c610d74366004615684565b612b67565b348015610d8557600080fd5b5061041c60725481565b348015610d9b57600080fd5b5060695461041c565b348015610db057600080fd5b5060745461041c565b348015610dc557600080fd5b506113ec61041c565b348015610dda57600080fd5b5061041c60735481565b348015610df057600080fd5b506105c2610dff366004615419565b612e9a565b348015610e1057600080fd5b5061041c7f7c1150f0e1a39ff55552d52764f97e6c387e2a247e1df344369f122c4254be2f81565b6000610e42612f10565b60405163288c314960e21b81523360048201526001600160a01b03919091169063a230c5249060240160206040518083038186803b158015610e8357600080fd5b505afa158015610e97573d6000803e3d6000fd5b505050506040513d601f19601f82011682018060405250810190610ebb91906156e4565b610ee05760405162461bcd60e51b8152600401610ed790615b6e565b60405180910390fd5b6000610eeb33611fbd565b15610ef7575033610f2d565b610f003361200e565b15610f2d5750336000908152606860209081526040808320548352606c9091529020546001600160a01b03165b610f35611f7b565b610f3e82612f30565b11158015610f5b5750610f4f61246e565b610f5882612f30565b10155b610f775760405162461bcd60e51b8152600401610ed790615be3565b6001600160a01b038516610fcd5760405162461bcd60e51b815260206004820152601d60248201527f496d706c656d656e746174696f6e2063616e6e6f74206265207a65726f0000006044820152606401610ed7565b610fd5612fb6565b6001600160a01b0316856001600160a01b0316141561102e5760405162461bcd60e51b815260206004820152601560248201527453616d6520636f6e7472616374206164647265737360581b6044820152606401610ed7565b846001600160a01b03166352d1902d6040518163ffffffff1660e01b815260040160206040518083038186803b15801561106757600080fd5b505afa925050508015611097575060408051601f3d908101601f1916820190925261109491810190615701565b60015b6110b35760405162461bcd60e51b8152600401610ed790615b95565b600080516020615eb483398151915281146110e05760405162461bcd60e51b8152600401610ed790615ad7565b506072546110ef906001615dce565b91506110f9612fd2565b6001600160a01b0316630a3a63fe60725460016111169190615dce565b60046040516001600160e01b031960e085901b16815260048101929092526024820152604481018690523360648201526001600160a01b038816608482015260a401602060405180830381600087803b15801561117257600080fd5b505af1158015611186573d6000803e3d6000fd5b505050506040513d601f19601f820116820180604052508101906111aa9190615701565b506111b58285612fed565b5060728190559392505050565b60006111cc613058565b6001600160a01b03166333be496e6040518163ffffffff1660e01b815260040160206040518083038186803b15801561120457600080fd5b505afa158015611218573d6000803e3d6000fd5b505050506040513d601f19601f8201168201806040525081019061123c9190615701565b905090565b600054610100900460ff16158080156112615750600054600160ff909116105b8061127b5750303b15801561127b575060005460ff166001145b6112975760405162461bcd60e51b8152600401610ed790615b20565b6000805460ff1916600117905580156112ba576000805461ff0019166101001790555b6112c2613070565b6112cb836123ee565b4360665581516000906060908190819084908190602089019082906112f09083615dce565b90505b808210156114b8578151975061130a602083615dce565b915080821061131857600080fd5b819650865160206113299190615dce565b6113339083615dce565b915080821061134157600080fd5b819550855160206113529190615dce565b61135c9083615dce565b915080821061136a57600080fd5b8194508451602061137b9190615dce565b6113859083615dce565b915080821061139357600080fd5b815193506113a2602083615dce565b91506113af600184615dce565b600081815260676020908152604080832080546001600160a01b038e166001600160a01b0319918216811790925581855260688452828520869055858552606a84528285208054821683179055818552606b8452828520869055858552606c84528285208054909116821790558352606d8252808320849055838352606e8252909120895192955091611447918391908b0190615103565b50865161145d90600183019060208a0190615103565b5085516114739060028301906020890190615103565b50600301849055600083815260706020908152604080832080546001600160a01b0319166001600160a01b038d169081179091558352606f90915290208390556112f3565b5050606981905560715550508315925061150f915050576000805461ff0019169055604051600181527f7f26b83ff96e1f2b6a682f133852f6798a09c465da95921460cefb38474024989060200160405180910390a15b505050565b306001600160a01b037f000000000000000000000000000000000000000000000000000000000000000016141561155d5760405162461bcd60e51b8152600401610ed7906159f8565b7f00000000000000000000000000000000000000000000000000000000000000006001600160a01b031661158f612fb6565b6001600160a01b0316146115b55760405162461bcd60e51b8152600401610ed790615a8b565b6115be8161309f565b6115f78160005b6040519080825280601f01601f1916602001820160405280156115ef576020820181803683370190505b50600061313c565b50565b6000611604612f10565b60405163288c314960e21b81523360048201526001600160a01b03919091169063a230c5249060240160206040518083038186803b15801561164557600080fd5b505afa158015611659573d6000803e3d6000fd5b505050506040513d601f19601f8201168201806040525081019061167d91906156e4565b6116995760405162461bcd60e51b8152600401610ed790615b6e565b60006116a433611fbd565b156116b05750336116e6565b6116b93361200e565b156116e65750336000908152606860209081526040808320548352606c9091529020546001600160a01b03165b6116ee611f7b565b6116f782612f30565b11158015611714575061170861246e565b61171182612f30565b10155b6117305760405162461bcd60e51b8152600401610ed790615be3565b602083015183906001600160a01b031661177c5760405162461bcd60e51b815260206004820152600d60248201526c24b73b30b634b2103b37ba32b960991b6044820152606401610ed7565b6000816060015151116117c55760405162461bcd60e51b8152602060048201526011602482015270496e76616c6964206e6f6465206e616d6560781b6044820152606401610ed7565b60008160a00151511161180c5760405162461bcd60e51b815260206004820152600f60248201526e0496e76616c6964206e6f646520495608c1b6044820152606401610ed7565b60008160c00151116118545760405162461bcd60e51b8152602060048201526011602482015270125b9d985b1a59081b9bd919481c1bdc9d607a1b6044820152606401610ed7565b61185c61246e565b8160e001511015801561187a5750611872611f7b565b8160e0015111155b6118bc5760405162461bcd60e51b8152602060048201526013602482015272125b9d985b1a59081b1bd8dac8105b5bdd5b9d606a1b6044820152606401610ed7565b83516118c790611fee565b156119055760405162461bcd60e51b815260206004820152600e60248201526d20b63932b0b23c9036b2b6b132b960911b6044820152606401610ed7565b83602001516001600160a01b031684600001516001600160a01b0316146119645760405162461bcd60e51b815260206004820152601360248201527229ba30b5b2b91034b9903737ba103b37ba32b960691b6044820152606401610ed7565b607254611972906001615dce565b92506119838360013360008861322d565b611991838560e001516132d0565b6119a083856101000151612fed565b50506072819055919050565b60006119b6612f10565b60405163288c314960e21b81523360048201526001600160a01b03919091169063a230c5249060240160206040518083038186803b1580156119f757600080fd5b505afa158015611a0b573d6000803e3d6000fd5b505050506040513d601f19601f82011682018060405250810190611a2f91906156e4565b611a4b5760405162461bcd60e51b8152600401610ed790615b6e565b6000611a5633611fbd565b15611a62575033611a98565b611a6b3361200e565b15611a985750336000908152606860209081526040808320548352606c9091529020546001600160a01b03165b611aa0611f7b565b611aa982612f30565b11158015611ac65750611aba61246e565b611ac382612f30565b10155b611ae25760405162461bcd60e51b8152600401610ed790615be3565b85600111158015611af4575060098611155b611b2f5760405162461bcd60e51b815260206004820152600c60248201526b496e76616c6964207479706560a01b6044820152606401610ed7565b611b39878661330e565b611b755760405162461bcd60e51b815260206004820152600d60248201526c496e76616c69642076616c756560981b6044820152606401610ed7565b607254611b83906001615dce565b9150611b8d612fd2565b6001600160a01b0316634a57823e83600586338c8c8c6040518863ffffffff1660e01b8152600401611bc59796959493929190615d02565b602060405180830381600087803b158015611bdf57600080fd5b505af1158015611bf3573d6000803e3d6000fd5b505050506040513d601f19601f82011682018060405250810190611c179190615701565b50611c228285612fed565b50607281905595945050505050565b6000818152606e6020526040812060038101548154606093849384939192909160018301916002840191908490611c6790615e29565b80601f0160208091040260200160405190810160405280929190818152602001828054611c9390615e29565b8015611ce05780601f10611cb557610100808354040283529160200191611ce0565b820191906000526020600020905b815481529060010190602001808311611cc357829003601f168201915b50505050509350828054611cf390615e29565b80601f0160208091040260200160405190810160405280929190818152602001828054611d1f90615e29565b8015611d6c5780601f10611d4157610100808354040283529160200191611d6c565b820191906000526020600020905b815481529060010190602001808311611d4f57829003601f168201915b50505050509250818054611d7f90615e29565b80601f0160208091040260200160405190810160405280929190818152602001828054611dab90615e29565b8015611df85780601f10611dcd57610100808354040283529160200191611df8565b820191906000526020600020905b815481529060010190602001808311611ddb57829003601f168201915b5050505050915093509350935093509193509193565b306001600160a01b037f0000000000000000000000000000000000000000000000000000000000000000161415611e575760405162461bcd60e51b8152600401610ed7906159f8565b7f00000000000000000000000000000000000000000000000000000000000000006001600160a01b0316611e89612fb6565b6001600160a01b031614611eaf5760405162461bcd60e51b8152600401610ed790615a8b565b611eb88261309f565b611ec48282600161313c565b5050565b6000306001600160a01b037f00000000000000000000000000000000000000000000000000000000000000001614611f685760405162461bcd60e51b815260206004820152603860248201527f555550535570677261646561626c653a206d757374206e6f742062652063616c60448201527f6c6564207468726f7567682064656c656761746563616c6c00000000000000006064820152608401610ed7565b50600080516020615eb483398151915290565b6000611f85613058565b6001600160a01b031663737c59b86040518163ffffffff1660e01b815260040160206040518083038186803b15801561120457600080fd5b6001600160a01b03166000908152606d6020526040902054151590565b611fe261339c565b611fec60006133f6565b565b6000611ff982611fbd565b8061200857506120088261200e565b92915050565b6001600160a01b0316600090815260686020526040902054151590565b600054610100900460ff161580801561204b5750600054600160ff909116105b806120655750303b158015612065575060005460ff166001145b6120815760405162461bcd60e51b8152600401610ed790615b20565b6000805460ff1916600117905580156120a4576000805461ff0019166101001790555b600086116121005760405162461bcd60e51b815260206004820152602360248201527f6c6f636b416d6f756e742073686f756c64206265206d6f7265207468656e207a60448201526265726f60e81b6064820152608401610ed7565b612108613070565b612111876123ee565b600061211b613448565b6040516325d998bb60e01b815233600482015290915087906001600160a01b038316906325d998bb9060240160206040518083038186803b15801561215f57600080fd5b505afa158015612173573d6000803e3d6000fd5b505050506040513d601f19601f820116820180604052508101906121979190615701565b10156121dc5760405162461bcd60e51b8152602060048201526014602482015273496e73756666696369656e74207374616b696e6760601b6044820152606401610ed7565b60405163282d3fdf60e01b8152336004820152602481018890526001600160a01b0382169063282d3fdf90604401600060405180830381600087803b15801561222457600080fd5b505af1158015612238573d6000803e3d6000fd5b5050600160698190557f6bee784efeb983674392298ab585b22866bedf00ebb0eea949d1e66f3f50e71d8054336001600160a01b0319918216811790925560008281526068602090815260408083208690557ff585789965ba69220d5ce3dc1b444eb22ff546f2650694fef8fafe9c26560af98054851686179055606b82528083208690557fdcf345d7f6a8deb7427d0fee62009fa15100353a1c666b51bb5387b25addcfa98054909416909417909255606d82529182208390556071839055919052606e815288517f44e4f44bb0aae4b5d1e07207f82567d4201c1d09f6b5859dddcfb50647f55a709350612333925083918a0190615103565b5085516123499060018301906020890190615103565b50845161235f9060028301906020880190615103565b5060030183905550607154336000818152606f60209081526040808320859055938252607090529190912080546001600160a01b03191690911790554360665580156123e5576000805461ff0019169055604051600181527f7f26b83ff96e1f2b6a682f133852f6798a09c465da95921460cefb38474024989060200160405180910390a15b50505050505050565b6123f661339c565b6001600160a01b03811661244c5760405162461bcd60e51b815260206004820152601a60248201527f416464726573732073686f756c64206265206e6f6e2d7a65726f0000000000006044820152606401610ed7565b606580546001600160a01b0319166001600160a01b0392909216919091179055565b6000612478613058565b6001600160a01b031663076cd77f6040518163ffffffff1660e01b815260040160206040518083038186803b15801561120457600080fd5b6124b8612f10565b60405163288c314960e21b81523360048201526001600160a01b03919091169063a230c5249060240160206040518083038186803b1580156124f957600080fd5b505afa15801561250d573d6000803e3d6000fd5b505050506040513d601f19601f8201168201806040525081019061253191906156e4565b61254d5760405162461bcd60e51b8152600401610ed790615b6e565b600260755414156125a05760405162461bcd60e51b815260206004820152601f60248201527f5265656e7472616e637947756172643a207265656e7472616e742063616c6c006044820152606401610ed7565b600260755560006125b033611fbd565b156125bc5750336125f2565b6125c53361200e565b156125f25750336000908152606860209081526040808320548352606c9091529020546001600160a01b03165b6125fa611f7b565b61260382612f30565b11158015612620575061261461246e565b61261d82612f30565b10155b61263c5760405162461bcd60e51b8152600401610ed790615be3565b6126458361345d565b60006126508461350d565b905061265c84846135e1565b60008061266886613771565b925092505060006126786113ec90565b905080831015806126895750808210155b1561269d5761269d87858486116000613808565b505060016075555050505050565b60006126b5613058565b6001600160a01b0316631b27e01b6040518163ffffffff1660e01b815260040160206040518083038186803b15801561120457600080fd5b60006126f7612f10565b60405163288c314960e21b81523360048201526001600160a01b03919091169063a230c5249060240160206040518083038186803b15801561273857600080fd5b505afa15801561274c573d6000803e3d6000fd5b505050506040513d601f19601f8201168201806040525081019061277091906156e4565b61278c5760405162461bcd60e51b8152600401610ed790615b6e565b600061279733611fbd565b156127a35750336127d9565b6127ac3361200e565b156127d95750336000908152606860209081526040808320548352606c9091529020546001600160a01b03165b6127e1611f7b565b6127ea82612f30565b1115801561280757506127fb61246e565b61280482612f30565b10155b6128235760405162461bcd60e51b8152600401610ed790615be3565b602084015184906001600160a01b031661286f5760405162461bcd60e51b815260206004820152600d60248201526c24b73b30b634b2103b37ba32b960991b6044820152606401610ed7565b6000816060015151116128b85760405162461bcd60e51b8152602060048201526011602482015270496e76616c6964206e6f6465206e616d6560781b6044820152606401610ed7565b60008160a0015151116128ff5760405162461bcd60e51b815260206004820152600f60248201526e0496e76616c6964206e6f646520495608c1b6044820152606401610ed7565b60008160c00151116129475760405162461bcd60e51b8152602060048201526011602482015270125b9d985b1a59081b9bd919481c1bdc9d607a1b6044820152606401610ed7565b61294f61246e565b8160e001511015801561296d5750612965611f7b565b8160e0015111155b6129af5760405162461bcd60e51b8152602060048201526013602482015272125b9d985b1a59081b1bd8dac8105b5bdd5b9d606a1b6044820152606401610ed7565b6001600160a01b0384166129fb5760405162461bcd60e51b8152602060048201526013602482015272496e76616c6964206f6c64204164647265737360681b6044820152606401610ed7565b612a0484611fee565b612a3d5760405162461bcd60e51b815260206004820152600a6024820152692737b716b6b2b6b132b960b11b6044820152606401610ed7565b6020808601516001600160a01b038681166000908152606d8452604080822054825260679094529290922054821691161480612a835750612a818560200151611fee565b155b612ac15760405162461bcd60e51b815260206004820152600f60248201526e20b63932b0b23c9030903b37ba32b960891b6044820152606401610ed7565b607254612acf906001615dce565b9250612adf83600333878961322d565b612aed838660e001516132d0565b612afc83866101000151612fed565b6072839055336001600160a01b038516148015612b25575084516001600160a01b038581169116145b15612b5f576000612b3584613891565b92505050612b4f84428342612b4a9190615dce565b6138cb565b612b5d846003600180613808565b505b505092915050565b6000612b71612f10565b60405163288c314960e21b81523360048201526001600160a01b03919091169063a230c5249060240160206040518083038186803b158015612bb257600080fd5b505afa158015612bc6573d6000803e3d6000fd5b505050506040513d601f19601f82011682018060405250810190612bea91906156e4565b612c065760405162461bcd60e51b8152600401610ed790615b6e565b6000612c1133611fbd565b15612c1d575033612c53565b612c263361200e565b15612c535750336000908152606860209081526040808320548352606c9091529020546001600160a01b03165b612c5b611f7b565b612c6482612f30565b11158015612c815750612c7561246e565b612c7e82612f30565b10155b612c9d5760405162461bcd60e51b8152600401610ed790615be3565b6001600160a01b038616612ce55760405162461bcd60e51b815260206004820152600f60248201526e496e76616c6964206164647265737360881b6044820152606401610ed7565b612cee86611fee565b612d275760405162461bcd60e51b815260206004820152600a6024820152692737b716b6b2b6b132b960b11b6044820152606401610ed7565b6001612d3260695490565b11612d7f5760405162461bcd60e51b815260206004820152601b60248201527f43616e6e6f742072656d6f7665206120736f6c65206d656d62657200000000006044820152606401610ed7565b84612d8987612f30565b1015612dea5760405162461bcd60e51b815260206004820152602a60248201527f496e73756666696369656e742062616c616e636520746861742063616e206265604482015269103ab73637b1b5b2b21760b11b6064820152608401610ed7565b607254612df8906001615dce565b604080516101408101825260008082526020808301829052828401829052835182815280820185526060840152835182815280820185526080840152835182815290810190935260a082019290925260c081019190915260e0810187905261010081018690526101208101859052909250612e77836002338a8561322d565b612e8183876132d0565b612e8b8386612fed565b50506072819055949350505050565b612ea261339c565b6001600160a01b038116612f075760405162461bcd60e51b815260206004820152602660248201527f4f776e61626c653a206e6577206f776e657220697320746865207a65726f206160448201526564647265737360d01b6064820152608401610ed7565b6115f7816133f6565b600061123c7111dbdd995c9b985b98d950dbdb9d1c9858dd60721b613939565b6000612f3a613448565b604051632c9aab9b60e11b81526001600160a01b03848116600483015291909116906359355736906024015b60206040518083038186803b158015612f7e57600080fd5b505afa158015612f92573d6000803e3d6000fd5b505050506040513d601f19601f820116820180604052508101906120089190615701565b600080516020615eb4833981519152546001600160a01b031690565b600061123c6c42616c6c6f7453746f7261676560981b613939565b612ff5612fd2565b6001600160a01b031663bce0dbc183836040518363ffffffff1660e01b8152600401613022929190615959565b600060405180830381600087803b15801561303c57600080fd5b505af1158015613050573d6000803e3d6000fd5b505050505050565b600061123c69456e7653746f7261676560b01b613939565b600054610100900460ff166130975760405162461bcd60e51b8152600401610ed790615c1a565b611fec6139b6565b6130a7612f10565b60405163288c314960e21b81523360048201526001600160a01b03919091169063a230c5249060240160206040518083038186803b1580156130e857600080fd5b505afa1580156130fc573d6000803e3d6000fd5b505050506040513d601f19601f8201168201806040525081019061312091906156e4565b6115f75760405162461bcd60e51b8152600401610ed790615b6e565b7f4910fdfa16fed3260ed0e7147f7cc6da11a60208b5b9406d12a635614ffd91435460ff161561316f5761150f836139e6565b826001600160a01b03166352d1902d6040518163ffffffff1660e01b815260040160206040518083038186803b1580156131a857600080fd5b505afa9250505080156131d8575060408051601f3d908101601f191682019092526131d591810190615701565b60015b6131f45760405162461bcd60e51b8152600401610ed790615b95565b600080516020615eb483398151915281146132215760405162461bcd60e51b8152600401610ed790615ad7565b5061150f838383613a82565b613235612fd2565b6001600160a01b031663daacbb95868684610120015187878760000151886020015189604001518a606001518b608001518c60a001518d60c001516040518d63ffffffff1660e01b81526004016132979c9b9a99989796959493929190615c65565b600060405180830381600087803b1580156132b157600080fd5b505af11580156132c5573d6000803e3d6000fd5b505050505050505050565b6132d8612fd2565b604051633968764960e11b815260048101849052602481018390526001600160a01b0391909116906372d0ec9290604401613022565b6000613318613058565b6001600160a01b0316639801bff984846040518363ffffffff1660e01b8152600401613345929190615959565b60206040518083038186803b15801561335d57600080fd5b505afa158015613371573d6000803e3d6000fd5b505050506040513d601f19601f8201168201806040525081019061339591906156e4565b9392505050565b6033546001600160a01b03163314611fec5760405162461bcd60e51b815260206004820181905260248201527f4f776e61626c653a2063616c6c6572206973206e6f7420746865206f776e65726044820152606401610ed7565b603380546001600160a01b038381166001600160a01b0319831681179093556040519116919082907f8be0079c531659141344cd1fd0a4f28419497f9722a3daafe3b4186f6b6457e090600090a35050565b600061123c665374616b696e6760c81b613939565b607454156115f7576000613472607454613aad565b509150506000613483607454613891565b50915050600282141561150f57428110156134b0576074546134a6906004613b37565b6000607455505050565b607454831461150f5760405162461bcd60e51b815260206004820152602360248201527f4e6f7720696e20766f74696e67207769746820646966666572656e742062616c6044820152621b1bdd60ea1b6064820152608401610ed7565b600080600061351b84613aad565b509092509050600181141561359a57600061353585613891565b925050506135416111c2565b8110156135645761355f85426135556111c2565b612b4a9042615dce565b61358f565b8061356d6126ab565b10156135805761355f85426135556126ab565b61358f8542612b4a8482615dce565b5060748490556135da565b60028114156135a8576135da565b60405162461bcd60e51b8152602060048201526007602482015266115e1c1a5c995960ca1b6044820152606401610ed7565b5092915050565b600060735460016135f29190615dce565b905060006135ff33611fbd565b1561360b575033613641565b6136143361200e565b156136415750336000908152606860209081526040808320548352606c9091529020546001600160a01b03165b600061364b613448565b604051637d77a0eb60e01b81526001600160a01b03848116600483015261271060248301529190911690637d77a0eb9060440160206040518083038186803b15801561369657600080fd5b505afa1580156136aa573d6000803e3d6000fd5b505050506040513d601f19601f820116820180604052508101906136ce9190615701565b90506000846136de5760026136e1565b60015b90506136eb612fd2565b6040516325918ae760e21b815260048101869052602481018890526001600160a01b038581166044830152606482018490526084820185905291909116906396462b9c9060a401600060405180830381600087803b15801561374c57600080fd5b505af1158015613760573d6000803e3d6000fd5b505050607394909455505050505050565b600080600061377e612fd2565b6001600160a01b03166356ba988e856040518263ffffffff1660e01b81526004016137ab91815260200190565b60606040518083038186803b1580156137c357600080fd5b505afa1580156137d7573d6000803e3d6000fd5b505050506040513d601f19601f820116820180604052508101906137fb91906158e3565b9250925092509193909250565b6004821561387b5750600360018414156138325761382585613b75565b61382d575060045b61387b565b60028414156138445761382d85613f91565b600384141561385757613825858361441a565b60048414156138695761382d856149dd565b600584141561387b5761387b85614a9c565b6138858582613b37565b50506000607455505050565b600080600061389e612fd2565b6001600160a01b03166309970688856040518263ffffffff1660e01b81526004016137ab91815260200190565b6138d3612fd2565b60405163605b78c360e11b81526004810185905260248101849052604481018390526001600160a01b03919091169063c0b6f18690606401600060405180830381600087803b15801561392557600080fd5b505af11580156123e5573d6000803e3d6000fd5b606554604051630d2020dd60e01b8152600481018390526000916001600160a01b031690630d2020dd9060240160206040518083038186803b15801561397e57600080fd5b505afa158015613992573d6000803e3d6000fd5b505050506040513d601f19601f820116820180604052508101906120089190615436565b600054610100900460ff166139dd5760405162461bcd60e51b8152600401610ed790615c1a565b611fec336133f6565b6001600160a01b0381163b613a535760405162461bcd60e51b815260206004820152602d60248201527f455243313936373a206e657720696d706c656d656e746174696f6e206973206e60448201526c1bdd08184818dbdb9d1c9858dd609a1b6064820152608401610ed7565b600080516020615eb483398151915280546001600160a01b0319166001600160a01b0392909216919091179055565b613a8b83614bef565b600082511180613a985750805b1561150f57613aa78383614c2f565b50505050565b6000806000613aba612fd2565b6001600160a01b031663688ca5b2856040518263ffffffff1660e01b8152600401613ae791815260200190565b60606040518083038186803b158015613aff57600080fd5b505afa158015613b13573d6000803e3d6000fd5b505050506040513d601f19601f820116820180604052508101906137fb91906158aa565b613b3f612fd2565b60405163548f2cdd60e11b815260048101849052602481018390526001600160a01b03919091169063a91e59ba90604401613022565b6000613b82826001614c54565b600080600080600080600080613b978a614d5b565b9850985098509850985098509850985050613bb188611fee565b15613c0f5789600080516020615ed4833981519152604051613bf79060208082526010908201526f20b63932b0b23c90309036b2b6b132b960811b604082015260600190565b60405180910390a25060009998505050505050505050565b613c1761246e565b811080613c2a575080613c28611f7b565b105b15613c735789600080516020615ed4833981519152604051613bf790602080825260139082015272125b9d985b1a59081b1bd8dac8185b5bdd5b9d606a1b604082015260600190565b80613c7d89614e11565b1015613c9f5789600080516020615ed4833981519152604051613bf790615a44565b866001600160a01b0316886001600160a01b031614158015613cd35750856001600160a01b0316886001600160a01b031614155b15613d1f5789600080516020615ed4833981519152604051613bf790602080825260169082015275496e76616c6964206d656d626572206164647265737360501b604082015260600190565b613d298882614e4b565b60006069546001613d3a9190615dce565b9050876067600083815260200190815260200160002060006101000a8154816001600160a01b0302191690836001600160a01b0316021790555080606860008a6001600160a01b03166001600160a01b031681526020019081526020016000208190555086606a600083815260200190815260200160002060006101000a8154816001600160a01b0302191690836001600160a01b0316021790555080606b6000896001600160a01b03166001600160a01b031681526020019081526020016000208190555088606c600083815260200190815260200160002060006101000a8154816001600160a01b0302191690836001600160a01b0316021790555080606d60008b6001600160a01b03166001600160a01b031681526020019081526020016000208190555060006071546001613e739190615dce565b6000818152606e60209081526040909120885192935091613e9c916001840191908a0190615103565b508551613eb29060028301906020890190615103565b508481600301819055508a6070600084815260200190815260200160002060006101000a8154816001600160a01b0302191690836001600160a01b0316021790555081606f60008d6001600160a01b03166001600160a01b031681526020019081526020016000208190555087816000019080519060200190613f36929190615103565b5060698390556071829055436066556040516001600160a01b03808c1691908d16907f6a2af11b2d73f347f9d5840aea46899e17609730b5cd91bd9c312098038acba690600090a35060019c9b505050505050505050505050565b613f9c816002614c54565b600080613fa883614d5b565b9850505050505050509150613fbc82611fee565b6140125782600080516020615ed4833981519152604051614005906020808252601490820152732737ba1030b63932b0b23c90309036b2b6b132b960611b604082015260600190565b60405180910390a2505050565b6001600160a01b038083166000818152606d6020818152604080842054606954808652606c8452828620548287526067855283872054606a8652938720549790965293909252909492831693908316921690841461417a57606980546000908152606c6020818152604080842080546001600160a01b038d8116808852606d80875285892080549e8a529787528589209087529b821688528488209c909c559486905581546001600160a01b03199081169092558954821690851617909855888452606b8083528185205486548652606a80855283872080548a881689528487528589208054948a529287528589209487528716808952858920939093559087905580548b16905581548a16179055978352606880825288842054945484526067808352898520805489861687528385528b872080548989529386528c88209490955290941680865299852055929055805486169055805490941685179093559192916141f7565b606980546000908152606c6020908152604080832080546001600160a01b03199081169091556001600160a01b038b81168552606d845282852085905585548552606a84528285208054831690558681168552606b8452828520859055945484526067835281842080549091169055928516825260689052908120555b60016069546142069190615de6565b6069556071546001600160a01b0387166000908152606f60205260409020541461433c576001600160a01b038087166000908152606f60209081526040808320546071548085526070845282852054828652606e909452828520908552919093208054939850919093169550829161427d90615e29565b614288929190615187565b506071546000908152606e6020526040902060019081018054918301916142ae90615e29565b6142b9929190615187565b506071546000908152606e6020526040902060029081018054918301916142df90615e29565b6142ea929190615187565b506071546000908152606e602090815260408083206003908101549401939093558682526070815282822080546001600160a01b0319166001600160a01b0388169081179091558252606f9052208490555b60718054600090815260706020908152604080832080546001600160a01b03191690556001600160a01b038a168352606f825280832083905592548252606e90529081209061438b8282615202565b614399600183016000615202565b6143a7600283016000615202565b6003820160009055505060016071546143c09190615de6565b607155436066556143d18686614e8a565b816001600160a01b0316866001600160a01b03167faa91016c21c52c58ac64f23f71bbe75becc9ada603e18ee671d09ff15492d1c160405160405180910390a350505050505050565b60008161442c5761442c836003614c54565b60008060008060008060008060006144438c614d5b565b98509850985098509850985098509850985061445e89611fee565b6144ca578b600080516020615ed48339815191526040516144b0906020808252601b908201527f4f6c642061646472657373206973206e6f742061206d656d6265720000000000604082015260600190565b60405180910390a260009950505050505050505050612008565b6001600160a01b03808a166000818152606d6020526040902054918a16146146bf576144f589611fee565b15614563578c600080516020615ed4833981519152604051614548906020808252601f908201527f6e6577206164647265737320697320616c72656164792061206d656d62657200604082015260600190565b60405180910390a260009a5050505050505050505050612008565b876001600160a01b0316896001600160a01b0316141580156145975750866001600160a01b0316896001600160a01b031614155b156145e2578c600080516020615ed483398151915260405161454890602080825260159082015274496e76616c696420766f746572206164647265737360581b604082015260600190565b6000818152606c6020908152604080832080546001600160a01b0319166001600160a01b038e81169182179092558452606d909252808320849055908c16825281205561462d61246e565b82108061464057508161463e611f7b565b105b15614689578c600080516020615ed483398151915260405161454890602080825260139082015272125b9d985b1a59081b1bd8dac8185b5bdd5b9d606a1b604082015260600190565b816146938a614e11565b10156146b5578c600080516020615ed483398151915260405161454890615a44565b6146bf8983614e4b565b6001600160a01b038a166000908152606f6020908152604080832054808452606e83529220885190916146f69183918b0190615103565b50865161470c90600183019060208a0190615103565b5085516147229060028301906020890190615103565b5060038101859055436066556000838152606a6020908152604080832080546001600160a01b038e81166001600160a01b031983168117909355918552606b8452828520889055811684528184208490558684526067909252909120548116908b16811480159061479757506147978b61200e565b156147fa578f600080516020615ed48339815191526040516147dc906020808252600f908201526e20b63932b0b23c9030903b37ba32b960891b604082015260600190565b60405180910390a260009d5050505050505050505050505050612008565b8a6067600086815260200190815260200160002060006101000a8154816001600160a01b0302191690836001600160a01b0316021790555083606860008d6001600160a01b03166001600160a01b0316815260200190815260200160002081905550600060686000836001600160a01b03166001600160a01b0316815260200190815260200160002081905550508a6001600160a01b03168c6001600160a01b031614614987578a6070600084815260200190815260200160002060006101000a8154816001600160a01b0302191690836001600160a01b0316021790555081606f60008d6001600160a01b03166001600160a01b03168152602001908152602001600020819055506000606f60008e6001600160a01b03166001600160a01b03168152602001908152602001600020819055506149388c85614e8a565b896001600160a01b03168b6001600160a01b03168d6001600160a01b03167f15f4d750630db473a85edd9d47c500527a2648cc5e676f39645e52790cf07be060405160405180910390a46149c8565b8a6001600160a01b03168c6001600160a01b03167f1feee1b4fcb797c62645da41c5c6edd5f91d4291de0054da625c42b823594c1f60405160405180910390a35b5060019e9d5050505050505050505050505050565b6149e8816004614c54565b60006149f2612fd2565b6001600160a01b0316637efa9ae3836040518263ffffffff1660e01b8152600401614a1f91815260200190565b60206040518083038186803b158015614a3757600080fd5b505afa158015614a4b573d6000803e3d6000fd5b505050506040513d601f19601f82011682018060405250810190614a6f9190615436565b90506001600160a01b03811615611ec457614a898161309f565b614a948160006115c5565b436066555050565b614aa7816005614c54565b6000806000614ab4612fd2565b6001600160a01b0316631d940da2856040518263ffffffff1660e01b8152600401614ae191815260200190565b60006040518083038186803b158015614af957600080fd5b505afa158015614b0d573d6000803e3d6000fd5b505050506040513d6000823e601f3d908101601f19168201604052614b35919081019061571a565b9250925092506000614b45613058565b6040516388c2801960e01b81529091506001600160a01b038216906388c2801990614b769087908690600401615959565b600060405180830381600087803b158015614b9057600080fd5b505af1158015614ba4573d6000803e3d6000fd5b50504360665550506040517f701c16c2519cdb79aaac423a84733590e3510d9552055b6ad6908f0ab12b6c2990614be090869086908690615972565b60405180910390a15050505050565b614bf8816139e6565b6040516001600160a01b038216907fbc7cd75a20ee27fd9adebab32041f755214dbc6bffa90cc0225b39da2e5c2d3b90600090a250565b60606133958383604051806060016040528060278152602001615ef460279139614fae565b600080614c6084613aad565b5091509150828214614caa5760405162461bcd60e51b8152602060048201526013602482015272496e76616c696420766f74696e67207479706560681b6044820152606401610ed7565b60028114614cf15760405162461bcd60e51b8152602060048201526014602482015273496e76616c696420766f74696e6720737461746560601b6044820152606401610ed7565b600080614cfd86613771565b9250925050614d0b6113ec90565b82101580614d1b57506113ec8110155b6130505760405162461bcd60e51b8152602060048201526011602482015270139bdd081e595d08199a5b985b1a5e9959607a1b6044820152606401610ed7565b6000806000806060806060600080614d71612fd2565b6001600160a01b03166373df4e018b6040518263ffffffff1660e01b8152600401614d9e91815260200190565b60006040518083038186803b158015614db657600080fd5b505afa158015614dca573d6000803e3d6000fd5b505050506040513d6000823e601f3d908101601f19168201604052614df29190810190615453565b9850985098509850985098509850985098509193959799909294969850565b6000614e1b613448565b6040516325d998bb60e01b81526001600160a01b03848116600483015291909116906325d998bb90602401612f66565b614e53613448565b60405163282d3fdf60e01b81526001600160a01b03848116600483015260248201849052919091169063282d3fdf90604401613022565b6000614e94613448565b604051632c9aab9b60e11b81526001600160a01b03858116600483015291925060009183169063593557369060240160206040518083038186803b158015614edb57600080fd5b505afa158015614eef573d6000803e3d6000fd5b505050506040513d601f19601f82011682018060405250810190614f139190615701565b905082811115614fa4576001600160a01b038216637756c90885614f378685615de6565b6040516001600160e01b031960e085901b1681526001600160a01b0390921660048301526024820152604401600060405180830381600087803b158015614f7d57600080fd5b505af1158015614f91573d6000803e3d6000fd5b50505050614f9f848461508b565b613aa7565b613aa7848261508b565b60606001600160a01b0384163b6150165760405162461bcd60e51b815260206004820152602660248201527f416464726573733a2064656c65676174652063616c6c20746f206e6f6e2d636f6044820152651b9d1c9858dd60d21b6064820152608401610ed7565b600080856001600160a01b031685604051615031919061593d565b600060405180830381855af49150503d806000811461506c576040519150601f19603f3d011682016040523d82523d6000602084013e615071565b606091505b50915091506150818282866150ca565b9695505050505050565b615093613448565b604051637eee288d60e01b81526001600160a01b038481166004830152602482018490529190911690637eee288d90604401613022565b606083156150d9575081613395565b8251156150e95782518084602001fd5b8160405162461bcd60e51b8152600401610ed791906159e5565b82805461510f90615e29565b90600052602060002090601f0160209004810192826151315760008555615177565b82601f1061514a57805160ff1916838001178555615177565b82800160010185558215615177579182015b8281111561517757825182559160200191906001019061515c565b50615183929150615238565b5090565b82805461519390615e29565b90600052602060002090601f0160209004810192826151b55760008555615177565b82601f106151c65780548555615177565b8280016001018555821561517757600052602060002091601f016020900482015b828111156151775782548255916001019190600101906151e7565b50805461520e90615e29565b6000825580601f1061521e575050565b601f0160209004906000526020600020908101906115f791905b5b808211156151835760008155600101615239565b803561525881615e90565b919050565b805161525881615e90565b600082601f83011261527957600080fd5b813561528c61528782615da7565b615d77565b8181528460208386010111156152a157600080fd5b816020850160208301376000918101602001919091529392505050565b600082601f8301126152cf57600080fd5b81516152dd61528782615da7565b8181528460208386010111156152f257600080fd5b615303826020830160208701615dfd565b949350505050565b6000610140828403121561531e57600080fd5b615326615d4e565b90506153318261524d565b815261533f6020830161524d565b60208201526153506040830161524d565b604082015260608201356001600160401b038082111561536f57600080fd5b61537b85838601615268565b6060840152608084013591508082111561539457600080fd5b6153a085838601615268565b608084015260a08401359150808211156153b957600080fd5b6153c585838601615268565b60a084015260c084013560c084015260e084013560e0840152610100915081840135818111156153f457600080fd5b61540086828701615268565b8385015250505061012080830135818301525092915050565b60006020828403121561542b57600080fd5b813561339581615e90565b60006020828403121561544857600080fd5b815161339581615e90565b60008060008060008060008060006101208a8c03121561547257600080fd5b61547b8a61525d565b985061548960208b0161525d565b975061549760408b0161525d565b96506154a560608b0161525d565b955060808a01516001600160401b03808211156154c157600080fd5b6154cd8d838e016152be565b965060a08c01519150808211156154e357600080fd5b6154ef8d838e016152be565b955060c08c015191508082111561550557600080fd5b506155128c828d016152be565b93505060e08a015191506101008a015190509295985092959850929598565b6000806040838503121561554457600080fd5b823561554f81615e90565b915060208301356001600160401b0381111561556a57600080fd5b61557685828601615268565b9150509250929050565b60008060006060848603121561559557600080fd5b83356155a081615e90565b925060208401356001600160401b038111156155bb57600080fd5b6155c786828701615268565b925050604084013590509250925092565b60008060008060008060c087890312156155f157600080fd5b86356155fc81615e90565b95506020870135945060408701356001600160401b038082111561561f57600080fd5b61562b8a838b01615268565b9550606089013591508082111561564157600080fd5b61564d8a838b01615268565b9450608089013591508082111561566357600080fd5b5061567089828a01615268565b92505060a087013590509295509295509295565b6000806000806080858703121561569a57600080fd5b84356156a581615e90565b93506020850135925060408501356001600160401b038111156156c757600080fd5b6156d387828801615268565b949793965093946060013593505050565b6000602082840312156156f657600080fd5b815161339581615ea5565b60006020828403121561571357600080fd5b5051919050565b60008060006060848603121561572f57600080fd5b835192506020840151915060408401516001600160401b0381111561575357600080fd5b61575f868287016152be565b9150509250925092565b600080600080600060a0868803121561578157600080fd5b853594506020860135935060408601356001600160401b03808211156157a657600080fd5b6157b289838a01615268565b945060608801359150808211156157c857600080fd5b506157d588828901615268565b95989497509295608001359392505050565b6000602082840312156157f957600080fd5b81356001600160401b0381111561580f57600080fd5b6153038482850161530b565b6000806040838503121561582e57600080fd5b82356001600160401b0381111561584457600080fd5b6158508582860161530b565b925050602083013561586181615e90565b809150509250929050565b60006020828403121561587e57600080fd5b5035919050565b6000806040838503121561589857600080fd5b82359150602083013561586181615ea5565b6000806000606084860312156158bf57600080fd5b835192506020840151915060408401516158d881615ea5565b809150509250925092565b6000806000606084860312156158f857600080fd5b8351925060208401519150604084015190509250925092565b60008151808452615929816020860160208601615dfd565b601f01601f19169290920160200192915050565b6000825161594f818460208701615dfd565b9190910192915050565b8281526040602082015260006153036040830184615911565b8381528260208201526060604082015260006159916060830184615911565b95945050505050565b6080815260006159ad6080830187615911565b82810360208401526159bf8187615911565b905082810360408401526159d38186615911565b91505082606083015295945050505050565b6020815260006133956020830184615911565b6020808252602c908201527f46756e6374696f6e206d7573742062652063616c6c6564207468726f7567682060408201526b19195b1959d85d1958d85b1b60a21b606082015260800190565b60208082526027908201527f496e73756666696369656e742062616c616e636520746861742063616e206265604082015266081b1bd8dad95960ca1b606082015260800190565b6020808252602c908201527f46756e6374696f6e206d7573742062652063616c6c6564207468726f7567682060408201526b6163746976652070726f787960a01b606082015260800190565b60208082526029908201527f45524331393637557067726164653a20756e737570706f727465642070726f786040820152681a58589b195555525160ba1b606082015260800190565b6020808252602e908201527f496e697469616c697a61626c653a20636f6e747261637420697320616c72656160408201526d191e481a5b9a5d1a585b1a5e995960921b606082015260800190565b6020808252600d908201526c2737902832b936b4b9b9b4b7b760991b604082015260600190565b6020808252602e908201527f45524331393637557067726164653a206e657720696d706c656d656e7461746960408201526d6f6e206973206e6f74205555505360901b606082015260800190565b60208082526017908201527f496e76616c6964207374616b696e672062616c616e6365000000000000000000604082015260600190565b6020808252602b908201527f496e697469616c697a61626c653a20636f6e7472616374206973206e6f74206960408201526a6e697469616c697a696e6760a81b606082015260800190565b8c8152602081018c9052604081018b90526001600160a01b038a81166060830152898116608083015288811660a083015287811660c0830152861660e0820152600061018080610100840152615cbd81840188615911565b9050828103610120840152615cd28187615911565b9050828103610140840152615ce78186615911565b915050826101608301529d9c50505050505050505050505050565b87815286602082015285604082015260018060a01b03851660608201528360808201528260a082015260e060c08201526000615d4160e0830184615911565b9998505050505050505050565b60405161014081016001600160401b0381118282101715615d7157615d71615e7a565b60405290565b604051601f8201601f191681016001600160401b0381118282101715615d9f57615d9f615e7a565b604052919050565b60006001600160401b03821115615dc057615dc0615e7a565b50601f01601f191660200190565b60008219821115615de157615de1615e64565b500190565b600082821015615df857615df8615e64565b500390565b60005b83811015615e18578181015183820152602001615e00565b83811115613aa75750506000910152565b600181811c90821680615e3d57607f821691505b60208210811415615e5e57634e487b7160e01b600052602260045260246000fd5b50919050565b634e487b7160e01b600052601160045260246000fd5b634e487b7160e01b600052604160045260246000fd5b6001600160a01b03811681146115f757600080fd5b80151581146115f757600080fdfe360894a13ba1a3210667c828492db98dca3e2076cc3735a920a3ca505d382bbc85e7f4987c0698db47045ad8cea110b51138f0eecbd94915842328cf6c3dc97d416464726573733a206c6f772d6c6576656c2064656c65676174652063616c6c206661696c6564a264697066735822122093008ca75aa69db7f009b71bb3ff6ef3d61451d0cd5d793880dbe41450a9d9f264736f6c63430008060033",
  "linkReferences": {},
  "deployedLinkReferences": {}
}