{
  "_format": "hh-sol-artifact-1",
  "contractName": "Registry",
  "sourceName": "contracts/Registry.sol",
  "abi": [
    {
      "anonymous": false,
      "inputs": [
        {
          "indexed": true,
          "internalType": "address",
          "name": "previousOwner",
          "type": "address"
        },
        {
          "indexed": true,
          "internalType": "address",
          "name": "newOwner",
          "type": "address"
        }
      ],
      "name": "OwnershipTransferred",
      "type": "event"
    },
    {
      "anonymous": false,
      "inputs": [
        {
          "indexed": false,
          "internalType": "address",
          "name": "setter",
          "type": "address"
        },
        {
          "indexed": true,
          "internalType": "bytes32",
          "name": "name",
          "type": "bytes32"
        },
        {
          "indexed": true,
          "internalType": "address",
          "name": "addr",
          "type": "address"
        }
      ],
      "name": "SetContractDomain",
      "type": "event"
    },
    {
      "anonymous": false,
      "inputs": [
        {
          "indexed": true,
          "internalType": "bytes32",
          "name": "_contract",
          "type": "bytes32"
        },
        {
          "indexed": true,
          "internalType": "address",
          "name": "granted",
          "type": "address"
        },
        {
          "indexed": false,
          "internalType": "bool",
          "name": "status",
          "type": "bool"
        }
      ],
      "name": "SetPermission",
      "type": "event"
    },
    {
      "inputs": [
        {
          "internalType": "bytes32",
          "name": "",
          "type": "bytes32"
        }
      ],
      "name": "contracts",
      "outputs": [
        {
          "internalType": "address",
          "name": "",
          "type": "address"
        }
      ],
      "stateMutability": "view",
      "type": "function"
    },
    {
      "inputs": [
        {
          "internalType": "bytes32",
          "name": "_name",
          "type": "bytes32"
        }
      ],
      "name": "getContractAddress",
      "outputs": [
        {
          "internalType": "address",
          "name": "addr",
          "type": "address"
        }
      ],
      "stateMutability": "view",
      "type": "function"
    },
    {
      "inputs": [
        {
          "internalType": "bytes32",
          "name": "_contract",
          "type": "bytes32"
        },
        {
          "internalType": "address",
          "name": "_granted",
          "type": "address"
        }
      ],
      "name": "getPermission",
      "outputs": [
        {
          "internalType": "bool",
          "name": "found",
          "type": "bool"
        }
      ],
      "stateMutability": "view",
      "type": "function"
    },
    {
      "inputs": [],
      "name": "magic",
      "outputs": [
        {
          "internalType": "uint256",
          "name": "",
          "type": "uint256"
        }
      ],
      "stateMutability": "view",
      "type": "function"
    },
    {
      "inputs": [],
      "name": "modifiedBlock",
      "outputs": [
        {
          "internalType": "uint256",
          "name": "",
          "type": "uint256"
        }
      ],
      "stateMutability": "view",
      "type": "function"
    },
    {
      "inputs": [],
      "name": "owner",
      "outputs": [
        {
          "internalType": "address",
          "name": "",
          "type": "address"
        }
      ],
      "stateMutability": "view",
      "type": "function"
    },
    {
      "inputs": [
        {
          "internalType": "bytes32",
          "name": "",
          "type": "bytes32"
        },
        {
          "internalType": "address",
          "name": "",
          "type": "address"
        }
      ],
      "name": "permissions",
      "outputs": [
        {
          "internalType": "bool",
          "name": "",
          "type": "bool"
        }
      ],
      "stateMutability": "view",
      "type": "function"
    },
    {
      "inputs": [],
      "name": "renounceOwnership",
      "outputs": [],
      "stateMutability": "nonpayable",
      "type": "function"
    },
    {
      "inputs": [
        {
          "internalType": "bytes32",
          "name": "_name",
          "type": "bytes32"
        },
        {
          "internalType": "address",
          "name": "_addr",
          "type": "address"
        }
      ],
      "name": "setContractDomain",
      "outputs": [
        {
          "internalType": "bool",
          "name": "success",
          "type": "bool"
        }
      ],
      "stateMutability": "nonpayable",
      "type": "function"
    },
    {
      "inputs": [
        {
          "internalType": "bytes32",
          "name": "_contract",
          "type": "bytes32"
        },
        {
          "internalType": "address",
          "name": "_granted",
          "type": "address"
        },
        {
          "internalType": "bool",
          "name": "_status",
          "type": "bool"
        }
      ],
      "name": "setPermission",
      "outputs": [
        {
          "internalType": "bool",
          "name": "success",
          "type": "bool"
        }
      ],
      "stateMutability": "nonpayable",
      "type": "function"
    },
    {
      "inputs": [
        {
          "internalType": "address",
          "name": "newOwner",
          "type": "address"
        }
      ],
      "name": "transferOwnership",
      "outputs": [],
      "stateMutability": "nonpayable",
      "type": "function"
    }
  ],
  "bytecode": "0x6080604052704d6574616469756d20526567697374727960015534801561002557600080fd5b5061002f33610034565b610084565b600080546001600160a01b038381166001600160a01b0319831681178455604051919092169283917f8be0079c531659141344cd1fd0a4f28419497f9722a3daafe3b4186f6b6457e09190a35050565b6105f8806100936000396000f3fe608060405234801561001057600080fd5b50600436106100a95760003560e01c806360d6c7cf1161007157806360d6c7cf14610159578063715018a6146101925780637d10dd1b1461019c5780638da5cb5b146101a5578063ec56a373146101b6578063f2fde38b146101df57600080fd5b806304af66ad146100ae5780630d2020dd146100d65780630d854646146101015780633ec50c6c14610118578063599e4c7014610146575b600080fd5b6100c16100bc36600461051a565b6101f2565b60405190151581526020015b60405180910390f35b6100e96100e4366004610501565b610298565b6040516001600160a01b0390911681526020016100cd565b61010a60015481565b6040519081526020016100cd565b6100c161012636600461051a565b600460209081526000928352604080842090915290825290205460ff1681565b6100c1610154366004610546565b6102e8565b6100c161016736600461051a565b60009182526004602090815260408084206001600160a01b0393909316845291905290205460ff1690565b61019a61038c565b005b61010a60025481565b6000546001600160a01b03166100e9565b6100e96101c4366004610501565b6003602052600090815260409020546001600160a01b031681565b61019a6101ed3660046104df565b6103a0565b60006101fc610419565b6001600160a01b03821661022b5760405162461bcd60e51b81526004016102229061058b565b60405180910390fd5b60008381526003602090815260409182902080546001600160a01b0319166001600160a01b03861690811790915543600255915133815285917f37724a4a9968ac9654e6ee52f3d0c93e5ef8863e057254ee2e36e8ad3e8429db910160405180910390a350600192915050565b6000818152600360205260408120546001600160a01b03166102cc5760405162461bcd60e51b81526004016102229061058b565b506000908152600360205260409020546001600160a01b031690565b60006102f2610419565b6001600160a01b0383166103185760405162461bcd60e51b81526004016102229061058b565b60008481526004602090815260408083206001600160a01b03871680855290835292819020805460ff191686151590811790915543600255905190815286917fe9f5231bbfb4b32867755b94562215cff6c8998489de8ba20926f8d0980e7818910160405180910390a35060019392505050565b610394610419565b61039e6000610473565b565b6103a8610419565b6001600160a01b03811661040d5760405162461bcd60e51b815260206004820152602660248201527f4f776e61626c653a206e6577206f776e657220697320746865207a65726f206160448201526564647265737360d01b6064820152608401610222565b61041681610473565b50565b6000546001600160a01b0316331461039e5760405162461bcd60e51b815260206004820181905260248201527f4f776e61626c653a2063616c6c6572206973206e6f7420746865206f776e65726044820152606401610222565b600080546001600160a01b038381166001600160a01b0319831681178455604051919092169283917f8be0079c531659141344cd1fd0a4f28419497f9722a3daafe3b4186f6b6457e09190a35050565b80356001600160a01b03811681146104da57600080fd5b919050565b6000602082840312156104f157600080fd5b6104fa826104c3565b9392505050565b60006020828403121561051357600080fd5b5035919050565b6000806040838503121561052d57600080fd5b8235915061053d602084016104c3565b90509250929050565b60008060006060848603121561055b57600080fd5b8335925061056b602085016104c3565b91506040840135801515811461058057600080fd5b809150509250925092565b6020808252601a908201527f616464726573732073686f756c64206265206e6f6e2d7a65726f00000000000060408201526060019056fea26469706673582212206619b1cbab6ee2fed1b0ed567190975548d7c60f6445668ebb5f8503842197bf64736f6c63430008060033",
  "linkReferences": {},
  "deployedLinkReferences": {}
}