{
  "_format": "hh-sol-artifact-1",
  "contractName": "Staking",
  "sourceName": "contracts/Staking.sol",
  "abi": [
    {
      "inputs": [
        {
          "internalType": "address",
          "name": "registry",
          "type": "address"
        },
        {
          "internalType": "bytes",
          "name": "data",
          "type": "bytes"
        }
      ],
      "stateMutability": "nonpayable",
      "type": "constructor"
    },
    {
      "anonymous": false,
      "inputs": [
        {
          "indexed": false,
          "internalType": "uint8",
          "name": "version",
          "type": "uint8"
        }
      ],
      "name": "Initialized",
      "type": "event"
    },
    {
      "anonymous": false,
      "inputs": [
        {
          "indexed": true,
          "internalType": "address",
          "name": "payee",
          "type": "address"
        },
        {
          "indexed": false,
          "internalType": "uint256",
          "name": "amount",
          "type": "uint256"
        },
        {
          "indexed": false,
          "internalType": "uint256",
          "name": "total",
          "type": "uint256"
        },
        {
          "indexed": false,
          "internalType": "uint256",
          "name": "available",
          "type": "uint256"
        }
      ],
      "name": "Locked",
      "type": "event"
    },
    {
      "anonymous": false,
      "inputs": [
        {
          "indexed": true,
          "internalType": "address",
          "name": "previousOwner",
          "type": "address"
        },
        {
          "indexed": true,
          "internalType": "address",
          "name": "newOwner",
          "type": "address"
        }
      ],
      "name": "OwnershipTransferred",
      "type": "event"
    },
    {
      "anonymous": false,
      "inputs": [
        {
          "indexed": true,
          "internalType": "address",
          "name": "owner",
          "type": "address"
        },
        {
          "indexed": false,
          "internalType": "uint256",
          "name": "amount",
          "type": "uint256"
        }
      ],
      "name": "Revoked",
      "type": "event"
    },
    {
      "anonymous": false,
      "inputs": [
        {
          "indexed": true,
          "internalType": "address",
          "name": "addr",
          "type": "address"
        }
      ],
      "name": "SetRegistry",
      "type": "event"
    },
    {
      "anonymous": false,
      "inputs": [
        {
          "indexed": true,
          "internalType": "address",
          "name": "payee",
          "type": "address"
        },
        {
          "indexed": false,
          "internalType": "uint256",
          "name": "amount",
          "type": "uint256"
        },
        {
          "indexed": false,
          "internalType": "uint256",
          "name": "total",
          "type": "uint256"
        },
        {
          "indexed": false,
          "internalType": "uint256",
          "name": "available",
          "type": "uint256"
        }
      ],
      "name": "Staked",
      "type": "event"
    },
    {
      "anonymous": false,
      "inputs": [
        {
          "indexed": true,
          "internalType": "address",
          "name": "payee",
          "type": "address"
        },
        {
          "indexed": false,
          "internalType": "uint256",
          "name": "amount",
          "type": "uint256"
        },
        {
          "indexed": false,
          "internalType": "uint256",
          "name": "total",
          "type": "uint256"
        },
        {
          "indexed": false,
          "internalType": "uint256",
          "name": "available",
          "type": "uint256"
        }
      ],
      "name": "TransferLocked",
      "type": "event"
    },
    {
      "anonymous": false,
      "inputs": [
        {
          "indexed": true,
          "internalType": "address",
          "name": "payee",
          "type": "address"
        },
        {
          "indexed": false,
          "internalType": "uint256",
          "name": "amount",
          "type": "uint256"
        },
        {
          "indexed": false,
          "internalType": "uint256",
          "name": "total",
          "type": "uint256"
        },
        {
          "indexed": false,
          "internalType": "uint256",
          "name": "available",
          "type": "uint256"
        }
      ],
      "name": "Unlocked",
      "type": "event"
    },
    {
      "anonymous": false,
      "inputs": [
        {
          "indexed": true,
          "internalType": "address",
          "name": "payee",
          "type": "address"
        },
        {
          "indexed": false,
          "internalType": "uint256",
          "name": "amount",
          "type": "uint256"
        },
        {
          "indexed": false,
          "internalType": "uint256",
          "name": "total",
          "type": "uint256"
        },
        {
          "indexed": false,
          "internalType": "uint256",
          "name": "available",
          "type": "uint256"
        }
      ],
      "name": "Unstaked",
      "type": "event"
    },
    {
      "inputs": [],
      "name": "BALLOT_STORAGE_NAME",
      "outputs": [
        {
          "internalType": "bytes32",
          "name": "",
          "type": "bytes32"
        }
      ],
      "stateMutability": "view",
      "type": "function"
    },
    {
      "inputs": [],
      "name": "ENV_STORAGE_NAME",
      "outputs": [
        {
          "internalType": "bytes32",
          "name": "",
          "type": "bytes32"
        }
      ],
      "stateMutability": "view",
      "type": "function"
    },
    {
      "inputs": [],
      "name": "GOV_NAME",
      "outputs": [
        {
          "internalType": "bytes32",
          "name": "",
          "type": "bytes32"
        }
      ],
      "stateMutability": "view",
      "type": "function"
    },
    {
      "inputs": [],
      "name": "MAINTENANCE_NAME",
      "outputs": [
        {
          "internalType": "bytes32",
          "name": "",
          "type": "bytes32"
        }
      ],
      "stateMutability": "view",
      "type": "function"
    },
    {
      "inputs": [],
      "name": "REWARD_POOL_NAME",
      "outputs": [
        {
          "internalType": "bytes32",
          "name": "",
          "type": "bytes32"
        }
      ],
      "stateMutability": "view",
      "type": "function"
    },
    {
      "inputs": [],
      "name": "STAKING_NAME",
      "outputs": [
        {
          "internalType": "bytes32",
          "name": "",
          "type": "bytes32"
        }
      ],
      "stateMutability": "view",
      "type": "function"
    },
    {
      "inputs": [
        {
          "internalType": "address",
          "name": "payee",
          "type": "address"
        }
      ],
      "name": "availableBalanceOf",
      "outputs": [
        {
          "internalType": "uint256",
          "name": "",
          "type": "uint256"
        }
      ],
      "stateMutability": "view",
      "type": "function"
    },
    {
      "inputs": [
        {
          "internalType": "address",
          "name": "payee",
          "type": "address"
        }
      ],
      "name": "balanceOf",
      "outputs": [
        {
          "internalType": "uint256",
          "name": "",
          "type": "uint256"
        }
      ],
      "stateMutability": "view",
      "type": "function"
    },
    {
      "inputs": [
        {
          "internalType": "address",
          "name": "payee",
          "type": "address"
        }
      ],
      "name": "calcVotingWeight",
      "outputs": [
        {
          "internalType": "uint256",
          "name": "",
          "type": "uint256"
        }
      ],
      "stateMutability": "view",
      "type": "function"
    },
    {
      "inputs": [
        {
          "internalType": "address",
          "name": "payee",
          "type": "address"
        },
        {
          "internalType": "uint32",
          "name": "factor",
          "type": "uint32"
        }
      ],
      "name": "calcVotingWeightWithScaleFactor",
      "outputs": [
        {
          "internalType": "uint256",
          "name": "",
          "type": "uint256"
        }
      ],
      "stateMutability": "view",
      "type": "function"
    },
    {
      "inputs": [],
      "name": "deposit",
      "outputs": [],
      "stateMutability": "payable",
      "type": "function"
    },
    {
      "inputs": [],
      "name": "isRevoked",
      "outputs": [
        {
          "internalType": "bool",
          "name": "",
          "type": "bool"
        }
      ],
      "stateMutability": "view",
      "type": "function"
    },
    {
      "inputs": [
        {
          "internalType": "address",
          "name": "payee",
          "type": "address"
        },
        {
          "internalType": "uint256",
          "name": "lockAmount",
          "type": "uint256"
        }
      ],
      "name": "lock",
      "outputs": [],
      "stateMutability": "nonpayable",
      "type": "function"
    },
    {
      "inputs": [
        {
          "internalType": "address",
          "name": "payee",
          "type": "address"
        },
        {
          "internalType": "uint256",
          "name": "lockAmount",
          "type": "uint256"
        }
      ],
      "name": "lockMore",
      "outputs": [],
      "stateMutability": "nonpayable",
      "type": "function"
    },
    {
      "inputs": [
        {
          "internalType": "address",
          "name": "payee",
          "type": "address"
        }
      ],
      "name": "lockedBalanceOf",
      "outputs": [
        {
          "internalType": "uint256",
          "name": "",
          "type": "uint256"
        }
      ],
      "stateMutability": "view",
      "type": "function"
    },
    {
      "inputs": [],
      "name": "owner",
      "outputs": [
        {
          "internalType": "address",
          "name": "",
          "type": "address"
        }
      ],
      "stateMutability": "view",
      "type": "function"
    },
    {
      "inputs": [],
      "name": "reg",
      "outputs": [
        {
          "internalType": "contract IRegistry",
          "name": "",
          "type": "address"
        }
      ],
      "stateMutability": "view",
      "type": "function"
    },
    {
      "inputs": [],
      "name": "renounceOwnership",
      "outputs": [],
      "stateMutability": "nonpayable",
      "type": "function"
    },
    {
      "inputs": [],
      "name": "revoke",
      "outputs": [],
      "stateMutability": "nonpayable",
      "type": "function"
    },
    {
      "inputs": [
        {
          "internalType": "address",
          "name": "_addr",
          "type": "address"
        }
      ],
      "name": "setRegistry",
      "outputs": [],
      "stateMutability": "nonpayable",
      "type": "function"
    },
    {
      "inputs": [
        {
          "internalType": "address",
          "name": "from",
          "type": "address"
        },
        {
          "internalType": "uint256",
          "name": "amount",
          "type": "uint256"
        }
      ],
      "name": "transferLocked",
      "outputs": [],
      "stateMutability": "nonpayable",
      "type": "function"
    },
    {
      "inputs": [
        {
          "internalType": "address",
          "name": "newOwner",
          "type": "address"
        }
      ],
      "name": "transferOwnership",
      "outputs": [],
      "stateMutability": "nonpayable",
      "type": "function"
    },
    {
      "inputs": [
        {
          "internalType": "address",
          "name": "payee",
          "type": "address"
        },
        {
          "internalType": "uint256",
          "name": "unlockAmount",
          "type": "uint256"
        }
      ],
      "name": "unlock",
      "outputs": [],
      "stateMutability": "nonpayable",
      "type": "function"
    },
    {
      "inputs": [
        {
          "internalType": "uint256",
          "name": "amount",
          "type": "uint256"
        }
      ],
      "name": "withdraw",
      "outputs": [],
      "stateMutability": "nonpayable",
      "type": "function"
    },
    {
      "stateMutability": "payable",
      "type": "receive"
    }
  ],
  "bytecode": "0x6080604052606a805460ff191690553480156200001b57600080fd5b50604051620019dd380380620019dd8339810160408190526200003e916200027d565b6001606655600060695562000053336200011d565b6200005e826200016f565b80516200006b5762000115565b6000806000806020850191508451826200008691906200037d565b90505b80821015620001105781519350620000a36020836200037d565b9150808210620000b257600080fd5b81519250620000c36020836200037d565b6001600160a01b038516600090815260676020908152604080832087905560689091528120859055606980549294508592909190620001049084906200037d565b90915550620000899050565b505050505b5050620003ba565b603380546001600160a01b038381166001600160a01b0319831681179093556040519116919082907f8be0079c531659141344cd1fd0a4f28419497f9722a3daafe3b4186f6b6457e090600090a35050565b620001796200021f565b6001600160a01b038116620001d55760405162461bcd60e51b815260206004820152601a60248201527f416464726573732073686f756c64206265206e6f6e2d7a65726f00000000000060448201526064015b60405180910390fd5b606580546001600160a01b0319166001600160a01b0383169081179091556040517f278c70ced5f3e0e5eeb385b5ff9cb735748ba00a625147e66065ed48fc1562cd90600090a250565b6033546001600160a01b031633146200027b5760405162461bcd60e51b815260206004820181905260248201527f4f776e61626c653a2063616c6c6572206973206e6f7420746865206f776e65726044820152606401620001cc565b565b600080604083850312156200029157600080fd5b82516001600160a01b0381168114620002a957600080fd5b602084810151919350906001600160401b0380821115620002c957600080fd5b818601915086601f830112620002de57600080fd5b815181811115620002f357620002f3620003a4565b604051601f8201601f19908116603f011681019083821181831017156200031e576200031e620003a4565b8160405282815289868487010111156200033757600080fd5b600093505b828410156200035b57848401860151818501870152928501926200033c565b828411156200036d5760008684830101525b8096505050505050509250929050565b600082198211156200039f57634e487b7160e01b600052601160045260246000fd5b500190565b634e487b7160e01b600052604160045260246000fd5b61161380620003ca6000396000f3fe60806040526004361061014f5760003560e01c8063738fdd1a116100b65780638da5cb5b1161006f5780638da5cb5b146103fa5780639986e4b914610418578063a91ee0dc1461043c578063b6549f751461045c578063d0e30db014610471578063f2fde38b1461047957600080fd5b8063738fdd1a146103215780637756c908146103595780637bf46530146103795780637d77a0eb1461039a5780637eee288d146103ba578063884d97a7146103da57600080fd5b80634bd1ed76116101085780634bd1ed7614610235578063593557361461025757806365c4b87c1461028d5780636c78d2cf146102ad57806370a08231146102d6578063715018a61461030c57600080fd5b80631e0cba0d1461015e57806325d998bb1461018f578063282d3fdf146101af5780632bc9ed02146101d15780632e1a7d4d146101f45780632f40992e1461021457600080fd5b3661015957600080fd5b600080fd5b34801561016a57600080fd5b5061017c665374616b696e6760c81b81565b6040519081526020015b60405180910390f35b34801561019b57600080fd5b5061017c6101aa3660046113fb565b610499565b3480156101bb57600080fd5b506101cf6101ca366004611435565b6104cd565b005b3480156101dd57600080fd5b50606a5460ff166040519015158152602001610186565b34801561020057600080fd5b506101cf61020f3660046114c5565b610513565b34801561022057600080fd5b5061017c6914995dd85c99141bdbdb60b21b81565b34801561024157600080fd5b5061017c6a4d61696e74656e616e636560a81b81565b34801561026357600080fd5b5061017c6102723660046113fb565b6001600160a01b031660009081526068602052604090205490565b34801561029957600080fd5b506101cf6102a8366004611435565b6107d4565b3480156102b957600080fd5b5061017c7111dbdd995c9b985b98d950dbdb9d1c9858dd60721b81565b3480156102e257600080fd5b5061017c6102f13660046113fb565b6001600160a01b031660009081526067602052604090205490565b34801561031857600080fd5b506101cf610871565b34801561032d57600080fd5b50606554610341906001600160a01b031681565b6040516001600160a01b039091168152602001610186565b34801561036557600080fd5b506101cf610374366004611435565b610885565b34801561038557600080fd5b5061017c69456e7653746f7261676560b01b81565b3480156103a657600080fd5b5061017c6103b5366004611461565b6109ae565b3480156103c657600080fd5b506101cf6103d5366004611435565b610a22565b3480156103e657600080fd5b5061017c6103f53660046113fb565b610a5b565b34801561040657600080fd5b506033546001600160a01b0316610341565b34801561042457600080fd5b5061017c6c42616c6c6f7453746f7261676560981b81565b34801561044857600080fd5b506101cf6104573660046113fb565b610a68565b34801561046857600080fd5b506101cf610b10565b6101cf610c1a565b34801561048557600080fd5b506101cf6104943660046113fb565b610ef2565b6001600160a01b03811660009081526068602090815260408083205460679092528220546104c7919061159b565b92915050565b336104d6610f6b565b6001600160a01b0316146105055760405162461bcd60e51b81526004016104fc906114f7565b60405180910390fd5b61050f8282610f90565b5050565b600260665414156105665760405162461bcd60e51b815260206004820152601f60248201527f5265656e7472616e637947756172643a207265656e7472616e742063616c6c0060448201526064016104fc565b6002606655606a5460ff161561058e5760405162461bcd60e51b81526004016104fc9061151e565b600081116105e85760405162461bcd60e51b815260206004820152602160248201527f416d6f756e742073686f756c6420626520626967676572207468616e207a65726044820152606f60f81b60648201526084016104fc565b60006105f26111ee565b6001600160a01b031663076cd77f6040518163ffffffff1660e01b815260040160206040518083038186803b15801561062a57600080fd5b505afa15801561063e573d6000803e3d6000fd5b505050506040513d601f19601f8201168201806040525081019061066291906114de565b336000908152606860205260409020549091508110156106a157336000818152606860205260409020546106a1919061069c90849061159b565b611206565b6106aa33610499565b8211156107165760405162461bcd60e51b815260206004820152603460248201527f576974686472617720616d6f756e742073686f756c6420626520657175616c206044820152736f72206c657373207468616e2062616c616e636560601b60648201526084016104fc565b3360009081526067602052604090205461073190839061159b565b33600081815260676020526040808220939093559151909184156108fc02918591818181858888f1935050505015801561076f573d6000803e3d6000fd5b50336000818152606760205260409020547f204fccf0d92ed8d48f204adb39b2e81e92bad0dedb93f5716ca9478cfb57de009084906107ad84610499565b6040805193845260208401929092529082015260600160405180910390a250506001606655565b6107dc610f6b565b604051636f1e853360e01b81523360048201526001600160a01b039190911690636f1e85339060240160206040518083038186803b15801561081d57600080fd5b505afa158015610831573d6000803e3d6000fd5b505050506040513d601f19601f8201168201806040525081019061085591906114a3565b6105055760405162461bcd60e51b81526004016104fc906114f7565b6108796112be565b6108836000611318565b565b3361088e610f6b565b6001600160a01b0316146108b45760405162461bcd60e51b81526004016104fc906114f7565b806108bd575050565b6108c78282610a22565b6001600160a01b0382166000908152606760205260409020546108eb90829061159b565b6001600160a01b03831660009081526067602052604081209190915561090f61136a565b6001600160a01b038116600090815260676020526040902054909150610936908390611542565b6001600160a01b0380831660009081526067602052604080822093909355908516808252919020547f2caed32a519a1fd89486d3ffe06202febb5ed51534d571dbab93058545a29e2490849061098b87610499565b6040805193845260208401929092529082015260600160405180910390a2505050565b6001600160a01b03821660009081526068602052604081205415806109d7575063ffffffff8216155b156109e4575060006104c7565b6069546001600160a01b038416600090815260686020526040902054610a119063ffffffff85169061157c565b610a1b919061155a565b9392505050565b33610a2b610f6b565b6001600160a01b031614610a515760405162461bcd60e51b81526004016104fc906114f7565b61050f8282611206565b60006104c78260646109ae565b610a706112be565b6001600160a01b038116610ac65760405162461bcd60e51b815260206004820152601a60248201527f416464726573732073686f756c64206265206e6f6e2d7a65726f00000000000060448201526064016104fc565b606580546001600160a01b0319166001600160a01b0383169081179091556040517f278c70ced5f3e0e5eeb385b5ff9cb735748ba00a625147e66065ed48fc1562cd90600090a250565b610b186112be565b606a5460ff1615610b3b5760405162461bcd60e51b81526004016104fc9061151e565b6000610b4f6033546001600160a01b031690565b90504780610b8d5760405162461bcd60e51b815260206004820152600b60248201526a062616c616e6365203d20360ac1b60448201526064016104fc565b6040516001600160a01b0383169082156108fc029083906000818181858888f19350505050158015610bc3573d6000803e3d6000fd5b50606a805460ff191660011790556040516001600160a01b038316907f713b90881ad62c4fa8ab6bd9197fa86481fc0c11b2edba60026514281b2dbac490610c0e9084815260200190565b60405180910390a25050565b60026066541415610c6d5760405162461bcd60e51b815260206004820152601f60248201527f5265656e7472616e637947756172643a207265656e7472616e742063616c6c0060448201526064016104fc565b6002606655606a5460ff1615610c955760405162461bcd60e51b81526004016104fc9061151e565b60003411610cf85760405162461bcd60e51b815260206004820152602a60248201527f4465706f73697420616d6f756e742073686f756c642062652067726561746572604482015269207468616e207a65726f60b01b60648201526084016104fc565b33600090815260676020526040902054610d13903490611542565b33600090815260676020526040902055610d2b610f6b565b60405163288c314960e21b81523360048201526001600160a01b03919091169063a230c5249060240160206040518083038186803b158015610d6c57600080fd5b505afa158015610d80573d6000803e3d6000fd5b505050506040513d601f19601f82011682018060405250810190610da491906114a3565b15610e90576000610db36111ee565b6001600160a01b031663076cd77f6040518163ffffffff1660e01b815260040160206040518083038186803b158015610deb57600080fd5b505afa158015610dff573d6000803e3d6000fd5b505050506040513d601f19601f82011682018060405250810190610e2391906114de565b3360009081526068602052604090205490915081118015610e65575033600090815260686020526040902054610e59908261159b565b610e6233610499565b10155b15610e8e5733600081815260686020526040902054610e8e9190610e89908461159b565b610f90565b505b336000818152606760205260409020547fb4caaf29adda3eefee3ad552a8e85058589bf834c7466cae4ee58787f70589ed903490610ecd84610499565b6040805193845260208401929092529082015260600160405180910390a26001606655565b610efa6112be565b6001600160a01b038116610f5f5760405162461bcd60e51b815260206004820152602660248201527f4f776e61626c653a206e6577206f776e657220697320746865207a65726f206160448201526564647265737360d01b60648201526084016104fc565b610f6881611318565b50565b6000610f8b7111dbdd995c9b985b98d950dbdb9d1c9858dd60721b61137e565b905090565b80610f99575050565b6001600160a01b03821660009081526067602052604090205481111561101a5760405162461bcd60e51b815260206004820152603060248201527f4c6f636b20616d6f756e742073686f756c6420626520657175616c206f72206c60448201526f657373207468616e2062616c616e636560801b60648201526084016104fc565b8061102483610499565b10156110825760405162461bcd60e51b815260206004820152602760248201527f496e73756666696369656e742062616c616e636520746861742063616e206265604482015266081b1bd8dad95960ca1b60648201526084016104fc565b600061108c6111ee565b6001600160a01b031663737c59b86040518163ffffffff1660e01b815260040160206040518083038186803b1580156110c457600080fd5b505afa1580156110d8573d6000803e3d6000fd5b505050506040513d601f19601f820116820180604052508101906110fc91906114de565b6001600160a01b038416600090815260686020526040902054909150611123908390611542565b6001600160a01b03841660009081526068602052604090208190558110156111975760405162461bcd60e51b815260206004820152602160248201527f4c6f636b65642062616c616e6365206973206c6172676572207468616e206d616044820152600f60fb1b60648201526084016104fc565b816069546111a59190611542565b6069556001600160a01b0383166000818152606760205260409020547f44cebfefa4561bee5b61d675ccfd8dc9969fff9cc15e7a4eccccd62af94f9c1190849061098b87610499565b6000610f8b69456e7653746f7261676560b01b61137e565b8061120f575050565b6001600160a01b03821660009081526068602052604090205461123390829061159b565b6001600160a01b03831660009081526068602052604090205560695461125a90829061159b565b6069556001600160a01b0382166000818152606760205260409020547f5245d528087a96a64f4589a764f00061e4671eab90cb1e019b1a5b24b2e4c2a89083906112a386610499565b60408051938452602084019290925290820152606001610c0e565b6033546001600160a01b031633146108835760405162461bcd60e51b815260206004820181905260248201527f4f776e61626c653a2063616c6c6572206973206e6f7420746865206f776e657260448201526064016104fc565b603380546001600160a01b038381166001600160a01b0319831681179093556040519116919082907f8be0079c531659141344cd1fd0a4f28419497f9722a3daafe3b4186f6b6457e090600090a35050565b6000610f8b6914995dd85c99141bdbdb60b21b5b606554604051630d2020dd60e01b8152600481018390526000916001600160a01b031690630d2020dd9060240160206040518083038186803b1580156113c357600080fd5b505afa1580156113d7573d6000803e3d6000fd5b505050506040513d601f19601f820116820180604052508101906104c79190611418565b60006020828403121561140d57600080fd5b8135610a1b816115c8565b60006020828403121561142a57600080fd5b8151610a1b816115c8565b6000806040838503121561144857600080fd5b8235611453816115c8565b946020939093013593505050565b6000806040838503121561147457600080fd5b823561147f816115c8565b9150602083013563ffffffff8116811461149857600080fd5b809150509250929050565b6000602082840312156114b557600080fd5b81518015158114610a1b57600080fd5b6000602082840312156114d757600080fd5b5035919050565b6000602082840312156114f057600080fd5b5051919050565b6020808252600d908201526c2737902832b936b4b9b9b4b7b760991b604082015260600190565b6020808252600a9082015269125cc81c995d9bdad95960b21b604082015260600190565b60008219821115611555576115556115b2565b500190565b60008261157757634e487b7160e01b600052601260045260246000fd5b500490565b6000816000190483118215151615611596576115966115b2565b500290565b6000828210156115ad576115ad6115b2565b500390565b634e487b7160e01b600052601160045260246000fd5b6001600160a01b0381168114610f6857600080fdfea2646970667358221220f86f494ba6275d87dae094a08e560f0554edce827b4867f2e1bf22bd759b94dd64736f6c63430008060033",
  "linkReferences": {},
  "deployedLinkReferences": {}
}