{
  "_format": "hh-sol-artifact-1",
  "contractName": "Staking",
  "sourceName": "contracts/Staking.sol",
  "abi": [
    {
      "inputs": [
        {
          "internalType": "address",
          "name": "registry",
          "type": "address"
        },
        {
          "internalType": "bytes",
          "name": "data",
          "type": "bytes"
        }
      ],
      "stateMutability": "nonpayable",
      "type": "constructor"
    },
    {
      "anonymous": false,
      "inputs": [
        {
          "indexed": false,
          "internalType": "uint8",
          "name": "version",
          "type": "uint8"
        }
      ],
      "name": "Initialized",
      "type": "event"
    },
    {
      "anonymous": false,
      "inputs": [
        {
          "indexed": true,
          "internalType": "address",
          "name": "payee",
          "type": "address"
        },
        {
          "indexed": false,
          "internalType": "uint256",
          "name": "amount",
          "type": "uint256"
        },
        {
          "indexed": false,
          "internalType": "uint256",
          "name": "total",
          "type": "uint256"
        },
        {
          "indexed": false,
          "internalType": "uint256",
          "name": "available",
          "type": "uint256"
        }
      ],
      "name": "Locked",
      "type": "event"
    },
    {
      "anonymous": false,
      "inputs": [
        {
          "indexed": true,
          "internalType": "address",
          "name": "previousOwner",
          "type": "address"
        },
        {
          "indexed": true,
          "internalType": "address",
          "name": "newOwner",
          "type": "address"
        }
      ],
      "name": "OwnershipTransferred",
      "type": "event"
    },
    {
      "anonymous": false,
      "inputs": [
        {
          "indexed": true,
          "internalType": "address",
          "name": "owner",
          "type": "address"
        },
        {
          "indexed": false,
          "internalType": "uint256",
          "name": "amount",
          "type": "uint256"
        }
      ],
      "name": "Revoked",
      "type": "event"
    },
    {
      "anonymous": false,
      "inputs": [
        {
          "indexed": true,
          "internalType": "address",
          "name": "payee",
          "type": "address"
        },
        {
          "indexed": false,
          "internalType": "uint256",
          "name": "amount",
          "type": "uint256"
        },
        {
          "indexed": false,
          "internalType": "uint256",
          "name": "total",
          "type": "uint256"
        },
        {
          "indexed": false,
          "internalType": "uint256",
          "name": "available",
          "type": "uint256"
        }
      ],
      "name": "Staked",
      "type": "event"
    },
    {
      "anonymous": false,
      "inputs": [
        {
          "indexed": true,
          "internalType": "address",
          "name": "payee",
          "type": "address"
        },
        {
          "indexed": false,
          "internalType": "uint256",
          "name": "amount",
          "type": "uint256"
        },
        {
          "indexed": false,
          "internalType": "uint256",
          "name": "total",
          "type": "uint256"
        },
        {
          "indexed": false,
          "internalType": "uint256",
          "name": "available",
          "type": "uint256"
        }
      ],
      "name": "TransferLocked",
      "type": "event"
    },
    {
      "anonymous": false,
      "inputs": [
        {
          "indexed": true,
          "internalType": "address",
          "name": "payee",
          "type": "address"
        },
        {
          "indexed": false,
          "internalType": "uint256",
          "name": "amount",
          "type": "uint256"
        },
        {
          "indexed": false,
          "internalType": "uint256",
          "name": "total",
          "type": "uint256"
        },
        {
          "indexed": false,
          "internalType": "uint256",
          "name": "available",
          "type": "uint256"
        }
      ],
      "name": "Unlocked",
      "type": "event"
    },
    {
      "anonymous": false,
      "inputs": [
        {
          "indexed": true,
          "internalType": "address",
          "name": "payee",
          "type": "address"
        },
        {
          "indexed": false,
          "internalType": "uint256",
          "name": "amount",
          "type": "uint256"
        },
        {
          "indexed": false,
          "internalType": "uint256",
          "name": "total",
          "type": "uint256"
        },
        {
          "indexed": false,
          "internalType": "uint256",
          "name": "available",
          "type": "uint256"
        }
      ],
      "name": "Unstaked",
      "type": "event"
    },
    {
      "inputs": [],
      "name": "BALLOT_STORAGE_NAME",
      "outputs": [
        {
          "internalType": "bytes32",
          "name": "",
          "type": "bytes32"
        }
      ],
      "stateMutability": "view",
      "type": "function"
    },
    {
      "inputs": [],
      "name": "ENV_STORAGE_NAME",
      "outputs": [
        {
          "internalType": "bytes32",
          "name": "",
          "type": "bytes32"
        }
      ],
      "stateMutability": "view",
      "type": "function"
    },
    {
      "inputs": [],
      "name": "GOV_NAME",
      "outputs": [
        {
          "internalType": "bytes32",
          "name": "",
          "type": "bytes32"
        }
      ],
      "stateMutability": "view",
      "type": "function"
    },
    {
      "inputs": [],
      "name": "MAINTENANCE_NAME",
      "outputs": [
        {
          "internalType": "bytes32",
          "name": "",
          "type": "bytes32"
        }
      ],
      "stateMutability": "view",
      "type": "function"
    },
    {
      "inputs": [],
      "name": "REWARD_POOL_NAME",
      "outputs": [
        {
          "internalType": "bytes32",
          "name": "",
          "type": "bytes32"
        }
      ],
      "stateMutability": "view",
      "type": "function"
    },
    {
      "inputs": [],
      "name": "STAKING_NAME",
      "outputs": [
        {
          "internalType": "bytes32",
          "name": "",
          "type": "bytes32"
        }
      ],
      "stateMutability": "view",
      "type": "function"
    },
    {
      "inputs": [
        {
          "internalType": "address",
          "name": "payee",
          "type": "address"
        }
      ],
      "name": "availableBalanceOf",
      "outputs": [
        {
          "internalType": "uint256",
          "name": "",
          "type": "uint256"
        }
      ],
      "stateMutability": "view",
      "type": "function"
    },
    {
      "inputs": [
        {
          "internalType": "address",
          "name": "payee",
          "type": "address"
        }
      ],
      "name": "balanceOf",
      "outputs": [
        {
          "internalType": "uint256",
          "name": "",
          "type": "uint256"
        }
      ],
      "stateMutability": "view",
      "type": "function"
    },
    {
      "inputs": [
        {
          "internalType": "address",
          "name": "payee",
          "type": "address"
        }
      ],
      "name": "calcVotingWeight",
      "outputs": [
        {
          "internalType": "uint256",
          "name": "",
          "type": "uint256"
        }
      ],
      "stateMutability": "view",
      "type": "function"
    },
    {
      "inputs": [
        {
          "internalType": "address",
          "name": "payee",
          "type": "address"
        },
        {
          "internalType": "uint32",
          "name": "factor",
          "type": "uint32"
        }
      ],
      "name": "calcVotingWeightWithScaleFactor",
      "outputs": [
        {
          "internalType": "uint256",
          "name": "",
          "type": "uint256"
        }
      ],
      "stateMutability": "view",
      "type": "function"
    },
    {
      "inputs": [],
      "name": "deposit",
      "outputs": [],
      "stateMutability": "payable",
      "type": "function"
    },
    {
      "inputs": [],
      "name": "isRevoked",
      "outputs": [
        {
          "internalType": "bool",
          "name": "",
          "type": "bool"
        }
      ],
      "stateMutability": "view",
      "type": "function"
    },
    {
      "inputs": [
        {
          "internalType": "address",
          "name": "payee",
          "type": "address"
        },
        {
          "internalType": "uint256",
          "name": "lockAmount",
          "type": "uint256"
        }
      ],
      "name": "lock",
      "outputs": [],
      "stateMutability": "nonpayable",
      "type": "function"
    },
    {
      "inputs": [
        {
          "internalType": "address",
          "name": "payee",
          "type": "address"
        },
        {
          "internalType": "uint256",
          "name": "lockAmount",
          "type": "uint256"
        }
      ],
      "name": "lockMore",
      "outputs": [],
      "stateMutability": "nonpayable",
      "type": "function"
    },
    {
      "inputs": [
        {
          "internalType": "address",
          "name": "payee",
          "type": "address"
        }
      ],
      "name": "lockedBalanceOf",
      "outputs": [
        {
          "internalType": "uint256",
          "name": "",
          "type": "uint256"
        }
      ],
      "stateMutability": "view",
      "type": "function"
    },
    {
      "inputs": [],
      "name": "owner",
      "outputs": [
        {
          "internalType": "address",
          "name": "",
          "type": "address"
        }
      ],
      "stateMutability": "view",
      "type": "function"
    },
    {
      "inputs": [],
      "name": "reg",
      "outputs": [
        {
          "internalType": "contract IRegistry",
          "name": "",
          "type": "address"
        }
      ],
      "stateMutability": "view",
      "type": "function"
    },
    {
      "inputs": [],
      "name": "renounceOwnership",
      "outputs": [],
      "stateMutability": "nonpayable",
      "type": "function"
    },
    {
      "inputs": [],
      "name": "revoke",
      "outputs": [],
      "stateMutability": "nonpayable",
      "type": "function"
    },
    {
      "inputs": [
        {
          "internalType": "address",
          "name": "_addr",
          "type": "address"
        }
      ],
      "name": "setRegistry",
      "outputs": [],
      "stateMutability": "nonpayable",
      "type": "function"
    },
    {
      "inputs": [
        {
          "internalType": "address",
          "name": "from",
          "type": "address"
        },
        {
          "internalType": "uint256",
          "name": "amount",
          "type": "uint256"
        }
      ],
      "name": "transferLocked",
      "outputs": [],
      "stateMutability": "nonpayable",
      "type": "function"
    },
    {
      "inputs": [
        {
          "internalType": "address",
          "name": "newOwner",
          "type": "address"
        }
      ],
      "name": "transferOwnership",
      "outputs": [],
      "stateMutability": "nonpayable",
      "type": "function"
    },
    {
      "inputs": [
        {
          "internalType": "address",
          "name": "payee",
          "type": "address"
        },
        {
          "internalType": "uint256",
          "name": "unlockAmount",
          "type": "uint256"
        }
      ],
      "name": "unlock",
      "outputs": [],
      "stateMutability": "nonpayable",
      "type": "function"
    },
    {
      "inputs": [
        {
          "internalType": "uint256",
          "name": "amount",
          "type": "uint256"
        }
      ],
      "name": "withdraw",
      "outputs": [],
      "stateMutability": "nonpayable",
      "type": "function"
    },
    {
      "stateMutability": "payable",
      "type": "receive"
    }
  ],
  "bytecode": "0x6080604052606a805460ff191690553480156200001b57600080fd5b506040516200198d3803806200198d8339810160408190526200003e9162000255565b6001606655600060695562000053336200011d565b6200005e826200016f565b80516200006b5762000115565b60008060008060208501915084518262000086919062000355565b90505b80821015620001105781519350620000a360208362000355565b9150808210620000b257600080fd5b81519250620000c360208362000355565b6001600160a01b0385166000908152606760209081526040808320879055606890915281208590556069805492945085929091906200010490849062000355565b90915550620000899050565b505050505b505062000392565b603380546001600160a01b038381166001600160a01b0319831681179093556040519116919082907f8be0079c531659141344cd1fd0a4f28419497f9722a3daafe3b4186f6b6457e090600090a35050565b62000179620001f7565b6001600160a01b038116620001d55760405162461bcd60e51b815260206004820152601a60248201527f416464726573732073686f756c64206265206e6f6e2d7a65726f00000000000060448201526064015b60405180910390fd5b606580546001600160a01b0319166001600160a01b0392909216919091179055565b6033546001600160a01b03163314620002535760405162461bcd60e51b815260206004820181905260248201527f4f776e61626c653a2063616c6c6572206973206e6f7420746865206f776e65726044820152606401620001cc565b565b600080604083850312156200026957600080fd5b82516001600160a01b03811681146200028157600080fd5b602084810151919350906001600160401b0380821115620002a157600080fd5b818601915086601f830112620002b657600080fd5b815181811115620002cb57620002cb6200037c565b604051601f8201601f19908116603f01168101908382118183101715620002f657620002f66200037c565b8160405282815289868487010111156200030f57600080fd5b600093505b8284101562000333578484018601518185018701529285019262000314565b82841115620003455760008684830101525b8096505050505050509250929050565b600082198211156200037757634e487b7160e01b600052601160045260246000fd5b500190565b634e487b7160e01b600052604160045260246000fd5b6115eb80620003a26000396000f3fe60806040526004361061014f5760003560e01c8063738fdd1a116100b65780638da5cb5b1161006f5780638da5cb5b146103fa5780639986e4b914610418578063a91ee0dc1461043c578063b6549f751461045c578063d0e30db014610471578063f2fde38b1461047957600080fd5b8063738fdd1a146103215780637756c908146103595780637bf46530146103795780637d77a0eb1461039a5780637eee288d146103ba578063884d97a7146103da57600080fd5b80634bd1ed76116101085780634bd1ed7614610235578063593557361461025757806365c4b87c1461028d5780636c78d2cf146102ad57806370a08231146102d6578063715018a61461030c57600080fd5b80631e0cba0d1461015e57806325d998bb1461018f578063282d3fdf146101af5780632bc9ed02146101d15780632e1a7d4d146101f45780632f40992e1461021457600080fd5b3661015957600080fd5b600080fd5b34801561016a57600080fd5b5061017c665374616b696e6760c81b81565b6040519081526020015b60405180910390f35b34801561019b57600080fd5b5061017c6101aa3660046113d3565b610499565b3480156101bb57600080fd5b506101cf6101ca36600461140d565b6104cd565b005b3480156101dd57600080fd5b50606a5460ff166040519015158152602001610186565b34801561020057600080fd5b506101cf61020f36600461149d565b610513565b34801561022057600080fd5b5061017c6914995dd85c99141bdbdb60b21b81565b34801561024157600080fd5b5061017c6a4d61696e74656e616e636560a81b81565b34801561026357600080fd5b5061017c6102723660046113d3565b6001600160a01b031660009081526068602052604090205490565b34801561029957600080fd5b506101cf6102a836600461140d565b6107d4565b3480156102b957600080fd5b5061017c7111dbdd995c9b985b98d950dbdb9d1c9858dd60721b81565b3480156102e257600080fd5b5061017c6102f13660046113d3565b6001600160a01b031660009081526067602052604090205490565b34801561031857600080fd5b506101cf610871565b34801561032d57600080fd5b50606554610341906001600160a01b031681565b6040516001600160a01b039091168152602001610186565b34801561036557600080fd5b506101cf61037436600461140d565b610885565b34801561038557600080fd5b5061017c69456e7653746f7261676560b01b81565b3480156103a657600080fd5b5061017c6103b5366004611439565b6109ae565b3480156103c657600080fd5b506101cf6103d536600461140d565b610a22565b3480156103e657600080fd5b5061017c6103f53660046113d3565b610a5b565b34801561040657600080fd5b506033546001600160a01b0316610341565b34801561042457600080fd5b5061017c6c42616c6c6f7453746f7261676560981b81565b34801561044857600080fd5b506101cf6104573660046113d3565b610a68565b34801561046857600080fd5b506101cf610ae8565b6101cf610bf2565b34801561048557600080fd5b506101cf6104943660046113d3565b610eca565b6001600160a01b03811660009081526068602090815260408083205460679092528220546104c79190611573565b92915050565b336104d6610f43565b6001600160a01b0316146105055760405162461bcd60e51b81526004016104fc906114cf565b60405180910390fd5b61050f8282610f68565b5050565b600260665414156105665760405162461bcd60e51b815260206004820152601f60248201527f5265656e7472616e637947756172643a207265656e7472616e742063616c6c0060448201526064016104fc565b6002606655606a5460ff161561058e5760405162461bcd60e51b81526004016104fc906114f6565b600081116105e85760405162461bcd60e51b815260206004820152602160248201527f416d6f756e742073686f756c6420626520626967676572207468616e207a65726044820152606f60f81b60648201526084016104fc565b60006105f26111c6565b6001600160a01b031663076cd77f6040518163ffffffff1660e01b815260040160206040518083038186803b15801561062a57600080fd5b505afa15801561063e573d6000803e3d6000fd5b505050506040513d601f19601f8201168201806040525081019061066291906114b6565b336000908152606860205260409020549091508110156106a157336000818152606860205260409020546106a1919061069c908490611573565b6111de565b6106aa33610499565b8211156107165760405162461bcd60e51b815260206004820152603460248201527f576974686472617720616d6f756e742073686f756c6420626520657175616c206044820152736f72206c657373207468616e2062616c616e636560601b60648201526084016104fc565b33600090815260676020526040902054610731908390611573565b33600081815260676020526040808220939093559151909184156108fc02918591818181858888f1935050505015801561076f573d6000803e3d6000fd5b50336000818152606760205260409020547f204fccf0d92ed8d48f204adb39b2e81e92bad0dedb93f5716ca9478cfb57de009084906107ad84610499565b6040805193845260208401929092529082015260600160405180910390a250506001606655565b6107dc610f43565b604051636f1e853360e01b81523360048201526001600160a01b039190911690636f1e85339060240160206040518083038186803b15801561081d57600080fd5b505afa158015610831573d6000803e3d6000fd5b505050506040513d601f19601f82011682018060405250810190610855919061147b565b6105055760405162461bcd60e51b81526004016104fc906114cf565b610879611296565b61088360006112f0565b565b3361088e610f43565b6001600160a01b0316146108b45760405162461bcd60e51b81526004016104fc906114cf565b806108bd575050565b6108c78282610a22565b6001600160a01b0382166000908152606760205260409020546108eb908290611573565b6001600160a01b03831660009081526067602052604081209190915561090f611342565b6001600160a01b03811660009081526067602052604090205490915061093690839061151a565b6001600160a01b0380831660009081526067602052604080822093909355908516808252919020547f2caed32a519a1fd89486d3ffe06202febb5ed51534d571dbab93058545a29e2490849061098b87610499565b6040805193845260208401929092529082015260600160405180910390a2505050565b6001600160a01b03821660009081526068602052604081205415806109d7575063ffffffff8216155b156109e4575060006104c7565b6069546001600160a01b038416600090815260686020526040902054610a119063ffffffff851690611554565b610a1b9190611532565b9392505050565b33610a2b610f43565b6001600160a01b031614610a515760405162461bcd60e51b81526004016104fc906114cf565b61050f82826111de565b60006104c78260646109ae565b610a70611296565b6001600160a01b038116610ac65760405162461bcd60e51b815260206004820152601a60248201527f416464726573732073686f756c64206265206e6f6e2d7a65726f00000000000060448201526064016104fc565b606580546001600160a01b0319166001600160a01b0392909216919091179055565b610af0611296565b606a5460ff1615610b135760405162461bcd60e51b81526004016104fc906114f6565b6000610b276033546001600160a01b031690565b90504780610b655760405162461bcd60e51b815260206004820152600b60248201526a062616c616e6365203d20360ac1b60448201526064016104fc565b6040516001600160a01b0383169082156108fc029083906000818181858888f19350505050158015610b9b573d6000803e3d6000fd5b50606a805460ff191660011790556040516001600160a01b038316907f713b90881ad62c4fa8ab6bd9197fa86481fc0c11b2edba60026514281b2dbac490610be69084815260200190565b60405180910390a25050565b60026066541415610c455760405162461bcd60e51b815260206004820152601f60248201527f5265656e7472616e637947756172643a207265656e7472616e742063616c6c0060448201526064016104fc565b6002606655606a5460ff1615610c6d5760405162461bcd60e51b81526004016104fc906114f6565b60003411610cd05760405162461bcd60e51b815260206004820152602a60248201527f4465706f73697420616d6f756e742073686f756c642062652067726561746572604482015269207468616e207a65726f60b01b60648201526084016104fc565b33600090815260676020526040902054610ceb90349061151a565b33600090815260676020526040902055610d03610f43565b60405163288c314960e21b81523360048201526001600160a01b03919091169063a230c5249060240160206040518083038186803b158015610d4457600080fd5b505afa158015610d58573d6000803e3d6000fd5b505050506040513d601f19601f82011682018060405250810190610d7c919061147b565b15610e68576000610d8b6111c6565b6001600160a01b031663076cd77f6040518163ffffffff1660e01b815260040160206040518083038186803b158015610dc357600080fd5b505afa158015610dd7573d6000803e3d6000fd5b505050506040513d601f19601f82011682018060405250810190610dfb91906114b6565b3360009081526068602052604090205490915081118015610e3d575033600090815260686020526040902054610e319082611573565b610e3a33610499565b10155b15610e665733600081815260686020526040902054610e669190610e619084611573565b610f68565b505b336000818152606760205260409020547fb4caaf29adda3eefee3ad552a8e85058589bf834c7466cae4ee58787f70589ed903490610ea584610499565b6040805193845260208401929092529082015260600160405180910390a26001606655565b610ed2611296565b6001600160a01b038116610f375760405162461bcd60e51b815260206004820152602660248201527f4f776e61626c653a206e6577206f776e657220697320746865207a65726f206160448201526564647265737360d01b60648201526084016104fc565b610f40816112f0565b50565b6000610f637111dbdd995c9b985b98d950dbdb9d1c9858dd60721b611356565b905090565b80610f71575050565b6001600160a01b038216600090815260676020526040902054811115610ff25760405162461bcd60e51b815260206004820152603060248201527f4c6f636b20616d6f756e742073686f756c6420626520657175616c206f72206c60448201526f657373207468616e2062616c616e636560801b60648201526084016104fc565b80610ffc83610499565b101561105a5760405162461bcd60e51b815260206004820152602760248201527f496e73756666696369656e742062616c616e636520746861742063616e206265604482015266081b1bd8dad95960ca1b60648201526084016104fc565b60006110646111c6565b6001600160a01b031663737c59b86040518163ffffffff1660e01b815260040160206040518083038186803b15801561109c57600080fd5b505afa1580156110b0573d6000803e3d6000fd5b505050506040513d601f19601f820116820180604052508101906110d491906114b6565b6001600160a01b0384166000908152606860205260409020549091506110fb90839061151a565b6001600160a01b038416600090815260686020526040902081905581101561116f5760405162461bcd60e51b815260206004820152602160248201527f4c6f636b65642062616c616e6365206973206c6172676572207468616e206d616044820152600f60fb1b60648201526084016104fc565b8160695461117d919061151a565b6069556001600160a01b0383166000818152606760205260409020547f44cebfefa4561bee5b61d675ccfd8dc9969fff9cc15e7a4eccccd62af94f9c1190849061098b87610499565b6000610f6369456e7653746f7261676560b01b611356565b806111e7575050565b6001600160a01b03821660009081526068602052604090205461120b908290611573565b6001600160a01b038316600090815260686020526040902055606954611232908290611573565b6069556001600160a01b0382166000818152606760205260409020547f5245d528087a96a64f4589a764f00061e4671eab90cb1e019b1a5b24b2e4c2a890839061127b86610499565b60408051938452602084019290925290820152606001610be6565b6033546001600160a01b031633146108835760405162461bcd60e51b815260206004820181905260248201527f4f776e61626c653a2063616c6c6572206973206e6f7420746865206f776e657260448201526064016104fc565b603380546001600160a01b038381166001600160a01b0319831681179093556040519116919082907f8be0079c531659141344cd1fd0a4f28419497f9722a3daafe3b4186f6b6457e090600090a35050565b6000610f636914995dd85c99141bdbdb60b21b5b606554604051630d2020dd60e01b8152600481018390526000916001600160a01b031690630d2020dd9060240160206040518083038186803b15801561139b57600080fd5b505afa1580156113af573d6000803e3d6000fd5b505050506040513d601f19601f820116820180604052508101906104c791906113f0565b6000602082840312156113e557600080fd5b8135610a1b816115a0565b60006020828403121561140257600080fd5b8151610a1b816115a0565b6000806040838503121561142057600080fd5b823561142b816115a0565b946020939093013593505050565b6000806040838503121561144c57600080fd5b8235611457816115a0565b9150602083013563ffffffff8116811461147057600080fd5b809150509250929050565b60006020828403121561148d57600080fd5b81518015158114610a1b57600080fd5b6000602082840312156114af57600080fd5b5035919050565b6000602082840312156114c857600080fd5b5051919050565b6020808252600d908201526c2737902832b936b4b9b9b4b7b760991b604082015260600190565b6020808252600a9082015269125cc81c995d9bdad95960b21b604082015260600190565b6000821982111561152d5761152d61158a565b500190565b60008261154f57634e487b7160e01b600052601260045260246000fd5b500490565b600081600019048311821515161561156e5761156e61158a565b500290565b6000828210156115855761158561158a565b500390565b634e487b7160e01b600052601160045260246000fd5b6001600160a01b0381168114610f4057600080fdfea26469706673582212208ca569fad16dfc3d13b96e764b091c8d2d0ebc407d35cd22dc1c2516091c6bad64736f6c63430008060033",
  "linkReferences": {},
  "deployedLinkReferences": {}
}