{
  "_format": "hh-sol-artifact-1",
  "contractName": "WaitGovernance",
  "sourceName": "contracts/WaitGovernance.sol",
  "abi": [
    {
      "inputs": [],
      "stateMutability": "nonpayable",
      "type": "constructor"
    },
    {
      "anonymous": false,
      "inputs": [
        {
          "indexed": false,
          "internalType": "bytes32",
          "name": "envName",
          "type": "bytes32"
        },
        {
          "indexed": false,
          "internalType": "uint256",
          "name": "envType",
          "type": "uint256"
        },
        {
          "indexed": false,
          "internalType": "bytes",
          "name": "envVal",
          "type": "bytes"
        }
      ],
      "name": "EnvChanged",
      "type": "event"
    },
    {
      "anonymous": false,
      "inputs": [
        {
          "indexed": false,
          "internalType": "uint8",
          "name": "version",
          "type": "uint8"
        }
      ],
      "name": "Initialized",
      "type": "event"
    },
    {
      "anonymous": false,
      "inputs": [
        {
          "indexed": true,
          "internalType": "uint256",
          "name": "ballotId",
          "type": "uint256"
        },
        {
          "indexed": false,
          "internalType": "string",
          "name": "reason",
          "type": "string"
        }
      ],
      "name": "NotApplicable",
      "type": "event"
    },
    {
      "anonymous": false,
      "inputs": [
        {
          "indexed": true,
          "internalType": "address",
          "name": "previousOwner",
          "type": "address"
        },
        {
          "indexed": true,
          "internalType": "address",
          "name": "newOwner",
          "type": "address"
        }
      ],
      "name": "OwnershipTransferred",
      "type": "event"
    },
    {
      "anonymous": false,
      "inputs": [
        {
          "indexed": false,
          "internalType": "uint256",
          "name": "newPeriod",
          "type": "uint256"
        }
      ],
      "name": "SetProposalTimePeriod",
      "type": "event"
    },
    {
      "inputs": [
        {
          "components": [
            {
              "internalType": "string",
              "name": "companyName",
              "type": "string"
            },
            {
              "internalType": "address",
              "name": "companyAddress",
              "type": "address"
            },
            {
              "internalType": "uint256",
              "name": "investmentAmount",
              "type": "uint256"
            },
            {
              "internalType": "string",
              "name": "description",
              "type": "string"
            },
            {
              "internalType": "string",
              "name": "link",
              "type": "string"
            },
            {
              "internalType": "bytes32[]",
              "name": "txHashes",
              "type": "bytes32[]"
            }
          ],
          "internalType": "struct IWaitProtocolGovernance.Proposal",
          "name": "info",
          "type": "tuple"
        }
      ],
      "name": "addProposal",
      "outputs": [
        {
          "internalType": "uint256",
          "name": "ballotIdx",
          "type": "uint256"
        }
      ],
      "stateMutability": "nonpayable",
      "type": "function"
    },
    {
      "inputs": [],
      "name": "ballotLength",
      "outputs": [
        {
          "internalType": "uint256",
          "name": "",
          "type": "uint256"
        }
      ],
      "stateMutability": "view",
      "type": "function"
    },
    {
      "inputs": [],
      "name": "ballotStorage",
      "outputs": [
        {
          "internalType": "address",
          "name": "",
          "type": "address"
        }
      ],
      "stateMutability": "view",
      "type": "function"
    },
    {
      "inputs": [
        {
          "internalType": "uint256",
          "name": "ballotIdx",
          "type": "uint256"
        }
      ],
      "name": "checkUnfinalized",
      "outputs": [
        {
          "internalType": "bool",
          "name": "",
          "type": "bool"
        }
      ],
      "stateMutability": "view",
      "type": "function"
    },
    {
      "inputs": [
        {
          "internalType": "uint256",
          "name": "ballotIdx",
          "type": "uint256"
        }
      ],
      "name": "finalizeEndedVote",
      "outputs": [],
      "stateMutability": "nonpayable",
      "type": "function"
    },
    {
      "inputs": [
        {
          "internalType": "uint256",
          "name": "ballotIdx",
          "type": "uint256"
        }
      ],
      "name": "getProposalAndBallot",
      "outputs": [
        {
          "components": [
            {
              "internalType": "uint256",
              "name": "id",
              "type": "uint256"
            },
            {
              "internalType": "uint256",
              "name": "startTime",
              "type": "uint256"
            },
            {
              "internalType": "uint256",
              "name": "endTime",
              "type": "uint256"
            },
            {
              "internalType": "address",
              "name": "creator",
              "type": "address"
            },
            {
              "internalType": "bytes",
              "name": "memo",
              "type": "bytes"
            },
            {
              "internalType": "uint256",
              "name": "totalVoters",
              "type": "uint256"
            },
            {
              "internalType": "uint256[]",
              "name": "powers",
              "type": "uint256[]"
            },
            {
              "internalType": "address[]",
              "name": "acceptVoters",
              "type": "address[]"
            },
            {
              "internalType": "address[]",
              "name": "rejectVoters",
              "type": "address[]"
            },
            {
              "internalType": "address[]",
              "name": "abstainVoters",
              "type": "address[]"
            },
            {
              "internalType": "uint8",
              "name": "state",
              "type": "uint8"
            },
            {
              "internalType": "bool",
              "name": "isFinalized",
              "type": "bool"
            }
          ],
          "internalType": "struct IBallotStorage.BallotBasic",
          "name": "ballotBasic",
          "type": "tuple"
        },
        {
          "components": [
            {
              "internalType": "string",
              "name": "companyName",
              "type": "string"
            },
            {
              "internalType": "address",
              "name": "companyAddress",
              "type": "address"
            },
            {
              "internalType": "uint256",
              "name": "investmentAmount",
              "type": "uint256"
            },
            {
              "internalType": "string",
              "name": "description",
              "type": "string"
            },
            {
              "internalType": "string",
              "name": "link",
              "type": "string"
            },
            {
              "internalType": "bytes32[]",
              "name": "txHashes",
              "type": "bytes32[]"
            }
          ],
          "internalType": "struct IWaitProtocolGovernance.Proposal",
          "name": "proposal",
          "type": "tuple"
        }
      ],
      "stateMutability": "view",
      "type": "function"
    },
    {
      "inputs": [],
      "name": "getThreshold",
      "outputs": [
        {
          "internalType": "uint256",
          "name": "",
          "type": "uint256"
        }
      ],
      "stateMutability": "pure",
      "type": "function"
    },
    {
      "inputs": [
        {
          "internalType": "uint256",
          "name": "ballotIdx",
          "type": "uint256"
        }
      ],
      "name": "getVotesInBallot",
      "outputs": [
        {
          "components": [
            {
              "internalType": "uint256",
              "name": "voteId",
              "type": "uint256"
            },
            {
              "internalType": "uint256",
              "name": "ballotId",
              "type": "uint256"
            },
            {
              "internalType": "uint256",
              "name": "voterIdx",
              "type": "uint256"
            },
            {
              "internalType": "address",
              "name": "voter",
              "type": "address"
            },
            {
              "internalType": "uint256",
              "name": "decision",
              "type": "uint256"
            },
            {
              "internalType": "uint256",
              "name": "power",
              "type": "uint256"
            },
            {
              "internalType": "uint256",
              "name": "time",
              "type": "uint256"
            }
          ],
          "internalType": "struct IBallotStorage.Vote[]",
          "name": "votes",
          "type": "tuple[]"
        }
      ],
      "stateMutability": "view",
      "type": "function"
    },
    {
      "inputs": [],
      "name": "governance",
      "outputs": [
        {
          "internalType": "address",
          "name": "",
          "type": "address"
        }
      ],
      "stateMutability": "view",
      "type": "function"
    },
    {
      "inputs": [
        {
          "internalType": "address",
          "name": "_governance",
          "type": "address"
        },
        {
          "internalType": "address",
          "name": "_ballotStorage",
          "type": "address"
        }
      ],
      "name": "initialize",
      "outputs": [],
      "stateMutability": "nonpayable",
      "type": "function"
    },
    {
      "inputs": [
        {
          "internalType": "address",
          "name": "",
          "type": "address"
        }
      ],
      "name": "isWhitelistSetter",
      "outputs": [
        {
          "internalType": "bool",
          "name": "",
          "type": "bool"
        }
      ],
      "stateMutability": "view",
      "type": "function"
    },
    {
      "inputs": [
        {
          "internalType": "address",
          "name": "",
          "type": "address"
        }
      ],
      "name": "isWhitelisted",
      "outputs": [
        {
          "internalType": "bool",
          "name": "",
          "type": "bool"
        }
      ],
      "stateMutability": "view",
      "type": "function"
    },
    {
      "inputs": [],
      "name": "owner",
      "outputs": [
        {
          "internalType": "address",
          "name": "",
          "type": "address"
        }
      ],
      "stateMutability": "view",
      "type": "function"
    },
    {
      "inputs": [
        {
          "internalType": "uint256",
          "name": "",
          "type": "uint256"
        }
      ],
      "name": "proposals",
      "outputs": [
        {
          "internalType": "string",
          "name": "companyName",
          "type": "string"
        },
        {
          "internalType": "address",
          "name": "companyAddress",
          "type": "address"
        },
        {
          "internalType": "uint256",
          "name": "investmentAmount",
          "type": "uint256"
        },
        {
          "internalType": "string",
          "name": "description",
          "type": "string"
        },
        {
          "internalType": "string",
          "name": "link",
          "type": "string"
        }
      ],
      "stateMutability": "view",
      "type": "function"
    },
    {
      "inputs": [],
      "name": "renounceOwnership",
      "outputs": [],
      "stateMutability": "nonpayable",
      "type": "function"
    },
    {
      "inputs": [
        {
          "internalType": "address",
          "name": "newBallotStorage",
          "type": "address"
        }
      ],
      "name": "setBallotStroage",
      "outputs": [],
      "stateMutability": "nonpayable",
      "type": "function"
    },
    {
      "inputs": [
        {
          "internalType": "uint256",
          "name": "ballotIdx",
          "type": "uint256"
        },
        {
          "internalType": "bytes32[]",
          "name": "txHashes",
          "type": "bytes32[]"
        }
      ],
      "name": "setTransactionHashes",
      "outputs": [],
      "stateMutability": "nonpayable",
      "type": "function"
    },
    {
      "inputs": [
        {
          "internalType": "uint256",
          "name": "_votingPeriod",
          "type": "uint256"
        }
      ],
      "name": "setVotingPeriod",
      "outputs": [],
      "stateMutability": "nonpayable",
      "type": "function"
    },
    {
      "inputs": [
        {
          "internalType": "address",
          "name": "_whitelist",
          "type": "address"
        },
        {
          "internalType": "bool",
          "name": "_access",
          "type": "bool"
        }
      ],
      "name": "setWhitelist",
      "outputs": [],
      "stateMutability": "nonpayable",
      "type": "function"
    },
    {
      "inputs": [
        {
          "internalType": "address",
          "name": "_setter",
          "type": "address"
        },
        {
          "internalType": "bool",
          "name": "_access",
          "type": "bool"
        }
      ],
      "name": "setWhitelistSetter",
      "outputs": [],
      "stateMutability": "nonpayable",
      "type": "function"
    },
    {
      "inputs": [
        {
          "internalType": "address",
          "name": "newOwner",
          "type": "address"
        }
      ],
      "name": "transferOwnership",
      "outputs": [],
      "stateMutability": "nonpayable",
      "type": "function"
    },
    {
      "inputs": [
        {
          "internalType": "uint256",
          "name": "ballotIdx",
          "type": "uint256"
        },
        {
          "internalType": "uint8",
          "name": "decision",
          "type": "uint8"
        }
      ],
      "name": "vote",
      "outputs": [],
      "stateMutability": "nonpayable",
      "type": "function"
    },
    {
      "inputs": [],
      "name": "voteLength",
      "outputs": [
        {
          "internalType": "uint256",
          "name": "",
          "type": "uint256"
        }
      ],
      "stateMutability": "view",
      "type": "function"
    },
    {
      "inputs": [],
      "name": "votingPeriod",
      "outputs": [
        {
          "internalType": "uint256",
          "name": "",
          "type": "uint256"
        }
      ],
      "stateMutability": "view",
      "type": "function"
    }
  ],
  "bytecode": "0x60806040523480156200001157600080fd5b506200001c62000022565b620000e4565b600054610100900460ff16156200008f5760405162461bcd60e51b815260206004820152602760248201527f496e697469616c697a61626c653a20636f6e747261637420697320696e697469604482015266616c697a696e6760c81b606482015260840160405180910390fd5b60005460ff9081161015620000e2576000805460ff191660ff9081179091556040519081527f7f26b83ff96e1f2b6a682f133852f6798a09c465da95921460cefb38474024989060200160405180910390a15b565b61285380620000f46000396000f3fe608060405234801561001057600080fd5b50600436106101585760003560e01c8063715018a6116100c3578063d6f9cfce1161007c578063d6f9cfce14610319578063e75235b814610322578063e9523fb51461032a578063ea0217cf14610333578063f149d0d714610346578063f2fde38b1461036957600080fd5b8063715018a6146102a657806379a6d15f146102ae57806379f58535146102c15780638da5cb5b146102d45780639132ceba146102e5578063943e82161461030657600080fd5b80633af32abf116101155780633af32abf146101fc578063485cc9551461022f57806352ce7b3e1461024257806353d6fd59146102555780635aa6e675146102685780636484947d1461029357600080fd5b8063013cf08b1461015d57806302a251a31461018a5780631a1f3369146101a15780631ec64464146101c157806323a7baa8146101d45780632f6699c4146101e9575b600080fd5b61017061016b366004611a41565b61037c565b604051610181959493929190611aaa565b60405180910390f35b610193609e5481565b604051908152602001610181565b6101b46101af366004611a41565b610550565b6040516101819190611b05565b6101936101cf366004611d74565b6105c8565b6101e76101e2366004611e68565b6107dc565b005b6101e76101f7366004611e9a565b61084e565b61021f61020a366004611e68565b60996020526000908152604090205460ff1681565b6040519015158152602001610181565b6101e761023d366004611ed3565b610881565b61021f610250366004611a41565b6109f5565b6101e7610263366004611e9a565b610aac565b60975461027b906001600160a01b031681565b6040516001600160a01b039091168152602001610181565b6101e76102a1366004611f01565b610b2f565b6101e7610cad565b60985461027b906001600160a01b031681565b6101e76102cf366004611a41565b610cc1565b6065546001600160a01b031661027b565b6102f86102f3366004611a41565b610dcc565b604051610181929190612063565b6101e761031436600461219b565b611141565b610193609c5481565b611389610193565b610193609d5481565b6101e7610341366004611a41565b611349565b61021f610354366004611e68565b609a6020526000908152604090205460ff1681565b6101e7610377366004611e68565b61138c565b609b60205260009081526040902080548190610397906121c0565b80601f01602080910402602001604051908101604052809291908181526020018280546103c3906121c0565b80156104105780601f106103e557610100808354040283529160200191610410565b820191906000526020600020905b8154815290600101906020018083116103f357829003601f168201915b505050506001830154600284015460038501805494956001600160a01b03909316949193509061043f906121c0565b80601f016020809104026020016040519081016040528092919081815260200182805461046b906121c0565b80156104b85780601f1061048d576101008083540402835291602001916104b8565b820191906000526020600020905b81548152906001019060200180831161049b57829003601f168201915b5050505050908060040180546104cd906121c0565b80601f01602080910402602001604051908101604052809291908181526020018280546104f9906121c0565b80156105465780601f1061051b57610100808354040283529160200191610546565b820191906000526020600020905b81548152906001019060200180831161052957829003601f168201915b5050505050905085565b609854604051631a1f336960e01b8152600481018390526060916001600160a01b031690631a1f336990602401600060405180830381865afa15801561059a573d6000803e3d6000fd5b505050506040513d6000823e601f3d908101601f191682016040526105c29190810190612205565b92915050565b3360009081526099602052604081205460ff166106285760405162461bcd60e51b81526020600482015260196024820152784e6f7420612077686974656c6973746564206164647265737360381b60448201526064015b60405180910390fd5b60a0820151511561066e5760405162461bcd60e51b815260206004820152601060248201526f496e76616c696420747848617368657360801b604482015260640161061f565b609c5461067c9060016122f4565b6000818152609b6020526040902083519192508391819061069d908261235b565b5060208201516001820180546001600160a01b0319166001600160a01b0390921691909117905560408201516002820155606082015160038201906106e2908261235b565b50608082015160048201906106f7908261235b565b5060a082015180516107139160058401916020909101906119e1565b509050506107486040518060400160405280600f81526020016e6d73672e73656e646572323a20257360881b81525033611402565b609854609e546001600160a01b039091169063fb3d8f94908390429061076e90826122f4565b6040516001600160e01b031960e086901b168152600481019390935260248301919091526044820152336064820152608401600060405180830381600087803b1580156107ba57600080fd5b505af11580156107ce573d6000803e3d6000fd5b505050609c82905550919050565b6107e4611447565b6001600160a01b03811661082c5760405162461bcd60e51b815260206004820152600f60248201526e496e76616c6964206164647265737360881b604482015260640161061f565b609880546001600160a01b0319166001600160a01b0392909216919091179055565b610856611447565b6001600160a01b03919091166000908152609a60205260409020805460ff1916911515919091179055565b600054610100900460ff16158080156108a15750600054600160ff909116105b806108bb5750303b1580156108bb575060005460ff166001145b61091e5760405162461bcd60e51b815260206004820152602e60248201527f496e697469616c697a61626c653a20636f6e747261637420697320616c72656160448201526d191e481a5b9a5d1a585b1a5e995960921b606482015260840161061f565b6000805460ff191660011790558015610941576000805461ff0019166101001790555b6109496114a1565b6109516114d0565b336000908152609a60205260408120805460ff19166001179055609780546001600160a01b038681166001600160a01b0319928316179092556098805492861692909116919091179055609c819055609d556203f480609e5580156109f0576000805461ff0019169055604051600181527f7f26b83ff96e1f2b6a682f133852f6798a09c465da95921460cefb38474024989060200160405180910390a15b505050565b60985460405163344652d960e11b8152600481018390526000918291829182916001600160a01b039091169063688ca5b290602401608060405180830381865afa158015610a47573d6000803e3d6000fd5b505050506040513d601f19601f82011682018060405250810190610a6b9190612431565b935093505092508015610a8357506001949350505050565b60018360ff1603610aa15742821015610aa157506000949350505050565b506001949350505050565b336000908152609a602052604090205460ff16610b045760405162461bcd60e51b81526020600482015260166024820152752737ba1030903bb434ba32b634b9ba1039b2ba3a32b960511b604482015260640161061f565b6001600160a01b03919091166000908152609960205260409020805460ff1916911515919091179055565b3360009081526099602052604090205460ff16610b8a5760405162461bcd60e51b81526020600482015260196024820152784e6f7420612077686974656c6973746564206164647265737360381b604482015260640161061f565b60985460405163344652d960e11b81526004810184905260009182916001600160a01b039091169063688ca5b290602401608060405180830381865afa158015610bd8573d6000803e3d6000fd5b505050506040513d601f19601f82011682018060405250810190610bfc9190612431565b93505050915080610c3f5760405162461bcd60e51b815260206004820152600d60248201526c139bdd08199a5b985b1a5e9959609a1b604482015260640161061f565b60ff8216600214610c815760405162461bcd60e51b815260206004820152600c60248201526b139bdd081858d8d95c1d195960a21b604482015260640161061f565b6000848152609b602090815260409091208451610ca6926005909201918601906119e1565b5050505050565b610cb5611447565b610cbf60006114ff565b565b60975460405163288c314960e21b81523360048201526001600160a01b039091169063a230c52490602401602060405180830381865afa158015610d09573d6000803e3d6000fd5b505050506040513d601f19601f82011682018060405250810190610d2d919061247d565b610d735760405162461bcd60e51b81526020600482015260176024820152762737ba10309033b7bb32b93730b731b29036b2b6b132b960491b604482015260640161061f565b610d7c816109f5565b610dbe5760405162461bcd60e51b8152602060048201526013602482015272159bdd1a5b99c81a5cc81b9bdd08195b991959606a1b604482015260640161061f565b610dc9816003611551565b50565b610e3e60405180610180016040528060008152602001600081526020016000815260200160006001600160a01b03168152602001606081526020016000815260200160608152602001606081526020016060815260200160608152602001600060ff1681526020016000151581525090565b610e806040518060c001604052806060815260200160006001600160a01b03168152602001600081526020016060815260200160608152602001606081525090565b6000838152609b602052604090819020815160c08101909252805482908290610ea8906121c0565b80601f0160208091040260200160405190810160405280929190818152602001828054610ed4906121c0565b8015610f215780601f10610ef657610100808354040283529160200191610f21565b820191906000526020600020905b815481529060010190602001808311610f0457829003601f168201915b505050918352505060018201546001600160a01b0316602082015260028201546040820152600382018054606090920191610f5b906121c0565b80601f0160208091040260200160405190810160405280929190818152602001828054610f87906121c0565b8015610fd45780601f10610fa957610100808354040283529160200191610fd4565b820191906000526020600020905b815481529060010190602001808311610fb757829003601f168201915b50505050508152602001600482018054610fed906121c0565b80601f0160208091040260200160405190810160405280929190818152602001828054611019906121c0565b80156110665780601f1061103b57610100808354040283529160200191611066565b820191906000526020600020905b81548152906001019060200180831161104957829003601f168201915b50505050508152602001600582018054806020026020016040519081016040528092919081815260200182805480156110be57602002820191906000526020600020905b8154815260200190600101908083116110aa575b5050509190925250506098546040516302b385fb60e01b8152600481018790529293506001600160a01b0316916302b385fb9150602401600060405180830381865afa158015611112573d6000803e3d6000fd5b505050506040513d6000823e601f3d908101601f1916820160405261113a91908101906125a6565b9150915091565b60975460405163288c314960e21b81523360048201526001600160a01b039091169063a230c52490602401602060405180830381865afa158015611189573d6000803e3d6000fd5b505050506040513d601f19601f820116820180604052508101906111ad919061247d565b6111f35760405162461bcd60e51b81526020600482015260176024820152762737ba10309033b7bb32b93730b731b29036b2b6b132b960491b604482015260640161061f565b6111fb6115bc565b611204826109f5565b61123a5760405162461bcd60e51b8152602060048201526007602482015266115e1c1a5c995960ca1b604482015260640161061f565b61124382611615565b61127d5760405162461bcd60e51b815260206004820152600b60248201526a4e6f7420766f7461626c6560a81b604482015260640161061f565b611288823383611760565b609854604051632b5d4c4760e11b815260048101849052600091829182916001600160a01b0316906356ba988e9060240160a060405180830381865afa1580156112d6573d6000803e3d6000fd5b505050506040513d601f19601f820116820180604052508101906112fa919061270b565b5050925092509250600061130d61138990565b9050808310158061131e5750808210155b80611327575083155b156113385761133886838511611901565b5050505061134560018055565b5050565b611351611447565b609e8190556040518181527f17c6f1d1ce638844b664872f5c6eecb7d150ec0c41187d7f85826a656ee7946f9060200160405180910390a150565b611394611447565b6001600160a01b0381166113f95760405162461bcd60e51b815260206004820152602660248201527f4f776e61626c653a206e6577206f776e657220697320746865207a65726f206160448201526564647265737360d01b606482015260840161061f565b610dc9816114ff565b611345828260405160240161141892919061274b565b60408051601f198184030181529190526020810180516001600160e01b031663319af33360e01b179052611924565b6065546001600160a01b03163314610cbf5760405162461bcd60e51b815260206004820181905260248201527f4f776e61626c653a2063616c6c6572206973206e6f7420746865206f776e6572604482015260640161061f565b600054610100900460ff166114c85760405162461bcd60e51b815260040161061f90612775565b610cbf611945565b600054610100900460ff166114f75760405162461bcd60e51b815260040161061f90612775565b610cbf61196c565b606580546001600160a01b038381166001600160a01b0319831681179093556040519116919082907f8be0079c531659141344cd1fd0a4f28419497f9722a3daafe3b4186f6b6457e090600090a35050565b60985460405163236f4a6360e21b81526004810184905260ff831660248201526001600160a01b0390911690638dbd298c90604401600060405180830381600087803b1580156115a057600080fd5b505af11580156115b4573d6000803e3d6000fd5b505050505050565b60026001540361160e5760405162461bcd60e51b815260206004820152601f60248201527f5265656e7472616e637947756172643a207265656e7472616e742063616c6c00604482015260640161061f565b6002600155565b60985460405163344652d960e11b815260048101839052600091829182916001600160a01b03169063688ca5b290602401608060405180830381865afa158015611663573d6000803e3d6000fd5b505050506040513d601f19601f820116820180604052508101906116879190612431565b5050915091506116bb6040518060400160405280600981526020016873746174653a20257360b81b8152508360ff1661199c565b60ff82161580156116cc5750428111155b1561174057609854604051630c59633960e41b815260048101869052600160248201526001600160a01b039091169063c596339090604401600060405180830381600087803b15801561171e57600080fd5b505af1158015611732573d6000803e3d6000fd5b506001979650505050505050565b60001960ff831601611756575060019392505050565b5060009392505050565b6000609d54600161177191906122f4565b90506000609760009054906101000a90046001600160a01b03166001600160a01b031663d965ea006040518163ffffffff1660e01b8152600401602060405180830381865afa1580156117c8573d6000803e3d6000fd5b505050506040513d601f19601f820116820180604052508101906117ec91906127c0565b6117f8906127106127d9565b60985460975460405163ce6a54ff60e01b81526001600160a01b0388811660048301529394509183169263a26e028b9286928a92169063ce6a54ff90602401602060405180830381865afa158015611854573d6000803e3d6000fd5b505050506040513d601f19601f8201168201806040525081019061187891906127c0565b6040516001600160e01b031960e086901b1681526004810193909352602483019190915260448201526001600160a01b038716606482015260ff8616608482015260a4810184905260c401600060405180830381600087803b1580156118dd57600080fd5b505af11580156118f1573d6000803e3d6000fd5b505050609d929092555050505050565b60008161190f576003611912565b60025b90506109f08382611551565b60018055565b80516a636f6e736f6c652e6c6f67602083016000808483855afa5050505050565b600054610100900460ff1661191e5760405162461bcd60e51b815260040161061f90612775565b600054610100900460ff166119935760405162461bcd60e51b815260040161061f90612775565b610cbf336114ff565b61134582826040516024016119b29291906127fb565b60408051601f198184030181529190526020810180516001600160e01b0316632d839cb360e21b179052611924565b828054828255906000526020600020908101928215611a1c579160200282015b82811115611a1c578251825591602001919060010190611a01565b50611a28929150611a2c565b5090565b5b80821115611a285760008155600101611a2d565b600060208284031215611a5357600080fd5b5035919050565b60005b83811015611a75578181015183820152602001611a5d565b50506000910152565b60008151808452611a96816020860160208601611a5a565b601f01601f19169290920160200192915050565b60a081526000611abd60a0830188611a7e565b6001600160a01b0387166020840152604083018690528281036060840152611ae58186611a7e565b90508281036080840152611af98185611a7e565b98975050505050505050565b602080825282518282018190526000919060409081850190868401855b82811015611b8357815180518552868101518786015285810151868601526060808201516001600160a01b0316908601526080808201519086015260a0808201519086015260c0908101519085015260e09093019290850190600101611b22565b5091979650505050505050565b634e487b7160e01b600052604160045260246000fd5b60405160c0810167ffffffffffffffff81118282101715611bc957611bc9611b90565b60405290565b60405160e0810167ffffffffffffffff81118282101715611bc957611bc9611b90565b604051610180810167ffffffffffffffff81118282101715611bc957611bc9611b90565b604051601f8201601f1916810167ffffffffffffffff81118282101715611c3f57611c3f611b90565b604052919050565b600067ffffffffffffffff821115611c6157611c61611b90565b50601f01601f191660200190565b600082601f830112611c8057600080fd5b8135611c93611c8e82611c47565b611c16565b818152846020838601011115611ca857600080fd5b816020850160208301376000918101602001919091529392505050565b6001600160a01b0381168114610dc957600080fd5b8035611ce581611cc5565b919050565b600067ffffffffffffffff821115611d0457611d04611b90565b5060051b60200190565b600082601f830112611d1f57600080fd5b81356020611d2f611c8e83611cea565b82815260059290921b84018101918181019086841115611d4e57600080fd5b8286015b84811015611d695780358352918301918301611d52565b509695505050505050565b600060208284031215611d8657600080fd5b813567ffffffffffffffff80821115611d9e57600080fd5b9083019060c08286031215611db257600080fd5b611dba611ba6565b823582811115611dc957600080fd5b611dd587828601611c6f565b825250611de460208401611cda565b602082015260408301356040820152606083013582811115611e0557600080fd5b611e1187828601611c6f565b606083015250608083013582811115611e2957600080fd5b611e3587828601611c6f565b60808301525060a083013582811115611e4d57600080fd5b611e5987828601611d0e565b60a08301525095945050505050565b600060208284031215611e7a57600080fd5b8135611e8581611cc5565b9392505050565b8015158114610dc957600080fd5b60008060408385031215611ead57600080fd5b8235611eb881611cc5565b91506020830135611ec881611e8c565b809150509250929050565b60008060408385031215611ee657600080fd5b8235611ef181611cc5565b91506020830135611ec881611cc5565b60008060408385031215611f1457600080fd5b82359150602083013567ffffffffffffffff811115611f3257600080fd5b611f3e85828601611d0e565b9150509250929050565b600081518084526020808501945080840160005b83811015611f7857815187529582019590820190600101611f5c565b509495945050505050565b600081518084526020808501945080840160005b83811015611f785781516001600160a01b031687529582019590820190600101611f97565b6000815160c08452611fd160c0850182611a7e565b9050602060018060a01b0381850151168186015260408401516040860152606084015185830360608701526120068382611a7e565b925050608084015185830360808701526120208382611a7e565b60a086810151888303918901919091528051808352908401945060009250908301905b80831015611d695784518252938301936001929092019190830190612043565b604081528251604082015260208301516060820152604083015160808201526000606084015161209e60a08401826001600160a01b03169052565b5060808401516101808060c08501526120bb6101c0850183611a7e565b915060a086015160e085015260c0860151603f196101008187860301818801526120e58584611f48565b945060e089015192506101208288870301818901526121048685611f83565b9550818a0151935061014091508288870301828901526121248685611f83565b9550808a01519350506101608288870301818901526121438685611f83565b9550818a015193506121598589018560ff169052565b8901518015156101a0890152935061217092505050565b5082810360208401526121838185611fbc565b95945050505050565b60ff81168114610dc957600080fd5b600080604083850312156121ae57600080fd5b823591506020830135611ec88161218c565b600181811c908216806121d457607f821691505b6020821081036121f457634e487b7160e01b600052602260045260246000fd5b50919050565b8051611ce581611cc5565b6000602080838503121561221857600080fd5b825167ffffffffffffffff81111561222f57600080fd5b8301601f8101851361224057600080fd5b805161224e611c8e82611cea565b81815260e0918202830184019184820191908884111561226d57600080fd5b938501935b838510156122e85780858a03121561228a5760008081fd5b612292611bcf565b855181528686015187820152604080870151908201526060808701516122b781611cc5565b908201526080868101519082015260a0808701519082015260c0808701519082015283529384019391850191612272565b50979650505050505050565b808201808211156105c257634e487b7160e01b600052601160045260246000fd5b601f8211156109f057600081815260208120601f850160051c8101602086101561233c5750805b601f850160051c820191505b818110156115b457828155600101612348565b815167ffffffffffffffff81111561237557612375611b90565b6123898161238384546121c0565b84612315565b602080601f8311600181146123be57600084156123a65750858301515b600019600386901b1c1916600185901b1785556115b4565b600085815260208120601f198616915b828110156123ed578886015182559484019460019091019084016123ce565b508582101561240b5787850151600019600388901b60f8161c191681555b5050505050600190811b01905550565b8051611ce58161218c565b8051611ce581611e8c565b6000806000806080858703121561244757600080fd5b84516124528161218c565b809450506020850151925060408501519150606085015161247281611e8c565b939692955090935050565b60006020828403121561248f57600080fd5b8151611e8581611e8c565b600082601f8301126124ab57600080fd5b81516124b9611c8e82611c47565b8181528460208386010111156124ce57600080fd5b6124df826020830160208701611a5a565b949350505050565b600082601f8301126124f857600080fd5b81516020612508611c8e83611cea565b82815260059290921b8401810191818101908684111561252757600080fd5b8286015b84811015611d69578051835291830191830161252b565b600082601f83011261255357600080fd5b81516020612563611c8e83611cea565b82815260059290921b8401810191818101908684111561258257600080fd5b8286015b84811015611d6957805161259981611cc5565b8352918301918301612586565b6000602082840312156125b857600080fd5b815167ffffffffffffffff808211156125d057600080fd5b9083019061018082860312156125e557600080fd5b6125ed611bf2565b825181526020830151602082015260408301516040820152612611606084016121fa565b606082015260808301518281111561262857600080fd5b6126348782860161249a565b60808301525060a083015160a082015260c08301518281111561265657600080fd5b612662878286016124e7565b60c08301525060e08301518281111561267a57600080fd5b61268687828601612542565b60e08301525061010080840151838111156126a057600080fd5b6126ac88828701612542565b82840152505061012080840151838111156126c657600080fd5b6126d288828701612542565b82840152505061014091506126e882840161241b565b8282015261016091506126fc828401612426565b91810191909152949350505050565b600080600080600060a0868803121561272357600080fd5b5050835160208501516040860151606087015160809097015192989197509594509092509050565b60408152600061275e6040830185611a7e565b905060018060a01b03831660208301529392505050565b6020808252602b908201527f496e697469616c697a61626c653a20636f6e7472616374206973206e6f74206960408201526a6e697469616c697a696e6760a81b606082015260800190565b6000602082840312156127d257600080fd5b5051919050565b6000826127f657634e487b7160e01b600052601260045260246000fd5b500490565b60408152600061280e6040830185611a7e565b9050826020830152939250505056fea26469706673582212200c341353fc9e6c42090b53fd59a465e35db3351ffcf1260adf5ba9c360412a3e64736f6c63430008120033",
  "linkReferences": {},
  "deployedLinkReferences": {}
}